S01500005A335F526F757465725F763434332E73333702
S3150800600000100020D9840008E1E80008E5E8000847
S31508006010F3640308E9E80008F1E80008F3640308F4
S31508006020F3640308F3640308F3640308F3640308DA
S31508006030F5E80008F0730408F3640308F36403083A
S31508006040D5890008F3640308F3640308F3640308B6
S31508006050F3640308F3640308F3640308F3640308AA
S31508006060F36403089D770008F3640308D17E0008EB
S31508006070375E0308F3640308F3640308F36403084C
S31508006080F3640308F3640308F3640308F36403087A
S31508006090F364030865920008F3640308F3640308CD
S315080060A0F36403086594000841940008F364030840
S315080060B0F364030829280208B5320208B9D203088E
S315080060C0B5D203085D2A0208C5D20308BDD2030863
S315080060D08D320208C1D20308F5320208613302087C
S315080060E0F3640308F364030801EA0008F364030889
S315080060F0657E0308F3640308F3640308F36403087E
S31508006100F3640308F3640308F3640308F3640308F9
S31508006110F3640308F3640308F3640308F3640308E9
S31508006120F3640308F3640308F3640308F3640308D9
S31508006130F3640308F3640308F3640308F3640308C9
S31508006140F3640308F3640308F36403087783030816
S315080061506D180208F3640308B9CF0308BFCF030814
S31508006160F3640308F3640308F3640308F364030899
S315080061702DE9F04F93B0CDE90A32DDE91C530E93B1
S3150800618053EC102BCDE90801104619468DED060B88
S315080061901E9E2DF00FFE80B1DDE906014FF0FF329D
S315080061A0C54B2DF02FFE40B9DDE906014FF0FF3251
S315080061B06FF480132DF008FE70B1DDE908019DED3E
S315080061C0060B0E9B1E96CDE91C53DDE90A3213B069
S315080061D0BDE8F04F00F088B90022DDE9060100238A
S315080061E02DF0F2FD002800F03381DDE906A303F166
S315080061F0004BCBF30A5016F48063A0F2FF3008BFB9
S3150800620006250F932DF004FB9BA3D3E900232DF05D
S3150800621069FB9BA3D3E900232DF0AEF9CBF3130456
S31508006220894644F07F5180460022A44B504641F4EB
S3150800623040112DF09FF994A3D3E900232DF052FBCA
S3150800624002460B46404649462DF096F92DF0E4FDE8
S3150800625004462DF0DDFA8EA3D3E90023804689464D
S315080062602DF040FB0022964B2DF086F92DF0D4FD3B
S3150800627089A3D3E900230746494640462DF032FB59
S315080062808046384689462DF0C3FA85A3D3E900230C
S315080062902DF028FB02460B46404649462DF06AF982
S315080062A002460B46CDE90C232DF01CFBDDE90C2339
S315080062B080468946104619462DF05EF90022CDE93A
S315080062C01001804B404649462DF036FC00227E4B95
S315080062D02DF052F902460B46404649462DF02CFC55
S315080062E000227A4B2DF048F902460B4640464946AD
S315080062F02DF022FCDDE90C238046894600204FF06C
S3150800630080412DF037F902460B46404649462DF0A6
S3150800631033F902460B46DDE910012DF00DFC07F2B4
S31508006320FF3700226A4B2DF027F900223B052DF096
S31508006330D9FA52465B46804689462DF063FD002809
S3150800634040F08980CDE90C8904F16303C72B34BF7B
S315080063500427052731051BD553A3D3E90023504647
S3150800636059462DF045FD00287FD051A3D3E90023D7
S31508006370504659462DF028FD002876D00027A5421C
S31508006380C6BF2C1B04F1FF3500253C4646F4806643
S315080063900E9B9F422CBF4FF00008A3EB070816F090
S315080063A0020903D0002F18BF4FF000083CB1DDE901
S315080063B00C23504659462DF0BFFB82468B46DDE935
S315080063C00601002200232DF0FFFC10B10BF100435B
S315080063D09B46DDE9080126F40063CDE90183DDE982
S315080063E00A324BEC10AB009500F07EF802465FB31C
S315080063F0DDE9091316F0200F00F10105089E0CBF10
S3150800640065204520B047DDE90801052300220593EC
S315080064100A23002CCDE9023207F1FF374FEAD4737D
S31508006420B8BF64422A46019304970A9B009435F044
S3150800643088FD0246B9F1000F06D00B9BC41A0B9BC8
S315080064401A190E9BA34245D8104613B0BDE8F08F23
S31508006450DDE906ABCDE60022404649461A4B2DF04B
S315080064606BFB013CCDE90C016EE7002D90D00F9B2C
S31508006470002B8DD0013D8BE7FB799F501344D33F0A
S31508006480B3C8608B288AC63F61436F63A787D23F2C
S3150800649071A379094F930A401655B5BBB16B0240F3
S315080064A0EF39FAFE422EE63F2D431CEBE2361A3F41
S315080064B00000000080842E41FFFFEF7F0000F83FB8
S315080064C00000E03F00002C40000024400000184077
S315080064D00000F03F2020DDE90913089DA847013494
S315080064E0ADE700BF000000002DE9F04F5BEC10ABF4
S315080064F097B0CDE90501DDE92057CDE907235046D8
S3150800650052465B465946229E2DF054FC70B9032329
S31508006510CDE902760193B04B0093DDE90501DDE98B
S31508006520072335F02EFC17B0BDE8F08F4FF0FF3289
S315080065306FF48013504659462DF046FC28B10423C3
S31508006540CDE902760193A54BE6E74FF0FF325046B8
S315080065505946A34B2DF056FC68B1A24A06F004032F
S31508006560002B08BF0322A04B1CBF13460422CDE90B
S3150800657002760192D0E7504693A3D3E90023594601
S315080065802DF040FC38B992A3D3E90023504659466A
S315080065902DF01AFC68B1DDE90723DDE905014BECAE
S315080065A010ABCDE92176209517B0BDE8F04FFFF77F
S315080065B0DFBD00220023504659462DF005FC002871
S315080065C000F09A805B465246002000212CF0D2FF4C
S315080065D0012382468B46099316F4806400F08E8068
S315080065E0092D40F28E80002430210EABA5F1090258
S315080065F00134202C03F8011BA5EB040901D09442B1
S31508006600F6D1594650462DF007FC784B054603EB64
S31508006610C90393ED007B8DED0A7B2DF0F9F8024650
S315080066200B46504659462CF0A5FFDDE90A232DF006
S3150800663059F902460B46CDE90C232DF015FC804688
S315080066402DF0D6F802460B46DDE90C012CF092FF38
S3150800665002460B46CDE90C230022654B2DF0D2FBF2
S31508006660002851D008F1010840462DF0C1F802462D
S315080066700B46DDE90A012DF0B1FB10B14FF0000819
S315080066800135B9F1000F50D128462DF0C1F8024660
S315080066900B46504659462CF06DFF0022544B804657
S315080066A089462DF091FB30B1002240464946504BB1
S315080066B02DF0A8FB10B1E80700D501350A210EAB6D
S315080066C01A19202C0AD095FBF1F001FB105530352C
S315080066D002F8015B013405460028F2D106F00302F0
S315080066E0012A57D1002F55D0099A12B916F00C0F66
S315080066F000D0013F302245E009906DE74FF00609CA
S315080067007FE7A94600247CE70022DDE90C01384B27
S315080067102DF05AFB0028B4D1B8F1000F02D018F0BA
S31508006720010FAED008F10108ABE70A210EAB2344EE
S31508006730202C0ED0B8FBF1F001FB1082B8F1090F3E
S3150800674002F1300209F1FF3904F1010403F8012BC3
S3150800675011D83021A1440EAA202CAFD0A14504F1AE
S3150800676001030AD11C4609F158030DEB03092E2330
S3150800677009F8203CA2E78046DAE7A1541C46EBE775
S315080067801A550134A74205D9202CF9D1CDE902764C
S315080067900194C1E6202CF9D0099A3AB12D2104F1C9
S315080067A058026A4402F8201C0134EFE7710704D541
S315080067B004F158022B216A44F4E73207E6D504F1BE
S315080067C0580220216A44EDE70000000065CDCD415E
S315080067D00000000065CDCDC193D3040897D3040803
S315080067E0FFFFEF7F8AD304088FD30408A0D30408D9
S315080067F00000E03F0000000070B58EB02C2200219A
S3150800680003A839F04DFC64234FF002320893CDE912
S3150800681005230B2301218DF83430514B8DF81010C8
S315080068201B88D80700F1958008461CF0D1FE0A227D
S315080068304C4B4D491A704FF428734C48ADF812303A
S315080068401CF04CFE4A4C206020B94FF4117149489F
S3150800685007F044FF0521206836F0FDF820B14FF413
S315080068601571444807F03AFF206801F03DFB424B9A
S315080068702068196836F065F90C251DF0C1FD6843D6
S3150800688009901DF0BDFD68430DEB050107902068D2
S3150800689016F01CFF20B140F26921364807F01EFFAA
S315080068A000223649206836F0D5F920B140F26B212E
S315080068B0304807F013FF40F20353314D314E2B8019
S315080068C0052396F90000AB707F2801D11DF04AF820
S315080068D03378EB701DF094FD00EB80008000A880F3
S315080068E01DF08EFD0023C0004FF0FF31E880AB603D
S315080068F04FF0FF3018A3D3E900231DF091F8224981
S31508006900206836F07FFD206802A936F07DF920B1AF
S315080069104FF42971174807F0E1FE042220680DEBB1
S31508006920020136F0FCF8042804D040F2A7211148E9
S3150800693007F0D4FE01A9012036F01EFE08F014F86F
S3150800694001201DF0FDFF30F040F91EF023F81CF081
S31508006950C3FE0EB070BD00BF0A0020FF4203000050
S315080069605E4D002070560020F9350208D01300202D
S3150800697070460020BC1205084C1200207E560020E6
S31508006980644600208D180020993702080000000090
S315080069902DE9F04F9DB082460C464FF000080F9245
S315080069A000224FF0000918920A46179211782B29EF
S315080069B03BD02CD80D2926D8082926D800292FD02F
S315080069C000220D92179D2A78302A7DD16A7802F026
S315080069D0DF02582A6ED1029317A90D9B50468A4AA0
S315080069E0019318AB009319AB2EF02AF810F00F0696
S315080069F004463ED0062E1AD10F9B0BB101351D60F9
S31508006A0042464B4640E02029DAD10132CDE72D290E
S31508006A10D6D101210D91511C17915278002AD1D156
S31508006A200F9B002BECD01C60EAE70021F2E7189ACE
S31508006A303AB135211AA839F044FD189950462EF076
S31508006A404DFA013E199A042E06D8DFE806F022030D
S31508006A502B2E2200DDE91A89E10548BF49F00049D5
S31508006A6029F000431B0D1B051BB92DF075FF2223CA
S31508006A7003600F9B13B1179B0F9A13600D9B002B96
S31508006A80BED0424609F1004343EC102B1DB0BDE8C9
S31508006A90F08FDDE91A8302F2334223F4801343EAC6
S31508006AA00259D9E7DFF86891D6E76FF000494FF049
S31508006AB0FF38D1E7179B5A1C17925B78302BF9D011
S31508006AC0002BD6D0012300E00023002704930A22D6
S31508006AD0179BCDE905770A9317980578A5F1300332
S31508006AE0D9B2092924D90122484939F0E1FA0028FE
S31508006AF02DD000202A46059D83460346652A01D0E7
S31508006B00452A13D11DB9049A024389D00025179C3A
S31508006B10621C179262782B2A6CD02D2A70D04FF0FF
S31508006B20000CA2F13001092978D91794002696E0BD
S31508006B300599013008291790D7BF069902FB073730
S31508006B4002FB01330693059B01330593C4E7179BA4
S31508006B505A1C17925A78059BA3B383461D46A2F181
S31508006B603003092B12D90123C8E7179B01305A1C99
S31508006B7017925A78302AF8D0A2F13103082B00F27E
S31508006B80EF8483460020179B05460A93303A00F1A6
S31508006B90010311D09B4400EB050C2B460A219C45AA
S31508006BA012D12B180135082B054419DC06990A233E
S31508006BB003FB012306930023179A1846511C1791C5
S31508006BC05278CCE70598D5E7082B03F1010303DCD7
S31508006BD0069E4E430696E2E7102BD8BF4F43DEE7E4
S31508006BE00F2BDCBF0A2303FB0727E4E74FF0000B54
S31508006BF0012388E74FF0000CA21C1792A27890E7B1
S31508006C004FF0010CF8E700BFD815050811A80408CD
S31508006C100000F07F179A511C17915278302AF9D044
S31508006C20A2F13101082981D8303A0792179A0C92B5
S31508006C30179A561C17965278A2F1300EBEF1090F14
S31508006C4038D90C99761A082E44F61F6603DC07997C
S31508006C508E42A8BF0E46BCF1000F00D07642002D2A
S31508006C604FD1049908437FF404AF002B7FF4D8AEC4
S31508006C70692A29D026DC492A26D04E2A7FF4D0AEA6
S31508006C809B4917A839F0C0FA00283FF4C9AE179BEC
S31508006C901B78282B2FD11AAA964917A839F0C8FAB3
S31508006CA0052828D11B9BDDF8688043F0FF4949F485
S31508006CB0E009DEE6079E0A2101FB0621A1F1300262
S31508006CC00792B5E76E2AD9E78B4917A839F09CFAD7
S31508006CD000283FF4A5AE179B17A88849013B1793D0
S31508006CE039F092FA10B9179B01331793DFF81C9203
S31508006CF04FF00008BDE6824800F04EFC59EC108BB8
S31508006D00B7E6A6EB0B0306982C460C93059B002BBF
S31508006D1008BF2B46102D0593A8BF10242CF068FD3C
S31508006D20092D8046894613DC0C9B002B3FF4A1AE47
S31508006D300C9B78DD162B45DC7249424601EBC301F4
S31508006D404B46D1E900012CF0CDFD8046894690E6F8
S31508006D506C4B03EBC40353E912232CF0C3FD8046A6
S31508006D60894638462CF044FD02460B4640464946BD
S31508006D702CF002FC0F2D80468946D5DD2C1B0C9B7A
S31508006D801C44002C25DC00F0A280644214F00F029B
S31508006D900AD05C4B4046494603EBC203D3E90023BD
S31508006DA02CF0CAFE80468946241100F090801F2CDC
S31508006DB040F3B28022234FF000084FF00009CAF8CA
S31508006DC0003056E6C5F125030C9A934219DA2C1BB6
S31508006DD0144414F00F030AD04A49424601EBC30192
S31508006DE04B46D1E900012CF07DFD8046894634F0FA
S31508006DF00F046CD0B4F59A7F41DD2223CAF800301F
S31508006E0074E7C5F10F053F4C42464B4604EBC501F6
S31508006E10D1E900012CF066FD0C9B5D1B04EBC50453
S31508006E20D4E900238FE71633A8DBABEB0602354B14
S31508006E304046494603EBC203D3E900232CF07CFE07
S31508006E4083E7002306932223DFF8C0904FF000085B
S31508006E50CAF80030189950462EF040F80699504660
S31508006E602EF03CF8059950462EF038F81099504601
S31508006E702EF034F8079950462EF030F8F9E500233D
S31508006E80241140464946204F0493012C22DC0BB1BD
S31508006E9080468946049BA9F154791B49424601EB71
S31508006EA0C3014B46D1E900012CF01CFD174B0A46DD
S31508006EB080460B4016498B429FD8A1F580118B421C
S31508006EC086BFDFF850904FF0FF3802F1547900235F
S31508006ED004934CE0E20704D5D7E900232CF002FD21
S31508006EE00123049A6410083701320492CDE700BFE3
S31508006EF0A80C0408C4150508BA150508BD15050823
S31508006F008F58040838180508101805080000F07F7F
S31508006F100000A07CFFFFEF7F14F0100340464946AF
S31508006F20AA4F18BF6A2304930023E20704D5D7E9BA
S31508006F3000232CF0D7FC0123641007F10807F4D1CD
S31508006F400BB180468946049B43B1C9F30A524946A8
S31508006F50C2F16B03002B4EDC6A2304930022002344
S31508006F60404649462CF026FF00287FF423AF069BAF
S31508006F705046059A00932B460A992EF019F8109058
S31508006F8000283FF43AAF0C9BABEB060B002BB4BFC3
S31508006F905B46002311930C9B23EAE37315930023A6
S31508006FA007930593109B504659682DF057FF069096
S31508006FB000283FF448AF109B0C301A6903F10C0106
S31508006FC00232920039F093F81AAA19A9504649ECE8
S31508006FD0108BCDE90A892EF0C7FA189000283FF4DD
S31508006FE032AF012150462EF02DF803460590D0B950
S31508006FF00023059327E71F2B0EDD342B4FF00008DF
S31508007000DBBF4FF0FF33C2F14B024FF05C79934080
S31508007010D8BF03EA01099FE74FF0FF3202FA03F3EC
S3150800702003EA080898E7199C1A9A002CA9BF119B2D
S31508007030159BE718159EB8BF1E1B049BB8BF119F6A
S31508007040E41A634B1444C2F13602013C9C4280F2B6
S31508007050B0801B1B01251F2BA2EB0302CDBFC4F179
S315080070607F449D40002404F57F04C2BF04F57B4499
S31508007070E23405FA04F407EB020B049B16445F4559
S315080070801E443B46A8BF5B46B342A8BF3346002B07
S31508007090C2BFABEB030BF61AFF1A119B002B16DDCA
S315080070A01A46059950462EF08DF8059000289FD06F
S315080070B00146189A50462DF0DBFF0E9000283FF443
S315080070C0C2AE189950462DF009FF0E9B1893BBF1D6
S315080070D0000F71DC0C9B002B08DD159A50460699AB
S315080070E02EF070F8069000283FF4ABAE002E08DDAF
S315080070F03246069950462EF0BFF8069000283FF40F
S31508007100A0AE002F08DD3A46059950462EF0B4F891
S31508007110059000283FF497AE069A504618992EF027
S3150800712017F9079000283FF48EAEC36805990E93A9
S315080071300023C36039F078F900284BDA0E9B53EA2E
S31508007140080340F0BD80C9F31303002B40F0B88054
S3150800715029F000431B0D1B05B3F1D66F40F2B08032
S31508007160079B5B6923B9079B1B69012B40F3A88022
S315080071700122079950462EF07FF80599079039F0B5
S3150800718053F9002840F39C8029F00043049A1B0D0C
S315080071901B05002A7AD0B3F1D66F6ED8B3F15C7F9F
S315080071A046D84FF000084FF000092223CAF80030ED
S315080071B050E6002401255EE75A46189950462EF0F7
S315080071C05BF81890002885D13DE600BFF015050844
S315080071D002FCFFFFCB4640F0A4800E9AC9F31303C6
S315080071E0002A41D09C4A934259D1049B42467BB916
S315080071F0B8F1FF3F40F08A80984B99453FF423AE9B
S31508007200974BDDF8108009EA030303F5801921E698
S31508007210934B09EA0303B3F1D46F17D918F10101A7
S315080072201CD18E4A91453FF40EAE03F5801980466F
S315080072308C4B4046494600222CF054FB884B80462E
S3150800724089460B40002B7FF405AEAEE71E0D4FF0C6
S31508007250FF31C6F16B06B1408845E6D0002C5ED0FA
S3150800726014EA0B0FE4D01EE0002B4AD1B8F1000F48
S315080072708AD064B314EA0B0F2BE0A3F580134FF002
S31508007280FF386FEA13596FEA0959D1E7A3F5801356
S315080072904FF0FF386FEA13596FEA0959DAE59CB1DE
S315080072A014EA090F0CD040464946049A38F04FFEB6
S315080072B0DDE90A0153EC102B2CF05EF9804689466D
S315080072C0049B002BB4D1C5E515EA080FEAE718EACE
S315080072D0050FF5D0049A4046494638F038FEDDE9F0
S315080072E00A0153EC102B2CF045F900220023044622
S315080072F00D462CF05FFD00287FF453AFA046A94643
S31508007300DEE7002CB6D115EA080FE2E724B114EA45
S31508007310090F3FF49FADC6E718EA050FF9E72A42B9
S31508007320A0E70599079839F09AF800224FF08043AC
S3150800733055EC104B204629462CF050FD00286DD000
S315080073400E9B002B78D1B8F1000F56D1C9F3130361
S31508007350002B59D10022444B204629462CF034FDF7
S31508007360002858D1204629460022404B2CF0BAFA6C
S3150800737004460D4605F1004308940993384B0BEA79
S3150800738003031493149A3A4B9A42DDE9086740F0CE
S31508007390A880ABF1547949EC108B2EF071F8DDE931
S315080073A0082351EC100B2CF09DFA42464B462CF064
S315080073B0E3F80B462A4980462E4A194091425BD982
S315080073C00B9A264B9A4203D10A9B01333FF43BADF5
S315080073D0DFF888904FF0FF38189950462DF07EFD5B
S315080073E0069950462DF07AFD059950462DF076FD02
S315080073F0079950462DF072FDD4E5B8F1010F03D177
S31508007400B9F1000F3FF4CDAE0024174D9FED0E7B6A
S315080074108DED087BB2E70024144DABE7134B2046ED
S31508007420294600222CF05EFA0E9B04460D46002BD8
S31508007430A0D0CDE90845A1E79FED057B55EC174B94
S315080074408DED087B9AE700BF000000000000F0BF42
S31508007450000000000000F03FFFFF0F00FFFFEF7F76
S315080074600000F07F000050390000F03F0000E03FC8
S315080074700000E07FFFFF9F7C03F15479049B4E4692
S31508007480002BA9D129F00043149A1B0D1B059A421B
S31508007490A2D1204629462EF0C5FBC9F313062CF0C7
S315080074A0F3F90B4602462946204646EA08062CF01A
S315080074B061F80E9B04460D461E434BD02EA3D3E916
S315080074C000232CF081FC00287FF4C4AC2046294612
S315080074D02BA3D3E900232CF095FC00283FF47CAFBE
S315080074E0B8E4049B13B3149BB3F1D46F1ED820469B
S315080074F0294625A3D3E900232CF070FC90B1294630
S3150800750020462CF0B1FC012838BF01202CF070F978
S315080075100E9B04460D46D3B901F10043129013930E
S31508007520DDE9126707F1D663149A9F1A9DED0A0BD7
S315080075302DF0A6FF3046394653EC102B2CF0D2F925
S31508007540DDE90A232CF018F88046894696E7CDE946
S315080075501245E5E70EA3D3E900232CF035FCBCE77A
S31508007560652A3FF443AB452A3FF440AB0123FFF7B6
S3150800757078BB00BFAFF300809535A094FFFFDF3FCF
S3150800758035E5AF350000E03F0000C0FFFFFFDF41F3
S315080075909535A094FFFFCF3F9FED010B704700BFC5
S315080075A0000000000000F87F0348044B834202D025
S315080075B0034B03B1184770476C1A00206C1A002059
S315080075C000000000064B0749C91A891048BF013157
S315080075D0491003D0044B0BB101481847704700BF48
S315080075E06C1A00206C1A00200000000010B5064C2A
S315080075F0237843B9FFF7D8FF044B13B10448AFF318
S3150800760000800123237010BDE04D0020000000001B
S315080076107019050808B5054B1BB105490548AFF3B0
S315080076200080BDE80840FFF7CDBF00BF000000009E
S31508007630F81C002070190508A3F5803A704700BFAA
S31508007640174B002B08BF134B9D46FFF7F5FF00218C
S315080076508B460F461348144A121A38F021FD0E4B72
S31508007660002B00D098470D4B002B00D098470020E0
S31508007670002104000D000D48002802D00C48AFF385
S3150800768000802DF06FF9200029002EF02DFB2CF03C
S31508007690F3FD00BF00000800000000000000000025
S315080076A0001000206C1A0020E85600200000000098
S315080076B00000000038B50425094C0A48256713F070
S315080076C0A5FF094AFF21D36C08482B43D3642567D5
S315080076D00BF012F8064B1968BDE838401EF0A8BF33
S315080076E000F00350200A040800C00550141D0020AD
S315080076F0581D002005220B4B10B51A6046F2A81239
S31508007700094B0A4C1A60FF2320461A4608490AF014
S31508007710B9FFFF2120460AF0EFFFBDE8104000211F
S315080077201EF086BF5C1D0020581D0020141D002079
S31508007730B576000830B5154D89B001AC0FCD0FC42C
S3150800774095E8070084E807004FF00212104B114C29
S31508007750C3F8382702F58032C3F8302714222046AA
S31508007760C3F8202701A903F07FFE204601A903F0EC
S315080077707BFE4FF40072084BC3F880211A604FF461
S315080077808062C3F880211A6009B030BD340A040843
S3150800779000C0035000C0055000E100E0444B2DE94D
S315080077A0F04F5B6A434CDBB22768DFF81C91262B47
S315080077B09BB009F8073006D0312F04D80137276067
S315080077C01BB0BDE8F08F00264822314608A808AD50
S315080077D02660A84638F064FCDFF8D4A023689F42E8
S315080077E062D26F460026284638F09AFB51EC100BF9
S315080077F02CF05AFB0136082E47F8040B05F109054B
S31508007800F1D1DFED2D7A9DED017A27EE277A2B4B04
S31508007810022283ED027A9DED027A27EE277A83ED1E
S31508007820037A9DED037A27EE277A83ED047A9DED98
S31508007830047A27EE277A83ED067A9DED057A27EEF8
S31508007840277A83ED077A9DED067A67EE277A1A621C
S315080078501B4AC3ED057A1068928818609A80194AFF
S3150800786013680133632B136001DC00F0E7F800238B
S315080078702360A5E750460BF8011B2FF039F923685A
S3150800788001332360236819F80310202901D09F4289
S31508007890F0D20A2150462FF02BF92368013601331E
S315080078A0236008F1090899E7082E9AD0C346E9E744
S315080078B000C00550601D00200000C842341D00208D
S315080078C02C0A0408101D0020E14D002008B507F019
S315080078D0D7F8FF2104480AF00FFFBDE808404FF427
S315080078E07A711EF0A5BE00BF641D002010B50446BF
S315080078F070B9FF2307491A4607480AF0C3FEFF2155
S3150800790005480AF0F9FE2146BDE810401EF090BE73
S3150800791010BD00BFCD780008641D002007B5012002
S315080079200BF086FE01210090034B0420034A0BF05E
S31508007930C7F903B05DF804FBA00E0408500A040852
S315080079401FB531F081FE02281F4C1FD110F0B2F985
S315080079500123247803719C420DD107F019F81423EA
S315080079600022C0B20193009008212046CDE90222E8
S31508007970164B10F021F932F00AFA01210090144B47
S315080079800420144A0BF09CF904B010BD2378012B8F
S3150800799015D131F079FA104B104A01210190009265
S315080079A004200F4A0BF08CF9FF210E480AF0A4FEBA
S315080079B000211EF03DFE01220B4B1A70E4E70CF085
S315080079C0F3FD0A4BE8E700BF134E0020820A0408BD
S315080079D0870A0408A30A0408730A0408A00E040800
S315080079E0980A0408C81D0020144E00207D0A0408C1
S315080079F008B50F4B1B78ABB131F026FE02280CD028
S31508007A000C482EF07BFEFF210B480AF075FEBDE8F8
S31508007A1008404FF47A611EF00BBE0648BDE80840E0
S31508007A202EF066BE31F010FE0228F6D008BD00BF63
S31508007A30144E002064580408C81D002070B5202084
S31508007A408EB02CF02BFC044605202CF027FC206079
S31508007A5006202CF023FC606005202CF01FFCA0609B
S31508007A6005202CF01BFCE06005202CF017FC20619B
S31508007A7005202CF013FC606105202CF00FFCA0619A
S31508007A8005202CF00BFC1D4E06ADE0610FCE0FC590
S31508007A9096E80F0085E80F00204619492EF030F9C0
S31508007AA00323ADF80E3000238DF81130ADF81230EF
S31508007AB08DF81630134B06AD1B78043C8DF8103044
S31508007AC000F11C06002154F8042F55F8043B08461B
S31508007AD000929BB203AA31F0AFFBB442F2D10A4B33
S31508007AE00A4819680131196013F090FDFF2108480A
S31508007AF00AF002FE1EF030FE0EB070BDC00A040881
S31508007B00341D002070300020841D0020AE0A0408B1
S31508007B10881D002008B5FF230F491A460F480AF0AA
S31508007B20B1FDFF230E491A460E480AF0ABFDFF23A6
S31508007B300D491A460D480AF0A5FDFF230C491A46B9
S31508007B400C480AF09FFD11F0FFFC4FF611730380F5
S31508007B500123837008BD00BF41790008E81D002095
S31508007B60F1790008C81D00201D790008A81D00200D
S31508007B703D7A0008881D0020912802D104482EF07D
S31508007B80BABD902802D102482EF0B2BD704700BF98
S31508007B906458040813B504460C4B01900093012160
S31508007BA004200B4B0B4A0BF08BF824B100220A4B2E
S31508007BB01A7002B010BDFF2108480AF09DFD40F674
S31508007BC0B83102B0BDE810401EF032BD17CD04082A
S31508007BD07D0A0408980A0408144E0020A81D0020EF
S31508007BE0002307B50193094B094A00930121094B64
S31508007BF004200BF065F8FF2107480AF07DFD40F6E2
S31508007C00B83103B05DF804EB1EF012BD17CD0408B9
S31508007C10980A0408730A0408A81D002007B501215C
S31508007C20064B04200093064A064B01910BF048F8D0
S31508007C300022054B1A7003B05DF804FB17CD040843
S31508007C40980A0408730A0408144E002007B5064B60
S31508007C50009001210420054A0BF032F80022044B5B
S31508007C601A7003B05DF804FB17CD0408500A04081F
S31508007C70144E0020104A10B51168814205D12EF025
S31508007C80F4FC08B90D4B187010BD52688242FBD13E
S31508007C902EF0EBFC04460028F6D10122074B0848D3
S31508007CA01A7013F0B3FCFF2106480AF025FD214699
S31508007CB0BDE810401EF0BCBCB8100020134E0020D2
S31508007CC0B70A0408E81D002030B50A4C0A4B22689A
S31508007CD00A4D1A600A4B85B02B600A4B019305F0D2
S31508007CE081FE2B68029001A9206803932FF031FDCD
S31508007CF005B030BDA8100020D42C0020D02C0020C0
S31508007D009C1000209D570408014B18682FF035BDBC
S31508007D10A810002038B505F065FE0446064D2B6808
S31508007D20D3F8B00205F052FE28682FF039FD204638
S31508007D30BDE8384005F04ABEA810002010B5274C0B
S31508007D4002F07AFB02F008FD236F23F0070343F0E5
S31508007D50030323672EF0C2FD214B00209B6ADB013B
S31508007D605EBF4FF480321F4B9A62D4F8203123F05D
S31508007D70070343F00203C4F82031D4F8283123F06E
S31508007D80070343F00203C4F82831D4F8403123F03E
S31508007D90030343F00203C4F84031D4F8603123F0FA
S31508007DA0030343F00203C4F86031D4F8403223F0E9
S31508007DB0030343F00203C4F84032D4F8003223F038
S31508007DC0070343F00203C4F80032D4F8083223F05C
S31508007DD0070343F00203C4F8083210BD00800050C0
S31508007DE00040005A0060005A30B5264D9DB008ACD8
S31508007DF00FCD0FC495E80F0084E80F002622002156
S31508007E000DF1460038F04CF91F4B4FF470251093CE
S31508007E1001238DF84530562312930523159306231F
S31508007E2017930923199308231B9303230E22002172
S31508007E300DF112008DF8443038F032F9134B02A9CF
S31508007E40CDE902530B238DF810300C238DF8113031
S31508007E500F4B08AA0593202306930E4B0E48009352
S31508007E6010AB05F03BFE04469DF81E304FF4E1309A
S31508007E70002B0CBF032100212EF02CFB20461DB041
S31508007E8030BD00BF2C5804080000015B3C00015BB4
S31508007E90154E0020C420002034210020022905D8D0
S31508007EA0034B1B68186808B1436A1847704700BF38
S31508007EB0AC10002008B50449044807F0C5F8BDE829
S31508007EC00840FFF791BF00BFB010002058210020DE
S31508007ED0014830F03DB800BF34210020014B1A6A32
S31508007EE0186810473421002008B515F01DFC00223B
S31508007EF0014B1A7008BD00BF354E002001482EF010
S31508007F00AFBB00BF4C58040801482EF0EEBB00BFBB
S31508007F106458040818B1034B1860002070472520E0
S31508007F20704700BF6021002010B5054C0549206840
S31508007F3001F0C6FC2068BDE81040FFF7EBBF00BFA4
S31508007F40E0110020BC100020014B1868704700BFE4
S31508007F50602100201FB5084903460868097902AA66
S31508007F6002908DF80C10009205210022012009F0DC
S31508007F7025FD05B05DF804FB7C5804081FB50A4AC0
S31508007F800346106802A9029090889279ADF80C0011
S31508007F908DF80E20009144224FF44071012009F01B
S31508007FA00DFD05B05DF804FB825804081FB50849A5
S31508007FB003460868097902AA02908DF80C10009207
S31508007FC005214222012009F0F9FC05B05DF804FB01
S31508007FD08A5804081FB5084903460868097902AA99
S31508007FE002908DF80C10009205214022012009F01C
S31508007FF0E5FC05B05DF804FB7C5804081FB5074A84
S315080080000346039203AA00924FF4407141220120CD
S3150800801009F0D4FC05B05DF804FB00BF010221217C
S315080080201FB5094903460868097902AA02908DF81E
S315080080300C1000924FF440714022012009F0BEFC5A
S3150800804005B05DF804FB00BF905804081FB5094940
S3150800805003460868097902AA02908DF80C10009266
S315080080604FF440714322012009F0A8FC05B05DF8E1
S3150800807004FB00BF905804081FB509490346086861
S31508008080097902AA02908DF80C1000924FF44071FB
S315080080904222012009F092FC05B05DF804FB00BFFE
S315080080A0845804081FB5064A0346039203AA009299
S315080080B001220821104609F081FC05B05DF804FB91
S315080080C0010121211FB5074A0346039203AA00921C
S315080080D04FF440710822012009F070FC05B05DF8E4
S315080080E004FB00BF121221211FB5094A0346106876
S315080080F092880290ADF80C2002AA00924FF44071C3
S315080081004B22012009F05AFC05B05DF804FB00BFBC
S31508008110965804081FB5074A0346039203AA009215
S3150800812001224FF44071104609F048FC05B05DF88D
S3150800813004FB00BF010121211FB5074A034603922C
S3150800814003AA00924FF440710422012009F036FC7C
S3150800815005B05DF804FB00BF010121211FB50949DF
S3150800816003460868097902AA02908DF80C10009255
S315080081704FF440710722012009F020FC05B05DF894
S3150800818004FB00BF975804081FB5074A0346039225
S3150800819003AA00924FF440710A22012009F00EFC4E
S315080081A005B05DF804FB00BF020221211FB509498D
S315080081B003460868097902AA02908DF80C10009205
S315080081C04FF440710022012009F0F8FB05B05DF874
S315080081D004FB00BF9D5804081FB5094903460868F3
S315080081E0097902AA02908DF80C1000924FF440719A
S315080081F00622012009F0E2FB05B05DF804FB00BF8A
S315080082009D5804081FB5064A0346039203AA00921E
S3150800821008210022012009F0D1FB05B05DF804FB16
S31508008220010221211FB5074A0346039203AA0092B9
S315080082304FF440710322012009F0C0FB05B05DF838
S3150800824004FB00BF010221211FB50949034608881E
S31508008250897803AAADF80C008DF80E100092062155
S315080082604222012009F0AAFB05B05DF804FB00BF15
S31508008270A35804081FB503AA009205220749034616
S3150800828008888978ADF80C008DF80E100120114683
S3150800829009F094FB05B05DF804FB00BFA758040875
S315080082A01FB5084903460868097902AA02908DF89D
S315080082B00C10009208210222012009F07FFB05B06C
S315080082C05DF804FB9D5804081FB50949034608686C
S315080082D0097902AA02908DF80C1000924FF44071A9
S315080082E00922012009F06AFB05B05DF804FB00BF0E
S315080082F0AB5804081FB50A4A0346106802A902903B
S3150800830090889279ADF80C008DF80E2000914C22D9
S315080083104FF44071012009F051FB05B05DF804FBEC
S31508008320B15804081FB5094903460868097902AA1D
S3150800833002908DF80C1000924FF440710222012031
S3150800834009F03CFB05B05DF804FB00BFB95804080A
S315080083501FB5094903460868097902AA02908DF8EB
S315080083600C1000924FF440710522012009F026FBFB
S3150800837005B05DF804FB00BFB95804081FB50949E4
S3150800838003460888897803AAADF80C008DF80E1004
S31508008390009208210622012009F010FB05B05DF8BD
S315080083A004FB00BFBF5804080A4601492DF024BF44
S315080083B0E97304080A4601492DF01EBFE473040850
S315080083C00A4601492DF018BFDF7304080A46014919
S315080083D02DF012BFD87304080A4601492DF00CBFC8
S315080083E0D17304080A4601492DF006BFCA7304086A
S315080083F00A4601492DF000BFC37304080A4601491D
S315080084002DF0FABEBC7304080A4601492DF0F4BEE5
S31508008410B57304080A4601492DF0EEBEA873040890
S315080084200A4601492DF0E8BE9B7304080A4601492D
S315080084302DF0E2BE987304080A4601492DF0DCBE09
S31508008440917304080A4601492DF0D6BE88730408BC
S315080084500A4601492DF0D0BE7F73040813B50820DB
S315080084602EF02CF9FFF770FD0123124C8DF8003021
S3150800847090F836302060DBB900682EF019FB2368C7
S3150800848020F07F4093F8353040EA837001906846C3
S315080084902DF0E4FF02238DF80030074B6846019360
S315080084A02DF0DCFF082002B0BDE810402EF011B90F
S315080084B00020E4E7C4210020006A18100348044A93
S315080084C00449121A92102EF015B800BF5423050855
S315080084D054230508E856002008B500F02FF8FFF7E2
S315080084E0EDFF124B12498B4212D30020114B124951
S315080084F08B4218D3FFF7A4F8186850F8224058683A
S3150800850040F82240013298688242F5D30C33EAE7F4
S315080085100022F8E71C6844F8220001325C68A2428F
S31508008520F8D30833E4E70022F8E700BF781905080E
S315080085308419050884190508841905084FF480412B
S315080085404FF0FF30114B124A10B59A60D3F88820C5
S3150800855042F47002C3F888200E4A91660E4901F566
S31508008560005210660D4850660220C3F8D000BFF3CB
S315080085704F8FBFF36F8F01244FF440330848C0F87C
S315080085808041D36004600B6110BD00BF00ED00E0C0
S31508008590006000080090005000800044F7FF370094
S315080085A000E100E0014B1868704700BF0412002084
S315080085B0084B1B6F03F00703022B04D0032B05D0CF
S315080085C0012B05D0FEE7044B18687047034BFBE701
S315080085D00348704700800050041200200C12002047
S315080085E0002D310108B5FFF7E3FF054B1B6FC3F3F9
S315080085F003330133B0FBF3F0024B186008BD00BF2C
S3150800860000800050001200200048704700B4C404DF
S31508008610014B1868704700BF0C120020054B186004
S31508008620054B1B6F03F00703032B01D1FFF7DABFD6
S31508008630704700BF0C1200200080005000487047A9
S31508008640002D31014FF0B4439868C0F304400C285C
S315080086500AD8DFE800F00B090909090907211909F1
S315080086601B1D1F000F487047002070479B6803F0CA
S315080086704073B3F1807F11D0B3F1007F10D00A4A5E
S31508008680002B08BF104670470848704708487047CF
S3150800869008487047084870470848704708487047B0
S315080086A008487047405DC60000093D00C0EA210140
S315080086B080BA8C010048E801005A62020024F400DE
S315080086C080841E0040420F00014B1868704700BFA7
S315080086D008120020BFF34F8F0549064BCA6802F4FB
S315080086E0E0621343CB60BFF34F8F00BFFDE700BFC7
S315080086F000ED00E00400FA054FF000639B6A03F101
S315080087007842B2F5C04F03D21968064A914203D09F
S315080087100023037083607047012202709A689B6980
S315080087204260F7E707B0CD5E73B54F4B04461A783B
S315080087301AB102221A7002B070BDCDE900220028D3
S31508008740F9D001261E702EF0EDF8484D484B1860FA
S3150800875017F05AFF2B785BB900F096FE40B94548EA
S315080087600823454A4549006814F0BCF900B92E703B
S31508008770434B5A6E62619B6E424AA3614FF4804333
S315080087809366414B5968E16140499960196E2160C9
S31508008790596E6160D3F87011A160196CE160596C6B
S315080087A021613B49086C1864496C5964012151667A
S315080087B01B6E9C0441D5374AD368D807FCD4364B80
S315080087C01A68531C3ED04FF480139340334A1366FD
S315080087D04FF400730426314C266623662DF0B9FE45
S315080087E001300DD02DF0B5FE40F20113984207D0A6
S315080087F04FF4005323664FF480432366C4F8706130
S315080088000823264C684623664FF4805323664FF0A8
S31508008810006323664FF4002301A963662DF07DFEED
S31508008820009B2366019B63662B78002B83D0124B33
S315080088301A6822665B6863667DE7194AD368D907B2
S31508008840FCD4BCE7174B1B78002BC1D14FF4007240
S315080088500C4B5A6603F5A6235B68002BB8D14FF478
S3150800886080120E4B1A66B3E7374E0020384E0020AA
S31508008870E821002038120020EC21002000710800B1
S3150800888000800050009000500080004455CEAC0097
S3150800889000C000540000044010120020009000445C
S315080088A000000450364E002070B5224D04462E783E
S315080088B0012E02D001232B7070BD0028FCD02DF0AC
S315080088C048FE01300BD02DF044FE40F201139842C9
S315080088D005D0194B194A5E66D368DE07FCD42268B0
S315080088E0174B1A6662685A66A268C3F87021E2686E
S315080088F01A6422695A64E269D00744BF00229A6062
S31508008900104B1A68013207D10F4A127822B90F495B
S315080089104968C90748BF1A6062690D4B5A66A26959
S315080089209A6617F079FE0B4B18682EF001F80023AB
S31508008930C1E700BF374E0020009000400000044009
S315080089400080004410120020364E002000C005505A
S3150800895000800050E821002070B54FF00064A36A3B
S3150800896003F17842B2F5C04F24D21A68134B9A42E3
S3150800897020D1134E337813F0FD0F02D00024204681
S3150800898070BD1048FFF7D0FE01254FF480330E4A1C
S315080089900E49C2F88051CB6015600D4A1361A36A6F
S315080089A0DB69984704460748FFF77EFF002CE6D1A7
S315080089B03570E3E74FF48174E1E700BF07B0CD5E99
S315080089C0364E0020C821002000E100E000A0004447
S315080089D00090004413B5204B1B7803B9FEE700232B
S315080089E01E4CCDE900336A4608231D49206814F059
S315080089F079F8F0B91B4AD2F84031D2F840211F2B3A
S31508008A004FF0010310D9203A9340019A1A43019274
S31508008A1008236A461249206814F01AF84FF00053E2
S31508008A20114A1A60FFF756FE9340009A1A430092BD
S31508008A30EEE70E4B9842F1D10A4AD2F84031D2F805
S31508008A4040211F2B4FF0010385BF203A93409340E6
S31508008A50019398BF0093DBE7374E002038120020B9
S31508008A6000710800008000440B020FF00BE000F0D4
S31508008A7070B5D0B1C9B10E4E431E013913F8014F76
S31508008A802046325D02F00302012A11F8012F08BFC1
S31508008A9004F12000B55C05F00305012D08BF20325E
S31508008AA0801A01D1002CE9D170BD0120FCE700BF76
S31508008AB0191605080346054A0549106803448B42FA
S31508008AC08CBF4FF0FF301360704700BF14120020B0
S31508008AD00000042010B40A6808461378022B10D048
S31508008AE014213023147913FB041307495B58517971
S31508008AF0CB40DB4303F0010313705DF8044BFFF72B
S31508008B00B9B85DF8044B704730C00350F7B5046830
S31508008B10012105463A2001F04DFA00230122617928
S31508008B20207902F047FA14223023217913FB012316
S31508008B301D4A99586379D940C943A37901F00101BF
S31508008B40022B217017D100F0E3FB184A2B466179F6
S31508008B50207900F007FCFF28024660790ED12A46E4
S31508008B60124900F03BFC0123024661792079CDE9E0
S31508008B70003302F0C5F9002003B0F0BD01262779BD
S31508008B80002301460096384602F07CFA2A46074931
S31508008B90607900F023FC002361790246207900936E
S31508008BA001963346E5E700BF30C00350D58A000872
S31508008BB002681378022B24D014213023107913FB72
S31508008BC0001310495B585179CB40917903F00103A2
S31508008BD0012912D1508843EA40034FF6E07063F04A
S31508008BE03F039BB2834202D11170538070474FF600
S31508008BF0DF718B42F9D10021F6E711B983F0010341
S31508008C001370704730C0035008B501213A2001F0AF
S31508008C10D1F9012304220321002002F0CBF9002018
S31508008C202DF0E8FE0122354B3549C3F844244FF4AC
S31508008C300022A3F550335A66324BD3F8FC20D201F2
S31508008C4046D4D1F8803023F0030343F00203C1F879
S31508008C5080304FF4607001F0C7F92A4B00F5D52033
S31508008C60D3F8F02000F2FC4042F00102C3F8F020ED
S31508008C70D3F8FC2042F08072C3F8FC20224AA3F500
S31508008C805D431A60214B0222B0FBF3F0204B0138FA
S31508008C901861C3F8F0204FF48072C3F804234FF02C
S31508008CA060431C4A0020C3F8B02F1B4AC3F8802E25
S31508008CB0D3F8002E42F48072C3F8002EFF2283F800
S31508008CC02020D3F8002E22F48072C3F8002E08BDA7
S31508008CD0D3F8FC2022F08072C3F8FC20D1F880205B
S31508008CE022F0030242F00202C1F88020D3F8FC20E9
S31508008CF042F08072C3F8FC20ABE700BF00D00350F7
S31508008D000080005000ED00E0FF030040F8590D0018
S31508008D10000004E055CEACC5090001004FF06043E1
S31508008D20D3F8802E30B5D20715D501240B4D8440D3
S31508008D30D5F8FC2042F08072C5F8FC20D3F8002E46
S31508008D402243C3F8002E53F82020002AF0D003F857
S31508008D502010002030BD1120FCE700BF00ED00E028
S31508008D6010B5012243780178847830209A40054B63
S31508008D7000FB01331CB903F501531A6010BD03F556
S31508008D808253FAE700C0035010B5012243780178F0
S31508008D90847830209A40054B00FB01331CB903F553
S31508008DA082531A6010BD03F50153FAE700C0035059
S31508008DB00122437801789A4030235943014B5A508F
S31508008DC0704700BF40F00350102130230246007858
S31508008DD013FB001305495B585178CB4003F001009B
S31508008DE093780BB980F00100704700BF30C003507C
S31508008DF02DE9F04F9A46564B85B01B7806460F4626
S31508008E001546DDF83C909DF844B0DDF85080002BFF
S31508008E1000F09780072A00F296800E9B002B00F040
S31508008E209280B9F1000F00F08E80129BB3F5006FA7
S31508008E3000F38980012803D1109B002B00F0838062
S31508008E40444B03EB05131B7B002B7ED0424C1022B0
S31508008E500021684637F024F904EB45141022A7BB15
S31508008E603946204637F01CF943F210036380BBF1FC
S31508008E70000F03D1E37843F00303E370364A0E9BF1
S31508008E8002EB451CCCE90193129B6901581E9DF81B
S31508008E904C30C0F30A0003F003039B0643EA001EA6
S31508008EA053582E48012E00EA03004EEA0003CDF877
S31508008EB000A0535017D0B8F1000F2ED19CF80230FD
S31508008EC068F304138CF8023027E00021204637F0B7
S31508008ED0E7F84FF444736380BBF1000FCED1E37813
S31508008EE043F03003C9E713230CF1100ECCF80C300D
S31508008EF09CE80F008EE80F006FF00301DCF81C20D9
S31508008F00109B61F39F02012FCCF81C20CCF814307B
S31508008F1003D1CCF81890CCF8043000270D4A290163
S31508008F2002EB051342F80180159A28465A606946ED
S31508008F3022469F605E7302F021F9384605B0BDE807
S31508008F40F08F0748FAE70748F8E70748F6E700BF4B
S31508008F50394E0020F4220020F42100200F80FFF370
S31508008F60028000F0018000F0078000F038B5124B4F
S31508008F7005461B78DBB1E0B12DF0D4FC0F4A00237F
S31508008F801146147B54B92B6001251A0101EB031312
S31508008F901D738C502DF0CCFC204638BD0133082BB0
S31508008FA002F11002EDD12DF0C3FC0548F5E705489E
S31508008FB0F3E70548F1E700BF394E0020F422002008
S31508008FC0048000F0028000F0018000F038B52DF032
S31508008FD0A9FC002305460B4A147B6CB90133082B00
S31508008FE002F11002F8D102F06BF8074B28461C7004
S31508008FF02DF09EFC204603E028462DF099FC0348F8
S3150800900038BD00BFF4220020394E0020058000F04C
S315080090100D4B10B51B78044693B1072812D82DF0CE
S3150800902081FC0A4B03EB04131A7B2AB100241C7338
S315080090302DF07EFC204610BD2DF07AFC0448FAE798
S315080090400448F8E70448F6E7394E0020F4220020E1
S31508009050068000F0028000F0018000F0154B13B581
S315080090601868002301908DF804302DF05BFC124B34
S315080090701C7824B12DF05CFC104802B010BD01220A
S315080090801A702DF055FC0E4B01A81C731C7783F83B
S315080090902C4083F83C4083F84C4083F85C4083F8C6
S315080090A06C4083F87C4008238DF8073002F034F8CA
S315080090B02046E2E740740408394E0020038000F099
S315080090C0F42200200A4A08B512785AB107280BD8A4
S315080090D0084A02EB00131B7B43B1002102F00EF88D
S315080090E0002008BD0448FCE70448FAE70448F8E706
S315080090F0394E0020F4220020028000F0018000F0A2
S31508009100078000F00A4A08B512785AB107280BD822
S31508009110084A02EB00131B7B43B1012101F0EEFF65
S31508009120002008BD0448FCE70448FAE70448F8E7C5
S31508009130394E0020F4220020028000F0018000F061
S31508009140078000F00A4A08B5127852B107280AD8EB
S31508009150084A02EB00131B7B3BB102F05BF80020C8
S3150800916008BD0548FCE70548FAE70548F8E700BFE3
S31508009170394E0020F4220020028000F0018000F021
S31508009180078000F00C4B1B787BB107280FD871B10C
S315080091900A4B03EB00131B7B5BB1094BDB6AC3402D
S315080091A003F0010300200B70704706487047064815
S315080091B070470648704700BF394E0020F422002049
S315080091C000000450028000F0018000F0078000F0E3
S315080091D00D4B1B7893B1072812D889B10B4B03EBBB
S315080091E000131B7B73B10A4B1A6D0123834013428C
S315080091F014BF0123002300200B70704705487047F1
S315080092000548704705487047394E0020F42200206B
S3150800921000000450028000F0018000F0078000F092
S315080092200B4A10B512780C4662B107280CD859B10A
S31508009230084A02EB00131B7B43B101F0FDFF2070C7
S31508009240002010BD0448FCE70448FAE70448F8E79C
S31508009250394E0020F4220020028000F0018000F040
S31508009260078000F0184B2DE9F0411F6D5B6D1F401C
S3150800927000D5FEE701260025144CDFF85880374252
S3150800928018D02368C8F85060A3B1A16828460131F0
S315080092906268A1609847637B012B0BD150B90C4BD0
S315080092A003EB45131A7B60F341021A731A7F60F3C6
S315080092B041021A770135082D4FEA460604F11004D3
S315080092C0DDD1BDE8F08100BF00000450F422002083
S315080092D0F42100200020045070B5044601250B4EE9
S315080092E004B970BD94FAA4F0B0FA80F005FA00F358
S315080092F006EB001224EA03045368002BF0D0117B16
S3150800930011B191689847EBE79847E9E7742300207D
S3150800931008B5192001F054FA28B14FF00072074B2E
S31508009320C3F880211A601A2001F04AFA28B14FF0D2
S315080093308062024BC3F880211A6008BD00E100E094
S3150800934038B505460C462DF0EDFA0022044B03EB22
S3150800935005135C601A73BDE838402DF0E9BA00BF02
S3150800936074230020F8B504460D4617461E462DF010
S31508009370D9FA1CB9052D1AD0FF2421E0012C05D1F4
S31508009380012D21D0032DF7D1042410E0022C07D19A
S31508009390052D1BD0072D1BD0002DEDD1062406E088
S315080093A0032CE9D1022D15D0052DE5D10A240A4949
S315080093B004F1100301EB03110123C1E901760B73D4
S315080093C02DF0B6FA2046F8BD0324F0E70724EEE7A9
S315080093D00824ECE70924EAE774230020F8B50546D3
S315080093E00E4617462DF09EFA134B2C46D3F8242426
S315080093F005F0FC0122FA05F3DB0712D50023013339
S31508009400DBB2042B04D1FF242DF092FA2046F8BDD6
S31508009410EC1804F003040C4422FA04FC1CF0010FB7
S31508009420EDD1FF2CF0D00122044B03EB0413C3E962
S3150800943001671A73E8E700BF00C0035074230020D1
S31508009440074BD3F82404D3F8202403F5005310401F
S3150800945000F0553020F05020C3F82004FFF73CBF39
S3150800946000C00350074BD3F82404D3F8202403F58F
S315080094700053104000F0AA3020F0A020C3F82004C2
S31508009480FFF72ABF00C00350024B1968024B186841
S3150800949013F004BA181200203812002070B5940090
S315080094A0224605460E4637F097FA431C0AD058B9A5
S315080094B022463146284636F0C9FD0028034808BF2B
S315080094C0002070BD0248FCE70248FAE710E000F009
S315080094D021E000F024E000F010B5044637F080FAE9
S315080094E0431C10D088B901F035FF234620F003004D
S315080094F02044984201D1002010BD53F8042B0132B4
S31508009500F7D00348F8E70348F6E70348F4E700BF4F
S315080095100EE000F021E000F024E000F008B52DF0A0
S31508009520F2F9014B186008BD642C0020014B18683D
S315080095302DF0EDB9642C002038B141B1013AB2F5ED
S31508009540006F044838BF0020704703487047014839
S31508009550704700BF037000F0027000F0104930B584
S315080095600A78104B2AB9C3E90022C3E9022201226C
S315080095700A700C4900220C4654F8045B854208D050
S315080095800132042AF8D1002251F8044B1CB943F8D9
S315080095902200002030BD0132042AF5D10248F9E73D
S315080095A03A4E0020682C0020027000F010B50446E0
S315080095B0FFF754FD002104F10800FFF7D7FC014628
S315080095C008B1044810BD04F10C00FFF7CFFC0028D1
S315080095D0F8D0F6E70E7000F090F83530022B0DD172
S315080095E014223023417F13FB0123054A9B5890F828
S315080095F0212023FA02F000F001007047002070478E
S3150800960030C00350002313B51D4A52F8044B94F892
S31508009610211081420ED00133042BF6D102B010BDC1
S315080096200028FBD19DF80730002BF7D0A068FFF77C
S3150800963049FDF3E794F83530022BEFD12046FFF7C2
S31508009640CBFF637E2076022BE8D194F8323003F004
S31508009650FF02002BE2D1A0680DF107018DF8072063
S31508009660FFF790FD237E1BB194F83330002BD7D03B
S315080096700023A06884F83330FFF744FDCEE700BF27
S31508009680682C002010B590F83630044663B90422D9
S3150800969003685A619A699207FCD523790C4AB9334B
S315080096A05B011021995010BD022BFCD10068836C18
S315080096B0DB074CBF052106212DF07DF9237941F200
S315080096C094425B0103F1A04303F57033E9E700BF59
S315080096D000C003502DE9F04104461746FFF72CFF5A
S315080096E088460646E8B9152001F078F80546E26A84
S315080096F093889BB213B194F83230ABB194F83630F4
S31508009700BBB923689D6915F0020527D0012384F8A3
S3150800971034304744B845206844D183699B06FCD554
S3150800972045B33046BDE8F081002DE1D0FFF79AFD3C
S31508009730DDE7022B12D123689D6C15F002050DD0CA
S31508009740012384F8343047444745206831D142F232
S315080097502002836C32EA0303FBD1E1E72046FFF7D8
S3150800976091FF012394F8365084F83430002DD0D078
S31508009770022D1CD094F8363003B3022BD1D12068C1
S31508009780816C11F0010118BF09212DF014F942F27C
S315080097909442102123795B0103F1A04303F570334A
S315080097A09950BEE718F8011B2DF0A2F9B2E700257B
S315080097B0C9E718F8011B2DF003F9C5E7102123792D
S315080097C0044A03F239135B01D150082223685A610F
S315080097D0A7E700BF00C0035010B5044680B190F853
S315080097E032302BB9FFF7F8FE10B9A068FFF76AFC0C
S315080097F0002094F832300133DBB284F8323010BDE1
S315080098000048FCE7027000F010B50446A0B190F8D5
S3150800981032309BB190F83230012B05D1FFF7DCFED0
S3150800982010B9A068FFF76EFC002094F83230013BAF
S31508009830DBB284F8323010BD0148FCE70148FAE78C
S31508009840027000F0057000F037B590F83550044600
S31508009850022D1DD1012290F82230457E817F9A4043
S315080098603020164B3DB900FB013303F501531A604E
S31508009870002003B030BD012D04D100FB013303F5F0
S315080098808253F4E7247E00FB0133002CF7D1ECE782
S31508009890012DEDD1037E73B911238DF80730FFF73B
S315080098A09BFF2A4620460DF10701FFF713FF2046C6
S315080098B0FFF7AAFFDCE71323EFE700BF00C003505A
S315080098C02DE9F04304466F4F89B001AE0D460FCF20
S315080098D00FC697E8070086E80700002C00F0D0803E
S315080098E025B9694E304609B0BDE8F08360220021EB
S315080098F0204636F0D5FB2046FFF730FE0646002800
S31508009900F0D14FF001092B7D84F835302B6884F8A7
S31508009910360023602A7BC4F85C9022715B4A934226
S31508009920DFD1292363624FF4802359498046C4E96D
S315080099300413D5E90723A26210805080908084F82A
S315080099403000E3621880588098806B6884F831008C
S315080099500393EB8984F83300ADF814302B8A494613
S31508009960ADF81230AB7C3A208DF81030EB7C494FBD
S315080099708DF8163005238DF8113000F01BFB49468B
S31508009980606A00F017FB286801A98DF8046001F0E9
S315080099906BFD14212B7B03F139025201B9502E7A43
S315080099A0A87A07EB431346EA0042C3F83827697AD0
S315080099B0EA7A41EA024CC3F830C7E676E0772177BF
S315080099C084F820206B7D49466377AB7D204684F872
S315080099D02130EB7DA3772B7E84F822302CF0EDFE28
S315080099E0064600287FF47EAF2CF09CFF2B7D81462F
S315080099F0032B33D102212A7B02F1B9035B01F9500B
S31508009A00042107EB421741F22C722B6803F58053A9
S31508009A10D965297EEB7D43EA0143BB50AA7D6B7D60
S31508009A2043EA024341F22872BB504FF0FF322868DE
S31508009A3000F500539A642B7D032B0CBF05210421E6
S31508009A402DF047F84FF440622B6820465A61FFF71D
S31508009A50ADFD064648462CF06BFF43E7022BE4D1E2
S31508009A6094F821000C49FFF76BFCFFF751FC4FF403
S31508009A7000732046238384F81A80FFF7E5FED4E7AF
S31508009A80064E2FE768740408037000F000C00550FE
S31508009A900200040000C0035005960008027000F09A
S31508009AA00B4B10B51B7883B100230120094951F8E7
S31508009AB0042B32B192F85C40022C02BF0120D0651B
S31508009AC020460133042BF2D110BD0120FCE700BF6C
S31508009AD03A4E0020682C0020044BD3F88420D20686
S31508009AE0FBD4D3F88400C0F38110704700400050BF
S31508009AF038B5104B0546D3F880300C4603F00303FF
S31508009B00022B0BD0032B0DD0012B0FD1FEF750FDE6
S31508009B100E2305B1286004B1236038BDFEF792FD17
S31508009B200723F6E7FEF73EFD0623F2E7002318466D
S31508009B30EFE700BF0080005038B5184B0546D3F84C
S31508009B4020010C4600F00700062823D8DFE800F0BD
S31508009B50040A0E16121A1E00012305B1286004B164
S31508009B60236038BDFEF71EFD0523F6E7FEF750FD18
S31508009B700323F2E7FEF766FD0723EEE7FEF75EFD31
S31508009B800223EAE7FEF70EFD0623E6E7FEF740FDA9
S31508009B900423E2E700231846DFE700BF00800050F1
S31508009BA038B5174B0546D3F828310C4603F007039A
S31508009BB0013B052B20D8DFE803F003131B0F0B1717
S31508009BC0FEF7F0FC052305B1286004B1236038BD13
S31508009BD0FEF7E8FC0623F6E7FEF734FD0723F2E76F
S31508009BE0FEF716FD0323EEE7FEF712FD0423EAE768
S31508009BF0FEF724FD0223E6E700231846E3E700BF45
S31508009C000080005073B50D460021114B0191D3F821
S31508009C108041064604F00304022C13D0032C0CD012
S31508009C20012C13D101A8FFF787FF10240EB1019B61
S31508009C30336005B12C6002B070BDFEF703FD072442
S31508009C400190F3E7FEF7FAFC0190EFE70C46EDE723
S31508009C5000800050002337B50193164B0546D3F80C
S31508009C6020320C4603F00703042B21D8DFE803F063
S31508009C70030B11161B0001230DB1019A2A6004B1CA
S31508009C80236003B030BD002101A8FFF789FF122326
S31508009C90F2E7FEF7D7FC07230190EDE72CF037FC37
S31508009CA00A230190E8E7FEF70FFD09230190E3E791
S31508009CB00023E1E70080005038B5104B0546D3F87D
S31508009CC040310C4603F00303022B0BD0032B0DD0B7
S31508009CD0012B0FD12CF01BFC0A2305B1286004B117
S31508009CE0236038BDFEF7F0FC0923F6E72CF012FCDA
S31508009CF00C23F2E701230020EFE700BF00800050A5
S31508009D00002337B50193164B0546D3F860320C4647
S31508009D1003F00703013B032B1FD8DFE803F0020E0D
S31508009D201914002101A8FFF707FF10230DB1019AA6
S31508009D302A6004B1236003B030BD002101A8FFF7F3
S31508009D40BBFF1123F2E7FEF77DFC07230190EDE741
S31508009D50FEF774FC02230190E8E70023E6E700BF5C
S31508009D6000800050002337B50193164B0546D3F8FB
S31508009D7094320C4603F00703013B032B1FD8DFE898
S31508009D8003F0020E1914002101A8FFF7D5FE1023CF
S31508009D900DB1019A2A6004B1236003B030BD0021D9
S31508009DA001A8FFF789FF1123F2E7FEF74BFC07230B
S31508009DB00190EDE7FEF742FC02230190E8E7002355
S31508009DC0E6E700BF0080005038B5144B0546D3F8C7
S31508009DD000020C4600F0070004281BD8DFE800F054
S31508009DE003090D111500012305B1286004B123608C
S31508009DF038BD2CF08CFB0A23F6E7FEF765FC092331
S31508009E00F2E72CF087FB0C23EEE7FEF7EBFB0F23BC
S31508009E10800AE9E700231846E6E700BF00800050FD
S31508009E2038B5144B0546D3F808020C4600F007006F
S31508009E3004281BD8DFE800F003090D1115000123DB
S31508009E4005B1286004B1236038BD2CF060FB0A23F5
S31508009E50F6E7FEF739FC0923F2E72CF05BFB0C2347
S31508009E60EEE7FEF7BFFB0F23800AE9E70023184653
S31508009E70E6E700BF0080005038B5104B0546D3F81A
S31508009E8040320C4603F00303022B0BD0032B0DD0F4
S31508009E90012B0FD12CF03BFB0A2305B1286004B136
S31508009EA0236038BDFEF710FC0923F6E72CF032FBD9
S31508009EB00C23F2E701230020EFE700BF00800050E3
S31508009EC038B5104B0546D3F860310C4603F003034A
S31508009ED0022B0BD0032B0DD0012B0FD12CF017FB27
S31508009EE00A2305B1286004B1236038BDFEF7ECFBF0
S31508009EF00923F6E72CF00EFB0C23F2E701230020DA
S31508009F00EFE700BF00800050B0F5207F1FD009D8CA
S31508009F10B0F5007F15D003D868B1B0F5C07F0AD078
S31508009F2000200CE0B0F5607FFAD10B4BD3F8800027
S31508009F30C0F3011003E0084B186FC0F3033001307B
S31508009F407047054BD3F89000C0F30460F7E7024B5F
S31508009F50186FC0F38020F2E70080005002464FF4E5
S31508009F608030104B10B598660020FFF7CDFF5043A0
S31508009F7041F671320C4BDC69DA635A6804F48034B2
S31508009F8022F4401259B90949884294BF0020012099
S31508009F90000502435A600CB10022DA6310BD044979
S31508009FA0F2E700BF0090005000000350005A62021A
S31508009FB0002D3101430905D0012B0CD0022B084B8B
S31508009FC018BF002300F01F0039B103F580530122A2
S31508009FD082401A607047034BF4E703F50053F6E72F
S31508009FE068800050648000501FB500218028044610
S31508009FF0CDE9001100F0A58035D85E2846D85E2840
S3150800A00044D8DFE800F0A243434343434343434372
S3150800A0104343434343434343434343434343434302
S3150800A020434343434343A2AAA2AABABABABABAAAAC
S3150800A030C44DDA714DAAAAAA434343434343434353
S3150800A040AAAAAA79E4AA434343434343434343435F
S3150800A050434343BAA2A2A2DF4D4DE9885EBF4343FC
S3150800A06043434399A200B0F5B06F00F090802DD815
S3150800A070B0F5207F71D00CD8B0F5C07F65D0B0F5AB
S3150800A080007F65D0B0F5807F00F08680009804B028
S3150800A09010BDB0F5607F6BD00DD8B0F5407FF5D117
S3150800A0A0FEF7A0FA02464FF42070FFF72DFFB2FB29
S3150800A0B0F0F252085AE0B0F5806F5ED0B0F5A06FA6
S3150800A0C0E4D100216846FFF7C5FDDFE7B0F5106F5C
S3150800A0D078D016D8B0F5E06F79D00AD8B0F5C06F49
S3150800A0E06BD0B0F5D06FD1D100216846FFF76CFE72
S3150800A0F0CCE7B0F5F06FC9D100216846FFF7E0FE5E
S3150800A100C4E7B0F5406F3DD013D8B0F5206F63D0E3
S3150800A110B0F5286FBAD10021324B0391D3F87032CB
S3150800A12003F00303012B02D103A8FFF7C5FD039B28
S3150800A1303CE0B0F5486FA9D100216846FFF712FE4A
S3150800A140A4E7FEF735FA0090A0E7FEF74BFAFAE720
S3150800A150FEF72EFA0246204604E0FEF743FA0246C8
S3150800A1604FF42070FFF7D0FEB2FBF0F200928DE7B5
S3150800A17001A8FFF7BDFC019AEDE700216846FFF745
S3150800A180DBFC83E700216846FFF70AFD7EE700212E
S3150800A1906846FFF737FD79E74FF0E02302911B6920
S3150800A1A05B0705D5FEF71EFA0290029B00936DE742
S3150800A1B003A902A8FFF780FDF7E700216846FFF725
S3150800A1C07BFD63E700216846FFF72AFE5EE700216C
S3150800A1D06846FFF751FE59E700216846FFF790FDEC
S3150800A1E054E700BF0080005008B58020FFF7FCFE4A
S3150800A1F0034B98429EBF4FF48032024B1A6708BD44
S3150800A200005A620200A000501FB503460020B3F5AD
S3150800A210807F019000F0C18064D85D2B55D84C2B07
S3150800A22007D82D2B48D8232B2CD8019805B05DF8D4
S3150800A23004FB4D3B102BF8D801A252F823F000BFBF
S3150800A24091A300082BA200082BA200082BA2000845
S3150800A25047A300082BA200082BA2000815A4000893
S3150800A26065A300080BA300080BA400082BA200088E
S3150800A2702BA200082BA200082BA200082BA200087C
S3150800A2801FA40008243B092BCFD801A252F823F0BB
S3150800A29091A3000891A3000891A3000891A30008C0
S3150800A2A091A300082BA2000887A300082BA2000888
S3150800A2B027A30008C7A300083D2B7FD03E2BB4D1A7
S3150800A2C0002001A9FFF7D8FDAFE7802BADD1594B88
S3150800A2D01B6F03F00703013B032BA6D8DFE803F047
S3150800A2E0514E858DB3F5F06F68D021D8B3F5B06FB0
S3150800A2F049D00FD8B3F5607F00F0838095D3B3F5C6
S3150800A300806F45D0B3F5A06F8FD1002001A9FFF764
S3150800A310A1FC8AE7B3F5D06F55D0B3F5E06FCFD07F
S3150800A320B3F5C06F81D1002001A9FFF7C5FC7CE712
S3150800A330B3F5206F6ED00BD8B3F5086F48D0B3F5D8
S3150800A340106F7FF472AF002001A9FFF769FD6CE773
S3150800A350B3F5406F59D0B3F5486F60D0B3F5286FA1
S3150800A3607FF463AF334BD3F8703203F00303012B4A
S3150800A3705AD0022B0CBF1523002300E005230193B6
S3150800A38053E70223FBE7002001A9FFF73BFC4CE754
S3150800A390002001A9FFF7D0FB47E74FF0E023029022
S3150800A3A01B695B0705D5FEF71DF90D230393039B70
S3150800A3B0E5E703A902A8FFF77FFCF8E7002001A953
S3150800A3C0FFF77EFD31E7002001A9FFF7FDFC2CE72A
S3150800A3D0184BD3F8003103F00303022B07D0032BE5
S3150800A3E009D0012B0BD1FEF713F90323C7E7FEF7B4
S3150800A3F06BF90923C3E72CF088F80823BFE7012384
S3150800A400BDE701A9FFF774FB0FE7002001A9FFF7D5
S3150800A410C7FB0AE7002001A9FFF772FC05E7002041
S3150800A42001A9FFF79FFC00E7002103A8FFF744FCFA
S3150800A4301123A4E7008000504FF48012034B5A669C
S3150800A4404FF48032024B9A62704700BF009000506A
S3150800A4500050005A38B504468020FFF7D5FE032879
S3150800A46000F083804FF48012524B4FF0A0615A6679
S3150800A47045F60E02504BC3F88020504A91624FF4BD
S3150800A480803102F5805291629A6DD203FCD4996D9F
S3150800A49011F08041FBD1D4E90002120542EA0062BC
S3150800A4A0E07B0243207B42EA0042607B42EA0032BC
S3150800A4B0A07B42EA80121A619869D4E9045212060E
S3150800A4C042EA856200F000400243A07EE57E024330
S3150800A4D0207E42EA0042607E42EA00229A611A6AB7
S3150800A4E0E06922F00F0242EA8502354D00283DD187
S3150800A4F01A6294F82420996A94F82000D200294018
S3150800A50042EA40120A4394F8211042EA011242F440
S3150800A51080329A622B49284A936D31EA0303FBD1AC
S3150800A5204FF08071254881621369A56823F470038A
S3150800A53043EA055313614FF00043836194F82230D0
S3150800A5400BB9214B996294F823303BB94FF480320A
S3150800A5501D4B9A62184A936D5B00FCD494F825301B
S3150800A5601BB1154B194AC3F8802038BD024342F087
S3150800A570080202281A6208D119614FF40852996133
S3150800A58013484FF47F412CF087F90B4994F8223091
S3150800A5908A6A94F820001B062A4043EA40131343AC
S3150800A5A094F8242043EAC20394F8232043EA02439A
S3150800A5B08B62D3E7009000500040005A0050005AC2
S3150800A5C0C7FFFEFE030001000060005AF1A7FFFF67
S3150800A5D03440005A014B93F9000070474118002097
S3150800A5E0F0B5D0E901434FF400061A4A41780578D8
S3150800A5F056664FF4D156022702F5B8325662164E01
S3150800A6004F2977604FF0010728BF4F2106F580567E
S3150800A61077601669F603FCD441EA052151611B01EE
S3150800A620417B43EA04230B43017B43EA41039360DE
S3150800A630C37B817B1B0143EA4113417C0B43017CAD
S3150800A64043EA41035360837C13B16FF4D1535362D9
S3150800A650F0BD00BF0090005000100250014B18805A
S3150800A660704700BFFE170020014B1880704700BFD7
S3150800A670FC170020B0F5207F10B50C465DD008D831
S3150800A680B0F5007F4ED003D8C0B1B0F5C07F15D065
S3150800A69010BDB0F5607FFBD12C4B4C1ED3F8FC20C7
S3150800A6A02B4912F0807F4FEA041427D1D1F8803065
S3150800A6B023F030032343C1F88030E9E72CF0FBF898
S3150800A6C02CF007F94FF48031224B214A1967136F92
S3150800A6D0013C23F4704343EA04331367FDF782FF12
S3150800A6E00446FFF7F9F9C0F1020120462CF0EBF811
S3150800A6F000F042F8BDE81040FFF776BDD3F8FC201D
S3150800A70022F08072C3F8FC20D1F8802022F03002B3
S3150800A7102243C1F88020D3F8FC2042F08072C3F8A7
S3150800A720FC20B5E70A4A4C1ED2F8903023F0F853BD
S3150800A73043EA0463C2F89030AAE7054A4C1E136F31
S3150800A74023F4806343EA84231367A1E700ED00E05E
S3150800A750008000500090005008B50121022000F04A
S3150800A760C1F82CF0A8F82CF0B4F84FF48032014B5D
S3150800A7701A6708BD0090005008B54FF4C070FFF77F
S3150800A78033FCBDE808400449884294BF01210221F0
S3150800A7904FF42070FFF76EBF80F0FA020028ABBFB7
S3150800A7A000F16040054B00F5614000F00F00ACBFBA
S3150800A7B090F80003185C0009704700BF14ED00E02C
S3150800A7C0054B420953F8223000F01F0023FA00F027
S3150800A7D0C04300F00100704700E100E0014608B5FB
S3150800A7E0EFF31083DB0702D50122104608BDFFF7F9
S3150800A7F0E7FF02460028F7D10846FFF7CFFF0146D4
S3150800A800EFF3118313B1B0EB131FEDD2074B5B685F
S3150800A810C3F30803002BE8D0103B58B2FFF7BEFF7E
S3150800A82088428CBF00220122DFE700BF00ED00E06E
S3150800A830024A536B0342FCD1704700BF00400950DF
S3150800A840044A4178536F23F4407343EA012353675C
S3150800A850704700BF004000500C4A10B51369044603
S3150800A86043F00403136104F04BFE2CF064F8084B24
S3150800A870084AC3F8202430BF2CF05EF804F07AFEAC
S3150800A8801CB9BDE81040FDF7ADBE10BD00ED00E0F7
S3150800A89000E003500000FF0F0A4A10B5136904468A
S3150800A8A043F004031361084B084AC3F8202404F054
S3150800A8B027FE30BF04F05EFE1CB9BDE81040FDF768
S3150800A8C091BE10BD00ED00E000E003500000FF0F50
S3150800A8D0034A0179D36E23F030030B43D3667047DE
S3150800A8E000400050F8B504461C4BD3F88420D10626
S3150800A8F0FBD4D3F88430C3F381139C422CD0FDF7E4
S3150800A90057FE012C064602D121462BF0DCFF2BF020
S3150800A910FAFF4FF00072124B07465A6620462CF093
S3150800A9200EF84FF480630D4D621E93402B676B6ED5
S3150800A9309A0103D4D5F884309B060AD538462BF0FD
S3150800A940E6FF022C08D13046BDE8F84000212BF07E
S3150800A950BABFD5F88430EAE7F8BD00BF004000501A
S3150800A9600060005010B50C4608B9FDF721FE074BEC
S3150800A97021461B783BB1064B984204D80120BDE816
S3150800A9801040FFF7AFBF0220F9E700BF3B4E00209B
S3150800A990005A62020278034B012100201A70FFF761
S3150800A9A0E1BF00BF3B4E00204FF0004238B5244BB4
S3150800A9B0244C5A664AF6CD33656C014605F0010506
S3150800A9C0236428BB0120FFF733FF6368DB0715D52F
S3150800A9D01D4B586008461D4B226BD2070CD4984273
S3150800A9E008D1072415B1174B194A1A6432F095F89D
S3150800A9F0204638BD0130EFE79842F2D00024F1E74F
S3150800AA000132236B13F0080305D08A42F8D1E8E730
S3150800AA1000220E49F5E78A42E3D020210A4A9162CC
S3150800AA200121A2F5805251600649084A886A8006C3
S3150800AA3003D49342D5D00133F8E79342DDE700BF4C
S3150800AA4000900050004009500060095040420F0035
S3150800AA503254FFFF4FF0004238B5164B01465A668E
S3150800AA604AF6CD33144C154A656C236443780B209B
S3150800AA705B0043F00103D363FFF7DAFE63688A7865
S3150800AA8023F4F87343EA02136360CA784B7943EAFE
S3150800AA900223A3600A798B7943EA022323610878A3
S3150800AAA0FFF782FFEB0744BF054B236432F035F806
S3150800AAB0012038BD00900050004009500040005069
S3150800AAC03254FFFF4FF00042124B70B55D6E03F52E
S3150800AAD080535A664AF6CD3304460F4980204E6C99
S3150800AAE00B64FFF7A5FE0B6A23F00F030F2C94BF28
S3150800AAF0234343F00F030B62F30744BF074B0B6472
S3150800AB00002DA2BF4FF00042054B5A6632F005F8F9
S3150800AB1070BD00BF00800050004009503254FFFF4E
S3150800AB2000A000504FF00042104B70B55D6E03F563
S3150800AB3080535A664AF6CD3304460D4980204E6C3A
S3150800AB400B64FFF775FE0B6A23F4F85343EA0423F4
S3150800AB500B62F30744BF074B0B64002DA2BF4FF0EF
S3150800AB600042054B5A6631F0D8FF70BD0080005090
S3150800AB70004009503254FFFF00A0005010B52BF0DA
S3150800AB80E3FE042300F5805100F500520B611361C2
S3150800AB900B6113610B6113610B611361202341F291
S3150800ABA0020103610023C360836041614FF4A02161
S3150800ABB08361836541620549C36103628362C36237
S3150800ABC043630365D164036310BD00BFFF3F0D03F4
S3150800ABD070B505461446084641B9354B9D4218D00E
S3150800ABE0344B9D4208BF5720FFF7FEF9AB6813F0B8
S3150800ABF0010F6B6830D0B0FBF4F4D80704F1FF34CA
S3150800AC004FEA046407D42B6923F07F4323432B615F
S3150800AC1070BD5620E8E7282128462BF091FEAB6C3C
S3150800AC20990715D1AB6CDA0714D4AB6C13F0020F85
S3150800AC3014BF0626002628462BF086FE2B693146C9
S3150800AC4023F07F4323432B61BDE870402BF0B3BE4E
S3150800AC500526F0E70926EEE7AB6DDB07AB6848BFCC
S3150800AC60640003F0E003402B1BD004D8DBB1202B93
S3150800AC70CED1082304E0602B17D0802BC8D101233E
S3150800AC8063434101B1FBF3F20B4B203A284603EA32
S3150800AC90C20201212BF054FE2A63BDE870402BF056
S3150800ACA04FBE0623ECE71023EAE70423E8E700BFD4
S3150800ACB00000015B00000A50F8FF7F002DE9F84309
S3150800ACC09846436804460E4617461BB140F6FF7180
S3150800ACD02BF036FE2046FFF751FFF189737B626938
S3150800ACE00B43318A22F44C520B4322F00F021343D2
S3150800ACF06361A268317E337B22F0804222F0E20251
S3150800AD000B4313437269D6F808901343A360B9F14D
S3150800AD10000F03D1A36843F00043A360F06900283D
S3150800AD2074D0857A037A6D04A26845EA83556D4B1B
S3150800AD3013401D43838803F4C0431D43437845EA03
S3150800AD408305437B45EAC305837B45EA0315837878
S3150800AD5045EA8325A560D0E90432E5681343624ACB
S3150800AD602A401343827943EA8223C27943EA42237B
S3150800AD70E36003785D4A012B14D1E36843F00403CA
S3150800AD80E360944200F09280594B9C420CBF012329
S3150800AD904FF0FF335B0103F1A04342F2944203F5FF
S3150800ADA0703314E0032B7BD1E36843F00403E360BC
S3150800ADB0944279D04E4B9C420CBF01234FF0FF338F
S3150800ADC041F294425B0103F1A04303F57033022577
S3150800ADD09D50437A04F5805293621BB1E36843F4AD
S3150800ADE00063E360C37A5BB1E36843F40043E3605E
S3150800ADF03E4B9C425CD1037B3E4A03F00F035367EC
S3150800AE00636AC27B23F00303134363623FB197F877
S3150800AE10203004F58050002B54D001230362B8F18A
S3150800AE20000F27D004F5805011B14FF40043836515
S3150800AE302E4BB8F822109C4298F821304FD02C4A55
S3150800AE4094420DD10122112B34BF012702272A4D26
S3150800AE50B1F5006FAF5494BF01270227274DAF54B1
S3150800AE60A26D0B4322F4F95222F01E021343A36586
S3150800AE7001238365052120462BF080FDB9F1000FDB
S3150800AE8003D04A467168FFF7A3FE204631782BF0B7
S3150800AE9092FDA36CDB4313F4405FFAD1BDE8F88357
S3150800AEA0023B012B84D96CE7002389E7002371E76D
S3150800AEB00F4B9C4201BF037B0E4A03F00F03C2F8F7
S3150800AEC080309DE7E26997F8223097F8215022F002
S3150800AED009022B43134343F00103C3619FE7002292
S3150800AEE0B1E700BFE39BBDFFFFF9F0870000015BF8
S3150800AEF000000A50009003503E4E00203C4E0020B1
S3150800AF00072A2DE9F041154698464FF0030401F04B
S3150800AF1003072DD89600B44000FA06F221461C48CD
S3150800AF202BF059FD21461B4807FA06F22BF053FD74
S3150800AF30194B1A499DF81800B8F1000F18BF1946A1
S3150800AF40012303FA05F50D60154B1649002818BFAD
S3150800AF500B461D60144B9DF81C00C3F82054103195
S3150800AF6003F22443002818BF0B461D60BDE8F08194
S3150800AF70A2F10806B600B44000FA06F221460B48CC
S3150800AF802BF029FD21460A4807FA06F2CEE700BF4C
S3150800AF9000C4035008C4035010D4035010E40350EF
S3150800AFA014E4035014D4035000E0035004C40350BF
S3150800AFB00CC403502DE9F04105460F461E4690463F
S3150800AFC04AB101233022194C8B4002FB004436B3A8
S3150800AFD004F5825423600F21072F05EB450388BF2C
S3150800AFE0A7F108044FEA0313114895BFBC00A40053
S3150800AFF004330C3308FA04F2A14018442BF0EBFC96
S3150800B000B8F1000F09D101233021084ABB4001FBE2
S3150800B01005223EB102F582521360BDE8F08104F5BF
S3150800B0200154D7E702F50152F6E700BF00C0035006
S3150800B03030C00350104B0140D3F8302422EA0002F6
S3150800B040C3F83024D3F830241143C3F83014D3F8A6
S3150800B0502C240243C3F82C24084AD36E03F0300389
S3150800B060202B1FBFD36E23F0300343F01003D366A3
S3150800B070034BC3F82004704700C00350004000503B
S3150800B08000E0035038B514461D46032283F0010339
S3150800B090FFF790FF012004F11001884005FA01F13D
S3150800B0A0FFF7C8FF9DF81010034B044A002918BF84
S3150800B0B01346186038BD00BF24E4035024D4035057
S3150800B0C04FF400120B4B10B5C3F88020BFF34F8F17
S3150800B0D0BFF36F8F0024FF22074B21465C652020B3
S3150800B0E09A625C60FEF766FF2146BDE810402120A3
S3150800B0F0FEF760BF00E100E000000450044A054B7B
S3150800B100002908BF1346012282401A60704700BF13
S3150800B110401004504020045010B501210446202058
S3150800B120FEF748FF01212120FEF744FF0122114BBB
S3150800B1305A60227812069A606178A27842EA014239
S3150800B1409A61FF229A6200229A631A644FF00042BB
S3150800B1505A654FF0FF324FF4001103F500531A6594
S3150800B160054AC2F88011E3781B01DBB282F8153371
S3150800B170116010BD0000045000E100E0F8B501259B
S3150800B180C3B2D1F800E091F80AC00F7B0C469D4087
S3150800B190CB7A1D491D4E0D65810001F1A04101F5CF
S3150800B1A08821C1F804E04FF0300E0EFB00601B0545
S3150800B1B0617B43EA0C4343EA475322F003020166E4
S3150800B1C0C36502672BF0AEFB736D2B437365237A59
S3150800B1D013B1336C2B433364637A13B1B36B2B43CC
S3150800B1E0B3632279A37943EA0243074A93616179F3
S3150800B1F0E37943EA014306498B61044B55639D6431
S3150800B200BDE8F8402BF094BB002004500000045021
S3150800B2100010045010B50124C0B284402BF082FB04
S3150800B220044B5A6D22EA04025A659C62BDE8104036
S3150800B2302BF07EBB0000045010B50124C0B2844038
S3150800B2402BF070FB074BDA6A224208D15B6B9C43F2
S3150800B2500CBF012400242BF06BFB204610BD0024F4
S3150800B260F9E700BF000004504FF48032054B9A6698
S3150800B27041F6713203F51C33DA63012203F50053F4
S3150800B280DA6070470090005041F671320121064B92
S3150800B290DA6303F50052D1600022DA634FF4803294
S3150800B2A0A3F518339A667047000003500138312811
S3150800B2B09ABF024B185C0020704700BFA4740408AC
S3150800B2C038B5C2F30625044602F0070241B942EA38
S3150800B2D0052242F440220634074B43F8242038BDA1
S3150800B2E0114628462BF087FB02462846FFF7DEFF65
S3150800B2F0163442EA0022EFE700800350014BD3F8E8
S3150800B30094007047004000504FF48032064B5A664E
S3150800B31003F5E6239B69C3F38512827003F03F02A7
S3150800B3201B0B4270037070470090005040F6B7320E
S3150800B330064B5B689BB293429FBF4FF47A72B3FB8E
S3150800B340F2F3034AD05C88BF002070470080E00F04
S3150800B350D67404080120034B9B680A3303F01F03C5
S3150800B360984070470080E00F70B5054616461C46A3
S3150800B37021B94FF42070FEF737FE0146402C1BD04A
S3150800B38003D8DCB1202C1BD070BD602CFCD1042363
S3150800B39003FB06F2530803EB4113B3FBF2F3094A26
S3150800B3A0203B02EAC303AA6822F06002AA60AA68E0
S3150800B3B01443AC60EB61E7E70623E9E71023E7E708
S3150800B3C00823E5E7F8FF7F00F8B5154E1C46154635
S3150800B3D00E40FAB9202B05D0402B1ED0002B0CBFEF
S3150800B3E010244024012306F580765E430023324666
S3150800B3F0194628F0A9FD02FB05F100FB04F704FB3A
S3150800B4000311A2FB040400233246214428F09CFDC4
S3150800B4103844F8BD80240025E4E780240323E2E7C6
S3150800B420F8FF7F00012100F5805310B5596040F6FA
S3150800B430AA6341F2050243610023094C8360C36590
S3150800B440C26000F500520361C361C3649464054C8D
S3150800B4508365A04204BF03654365516010BD00BF04
S3150800B460FFFF010000C0055070B50D46FFF7DAFF73
S3150800B470012300F580567360AB7C04461BB18368D4
S3150800B48043F080438360EB7C5BB1244B9C4202BF54
S3150800B4902A7DA3F51033C3F8C821E36D43F0800372
S3150800B4A0E3652A8A6B7B20461343EA891343E360E4
S3150800B4B02B7BD5E90112FFF757FF6B7D1BB1A368FC
S3150800B4C043F48033A360AB7D1BB1A36843F4004308
S3150800B4D0A360EB7D2A7E1B07120502F4E00203F047
S3150800B4E0E0431343A3656B7E9A1E012A4FF00202BE
S3150800B4F009D80B49032BC1F8202709D10423F36582
