S01B0000526F757465725F6164645F636F6D706F6E656E742E7333379E
S31508006000001000203975000865D7000869D7000810
S31508006010B98103086DD7000875D70008B981030848
S31508006020B9810308B9810308B9810308B98103084E
S3150800603079D70008A0710408B9810308B981030853
S31508006040357A0008B9810308B9810308B9810308BC
S3150800605029890008B9810308B9810308B9810308A9
S31508006060B9810308B96B0008B981030809730008E8
S315080060708D7E0308B9810308B9810308B98103082D
S31508006080B9810308B9810308B9810308B9810308EE
S31508006090B981030891810008B9810308B981030809
S315080060A0B9810308B582000891820008B9810308FE
S315080060B0B9810308050D02089117020891EE030835
S315080060C08DEE0308390F02089DEE030895EE0308C6
S315080060D06917020899EE0308D11702083D18020845
S315080060E0B9810308B981030885D80008B98103086E
S315080060F0DF9A0308B9810308B9810308B98103083F
S31508006100B9810308B9810308B9810308B98103086D
S31508006110B9810308B9810308B9810308B98103085D
S31508006120B9810308B9810308B9810308B98103084D
S31508006130B9810308B9810308B9810308B98103083D
S31508006140B9810308B9810308B9810308F39F0308D5
S3150800615049FD0108B981030891EB030897EB030889
S31508006160B9810308B9810308B9810308B98103080D
S31508006170013800D0FCE770472DE9F04F93B0CDE920
S315080061800A32DDE91C530E9353EC102BCDE90801B6
S31508006190104619468DED060B1E9E31F0A9F880B102
S315080061A0DDE906014FF0FF32C54B31F0C9F840B9B9
S315080061B0DDE906014FF0FF326FF4801331F0A2F8E3
S315080061C070B1DDE908019DED060B0E9B1E96CDE923
S315080061D01C53DDE90A3213B0BDE8F04F00F088B968
S315080061E00022DDE90601002331F08CF8002800F0D2
S315080061F03381DDE906A303F1004BCBF30A5016F40D
S315080062008063A0F2FF3008BF06250F9330F09EFD8D
S315080062109BA3D3E9002330F003FE9BA3D3E9002315
S3150800622030F048FCCBF31304894644F07F5180468E
S315080062300022A44B504641F4401130F039FC94A397
S31508006240D3E9002330F0ECFD02460B4640464946AA
S3150800625030F030FC31F07EF8044630F077FD8EA33E
S31508006260D3E900238046894630F0DAFD0022964BB2
S3150800627030F020FC31F06EF889A3D3E900230746F5
S315080062804946404630F0CCFD80463846894630F0CF
S315080062905DFD85A3D3E9002330F0C2FD02460B4617
S315080062A04046494630F004FC02460B46CDE90C232D
S315080062B030F0B6FDDDE90C238046894610461946BE
S315080062C030F0F8FB0022CDE91001804B40464946E4
S315080062D030F0D0FE00227E4B30F0ECFB02460B4637
S315080062E04046494630F0C6FE00227A4B30F0E2FBC3
S315080062F002460B464046494630F0BCFEDDE90C2313
S315080063008046894600204FF0804130F0D1FB024696
S315080063100B464046494630F0CDFB02460B46DDE9C2
S31508006320100130F0A7FE07F2FF3700226A4B30F063
S31508006330C1FB00223B0530F073FD52465B468046A2
S31508006340894630F0FDFF002840F08980CDE90C89A8
S3150800635004F16303C72B34BF0427052731051BD572
S3150800636053A3D3E900235046594630F0DFFF0028EF
S315080063707FD051A3D3E900235046594630F0C2FFD7
S31508006380002876D00027A542C6BF2C1B04F1FF358E
S3150800639000253C4646F480660E9B9F422CBF4FF074
S315080063A00008A3EB070816F0020903D0002F18BF50
S315080063B04FF000083CB1DDE90C235046594630F051
S315080063C059FE82468B46DDE906010022002330F09D
S315080063D099FF10B10BF100439B46DDE9080126F44D
S315080063E00063CDE90183DDE90A324BEC10AB009579
S315080063F000F07EF802465FB3DDE9091316F0200FB8
S3150800640000F10105089E0CBF65204520B047DDE96F
S3150800641008010523002205930A23002CCDE9023240
S3150800642007F1FF374FEAD473B8BF64422A4601938F
S3150800643004970A9B009437F070FB0246B9F1000FE7
S3150800644006D00B9BC41A0B9B1A190E9BA34245D860
S31508006450104613B0BDE8F08FDDE906ABCDE60022A5
S31508006460404649461A4B30F005FE013CCDE90C0181
S315080064706EE7002D90D00F9B002B8DD0013D8BE74A
S31508006480FB799F501344D33FB3C8608B288AC63F15
S3150800649061436F63A787D23F71A379094F930A4077
S315080064A01655B5BBB16B0240EF39FAFE422EE63FF0
S315080064B02D431CEBE2361A3F0000000080842E4173
S315080064C0FFFFEF7F0000F83F0000E03F00002C4090
S315080064D000002440000018400000F03F2020DDE9BD
S315080064E00913089DA8470134ADE700BF0000000066
S315080064F02DE9F04F5BEC10AB97B0CDE90501DDE96E
S315080065002057CDE90723504652465B465946229EF8
S3150800651030F0EEFE70B90323CDE902760193B04B55
S315080065200093DDE90501DDE9072337F016FA17B010
S31508006530BDE8F08F4FF0FF326FF48013504659468E
S3150800654030F0E0FE28B10423CDE902760193A54B8D
S31508006550E6E74FF0FF3250465946A34B30F0F0FEBF
S3150800656068B1A24A06F00403002B08BF0322A04B19
S315080065701CBF13460422CDE902760192D0E75046A5
S3150800658093A3D3E90023594630F0DAFE38B992A32B
S31508006590D3E900235046594630F0B4FE68B1DDE928
S315080065A00723DDE905014BEC10ABCDE921762095F3
S315080065B017B0BDE8F04FFFF7DFBD002200235046B5
S315080065C0594630F09FFE002800F09A805B465246F6
S315080065D00020002130F06CFA012382468B4609938D
S315080065E016F4806400F08E80092D40F28E80002417
S315080065F030210EABA5F109020134202C03F8011B4A
S31508006600A5EB040901D09442F6D15946504630F01C
S31508006610A1FE784B054603EBC90393ED007B8DED90
S315080066200A7B30F093FB02460B465046594630F03B
S315080066303FFADDE90A2330F0F3FB02460B46CDE9C3
S315080066400C2330F0AFFE804630F070FB02460B4656
S31508006650DDE90C0130F02CFA02460B46CDE90C2395
S315080066600022654B30F06CFE002851D008F1010875
S31508006670404630F05BFB02460B46DDE90A0130F086
S315080066804BFE10B14FF000080135B9F1000F50D19B
S31508006690284630F05BFB02460B465046594630F01A
S315080066A007FA0022544B8046894630F02BFE30B15B
S315080066B0002240464946504B30F042FE10B1E807EA
S315080066C000D501350A210EAB1A19202C0AD095FBE4
S315080066D0F1F001FB1055303502F8015B013405462F
S315080066E00028F2D106F00302012A57D1002F55D00F
S315080066F0099A12B916F00C0F00D0013F302245E076
S3150800670009906DE74FF006097FE7A94600247CE764
S315080067100022DDE90C01384B30F0F4FD0028B4D135
S31508006720B8F1000F02D018F0010FAED008F1010839
S31508006730ABE70A210EAB2344202C0ED0B8FBF1F0B0
S3150800674001FB1082B8F1090F02F1300209F1FF3995
S3150800675004F1010403F8012B11D83021A1440EAA33
S31508006760202CAFD0A14504F101030AD11C4609F13A
S3150800677058030DEB03092E2309F8203CA2E78046AF
S31508006780DAE7A1541C46EBE71A550134A74205D9A6
S31508006790202CF9D1CDE902760194C1E6202CF9D056
S315080067A0099A3AB12D2104F158026A4402F8201CCC
S315080067B00134EFE7710704D504F158022B216A4426
S315080067C0F4E73207E6D504F1580220216A44EDE7DA
S315080067D00000000065CDCD410000000065CDCDC1AB
S315080067E0D7CA0408DBCA0408FFFFEF7FCECA04082D
S315080067F0D3CA0408E0CA04080000E03F000000000D
S3150800680070B58EB02C22002103A83BF089FC6423C6
S315080068104FF002320893CDE905230B2301218DF8A9
S315080068203430514B8DF810101B88D80700F195802D
S3150800683008461BF03BF90A224C4B4D491A704FF497
S3150800684028734C48ADF812301BF0B6F84A4C206055
S3150800685020B94FF41171494806F082FE05212068D7
S3150800686037F0E5FE20B14FF41571444806F078FE7E
S31508006870206800F055FD424B2068196837F04DFF37
S315080068800C251CF02BF8684309901CF027F8684380
S315080068900DEB05010790206815F086F920B140F246
S315080068A06921364806F05CFE00223649206837F032
S315080068B0BDFF20B140F26B21304806F051FE40F290
S315080068C00353314D314E2B80052396F90000AB70EA
S315080068D07F2801D11BF0B4FA3378EB701BF0FEFF6A
S315080068E000EB80008000A8801BF0F8FF0023C000A2
S315080068F04FF0FF31E880AB604FF0FF3018A3D3E9C3
S3150800690000231BF0FBFA2249206838F067FB206851
S3150800691002A937F065FF20B14FF42971174806F030
S315080069201FFE042220680DEB020137F0E4FE04285E
S3150800693004D040F2A721114806F012FE01A9012051
S3150800694038F006FC06F052FF01201CF067FA31F019
S3150800695079FF1CF08DFA1BF02DF90EB070BD00BF43
S315080069600A0020FF42030000C84E00206557002099
S31508006970D51A0208A0130020C8450020FC090508FE
S315080069804812002073570020BC4500202717002016
S31508006990751C02080348044B834202D0034B03B11B
S315080069A0184770470C1900200C1900200000000039
S315080069B0064B0749C91A891048BF0131491003D047
S315080069C0044B0BB101481847704700BF0C1900204B
S315080069D00C1900200000000010B5064C237843B9B6
S315080069E0FFF7D8FF044B13B10448AFF30080012327
S315080069F0237010BD584F002000000000240E050823
S31508006A0008B5054B1BB105490548AFF30080BDE83D
S31508006A100840FFF7CDBF00BF00000000501C002053
S31508006A20240E0508A3F5803A704700BF174B002BC4
S31508006A3008BF134B9D46FFF7F5FF00218B460F460F
S31508006A401348144A121A3BF06BFB0E4B002B00D06E
S31508006A5098470D4B002B00D09847002000210400D2
S31508006A600D000D48002802D00C48AFF3008031F025
S31508006A70D1F82000290031F066F930F04BFE00BF4E
S31508006A8000000800000000000000000000100020C0
S31508006A900C190020E8570020000000000000000044
S31508006AA0002238B50425114B114C1A7004F5805391
S31508006AB01D67104813F018F80F4813F015F80F4A19
S31508006AC004F50054D36C0E482B43D36413F00CF82A
S31508006AD025670C4813F008F8FF210B480AF070FDEB
S31508006AE00A4B1968BDE838401EF010B8594F002007
S31508006AF000C00350002204080722040800C00550FD
S31508006B00142204081B2204086C1C0020B01C002058
S31508006B1005220B4B10B51A6043F69822094B0A4C0E
S31508006B201A60FF2320461A4608490AF00FFDFF217E
S31508006B3020460AF045FDBDE8104000211DF0E6BFDD
S31508006B40B41C0020B01C00206C1C0020A16A0008A0
S31508006B5030B5154D89B001AC0FCD0FC495E80700C7
S31508006B6084E807004FF00212104B114CC3F838277F
S31508006B7002F58032C3F8302714222046C3F82027AE
S31508006B8001A903F065FB204601A903F061FB4FF458
S31508006B900072084BC3F880211A604FF48062C3F86C
S31508006BA080211A6009B030BD3022040800C00350A5
S31508006BB000C0055000E100E0454B2DE9F04F5B6A47
S31508006BC0444CDBB22768DFF82491262B9BB009F8E2
S31508006BD0073006D0632F04D8013727601BB0BDE8FD
S31508006BE0F08F00253C4B4822294608A808AE1D70A0
S31508006BF02560B0463BF094FADFF8D4A023689F429C
S31508006C0061D2002501AF30463BF048FA07EE900AFC
S31508006C10F8EEE77A0135072DE7EC017A06F1090661
S31508006C20F1D1DDED027AFDEEE77A2C4B0122C3EDB8
S31508006C30027ADDED037AFDEEE77AC3ED047ADDED3F
S31508006C40047AFDEEE77AC3ED037ADDED057AFDEE0B
S31508006C50E77AC3ED057ADDED067AFDEEE77AC3ED50
S31508006C60087ADDED077AFDEEE77A9A611C4AC3EDEC
S31508006C70077A1068928818609A801A4A1A48136820
S31508006C800133136012F030FF00F0F4F8002323609C
S31508006C90A4E750460BF8011B31F067FD2368013362
S31508006CA02360236819F80310202901D09F42F0D2E7
S31508006CB00A21504631F059FD236801350133236016
S31508006CC008F109089AE7082D9BD0C346E9E700BFF3
S31508006CD000C00550B81C0020D01600208C1C0020CF
S31508006CE027220408681C002021220408594F002086
S31508006CF008B506F007FEFF2104480AF061FCBDE866
S31508006D0008404FF47A711DF001BF00BFBC1C00207B
S31508006D1010B5044670B9FF2307491A4607480AF012
S31508006D2015FCFF2105480AF04BFC2146BDE810403A
S31508006D301DF0ECBE10BD00BFF16C0008BC1C0020A5
S31508006D4007B501200BF0FCF801210090034B042045
S31508006D50034A0AF019FF03B05DF804FB9F260408EE
S31508006D604C22040813B534F062FA02280ED10FF04B
S31508006D7017FA0124047134F0FDFD214600900E4BEC
S31508006D8004200E4A0AF000FF02B010BD0CF00CF801
S31508006D900B4B0C4A01210190009304200A4B0AF080
S31508006DA0F3FEFF2109480AF00BFC00211DF0AEFE98
S31508006DB00122074B1A70E7E76F220408902204089D
S31508006DC09F2604088522040880220408401D002006
S31508006DD0BE4F002013B534F02AFA02280CD10D4B09
S31508006DE01C78A4B9FF210C480AF0EAFB214602B038
S31508006DF0BDE810401DF08ABE0BF0D6FF074B019088
S31508006E00009300210420064B064A0AF0BDFE02B094
S31508006E1010BD00BFBD4F0020201D00209F2604087E
S31508006E20802204089B22040808B50F4B1B78ABB1D7
S31508006E3034F0FDF902280CD00C4831F082FAFF2113
S31508006E400B480AF0BDFBBDE808404FF47A611DF017
S31508006E505DBE0648BDE8084031F06DBA34F0E7F982
S31508006E600228F6D008BD00BFBE4F0020006E0408F9
S31508006E70401D002070B52E488EB008F05BFA202021
S31508006E8030F05AFC0446052030F056FC20600520F8
S31508006E9030F052FC6060052030F04EFCA060052002
S31508006EA030F04AFCE060052030F046FC2061052001
S31508006EB030F042FC6061052030F03EFCA0610620FF
S31508006EC030F03AFC1B4E06ADE0610FCE0FC596E8D2
S31508006ED00F0085E80F002046174930F03EFF0323D0
S31508006EE0ADF80E3001238DF811300023ADF81230BD
S31508006EF08DF81630114B06AD1B78043C8DF8103012
S31508006F0000F11C06002154F8042F55F8043B0846E6
S31508006F1000929BB203AA33F082FFB442F2D1084B27
S31508006F20084819680131196012F0DEFD0EB070BD0F
S31508006F3040420F00C42204088C1C0020482F002061
S31508006F40DC1C0020B0220408FF2310B51A46164997
S31508006F5016480AF0FBFAFF2315491A4615480AF09F
S31508006F60F5FAFF2314491A4614480AF0EFFAFF23E4
S31508006F70134C1A46204613490AF0E8FAFF23124929
S31508006F801A4612480AF0E2FA10F030FD4FF611736D
S31508006F9003800123FF21837020460AF011FBBDE818
S31508006FA0104000211DF0B2BD656D0008601D00206F
S31508006FB0296E0008401D0020416D0008201D002094
S31508006FC0001D0020D56D0008756E0008E01C002025
S31508006FD030B5912885B005D1104805B0BDE83040D8
S31508006FE031F0ACB9902816D100250C4831F0A3F938
S31508006FF02C466946E8B239F066FF28B99DF8003094
S31508007000012B04BF0134E4B201350A2DF1D114B1C4
S315080070100122034B1A7005B030BD00BF006E04088C
S31508007020BD4F002013B504460C4B01900093012177
S3150800703004200B4B0B4A0AF0A7FD24B100220A4B89
S315080070401A7002B010BDFF2108480AF0B9FA40F6D6
S31508007050B83102B0BDE810401DF058BD03C504089C
S315080070608022040885220408BE4F0020201D002027
S31508007070002307B50193094B094A00930121094BDF
S3150800708004200AF081FDFF2107480AF099FA40F624
S31508007090B83103B05DF804EB1DF038BD03C504082C
S315080070A085220408B9220408201D002007B50121FD
S315080070B0064B04200093064A064B01910AF064FD2C
S315080070C00022054B1A7003B05DF804FB03C50408DB
S315080070D085220408B9220408BE4F002007B5064BCE
S315080070E0009001210420054A0AF04EFD0022044BB7
S315080070F01A7003B05DF804FB03C504084C220408A3
S31508007100BE4F002030B50A4C0A4B22680A4D1A6059
S315080071100A4B85B02B600A4B019305F0A5FB2B683B
S31508007120029001A92068039332F050F905B030BDEA
S31508007130A81000204C2C0020482C00209C10002071
S31508007140816D0408014B186832F054B9A810002064
S3150800715038B505F089FB0446064D2B68D3F8B0020E
S3150800716005F076FB286832F058F92046BDE8384025
S3150800717005F06EBBA810002010B5274C02F096F853
S3150800718002F024FA236F23F0070343F0030323676F
S3150800719031F0C7F9214B00209B6ADB015EBF4FF433
S315080071A080321F4B9A62D4F8203123F0070343F04C
S315080071B00203C4F82031D4F8283123F0070343F03A
S315080071C00203C4F82831D4F8403123F0030343F00E
S315080071D00203C4F84031D4F8603123F0030343F0C6
S315080071E00203C4F86031D4F8403223F0030343F0B5
S315080071F00203C4F84032D4F8003223F0070343F000
S315080072000203C4F80032D4F8083223F0070343F027
S315080072100203C4F8083210BD008000500040005A2E
S315080072200060005A30B5254D9DB008AC0FCD0FC48F
S3150800723095E80F0084E80F002A2200210DF1460088
S315080072403AF06EFF1E4B0124109356231293052322
S3150800725015930623179303230E2200210DF112001E
S315080072608DF845408DF844303AF05AFF4FF47020B7
S31508007270144B02A9CDE902030B238DF810300C2319
S315080072808DF81130104B08AA0593202306930F4B4F
S315080072900F48009310AB8DF81D4005F061FB0446BE
S315080072A09DF81E304FF4E130002B0CBF032100215E
S315080072B030F073FF20461DB030BD00BFE06D0408F6
S315080072C00000015B3C00015BBF4F00203C20002012
S315080072D0AC200020022905D8034B1B68186808B1A2
S315080072E0436A1847704700BFAC10002008B5044928
S315080072F0044806F0EBFDBDE80840FFF793BF00BF62
S31508007300B0100020D0200020014832F05EBC00BF3B
S31508007310AC200020014B1A6A18681047AC200020E0
S3150800732008B514F06FFC0022014B1A7008BD00BFA7
S31508007330DF4F0020014830F0FBBF00BF006E040895
S3150800734018B1034B1860002070472520704700BF0E
S31508007350D820002010B5054C0549206801F0D8F959
S315080073602068BDE81040FFF7EBBF00BFDC11002026
S31508007370B8100020014B1868704700BFD8200020BD
S315080073800A46014930F01FBE7D7104080A460149C4
S3150800739030F019BE7A71040813B5082030F0B1FF31
S315080073A0FFF7E8FF0123124C8DF8003090F83630CD
S315080073B02060DBB9006831F09EF9236820F07F4031
S315080073C093F8353040EA83700190684630F0A9FE9C
S315080073D002238DF80030074B6846019330F0A1FE72
S315080073E0082002B0BDE8104030F096BF0020E4E760
S315080073F03C210020006A18102DE9F041424D88B062
S3150800740001AC0FCD0FC495E8070084E807000124F6
S3150800741001213A2001F008FD3C4E0121292001F006
S3150800742003FD3B4B304601A903938DF8124002F049
S315080074306FFF234604220321022002F0F5FC0221F5
S3150800744022460846002302F0EFFC23462146042282
S31508007450022002F0E9FC042200212346022002F061
S31508007460E3FC2C4D2C4B05F50058C5F834374FF086
S315080074700213C5F8303703F58033C5F838371C23AF
S315080074804FF44870C5F8203707F054FF05F58057C4
S315080074901420C8F8A04007F04DFF2320C7F8A040E5
S315080074A007F048FFB9213046C8F8A04031F053F933
S315080074B0002303211A460220C7F8A04002F0B4FCB4
S315080074C0002302211A46084602F0AEFC234621464E
S315080074D00022022002F0A8FC0022234611460220C0
S315080074E002F0A2FC304602F091FE00212920C5F8E0
S315080074F03417C5F83017C5F83817C5F8201701F03E
S3150800750093FC08B0BDE8F0818471040800C00550FA
S3150800751000127A0000C00350020001000348044A22
S315080075200449121A921030F048BE00BFA816050882
S31508007530A8160508E857002008B500F02FF8FFF749
S31508007540EDFF124B12498B4212D30020114B124900
S315080075508B4218D3FFF76AFA186850F82240586821
S3150800756040F82240013298688242F5D30C33EAE7A4
S315080075700022F8E71C6844F8220001325C68A2423F
S31508007580F8D30833E4E70022F8E700BF2C0E050815
S31508007590380E0508380E0508380E05084FF48041E0
S315080075A04FF0FF30114B124A10B59A60D3F8882075
S315080075B042F47002C3F888200E4A91660E4901F516
S315080075C0005210660D4850660220C3F8D000BFF37B
S315080075D04F8FBFF36F8F01244FF440330848C0F82C
S315080075E08041D36004600B6110BD00BF00ED00E070
S315080075F0006000080090005000800044F7FF370044
S3150800760000E100E0014B1868704700BF0012002037
S31508007610084B1B6F03F00703022B04D0032B05D07E
S31508007620012B05D0FEE7044B18687047034BFBE7B0
S3150800763003487047008000500012002008120020FE
S31508007640002D310108B5FFF7E3FF054B1B6FC3F3A8
S3150800765003330133B0FBF3F0024B186008BD00BFDB
S3150800766000800050FC1100200048704700B4C40494
S31508007670014B1868704700BF08120020054B1860B8
S31508007680054B1B6F03F00703032B01D1FFF7DABF86
S31508007690704700BF0812002000800050004870475D
S315080076A0002D31014FF0B4439868C0F304400C280C
S315080076B00AD8DFE800F00B090909090907211909A1
S315080076C01B1D1F000F487047002070479B6803F07A
S315080076D04073B3F1807F11D0B3F1007F10D00A4A0E
S315080076E0002B08BF1046704708487047084870477F
S315080076F00848704708487047084870470848704760
S3150800770008487047405DC60000093D00C0EA2101EF
S3150800771080BA8C010048E801005A62020024F4008D
S3150800772080841E0040420F00014B1868704700BF56
S3150800773004120020BFF34F8F0549064BCA6802F4AE
S31508007740E0621343CB60BFF34F8F00BFFDE700BF76
S3150800775000ED00E00400FA054FF000639B6A03F1B0
S315080077607842B2F5C04F03D21968064A914203D04F
S315080077700023037083607047012202709A689B6930
S315080077804260F7E707B0CD5E73B54F4B04461A78EB
S315080077901AB102221A7002B070BDCDE90022002883
S315080077A0F9D001261E7030F0E0FE484D484B1860AF
S315080077B017F098F92B785BB900F08EFD40B945486B
S315080077C00823454A4549006813F0FAFB00B92E70AC
S315080077D0434B5A6E62619B6E424AA3614FF48043E3
S315080077E09366414B5968E16140499960196E216079
S315080077F0596E6160D3F87011A160196CE160596C1B
S3150800780021613B49086C1864496C59640121516629
S315080078101B6E9C0441D5374AD368D807FCD4364B2F
S315080078201A68531C3ED04FF480139340334A1366AC
S315080078304FF400730426314C2666236630F0ECFCC0
S3150800784001300DD030F0E8FC40F20113984207D021
S315080078504FF4005323664FF480432366C4F87061DF
S315080078600823264C684623664FF4805323664FF058
S31508007870006323664FF4002301A9636630F0B0FC69
S31508007880009B2366019B63662B78002B83D0124BE3
S315080078901A6822665B6863667DE7194AD368D90762
S315080078A0FCD4BCE7174B1B78002BC1D14FF40072F0
S315080078B00C4B5A6603F5A6235B68002BB8D14FF428
S315080078C080120E4B1A66B3E7E14F0020E24F002004
S315080078D06021002034120020642100200071080075
S315080078E000800050009000500080004455CEAC0047
S315080078F000C00054000004400C1200200090004410
S3150800790000000450E04F002070B5224D04462E7842
S31508007910012E02D001232B7070BD0028FCD030F058
S315080079207BFC01300BD030F077FC40F20113984213
S3150800793005D0194B194A5E66D368DE07FCD422685F
S31508007940174B1A6662685A66A268C3F87021E2681D
S315080079501A6422695A64E269D00744BF00229A6011
S31508007960104B1A68013207D10F4A127822B90F490B
S315080079704968C90748BF1A6062690D4B5A66A26909
S315080079809A6617F0B7F80B4B186830F0F4FD002329
S31508007990C1E700BFE14F002000900040000004400E
S315080079A0008000440C120020E04F002000C0055063
S315080079B0008000506021002070B54FF00064A36A73
S315080079C003F17842B2F5C04F24D21A68134B9A4293
S315080079D020D1134E337813F0FD0F02D00024204631
S315080079E070BD1048FFF7D0FE01254FF480330E4ACC
S315080079F00E49C2F88051CB6015600D4A1361A36A1F
S31508007A00DB69984704460748FFF77EFF002CE6D156
S31508007A103570E3E74FF48174E1E700BF07B0CD5E48
S31508007A20E04F00204021002000E100E000A00044D3
S31508007A300090004413B5204B1B7803B9FEE70023DA
S31508007A401E4CCDE900336A4608231D49206813F009
S31508007A50B7FAF0B91B4AD2F84031D2F840211F2BA9
S31508007A604FF0010310D9203A9340019A1A43019224
S31508007A7008236A461249206813F058FA4FF0005353
S31508007A80114A1A60FFF756FE9340009A1A4300926D
S31508007A90EEE70E4B9842F1D10A4AD2F84031D2F8B5
S31508007AA040211F2B4FF0010385BF203A9340934096
S31508007AB0019398BF0093DBE7E14F002034120020C2
S31508007AC000710800008000440B020FF00BE000F084
S31508007AD070B5D0B1C9B10E4E431E013913F8014F26
S31508007AE02046325D02F00302012A11F8012F08BF71
S31508007AF004F12000B55C05F00305012D08BF20320E
S31508007B00801A01D1002CE9D170BD0120FCE700BF25
S31508007B10210D05080346054A0549106803448B42AA
S31508007B208CBF4FF0FF301360704700BF1012002063
S31508007B300000042008B501213A2001F075F9012357
S31508007B4004220321002002F06FF9002030F075FDB1
S31508007B500122354B3549C3F844244FF40022A3F5D6
S31508007B6050335A66324BD3F8FC20D20146D4D1F8AA
S31508007B70803023F0030343F00203C1F880304FF44A
S31508007B80607001F06BF92A4B00F5D520D3F8F02088
S31508007B9000F2FC4042F00102C3F8F020D3F8FC20C2
S31508007BA042F08072C3F8FC20224AA3F55D431A60AE
S31508007BB0214B0222B0FBF3F0204B01381861C3F8C1
S31508007BC0F0204FF48072C3F804234FF060431C4A38
S31508007BD00020C3F8B02F1B4AC3F8802ED3F8002E16
S31508007BE042F48072C3F8002EFF2283F82020D3F8CF
S31508007BF0002E22F48072C3F8002E08BDD3F8FC20AC
S31508007C0022F08072C3F8FC20D1F8802022F003020B
S31508007C1042F00202C1F88020D3F8FC2042F08072BC
S31508007C20C3F8FC20ABE700BF00D00350008000502B
S31508007C3000ED00E0FF030040F8590D00000004E0E5
S31508007C4055CEACC5090001004FF06043D3F8802E2D
S31508007C5030B5D20715D501240B4D8440D5F8FC2044
S31508007C6042F08072C5F8FC20D3F8002E2243C3F8F0
S31508007C70002E53F82020002AF0D003F82010002008
S31508007C8030BD1120FCE700BF00ED00E010B5012271
S31508007C9043780178847830209A40054B00FB0133FD
S31508007CA01CB903F501531A6010BD03F58253FAE7B0
S31508007CB000C0035010B5012243780178847830203B
S31508007CC09A40054B00FB01331CB903F582531A6031
S31508007CD010BD03F50153FAE700C0035001224378AB
S31508007CE001789A4030235943014B5A50704700BFD8
S31508007CF040F00350102130230246007813FB00138E
S31508007D0005495B585178CB4003F0010093780BB9CD
S31508007D1080F00100704700BF30C003502DE9F04FD6
S31508007D209A46564B85B01B7806460F461546DDF82B
S31508007D303C909DF844B0DDF85080002B00F0978009
S31508007D40072A00F296800E9B002B00F09280B9F16C
S31508007D50000F00F08E80129BB3F5006F00F3898048
S31508007D60012803D1109B002B00F08380444B03EBC2
S31508007D7005131B7B002B7ED0424C1022002168463F
S31508007D803AF0CEF904EB45141022A7BB3946204633
S31508007D903AF0C6F943F210036380BBF1000F03D132
S31508007DA0E37843F00303E370364A0E9B02EB451C67
S31508007DB0CCE90193129B6901581E9DF84C30C0F31B
S31508007DC00A0003F003039B0643EA001E53582E4895
S31508007DD0012E00EA03004EEA0003CDF800A0535036
S31508007DE017D0B8F1000F2ED19CF8023068F30413AF
S31508007DF08CF8023027E0002120463AF091F94FF43A
S31508007E0044736380BBF1000FCED1E37843F03003AF
S31508007E10C9E713230CF1100ECCF80C309CE80F00C0
S31508007E208EE80F006FF00301DCF81C20109B61F34D
S31508007E309F02012FCCF81C20CCF8143003D1CCF8C3
S31508007E401890CCF8043000270D4A290102EB0513D7
S31508007E5042F80180159A28465A60694622469F606C
S31508007E605E7302F07FF8384605B0BDE8F08F074824
S31508007E70FAE70748F8E70748F6E700BFE34F0020A8
S31508007E806C2200206C2100200F80FFF3028000F096
S31508007E90018000F0078000F038B5124B05461B78C4
S31508007EA0DBB1E0B130F061FB0F4A00231146147BC9
S31508007EB054B92B6001251A0101EB03131D738C506D
S31508007EC030F059FB204638BD0133082B02F1100269
S31508007ED0EDD130F050FB0548F5E70548F3E70548CE
S31508007EE0F1E700BFE34F00206C220020048000F079
S31508007EF0028000F0018000F038B530F036FB002330
S31508007F0005460B4A147B6CB90133082B02F11002A3
S31508007F10F8D101F0C9FF074B28461C7030F02BFB3F
S31508007F20204603E0284630F026FB034838BD00BF4C
S31508007F306C220020E34F0020058000F00D4B10B5A1
S31508007F401B78044693B1072812D830F00EFB0A4B6B
S31508007F5003EB04131A7B2AB100241C7330F00BFBC5
S31508007F60204610BD30F007FB0448FAE70448F8E756
S31508007F700448F6E7E34F00206C220020068000F054
S31508007F80028000F0018000F0154B13B51868002335
S31508007F9001908DF8043030F0E8FA124B1C7824B1C1
S31508007FA030F0E9FA104802B010BD01221A7030F01C
S31508007FB0E2FA0E4B01A81C731C7783F82C4083F851
S31508007FC03C4083F84C4083F85C4083F86C4083F867
S31508007FD07C4008238DF8073001F092FF2046E2E73F
S31508007FE0F0710408E34F0020038000F06C220020A3
S31508007FF00A4A08B512785AB107280BD8084A02EB7C
S3150800800000131B7B43B1002101F06CFF002008BD63
S315080080100448FCE70448FAE70448F8E7E34F002079
S315080080206C220020028000F0018000F0078000F03A
S315080080300A4A08B512785AB107280BD8084A02EB3B
S3150800804000131B7B43B1012101F04CFF002008BD42
S315080080500448FCE70448FAE70448F8E7E34F002039
S315080080606C220020028000F0018000F0078000F0FA
S315080080700A4A08B5127852B107280AD8084A02EB04
S3150800808000131B7B3BB101F0B9FF002008BD054872
S31508008090FCE70548FAE70548F8E700BFE34F002084
S315080080A06C220020028000F0018000F0078000F0BA
S315080080B00C4B1B787BB107280FD871B10A4B03EB21
S315080080C000131B7B5BB1094BDB6AC34003F001035A
S315080080D000200B70704706487047064870470648E8
S315080080E0704700BFE34F00206C22002000000450B8
S315080080F0028000F0018000F0078000F00D4B1B782D
S3150800810093B1072812D889B10B4B03EB00131B7BDD
S3150800811073B10A4B1A6D01238340134214BF01231E
S31508008120002300200B7070470548704705487047C4
S3150800813005487047E34F00206C22002000000450D9
S31508008140028000F0018000F0078000F00B4A10B5AD
S3150800815012780C4662B107280CD859B1084A02EBC6
S3150800816000131B7B43B101F05BFF2070002010BD9C
S315080081700448FCE70448FAE70448F8E7E34F002018
S315080081806C220020028000F0018000F0078000F0D9
S31508008190184B2DE9F0411F6D5B6D1F4000D5FEE7BA
S315080081A001260025144CDFF85880374218D023687A
S315080081B0C8F85060A3B1A168284601316268A16079
S315080081C09847637B012B0BD150B90C4B03EB451336
S315080081D01A7B60F341021A731A7F60F341021A7719
S315080081E00135082D4FEA460604F11004DDD1BDE835
S315080081F0F08100BF000004506C2200206C21002092
S315080082000020045070B5044601250B4E04B970BD14
S3150800821094FAA4F0B0FA80F005FA00F306EB00121F
S3150800822024EA03045368002BF0D0117B11B191683E
S315080082309847EBE79847E9E7EC22002008B51920AC
S3150800824001F0F8F928B14FF00072074BC3F8802106
S315080082501A601A2001F0EEF928B14FF08062024B3D
S31508008260C3F880211A6008BD00E100E038B505466C
S315080082700C4630F07AF90022044B03EB05135C60D8
S315080082801A73BDE8384030F076B900BFEC220020FA
S31508008290074BD3F82404D3F8202403F500531040E1
S315080082A000F0553020F05020C3F82004FFF7AABF8D
S315080082B000C00350074BD3F82404D3F8202403F551
S315080082C00053104000F0AA3020F0A020C3F8200484
S315080082D0FFF798BF00C00350024B1968024B186895
S315080082E012F04ABD141200203412002070B5940012
S315080082F0224605460E4639F05FFF431C0AD058B998
S3150800830022463146284639F0E1FE0028034808BFD0
S31508008310002070BD0248FCE70248FAE710E000F0CA
S3150800832021E000F024E000F010B5044639F048FFDB
S31508008330431C10D088B901F001FF234620F0030042
S315080083402044984201D1002010BD53F8042B013275
S31508008350F7D00348F8E70348F6E70348F4E700BF11
S315080083600EE000F021E000F024E000F008B530F05F
S31508008370EDF8014B186008BDDC2B0020014B18688E
S3150800838030F0E8B8DC2B002038B141B1013AB2F53B
S31508008390006F044838BF00207047034870470148FB
S315080083A0704700BF037000F0027000F0104930B546
S315080083B00A78104B2AB9C3E90022C3E9022201222E
S315080083C00A700C4900220C4654F8045B854208D012
S315080083D00132042AF8D1002251F8044B1CB943F89B
S315080083E02200002030BD0132042AF5D10248F9E7FF
S315080083F0E44F0020E02B0020027000F010B5044680
S31508008400FFF7C2FD002104F10800FFF745FD01460C
S3150800841008B1044810BD04F10C00FFF73DFD002823
S31508008420F8D0F6E70E7000F090F83530022B0DD133
S3150800843014223023417F13FB0123054A9B5890F8E9
S31508008440212023FA02F000F001007047002070474F
S3150800845030C00350002313B51D4A52F8044B94F854
S31508008460211081420ED00133042BF6D102B010BD83
S315080084700028FBD19DF80730002BF7D0A068FFF73E
S31508008480B7FDF3E794F83530022BEFD12046FFF716
S31508008490CBFF637E2076022BE8D194F8323003F0C6
S315080084A0FF02002BE2D1A0680DF107018DF8072025
S315080084B0FFF7FEFD237E1BB194F83330002BD7D08F
S315080084C00023A06884F83330FFF7B2FDCEE700BF7B
S315080084D0E02B002010B590F83630044663B9042224
S315080084E003685A619A699207FCD523790C4AB9330D
S315080084F05B011021995010BD022BFCD10068836CDA
S31508008500DB074CBF0521062130F078F8237941F2C4
S3150800851094425B0103F1A04303F57033E9E700BF1A
S3150800852000C003502DE9F04104461746FFF72CFF1B
S3150800853088460646E8B9152001F08AF80546E26A33
S3150800854093889BB213B194F83230ABB194F83630B5
S31508008550BBB923689D6915F0020527D0012384F865
S3150800856034304744B845206844D183699B06FCD516
S3150800857045B33046BDE8F081002DE1D0FFF708FE8F
S31508008580DDE7022B12D123689D6C15F002050DD08C
S31508008590012384F8343047444745206831D142F2F4
S315080085A02002836C32EA0303FBD1E1E72046FFF79A
S315080085B091FF012394F8365084F83430002DD0D03A
S315080085C0022D1CD094F8363003B3022BD1D1206883
S315080085D0816C11F0010118BF092130F00FF842F241
S315080085E09442102123795B0103F1A04303F570330C
S315080085F09950BEE718F8011B30F0B7F8B2E7002526
S31508008600C9E718F8011B2FF0FEFFC5E710212379EB
S31508008610044A03F239135B01D150082223685A61D0
S31508008620A7E700BF00C0035010B5044680B190F814
S3150800863032302BB9FFF7F8FE10B9A068FFF7D8FC5F
S31508008640002094F832300133DBB284F8323010BDA2
S315080086500048FCE7027000F010B50446A0B190F897
S3150800866032309BB190F83230012B05D1FFF7DCFE92
S3150800867010B9A068FFF7DCFC002094F83230013B03
S31508008680DBB284F8323010BD0148FCE70148FAE74E
S31508008690027000F0057000F037B590F835500446C2
S315080086A0022D1DD1012290F82230457E817F9A4005
S315080086B03020164B3DB900FB013303F501531A6010
S315080086C0002003B030BD012D04D100FB013303F5B2
S315080086D08253F4E7247E00FB0133002CF7D1ECE744
S315080086E0012DEDD1037E73B911238DF80730FFF7FD
S315080086F09BFF2A4620460DF10701FFF713FF204688
S31508008700FFF7AAFFDCE71323EFE700BF00C003501B
S315080087102DE9F04304466F4F89B001AE0D460FCFE1
S315080087200FC697E8070086E80700002C00F0D080FF
S3150800873025B9694E304609B0BDE8F08360220021AC
S31508008740204639F0EDFC2046FFF730FE06460028A5
S31508008750F0D14FF001092B7D84F835302B6884F869
S31508008760360023602A7BC4F85C9022715B4A9342E8
S31508008770DFD1292363624FF4802359498046C4E92F
S315080087800413D5E90723A26210805080908084F8EC
S315080087903000E3621880588098806B6884F831004E
S315080087A00393EB8984F83300ADF814302B8A4946D5
S315080087B0ADF81230AB7C3A208DF81030EB7C494F7F
S315080087C08DF8163005238DF8113000F02DFB49463B
S315080087D0606A00F029FB286801A98DF8046001F099
S315080087E037FD14212B7B03F139025201B9502E7A39
S315080087F0A87A07EB431346EA0042C3F83827697A92
S31508008800EA7A41EA024CC3F830C7E676E077217780
S3150800881084F820206B7D49466377AB7D204684F833
S315080088202130EB7DA3772B7E84F822302FF0E8FDEC
S31508008830064600287FF47EAF2FF097FE2B7D8146F3
S31508008840032B33D102212A7B02F1B9035B01F950CC
S31508008850042107EB421741F22C722B6803F580536B
S31508008860D965297EEB7D43EA0143BB50AA7D6B7D22
S3150800887043EA024341F22872BB504FF0FF322868A0
S3150800888000F500539A642B7D032B0CBF05210421A8
S315080088902FF052FF4FF440622B6820465A61FFF7CB
S315080088A0ADFD064648462FF066FE43E7022BE4D1A7
S315080088B094F821000C49FFF7D9FCFFF7BFFC4FF4E9
S315080088C000732046238384F81A80FFF7E5FED4E771
S315080088D0064E2FE718720408037000F000C0055012
S315080088E00200040000C0035055840008027000F01E
S315080088F00B4B10B51B7883B100230120094951F8A9
S31508008900042B32B192F85C40022C02BF0120D065DC
S3150800891020460133042BF2D110BD0120FCE700BF2D
S31508008920E44F0020E02B0020054B5B69DB0605D5EC
S315080089301022044B5A610122034B1A70704700BF7C
S315080089400080045000A00450E54F0020044BD3F8E3
S315080089508420D206FBD4D3F88400C0F38110704774
S315080089600040005038B5104B0546D3F880300C4609
S3150800897003F00303022B0BD0032B0DD0012B0FD1D1
S31508008980FEF746FE0E2305B1286004B1236038BD04
S31508008990FEF788FE0723F6E7FEF734FE0623F2E71E
S315080089A000231846EFE700BF0080005038B5184B83
S315080089B00546D3F820010C4600F00700062823D800
S315080089C0DFE800F0040A0E16121A1E00012305B18C
S315080089D0286004B1236038BDFEF714FE0523F6E7C8
S315080089E0FEF746FE0323F2E7FEF75CFE0723EEE7F3
S315080089F0FEF754FE0223EAE7FEF704FE0623E6E73F
S31508008A00FEF736FE0423E2E700231846DFE700BF39
S31508008A100080005038B5174B0546D3F828310C4668
S31508008A2003F00703013B052B20D8DFE803F0031307
S31508008A301B0F0B17FEF7E6FD052305B1286004B1E9
S31508008A40236038BDFEF7DEFD0623F6E7FEF72AFEAD
S31508008A500723F2E7FEF70CFE0323EEE7FEF708FE10
S31508008A600423EAE7FEF71AFE0223E6E70023184680
S31508008A70E3E700BF0080005073B50D460021114B97
S31508008A800191D3F88041064604F00304022C13D062
S31508008A90032C0CD0012C13D101A8FFF787FF102453
S31508008AA00EB1019B336005B12C6002B070BDFEF7B4
S31508008AB0F9FD07240190F3E7FEF7F0FD0190EFE7D3
S31508008AC00C46EDE700800050002337B50193164B9E
S31508008AD00546D3F820320C4603F00703042B21D8A9
S31508008AE0DFE803F0030B11161B0001230DB1019AF1
S31508008AF02A6004B1236003B030BD002101A8FFF746
S31508008B0089FF1223F2E7FEF7CDFD07230190EDE773
S31508008B102FF060FB0A230190E8E7FEF705FE09231C
S31508008B200190E3E70023E1E70080005038B5104BD9
S31508008B300546D3F840310C4603F00303022B0BD04D
S31508008B40032B0DD0012B0FD12FF044FB0A2305B1BF
S31508008B50286004B1236038BDFEF7E6FD0923F6E771
S31508008B602FF03BFB0C23F2E701230020EFE700BFC1
S31508008B7000800050002337B50193164B0546D3F8FD
S31508008B8060320C4603F00703013B032B1FD8DFE8CE
S31508008B9003F0020E1914002101A8FFF707FF10239E
S31508008BA00DB1019A2A6004B1236003B030BD0021DB
S31508008BB001A8FFF7BBFF1123F2E7FEF773FD0723B2
S31508008BC00190EDE7FEF76AFD02230190E8E700232E
S31508008BD0E6E700BF00800050002337B50193164B27
S31508008BE00546D3F894320C4603F00703013B032BE2
S31508008BF01FD8DFE803F0020E1914002101A8FFF7B9
S31508008C00D5FE10230DB1019A2A6004B1236003B082
S31508008C1030BD002101A8FFF789FF1123F2E7FEF70F
S31508008C2041FD07230190EDE7FEF738FD0223019089
S31508008C30E8E70023E6E700BF0080005038B5144B8C
S31508008C400546D3F800020C4600F0070004281BD896
S31508008C50DFE800F003090D111500012305B12860AE
S31508008C6004B1236038BD2FF0B5FA0A23F6E7FEF7FC
S31508008C705BFD0923F2E72FF0B0FA0C23EEE7FEF7C7
S31508008C80E1FC0F23800AE9E700231846E6E700BF60
S31508008C900080005038B5144B0546D3F808020C4638
S31508008CA000F0070004281BD8DFE800F003090D11BF
S31508008CB01500012305B1286004B1236038BD2FF0E3
S31508008CC089FA0A23F6E7FEF72FFD0923F2E72FF0C4
S31508008CD084FA0C23EEE7FEF7B5FC0F23800AE9E7D2
S31508008CE000231846E6E700BF0080005038B5104B51
S31508008CF00546D3F840320C4603F00303022B0BD08B
S31508008D00032B0DD0012B0FD12FF064FA0A2305B1DE
S31508008D10286004B1236038BDFEF706FD0923F6E78F
S31508008D202FF05BFA0C23F2E701230020EFE700BFE0
S31508008D300080005038B5104B0546D3F860310C4614
S31508008D4003F00303022B0BD0032B0DD0012B0FD1FD
S31508008D502FF040FA0A2305B1286004B1236038BD14
S31508008D60FEF7E2FC0923F6E72FF037FA0C23F2E7C1
S31508008D7001230020EFE700BF00800050B0F5207FF8
S31508008D801FD009D8B0F5007F15D003D868B1B0F563
S31508008D90C07F0AD000200CE0B0F5607FFAD10B4BFB
S31508008DA0D3F88000C0F3011003E0084B186FC0F336
S31508008DB0033001307047054BD3F89000C0F30460C8
S31508008DC0F7E7024B186FC0F38020F2E700800050E7
S31508008DD002464FF48030104B10B598660020FFF716
S31508008DE0CDFF504341F671320C4BDC69DA635A68A1
S31508008DF004F4803422F4401259B90949884294BFD0
S31508008E0000200120000502435A600CB10022DA63F3
S31508008E1010BD0449F2E700BF00900050000003505F
S31508008E20005A6202002D3101430905D0012B0CD0EE
S31508008E30022B084B18BF002300F01F0039B103F5B9
S31508008E408053012282401A607047034BF4E703F50A
S31508008E500053F6E768800050648000501FB5002173
S31508008E6080280446CDE9001100F0A58035D85E2893
S31508008E7046D85E2844D8DFE800F0A243434343437C
S31508008E8043434343434343434343434343434343A4
S31508008E9043434343434343434343A2AAA2AABABA1A
S31508008EA0BABABAAAC44DDA714DAAAAAA4343434329
S31508008EB043434343AAAAAA79E4AA43434343434301
S31508008EC043434343434343BAA2A2A2DF4D4DE98835
S31508008ED05EBF434343434399A200B0F5B06F00F029
S31508008EE090802DD8B0F5207F71D00CD8B0F5C07F12
S31508008EF065D0B0F5007F65D0B0F5807F00F086803C
S31508008F00009804B010BDB0F5607F6BD00DD8B0F5F1
S31508008F10407FF5D1FEF796FB02464FF42070FFF727
S31508008F202DFFB2FBF0F252085AE0B0F5806F5ED022
S31508008F30B0F5A06FE4D100216846FFF7C5FDDFE76D
S31508008F40B0F5106F78D016D8B0F5E06F79D00AD89A
S31508008F50B0F5C06F6BD0B0F5D06FD1D1002168469F
S31508008F60FFF76CFECCE7B0F5F06FC9D10021684673
S31508008F70FFF7E0FEC4E7B0F5406F3DD013D8B0F573
S31508008F80206F63D0B0F5286FBAD10021324B039118
S31508008F90D3F8703203F00303012B02D103A8FFF7BD
S31508008FA0C5FD039B3CE0B0F5486FA9D10021684692
S31508008FB0FFF712FEA4E7FEF72BFB0090A0E7FEF7EB
S31508008FC041FBFAE7FEF724FB0246204604E0FEF7DB
S31508008FD039FB02464FF42070FFF7D0FEB2FBF0F2E1
S31508008FE000928DE701A8FFF7BDFC019AEDE7002185
S31508008FF06846FFF7DBFC83E700216846FFF70AFDB2
S315080090007EE700216846FFF737FD79E74FF0E02352
S3150800901002911B695B0705D5FEF714FB0290029BBC
S3150800902000936DE703A902A8FFF780FDF7E7002183
S315080090306846FFF77BFD63E700216846FFF72AFECF
S315080090405EE700216846FFF751FE59E700216846AA
S31508009050FFF790FD54E700BF0080005008B5802058
S31508009060FFF7FCFE034B98429EBF4FF48032024B3B
S315080090701A6708BD005A620200A000501FB50346D1
S315080090800020B3F5807F019000F0C18064D85D2B85
S3150800909055D84C2B07D82D2B48D8232B2CD80198DC
S315080090A005B05DF804FB4D3B102BF8D801A252F829
S315080090B023F000BF059200089F9000089F900008C3
S315080090C09F900008BB9100089F9000089F90000899
S315080090D089920008D99100087F9100087F920008BC
S315080090E09F9000089F9000089F9000089F90000896
S315080090F09F90000893920008243B092BCFD801A221
S3150800910052F823F005920008059200080592000817
S3150800911005920008059200089F900008FB91000838
S315080091209F9000089B9100083B9200083D2B7FD03A
S315080091303E2BB4D1002001A9FFF7D8FDAFE7802B5D
S31508009140ADD1594B1B6F03F00703013B032BA6D880
S31508009150DFE803F0514E858DB3F5F06F68D021D85E
S31508009160B3F5B06F49D00FD8B3F5607F00F08380B0
S3150800917095D3B3F5806F45D0B3F5A06F8FD1002096
S3150800918001A9FFF7A1FC8AE7B3F5D06F55D0B3F56F
S31508009190E06FCFD0B3F5C06F81D1002001A9FFF7EA
S315080091A0C5FC7CE7B3F5206F6ED00BD8B3F5086F16
S315080091B048D0B3F5106F7FF472AF002001A9FFF70E
S315080091C069FD6CE7B3F5406F59D0B3F5486F60D0C9
S315080091D0B3F5286F7FF463AF334BD3F8703203F0DF
S315080091E00303012B5AD0022B0CBF1523002300E0E2
S315080091F00523019353E70223FBE7002001A9FFF7A4
S315080092003BFC4CE7002001A9FFF7D0FB47E74FF0EE
S31508009210E02302901B695B0705D5FEF713FA0D23B9
S315080092200393039BE5E703A902A8FFF77FFCF8E78A
S31508009230002001A9FFF77EFD31E7002001A9FFF70D
S31508009240FDFC2CE7184BD3F8003103F00303022B7F
S3150800925007D0032B09D0012B0BD1FEF709FA0323FC
S31508009260C7E7FEF761FA0923C3E72EF0B1FF082323
S31508009270BFE70123BDE701A9FFF774FB0FE700204D
S3150800928001A9FFF7C7FB0AE7002001A9FFF772FC4F
S3150800929005E7002001A9FFF79FFC00E7002103A8C6
S315080092A0FFF744FC1123A4E7008000504FF4801216
S315080092B0034B5A664FF48032024B9A62704700BFDE
S315080092C0009000500050005A38B504468020FFF739
S315080092D0D5FE032800F083804FF48012524B4FF0DE
S315080092E0A0615A6645F60E02504BC3F88020504AD4
S315080092F091624FF4803102F5805291629A6DD203E1
S31508009300FCD4996D11F08041FBD1D4E90002120515
S3150800931042EA0062E07B0243207B42EA0042607B2D
S3150800932042EA0032A07B42EA80121A619869D4E9BF
S315080093300452120642EA856200F000400243A07E0B
S31508009340E57E0243207E42EA0042607E42EA00222F
S315080093509A611A6AE06922F00F0242EA8502354DDF
S3150800936000283DD11A6294F82420996A94F82000BE
S31508009370D200294042EA40120A4394F8211042EAF0
S31508009380011242F480329A622B49284A936D31EAD7
S315080093900303FBD14FF08071254881621369A568E4
S315080093A023F4700343EA055313614FF000438361C6
S315080093B094F822300BB9214B996294F823303BB9C3
S315080093C04FF480321D4B9A62184A936D5B00FCD4A9
S315080093D094F825301BB1154B194AC3F8802038BDBF
S315080093E0024342F0080202281A6208D119614FF4B2
S315080093F00852996113484FF47F412FF070F80B49D2
S3150800940094F822308A6A94F820001B062A4043EA18
S315080094104013134394F8242043EAC20394F8232004
S3150800942043EA02438B62D3E7009000500040005A9B
S315080094300050005AC7FFFEFE030001000060005AF4
S31508009440F1A7FFFF3440005A014B93F9000070471B
S31508009450D4160020F0B5D0E901434FF400061A4AA5
S315080094604178057856664FF4D156022702F5B83288
S315080094705662164E4F2977604FF0010728BF4F21D5
S3150800948006F5805677601669F603FCD441EA05218D
S3150800949051611B01417B43EA04230B43017B43EAE9
S315080094A041039360C37B817B1B0143EA4113417CE3
S315080094B00B43017C43EA41035360837C13B16FF489
S315080094C0D1535362F0BD00BF009000500010025007
S315080094D0014B1880704700BF8E160020014B18807C
S315080094E0704700BF8C160020B0F5207F10B50C46DB
S315080094F05DD008D8B0F5007F4ED003D8C0B1B0F51E
S31508009500C07F15D010BDB0F5607FFBD12C4B4C1E2B
S31508009510D3F8FC202B4912F0807F4FEA041427D198
S31508009520D1F8803023F030032343C1F88030E9E7CF
S315080095302EF0E4FF2EF0F0FF4FF48031224B214A43
S315080095401967136F013C23F4704343EA0433136726
S31508009550FEF778F80446FFF7F9F9C0F1020120464C
S315080095602EF0D4FF00F042F8BDE81040FFF776BDB4
S31508009570D3F8FC2022F08072C3F8FC20D1F88020B2
S3150800958022F030022243C1F88020D3F8FC2042F0B2
S315080095908072C3F8FC20B5E70A4A4C1ED2F8903010
S315080095A023F0F85343EA0463C2F89030AAE7054A61
S315080095B04C1E136F23F4806343EA84231367A1E7E1
S315080095C000ED00E0008000500090005008B5012131
S315080095D0022000F0C1F82EF091FF2EF09DFF4FF407
S315080095E08032014B1A6708BD0090005008B54FF449
S315080095F0C070FFF733FCBDE808400449884294BFB1
S31508009600012102214FF42070FFF76EBF80F0FA02A5
S315080096100028ABBF00F16040054B00F5614000F043
S315080096200F00ACBF90F80003185C0009704700BF34
S3150800963014ED00E0054B420953F8223000F01F00F4
S3150800964023FA00F0C04300F00100704700E100E093
S31508009650014608B5EFF31083DB0702D50122104651
S3150800966008BDFFF7E7FF02460028F7D10846FFF7CF
S31508009670CFFF0146EFF3118313B1B0EB131FEDD201
S31508009680074B5B68C3F30803002BE8D0103B58B2BE
S31508009690FFF7BEFF88428CBF00220122DFE700BF2A
S315080096A000ED00E0024A536B0342FCD1704700BF4D
S315080096B000400950044A4178536F23F4407343EA43
S315080096C001235367704700BF004000500C4A10B58D
S315080096D01369044643F00403136104F053FE2EF0A5
S315080096E04DFF084B084AC3F8202430BF2EF047FF29
S315080096F004F082FE1CB9BDE81040FDF7A3BF10BDFB
S3150800970000ED00E000E003500000FF0F0A4A10B524
S315080097101369044643F004031361084B084AC3F867
S31508009720202404F02FFE30BF04F066FE1CB9BDE805
S315080097301040FDF787BF10BD00ED00E000E00350C4
S315080097400000FF0F034A0179D36E23F030030B4361
S31508009750D366704700400050F8B504461C4BD3F852
S315080097608420D106FBD4D3F88430C3F381139C42FA
S315080097702CD0FDF74DFF012C064602D121462EF0CE
S31508009780C5FE2EF0E3FE4FF00072124B07465A66EE
S3150800979020462EF0F7FE4FF480630D4D621E93406F
S315080097A02B676B6E9A0103D4D5F884309B060AD5CD
S315080097B038462EF0CFFE022C08D13046BDE8F840D8
S315080097C000212EF0A3BED5F88430EAE7F8BD00BF25
S315080097D0004000500060005010B50C4608B9FDF76F
S315080097E017FF074B21461B783BB1064B984204D816
S315080097F00120BDE81040FFF7AFBF0220F9E700BF20
S31508009800E64F0020005A62020278034B012100202D
S315080098101A70FFF7E1BF00BFE64F00204FF0004285
S3150800982038B5244B244C5A664AF6CD33656C014646
S3150800983005F00105236428BB0120FFF733FF6368A1
S31508009840DB0715D51D4B586008461D4B226BD20702
S315080098500CD4984208D1072415B1174B194A1A6433
S3150800986034F047FF204638BD0130EFE79842F2D082
S315080098700024F1E70132236B13F0080305D08A426E
S31508009880F8D1E8E700220E49F5E78A42E3D020211D
S315080098900A4A91620121A2F5805251600649084A96
S315080098A0886A800603D49342D5D00133F8E79342F9
S315080098B0DDE700BF009000500040095000600950E5
S315080098C040420F003254FFFF4FF0004238B5164BA6
S315080098D001465A664AF6CD33144C154A656C23641C
S315080098E043780B205B0043F00103D363FFF7DAFEEE
S315080098F063688A7823F4F87343EA02136360CA78C4
S315080099004B7943EA0223A3600A798B7943EA022357
S3150800991023610878FFF782FFEB0744BF054B2364F2
S3150800992034F0E7FE012038BD009000500040095091
S31508009930004000503254FFFF4FF00042124B70B502
S315080099405D6E03F580535A664AF6CD3304460F49D1
S3150800995080204E6C0B64FFF7A5FE0B6A23F00F03FD
S315080099600F2C94BF234343F00F030B62F30744BF46
S31508009970074B0B64002DA2BF4FF00042054B5A66F9
S3150800998034F0B7FE70BD00BF00800050004009509B
S315080099903254FFFF00A000504FF00042104B70B544
S315080099A05D6E03F580535A664AF6CD3304460D4973
S315080099B080204E6C0B64FFF775FE0B6A23F4F85390
S315080099C043EA04230B62F30744BF074B0B64002DDD
S315080099D0A2BF4FF00042054B5A6634F08AFE70BDAE
S315080099E000800050004009503254FFFF00A000508C
S315080099F010B52EF0CCFD042300F5805100F5005279
S31508009A000B6113610B6113610B6113610B611361C8
S31508009A10202341F2020103610023C3608360416190
S31508009A204FF4A0218361836541620549C3610362DE
S31508009A308362C36243630365D164036310BD00BFD9
S31508009A40FF3F0D0370B505461446084641B9354B28
S31508009A509D4218D0344B9D4208BF5720FFF7FEF9A8
S31508009A60AB6813F0010F6B6830D0B0FBF4F4D8077D
S31508009A7004F1FF344FEA046407D42B6923F07F43CB
S31508009A8023432B6170BD5620E8E7282128462EF08F
S31508009A907AFDAB6C990715D1AB6CDA0714D4AB6CAD
S31508009AA013F0020F14BF0626002628462EF06FFD77
S31508009AB02B69314623F07F4323432B61BDE8704071
S31508009AC02EF09CBD0526F0E70926EEE7AB6DDB0711
S31508009AD0AB6848BF640003F0E003402B1BD004D8F2
S31508009AE0DBB1202BCED1082304E0602B17D0802BC6
S31508009AF0C8D1012363434101B1FBF3F20B4B203A72
S31508009B00284603EAC20201212EF03DFD2A63BDE87C
S31508009B1070402EF038BD0623ECE71023EAE704234D
S31508009B20E8E700BF0000015B00000A50F8FF7F006D
S31508009B302DE9F8439846436804460E4617461BB176
S31508009B4040F6FF712EF01FFD2046FFF751FFF18901
S31508009B50737B62690B43318A22F44C520B4322F021
S31508009B600F0213436361A268317E337B22F0804281
S31508009B7022F0E2020B4313437269D6F808901343A6
S31508009B80A360B9F1000F03D1A36843F00043A360B3
S31508009B90F069002874D0857A037A6D04A26845EACC
S31508009BA083556D4B13401D43838803F4C0431D43FF
S31508009BB0437845EA8305437B45EAC305837B45EA43
S31508009BC00315837845EA8325A560D0E90432E5685C
S31508009BD01343624A2A401343827943EA8223C279AD
S31508009BE043EA4223E36003785D4A012B14D1E36814
S31508009BF043F00403E360944200F09280594B9C4280
S31508009C000CBF01234FF0FF335B0103F1A04342F27F
S31508009C10944203F5703314E0032B7BD1E36843F0D9
S31508009C200403E360944279D04E4B9C420CBF012357
S31508009C304FF0FF3341F294425B0103F1A04303F571
S31508009C40703302259D50437A04F5805293621BB106
S31508009C50E36843F40063E360C37A5BB1E36843F403
S31508009C600043E3603E4B9C425CD1037B3E4A03F0D3
S31508009C700F035367636AC27B23F0030313436362CC
S31508009C803FB197F8203004F58050002B54D00123BB
S31508009C900362B8F1000F27D004F5805011B14FF4D4
S31508009CA0004383652E4BB8F822109C4298F8213061
S31508009CB04FD02C4A94420DD10122112B34BF0127D3
S31508009CC002272A4DB1F5006FAF5494BF012702272A
S31508009CD0274DAF54A26D0B4322F4F95222F01E020F
S31508009CE01343A36501238365052120462EF069FCED
S31508009CF0B9F1000F03D04A467168FFF7A3FE204664
S31508009D0031782EF07BFCA36CDB4313F4405FFAD169
S31508009D10BDE8F883023B012B84D96CE7002389E769
S31508009D20002371E70F4B9C4201BF037B0E4A03F0E9
S31508009D300F03C2F880309DE7E26997F8223097F85A
S31508009D40215022F009022B43134343F00103C36158
S31508009D509FE70022B1E700BFE39BBDFFFFF9F0874D
S31508009D600000015B00000A5000900350E94F0020F4
S31508009D70E74F0020072A2DE9F041154698464FF08F
S31508009D80030401F003072DD89600B44000FA06F242
S31508009D9021461C482EF042FC21461B4807FA06F2CB
S31508009DA02EF03CFC194B1A499DF81800B8F1000F23
S31508009DB018BF1946012303FA05F50D60154B164918
S31508009DC0002818BF0B461D60144B9DF81C00C3F8ED
S31508009DD02054103103F22443002818BF0B461D6097
S31508009DE0BDE8F081A2F10806B600B44000FA06F212
S31508009DF021460B482EF012FC21460A4807FA06F2BD
S31508009E00CEE700BF00C4035008C4035010D4035063
S31508009E1010E4035014E4035014D4035000E0035034
S31508009E2004C403500CC403502DE9F04105460F46FF
S31508009E301E4690464AB101233022194C8B4002FB3C
S31508009E40004436B304F5825423600F21072F05EB2F
S31508009E50450388BFA7F108044FEA0313114895BFC5
S31508009E60BC00A40004330C3308FA04F2A1401844D9
S31508009E702EF0D4FBB8F1000F09D101233021084A8E
S31508009E80BB4001FB05223EB102F582521360BDE8D4
S31508009E90F08104F50154D7E702F50152F6E700BF51
S31508009EA000C0035030C003504FF400120B4B10B5DE
S31508009EB0C3F88020BFF34F8FBFF36F8F0024FF22B4
S31508009EC0074B21465C6520209A625C60FEF7ACFF72
S31508009ED02146BDE810402120FEF7A6BF00E100E0BC
S31508009EE000000450044A054B002908BF1346012206
S31508009EF082401A60704700BF40100450402004504A
S31508009F0010B5012104462020FEF78EFF01212120ED
S31508009F10FEF78AFF0122114B5A60227812069A60D0
S31508009F206178A27842EA01429A61FF229A62002287
S31508009F309A631A644FF000425A654FF0FF324FF4A5
S31508009F40001103F500531A65054AC2F88011E37833
S31508009F501B01DBB282F81533116010BD00000450F6
S31508009F6000E100E0F8B50125C3B2D1F800E091F8A8
S31508009F700AC00F7B0C469D40CB7A1D491D4E0D65C8
S31508009F80810001F1A04101F58821C1F804E04FF0F4
S31508009F90300E0EFB00601B05617B43EA0C4343EA67
S31508009FA0475322F003020166C36502672EF0DDFA05
S31508009FB0736D2B437365237A13B1336C2B43336468
S31508009FC0637A13B1B36B2B43B3632279A37943EA5C
S31508009FD00243074A93616179E37943EA01430649F3
S31508009FE08B61044B55639D64BDE8F8402EF0C3BAF7
S31508009FF000200450000004500010045010B501243D
S3150800A000C0B284402EF0B1FA044B5A6D22EA04021B
S3150800A0105A659C62BDE810402EF0ADBA00000450A7
S3150800A02010B50124C0B284402EF09FFA074BDA6AB5
S3150800A030224208D15B6B9C430CBF012400242EF0FE
S3150800A0409AFA204610BD0024F9E700BF0000045024
S3150800A0504FF48032054B9A6641F6713203F51C338C
S3150800A060DA63012203F50053DA6070470090005066
S3150800A07041F671320121064BDA6303F50052D160CD
S3150800A0800022DA634FF48032A3F518339A667047D4
S3150800A09000000350013831289ABF024B185C002093
S3150800A0A0704700BF5472040838B5C2F30625044643
S3150800A0B002F0070241B942EA052242F44022063478
S3150800A0C0074B43F8242038BD114628462EF0B6FA29
S3150800A0D002462846FFF7DEFF163442EA0022EFE77B
S3150800A0E000800350014BD3F894007047004000509D
S3150800A0F04FF48032064B5A6603F5E6239B69C3F391
S3150800A1008512827003F03F021B0B42700370704782
S3150800A1100090005040F6B732064B5B689BB29342FC
S3150800A1209FBF4FF47A72B3FBF2F3034AD05C88BF41
S3150800A130002070470080E00F867204080120034B58
S3150800A1409B680A3303F01F03984070470080E00FAE
S3150800A15070B5054616461C4621B94FF42070FEF721
S3150800A1607DFE0146402C1BD003D8DCB1202C1BD029
S3150800A17070BD602CFCD1042303FB06F2530803EBE5
S3150800A1804113B3FBF2F3094A203B02EAC303AA6868
S3150800A19022F06002AA60AA681443AC60EB61E7E7A4
S3150800A1A00623E9E71023E7E70823E5E7F8FF7F003A
S3150800A1B0F8B5154E1C4615460E40FAB9202B05D0A3
S3150800A1C0402B1ED0002B0CBF10244024012306F57B
S3150800A1D080765E430023324619462DF003F902FBCA
S3150800A1E005F100FB04F704FB0311A2FB040400239A
S3150800A1F0324621442DF0F6F83844F8BD802400256F
S3150800A200E4E780240323E2E7F8FF7F00012100F555
S3150800A210805310B5596040F6AA6341F205024361BE
S3150800A2200023094C8360C365C26000F500520361D0
S3150800A230C361C3649464054C8365A04204BF036587
S3150800A2404365516010BD00BFFFFF010000C0055007
S3150800A25070B50D46FFF7DAFF012300F580567360E7
S3150800A260AB7C04461BB1836843F080438360EB7C78
S3150800A2705BB1244B9C4202BF2A7DA3F51033C3F879
S3150800A280C821E36D43F08003E3652A8A6B7B204689
S3150800A2901343EA891343E3602B7BD5E90112FFF7E1
S3150800A2A057FF6B7D1BB1A36843F48033A360AB7D76
S3150800A2B01BB1A36843F40043A360EB7D2A7E1B070A
S3150800A2C0120502F4E00203F0E0431343A3656B7E34
S3150800A2D09A1E012A4FF0020209D80B49032BC1F82E
S3150800A2E0202709D10423F3652B78636170BD0749DC
S3150800A2F0012BC1F82027F4E7042204F50053DA6598
S3150800A300F2E700BF00C0055000D0035000E003503C
S3150800A31038B50D46FFF77AFF012200F580535A60DB
S3150800A3202B8AA97B826843F0010343EA81231343FE
S3150800A330836083682A7D044643EA42738360AB7C64
S3150800A3405BB1194B984202BFEA7CA3F51033C3F8F8
S3150800A350C821C36D43F08003C3652B7B2046D5E92E
S3150800A360011243F48053E3602EF0D6F96B7B0BB1F0
S3150800A370102363616B7D1BB1A36843F48033A3602C
S3150800A380AB7D1BB1A36843F40043A360EB7D2A7E33
S3150800A3901B07120503F0E04302F4E0021343A3652A
S3150800A3A02B78636138BD00BF00C00550034B5A685F
S3150800A3B0D20702D5DA69002AF9D1704700800A5017
S3150800A3C0054B9A689107FCD45A689207F9D4DA695A
S3150800A3D0002AF6D1704700BF00800A5008B5FFF77B
S3150800A3E0E5FF0222014B1A6108BD00BF00800A5032
S3150800A3F008B5FFF7E5FF0122024B03F580514A60D5
S3150800A4001A6108BD00800A5008B5044B596801292D
S3150800A41003D1FFF7E3FF024B596008BD00800A50DD
S3150800A42000A00A5010B5064CFFF7CAFF6368012B57
S3150800A43003D1FFF7E9FFFFF7C3FF0378E36010BD19
S3150800A44000800A50B8B94A680B7812B1127843EA04
S3150800A450C2034A7843EA42038A6812B1127843EA89
S3150800A46082138A7843EA8203CA6812B1127843EAE9
S3150800A4704223014A9364704700800A5008B9014B89
S3150800A4805964704700900A5008B9014B59647047DF
S3150800A49000A00A5008B9014B1964704700A00A5079
S3150800A4A010B9024B186C70470020704700800A509C
S3150800A4B048B911B1012903D07047044BD86C7047CD
S3150800A4C0024B186D70470020704700BF00800A5085
S3150800A4D040B911B1012903D07047034BDA647047BC
S3150800A4E0014B1A65704700BF00800A5010B9024B2D
S3150800A4F0586D70470020704700800A5038B50446EA
S3150800A500054D34F01BF90FCC0FC594E8030085E818
S3150800A5100300002038BD00BFF02B002047F6FF736C
S3150800A5209A42F0B56FD002296FD8394B5B5C012B84
S3150800A5306BD8384DDF0005EBC30415F83330A17826
S3150800A540012B13D10025E078401AA84202D8084406
S3150800A550C0B2F0BD431B6668A0EB530336F913601F
S3150800A5609642D4BF1D4603F1FF30EEE76068002827
S3150800A570EFD0B0F90040944204DBB0F902409442AF
S3150800A580B8BF144683883D44FF2B19BFC8224FF035
S3150800A590280CB0F90620B0F908C0A2EB04030CBFDA
S3150800A5A00126002693FBFCF333446E781BB29E42C9
S3150800A5B001DD002B01DA731E1BB24FF47A7C0133DE
S3150800A5C09BB2071D5D1E2DB24FEAC50E00EBC505F1
S3150800A5D0EA88AD689E4214FB025222EAE27202F150
S3150800A5E05C02B2FBFCF204DD37F8335001339542C6
S3150800A5F0E8D200EB0E039888904228BF104688429E
S3150800A60038BF0846A4E7FF20A3E70020A1E700BF5C
S3150800A61089720408F02B00200229F0B555D82C4B76
S3150800A620585C012851D82B4C04EBC00114F83000B3
S3150800A6304B6801280FD1C8788C78904294BFC4EB38
S3150800A6400001C4EB0201001BCAB28242C8BF002245
S3150800A65033F91200F0BD002B37D08878904202D328
S3150800A660B3F90200F6E7CC78B3F900009442F1D9C1
S3150800A6704C789988013CA1F1FF06714203F1040563
S3150800A680E4B2714103F10C07CEB2B44216D805EB19
S3150800A690C1014FF47A756A43B1F902404968521A02
S3150800A6A004EBD47102EB610292FBF4F29042D1DB27
S3150800A6B0B3F902009042CDDC10B2CBE737F831C0CF
S3150800A6C04E1C9445E3D33146DEE70348C2E700BF94
S3150800A6D089720408F02B00200080FFFF0148FFF76D
S3150800A6E00DBF00BF8C7204087FB50222084B0949CA
S3150800A6F0CDE901234FF00073CDE90313072301A920
S3150800A7004FF0FF30059334F078F807B05DF804FB96
S3150800A710006A18000002060008B5B0B14FF480625E
S3150800A7200B4B9A662DF0CAFF4FF098435A6CD2022B
S3150800A730FCD54FF48062586D064B10F470209A666B
S3150800A74004D0BDE808402EF08FB8212008BD00BF10
S3150800A7500090005000A000502DE9F0418CB08846CA
S3150800A760DDE912761D460446002847D0002945D063
S3150800A770002F43D0002E41D013F00F033ED12048BE
S3150800A7802049A360002A08BF0146E361C4E9001313
S3150800A790404609A92EF064F968BB204609992DF0B0
S3150800A7A084FF294620462DF080FF6946404600F082
S3150800A7B0F7FA00BB694620462DF063FF404603A919
S3150800A7C02EF04DFAB8B9204603A92DF05AFF069780
S3150800A7D00127204645F0005506A9079708952DF04C
S3150800A7E050FF204609A909960A970B952DF053FFA5
S3150800A7F02046FFF791FF0CB0BDE8F0812120FAE76B
S3150800A80000010004000101042DE9F04F97B08946C4
S3150800A81090461F460546DDF880A0002800F0BB805C
S3150800A820002900F0B8803AB1229B002B00F0B380D3
S3150800A830239B002B00F0AF80BAF1000F00F0AB802D
S3150800A840219B002B00F0A78067B13C680026229B5D
S3150800A85043440293464507D307B13C60002017B02E
S3150800A860BDE8F08F3C46F1E75CB1229B219A9B5DDF
S3150800A870125D01345340239A04F00F0493550136B0
S3150800A880E8E7A8EB060BBBF10F0F58D9434B484630
S3150800A890C5E90034AC60EC6113A92EF0E1F8002894
S3150800A8A0DDD1284613992BF00F0B2DF0FEFE5946E5
S3150800A8B028462DF0FAFE484604A900F071FA002849
S3150800A8C0CDD1284604A92DF0DCFE484607A92EF06E
S3150800A8D0C6F90028C3D1284607A92DF0D2FE0123C0
S3150800A8E022992F4ACDF828A00B930C928A190D921B
S3150800A8F028464BF000520AA90E9303920F922DF0A8
S3150800A900C0FE28460DA92DF0BCFE239B039A991973
S3150800A9100123109111931292214A284610A9CDF8C5
S3150800A9204CA0149315922DF0B6FE284613A92DF0C7
S3150800A930B2FE2846FFF7F0FE5E4400288FD1229B20
S3150800A94003EB060B239B1E44029B5B4501D146463F
S3150800A95080E7ACB9219B2246CDE900A349461023DE
S3150800A9602846FFF7F9FE00287FF479AF0AF11002AE
S3150800A97012F8013D0133DBB213700BB95245F7D11A
S3150800A980219A1BF8013B125D0134534006F8013B3E
S3150800A99004F00F04D8E7212061E700BF0303000491
S3150800A9A0100000202DE9F04F97B0894615469A46C3
S3150800A9B00446209FDDF88880DDF890B0269E0028A2
S3150800A9C000F09D80002900F09A80002E40F08A80D1
S3150800A9D0002B00F09480B8F1000F0AD0219B002BC1
S3150800A9E000F08D80002A40F09F80F10700F18780F3
S3150800A9F002E0002A40F08580FB1F062B7FD8524BC9
S3150800AA000BEB05029A427AD80023504A4846C4E915
S3150800AA100023A360E36113A92EF022F800285ED173
S3150800AA20204613992DF041FE204646EA07412DF0AF
S3150800AA303CFE414620462DF038FE294620462DF09C
S3150800AA4034FE484601A900F0ABF9002847D1204654
S3150800AA5001A92DF016FE484604A92EF000F9002893
S3150800AA603DD14FF00109204604A92DF00AFE239B8B
S3150800AA7045F000550793219BCDF82090204609956F
S3150800AA800DA90A9347F0005748F00053CDF82C90CB
S3150800AA900C93CDF834A0CDF838900F972DF0F1FD32
S3150800AAA020460AA92DF0EDFD204607A92DF0E9FD5F
S3150800AAB0259B204610A946F00056CDF840B0CDF8A3
S3150800AAC0449012951393CDF8509015962DF0E3FD0A
S3150800AAD0204613A92DF0DFFD2046FFF71DFE17B00F
S3150800AAE0BDE8F08F259B53B1BAF1000F07D0B8F136
S3150800AAF0000F01D0219B13B1B5B9022E20D1212018
S3150800AB00EDE7239B002BFAD0BBF1000FF7D0C7F176
S3150800AB100F03DBB2032B3FF668AF0122DB0002FA14
S3150800AB2003F3AB42EBD9E8E7239B002BE7D0BBF155
S3150800AB30000FE4D0C7F10F03DBB2032BDDD8ECE737
S3150800AB40102E7FF652AFDAE7FFFF03200000050458
S3150800AB502DE9F04F99B0884615469B460446229F34
S3150800AB60DDF89890289E60B159B1279B4BB1BBF18F
S3150800AB70000F06D0249B0BB1239B13B11DB9022EDF
S3150800AB8013D121239AE0259B002BFAD0B9F1000FA7
S3150800AB90F7D0C7F10F03DBB2032BF0D80122DB0095
S3150800ABA002FA03F3AB42ECD9E9E7731E0F2BE8D898
S3150800ABB016F0010AE5D1FB1F062BE2D8414B09EB3B
S3150800ABC005029A42DDD8404B4046C4E9003AC4F82B
S3150800ABD008A0C4F81CA015A92DF042FF03460028BA
S3150800ABE06CD1204615992DF060FD204646EA0741AE
S3150800ABF02DF05BFD204624992DF057FD2946204669
S3150800AC002DF053FD404603A900F0CAF80346002874
S3150800AC1054D1204603A92DF034FD404606A92EF04E
S3150800AC201EF80346002849D14FF00108204606A918
S3150800AC302DF027FD259B2046099345F00053CDF8B6
S3150800AC40288001930B93239B0FA90C93249B47F011
S3150800AC50005743F00052CDF834800E92CDF83CB040
S3150800AC60CDF8408011972DF00CFD20460CA92DF04B
S3150800AC7008FD204609A92DF004FD019B204612A9CE
S3150800AC80CDF84890CDF84C8014932DF004FD279B01
S3150800AC90204615A946F000561593CDF85880179604
S3150800ACA02DF0EFFC2046FFF737FD034630B1019043
S3150800ACB02A465146484637F033FA019B184619B0DA
S3150800ACC0BDE8F08FFFFF0320000006042DE9FF47CB
S3150800ACD04FF000080E4617460446CDF800800028B7
S3150800ACE059D022B90025284604B0BDE8F0870029C6
S3150800ACF051D032F0030902F0030A1FD04FF0E06387
S3150800AD00C0E9003801230191C0F808800293C0F811
S3150800AD101C8049F0005301A903932DF0BCFC494659
S3150800AD2020462DF0C2FC2046FFF7F6FC054628B162
S3150800AD304A464146304637F0F3F9D4E7BAF1000FF0
S3150800AD40D0D04FF000084FF0E063C4E90038012383
S3150800AD50CDF804D00293114B204601A9C4F8088007
S3150800AD60C4F81C8003932DF096FC042120462DF090
S3150800AD709CFC2046FFF7D0FC054608B13A46D8E7C2
S3150800AD80009A4E44EB00013522FA03F3AA4506F869
S3150800AD90013BF7D1A6E72125A5E700BF040000205F
S3150800ADA090B189B101234B60C368013B012B08D8D8
S3150800ADB08269064B1AB10A6000208B607047044A04
S3150800ADC0F9E74FF00053F7E7212070470800002005
S3150800ADD0FC780408012300F01F02A0F506200949A3
S3150800ADE0A0F550604009934051F820201A4341F8D5
S3150800ADF02020054951F8202022EA030241F82020A4
S3150800AE00704700BF282C0020082C00200122A0F53E
S3150800AE1006230D49A3F550635B0900F01F00824025
S3150800AE2051F82300024341F8232000231946074A14
S3150800AE3052F8040B0133082B0144F9D119B9202221
S3150800AE40014837F06DB97047082C0020282C0020DF
S3150800AE502DE9F04FA9B003921E4604460822339FF7
S3150800AE60CDE90401414021FA02F34B40980702F16B
S3150800AE70080218BF9B00202A1C44F4D1744BE4B284
S3150800AE801B7804F5062404F55064002B3ED1FDF723
S3150800AE9023FA054620B16FF0910029B0BDE8F08F7E
S3150800AEA00146402208A837F03BF94022294618A84F
S3150800AEB037F036F9DFF8B481DFF8B491C3460BF101
S3150800AEC00F0ACDF800A05B461022D9F8000008A9A1
S3150800AED033F0FCF90023024608F1100808AD9A423F
S3150800AEE03DD1CDF800A05B461022D9F8000018A97C
S3150800AEF033F0F5F94FF0000A834618ADD34538D13B
S3150800AF00544B9845DAD10122514B1A704FF4807888
S3150800AF100025DFF860B1A4F50623A3F550625209AF
S3150800AF205BF8221004F01F00C140C90734D44A490F
S3150800AF3051F82220C240D20722D5A3F6FF43DBB23E
S3150800AF40002D08BF254603F50624B8F1010804F5C7
S3150800AF505064E0D1039BABB1A5B12C4618E055F877
S3150800AF60040BCDE90623FFF735FF079B069A013345
S3150800AF70B5E755F8040BFFF749FF0AF1010ABDE7E3
S3150800AF80039B13B96FF08B0087E7002D18BF2C467B
S3150800AF90349B00201C6080E7329B13B10023329A51
S3150800AFA013600FB100233B604FF0100ADFF8C09022
S3150800AFB0CDF800A0002332462146D9F8000010F04B
S3150800AFC04DF858BB32993268244BC1B99A4206D01B
S3150800AFD02146D9F8000010F0A9F90028D2D1D6E9FF
S3150800AFE00223DDE90410834208BF8A4226D0A4F56D
S3150800AFF00624A4F6FF44E4B204F50624A5E732992C
S3150800B0009A42C1F800A0E3D1002FE8D03B4621467A
S3150800B010D9F8000018AA10F045F948B1104B984223
S3150800B020D6D0104B9842D3D00F4B9842D7D032E7A0
S3150800B030329A3B6812689B1A3B60D0E7039B002B49
S3150800B040A6D07368012BA3D16FF0840025E700BF53
S3150800B050EB4F002000710800082C0020105D175ED9
S3150800B060FFDF00F011E000F0FEDF00F0006D0800E1
S3150800B07034120020282C00202DE9F04F87B0824694
S3150800B080894698461646DDF840B02AB1002B4FD0BF
S3150800B09040F26C739A424ED8BBF1010F4ED8002489
S3150800B0A006F1100739460120059431F052FD054690
S3150800B0B0002846D021463A4637F032F805ABCDE9A6
S3150800B0C0014300942B46012250464946FFF7C0FE2D
S3150800B0D0044680B110F18C0F08BF6FF08D043A4614
S3150800B0E00021284637F01CF8284631F042FD204654
S3150800B0F007B0BDE8F08F144BC5E902A92B60C5F867
S3150800B10004B02EB13246414605F1100037F02EF84C
S3150800B110059E0E483B462A46314600680FF006FF54
S3150800B12018B93046FFF756FED9E76FF09104D6E70F
S3150800B1306FF08604DBE76FF09104D8E76FF08504BB
S3150800B140D5E76FF08C04D2E7105D175E3412002045
S3150800B1502DE9F0438DB08146DDE914780E46154693
S3150800B1601C469BB1B8F1000F05D16FF08606304634
S3150800B1700DB0BDE8F083002FF7D0B7F1005FF4D328
S3150800B180C3F1005303F580239F42EED81022002115
S3150800B19008A836F0C5FF002207AB029305AB01935A
S3150800B1A006AB31460093484608ABCDE90522FFF7C2
S3150800B1B04FFE06460028DAD1059BA4B1AB4215D846
S3150800B1C053EA0504D1D1069B0B48C8F80040009401
S3150800B1D03A46079900682B440FF040FF002818BF2D
S3150800B1E06FF09106C3E7AB42EDD2BEE75B1B9C420C
S3150800B1F028BF1C46E7E700BF3412002030B58DB0E3
S3150800B2000C4605461022002108A836F089FF0022C0
S3150800B21007AB029305AB019306AB2146009328467C
S3150800B22008ABCDE90522FFF713FE0446D8B9099BFA
S3150800B230012B1BD0079D104B2946186810F076F88D
S3150800B240B8B90122A5F506230C49A3F550635B0995
S3150800B25005F01F00824051F823004240284641F875
S3150800B2602320FFF7D3FD20460DB030BD6FF08404D0
S3150800B270F9E76FF09104F6E734120020282C002035
S3150800B28030B5048804F4E043B3F5005F2ED1C4F367
S3150800B2900223042B2AD181F0AA6383F4807333F442
S3150800B2A07E132AD081F0AA6383F4007333F47E13E5
S3150800B2B023D00023144D21F47E11A9421AD1B4F5E6
S3150800B2C0105F17D1418821F04000802802D0B1F5DF
S3150800B2D0807F15D1191F0C2912D8DB0710D4073A1D
S3150800B2E0072A34BF00206FF0860030BD42F20403FF
S3150800B2F09C42DED16FF08500F7E7C1F30543D9E735
S3150800B3006FF08600F1E700BF000140052DE9F04F18
S3150800B3109BB08146DDE928761D468B46DDF8A88078
S3150800B320DDF8BCA0099241B138B1249B2BB1269B0C
S3150800B3300BB9279B0BB91FB94EB16FF086047FE096
S3150800B3402EB1B8F1000FF8D02B9B002BF5D02C9B13
S3150800B350002BF2D0BAF1000FEFD02E9B002BECD0C9
S3150800B3602D9B002BE9D0B9F8003003F4E042B2F582
S3150800B370005F69D1C3F30222042A65D185F0AA6366
S3150800B38083F4807333F47E1306D085F0AA6383F4BE
S3150800B390007333F47E1360D1C5F305432946484646
S3150800B3A0259ACAF80030FFF76BFF0446002847D1F4
S3150800B3B0014620220AA836F0B3FE2022214612A80A
S3150800B3C036F0AEFE0AA82DF07DFA002855D159466A
S3150800B3D04846099A12AB00F0C3FA044600282FD152
S3150800B3E02B9B9E424CD8DAF800302E9A934247D8C7
S3150800B3F0474508D2BB19984505D2394632464046D4
S3150800B40036F074FE4746204B25F47E159D4226D11C
S3150800B410DAF80030324606932D9B0397CDE904836C
S3150800B420279B12A90293269B0AA80193259B0093A2
S3150800B430249BFFF7B7FA212819D0D8B92C9B1E6090
S3150800B44020461BB0BDE8F08F42F20402934204D1B5
S3150800B45085F0052383F480139BE700239EE76FF0AE
S3150800B460880400232C9A1360CAF80030E8E76FF0C6
S3150800B4708604F6E76FF09204F3E76FF09204DFE7CD
S3150800B4806FF08904DCE700BF000140052DE9F04FA5
S3150800B49099B08A46DDE926659346984681462A9FED
S3150800B4A028B96FF08604204619B0BDE8F08F002948
S3150800B4B0F7D0229B002BF4D0249B13B9259B002B95
S3150800B4C0EFD10EB9002DECD117B92B9B002BE8D183
S3150800B4D02C9B002BE5D0289B002BE2D04146484602
S3150800B4E0239AFFF7CDFE04460028DCD12022014628
S3150800B4F00DEB020036F014FE2022214610A836F085
