:020000040800F2
:10600000001000204977000891D7000895D70008B4
:10601000B758030899D70008A1D70008B758030854
:10602000B7580308B7580308B7580308B758030808
:10603000A5D70008E0530408B7580308B758030869
:10604000457C0008B7580308B7580308B758030839
:10605000B7580308B7580308B7580308B7580308D8
:10606000B7580308B7580308B7580308DD74000889
:10607000EF510308B7580308B7580308B758030887
:10608000B7580308B7580308B7580308B7580308A8
:10609000B758030895850008B7580308B758030890
:1060A000B75803089587000871870008B758030898
:1060B000B7580308A9310208353C02086BC703082A
:1060C00067C70308DD33020877C703086FC70308F3
:1060D0000D3C020873C70308753C0208E13C020846
:1060E000B7580308B7580308B1D80008B7580308D1
:1060F000F1700308B7580308B7580308B7580308E6
:10610000B7580308B7580308B7580308B758030827
:10611000B7580308B7580308B7580308B758030817
:10612000B7580308B7580308B7580308B758030807
:10613000B7580308B7580308B7580308B7580308F7
:10614000B7580308B7580308B75803080B76030875
:10615000ED210208B75803086BC4030871C4030893
:10616000B7580308B7580308B7580308B7580308C7
:10617000013800D0FCE770472DE9F04F4FF00209DD
:106180008BB01F4608AE0DF11F030393CDF80890A6
:10619000019603890446009383798A469046418894
:1061A000828840789DF858B011F0D4FF054650B170
:1061B0000090A38800206288434912F031FB2846F2
:1061C0000BB0BDE8F08F9DF81F0032F0CAFC38B16B
:1061D0002846A38862883D4912F022FB8D25EEE710
:1061E0004A4631469DF81F0032F08AFC03460028DB
:1061F00064D0149A72B3BDF8542090425ED89DF8D2
:106200001F900995A9F14102012AC1B22AD9BBF117
:10621000000F40D118222E489FED297B02FB0A0473
:1062200020460A4608303146059384ED027B39F05A
:1062300034F9059BB8F1000F01D088F8009007B140
:106240003B80149A002ABAD01A46149808A939F04B
:1062500024F9B4E79DF81F900995A9F14102012A9C
:10626000C1B215D801395FFA81FEB4460021194A3E
:10627000714506DB04210992BBF1000F0BD109AE79
:10628000C8E71CF8010F01315040134A4243EFE7C1
:10629000BBF1000F07D023464A463046CDF800A098
:1062A0000EF032FB8BE70829B4D9B8F1000F01D00A
:1062B00088F80090002F82D03B8080E701257EE7A0
:1062C000000000000000000083940408B494040857
:1062D00038180020C59D1C819301000100000000BA
:1062E0002DE9F04F93B0CDE90A32DDE91C530E934E
:1062F00053EC102BCDE90801104619468DED060B25
:106300001E9E2EF017FA80B1DDE906014FF0FF3234
:10631000C54B2EF037FA40B9DDE906014FF0FF32E8
:106320006FF480132EF010FA70B1DDE908019DEDD5
:10633000060B0E9B1E96CDE91C53DDE90A3213B005
:10634000BDE8F04F00F088B90022DDE90601002326
:106350002EF0FAF9002800F03381DDE906A303F1FD
:10636000004BCBF30A5016F48063A0F2FF3008BF55
:1063700006250F932DF00CFF9BA3D3E900232DF0EE
:1063800071FF9BA3D3E900232DF0B6FDCBF31304DB
:10639000894644F07F5180460022A44B504641F488
:1063A00040112DF0A7FD94A3D3E900232DF05AFF4F
:1063B00002460B46404649462DF09EFD2EF0ECF974
:1063C00004462DF0E5FE8EA3D3E9002380468946DE
:1063D0002DF048FF0022964B2DF08EFD2EF0DCF9BB
:1063E00089A3D3E900230746494640462DF03AFFEA
:1063F0008046384689462DF0CBFE85A3D3E900239D
:106400002DF030FF02460B46404649462DF072FD06
:1064100002460B46CDE90C232DF024FFDDE90C23C9
:1064200080468946104619462DF066FD0022CDE9CA
:106430001001804B404649462EF03EF800227E4B2C
:106440002DF05AFD02460B46404649462EF034F8E0
:1064500000227A4B2DF050FD02460B46404649463D
:106460002EF02AF8DDE90C238046894600204FF003
:1064700080412DF03FFD02460B46404649462DF037
:106480003BFD02460B46DDE910012EF015F807F240
:10649000FF3700226A4B2DF02FFD00223B052DF027
:1064A000E1FE52465B46804689462EF06BF9002895
:1064B00040F08980CDE90C8904F16303C72B34BF18
:1064C0000427052731051BD553A3D3E900235046E4
:1064D00059462EF04DF900287FD051A3D3E900236F
:1064E000504659462EF030F9002876D00027A542B4
:1064F000C6BF2C1B04F1FF3500253C4646F48066E0
:106500000E9B9F422CBF4FF00008A3EB070816F02C
:10651000020903D0002F18BF4FF000083CB1DDE99D
:106520000C23504659462DF0C7FF82468B46DDE9C5
:106530000601002200232EF007F910B10BF10043F1
:106540009B46DDE9080126F40063CDE90183DDE91E
:106550000A324BEC10AB009500F07EF802465FB3B8
:10656000DDE9091316F0200F00F10105089E0CBFAC
:1065700065204520B047DDE9080105230022059389
:106580000A23002CCDE9023207F1FF374FEAD4731A
:10659000B8BF64422A46019304970A9B009434F0E2
:1065A00029FF0246B9F1000F06D00B9BC41A0B9BC2
:1065B0001A190E9BA34245D8104613B0BDE8F08FC0
:1065C000DDE906ABCDE60022404649461A4B2DF0E8
:1065D00073FF013CCDE90C016EE7002D90D00F9BBD
:1065E000002B8DD0013D8BE7FB799F501344D33FA7
:1065F000B3C8608B288AC63F61436F63A787D23FC9
:1066000071A379094F930A401655B5BBB16B02408F
:10661000EF39FAFE422EE63F2D431CEBE2361A3FDD
:106620000000000080842E41FFFFEF7F0000F83F54
:106630000000E03F00002C40000024400000184013
:106640000000F03F2020DDE90913089DA847013430
:10665000ADE700BF000000002DE9F04F5BEC10AB90
:1066600097B0CDE90501DDE92057CDE90723504674
:1066700052465B465946229E2EF05CF870B90323C1
:10668000CDE902760193B04B0093DDE90501DDE928
:10669000072334F0CFFD17B0BDE8F08F4FF0FF3285
:1066A0006FF48013504659462EF04EF828B104235B
:1066B000CDE902760193A54BE6E74FF0FF32504655
:1066C0005946A34B2EF05EF868B1A24A06F00403C7
:1066D000002B08BF0322A04B1CBF13460422CDE9A8
:1066E00002760192D0E7504693A3D3E9002359469E
:1066F0002EF048F838B992A3D3E900235046594602
:106700002EF022F868B1DDE90723DDE905014BEC45
:1067100010ABCDE92176209517B0BDE8F04FFFF71B
:10672000DFBD00220023504659462EF00DF8002808
:1067300000F09A805B465246002000212DF0DAFBE3
:10674000012382468B46099316F4806400F08E8004
:10675000092D40F28E80002430210EABA5F10902F4
:106760000134202C03F8011BA5EB040901D094424D
:10677000F6D1594650462EF00FF8784B054603EBFC
:10678000C90393ED007B8DED0A7B2DF001FD0246E0
:106790000B46504659462DF0ADFBDDE90A232DF09E
:1067A00061FD02460B46CDE90C232EF01DF8804614
:1067B0002DF0DEFC02460B46DDE90C012DF09AFBC4
:1067C00002460B46CDE90C230022654B2DF0DAFF83
:1067D000002851D008F1010840462DF0C9FC0246BE
:1067E0000B46DDE90A012DF0B9FF10B14FF00008AA
:1067F0000135B9F1000F50D128462DF0C9FC0246F1
:106800000B46504659462DF075FB0022544B8046EE
:1068100089462DF099FF30B1002240464946504B41
:106820002DF0B0FF10B1E80700D501350A210EABFD
:106830001A19202C0AD095FBF1F001FB10553035C8
:1068400002F8015B013405460028F2D106F003028C
:10685000012A57D1002F55D0099A12B916F00C0F02
:1068600000D0013F302245E009906DE74FF0060966
:106870007FE7A94600247CE70022DDE90C01384BC4
:106880002DF062FF0028B4D1B8F1000F02D018F04B
:10689000010FAED008F10108ABE70A210EAB23448B
:1068A000202C0ED0B8FBF1F001FB1082B8F1090FDB
:1068B00002F1300209F1FF3904F1010403F8012B60
:1068C00011D83021A1440EAA202CAFD0A14504F14B
:1068D00001030AD11C4609F158030DEB03092E23CD
:1068E00009F8203CA2E78046DAE7A1541C46EBE712
:1068F0001A550134A74205D9202CF9D1CDE90276E9
:106900000194C1E6202CF9D0099A3AB12D2104F165
:1069100058026A4402F8201C0134EFE7710704D5DD
:1069200004F158022B216A44F4E73207E6D504F15A
:10693000580220216A44EDE70000000065CDCD41FA
:106940000000000065CDCDC1B3B70408B7B7040897
:10695000FFFFEF7FAAB70408AFB70408C0B7040869
:106960000000E03F0000000070B58EB02C22002136
:1069700003A838F06CFD64234FF002320893CDE990
:1069800005230B2301218DF83430514B8DF8101065
:106990001B88D80700F1958008461DF0D9FA0A2215
:1069A0004C4B4D491A704FF428734C48ADF81230D7
:1069B0001DF054FA4A4C206020B94FF41171494837
:1069C00006F0E4FD0521206835F09EFA20B14FF471
:1069D0001571444806F0DAFD206800F08BFD424B4B
:1069E0002068196835F006FB0C251EF0C9F96843CC
:1069F00009901EF0C5F968430DEB0501079020686A
:106A000017F024FB20B140F26921364806F0BEFDA4
:106A100000223649206835F076FB20B140F26B2128
:106A2000304806F0B3FD40F20353314D314E2B8018
:106A3000052396F90000AB707F2801D11DF052FCB0
:106A40003378EB701EF09CF900EB80008000A8808A
:106A50001EF096F90023C0004FF0FF31E880AB60D4
:106A60004FF0FF3018A3D3E900231DF099FC224911
:106A7000206835F020FF206802A935F01EFB20B108
:106A80004FF42971174806F081FD042220680DEBB0
:106A9000020135F09DFA042804D040F2A7211148E4
:106AA00006F074FD01A9012035F0BFFF06F0B4FE29
:106AB00001201EF005FC2FF0CEF91EF02BFC1DF07E
:106AC000CBFA0EB070BD00BF0A0020FF42030000E9
:106AD000404B00205A530020793F0208B812002092
:106AE0004C440020DCF604084011002068530020CC
:106AF0004044002006160020194102080348044BB8
:106B0000834202D0034B03B118477047E4170020BB
:106B1000E417002000000000064B0749C91A89103D
:106B200048BF0131491003D0044B0BB1014818474D
:106B3000704700BFE4170020E417002000000000A9
:106B400010B5064C237843B9FFF7D8FF044B13B1B7
:106B50000448AFF300800123237010BDC24B002016
:106B600000000000DCFA040808B5054B1BB105491C
:106B70000548AFF30080BDE80840FFF7CDBF00BF78
:106B800000000000481B0020DCFA0408A3F5803A4E
:106B9000704700BF174B002B08BF134B9D46FFF7F4
:106BA000F5FF00218B460F461348144A121A38F09D
:106BB0004EFC0E4B002B00D098470D4B002B00D005
:106BC00098470020002104000D000D48002802D045
:106BD0000C48AFF300802EF037FA200029002EF089
:106BE000A3FA2DF0B9FF00BF00000800000000006C
:106BF0000000000000100020E4170020D053002007
:106C0000000000000000000013B537F05AFD0B4CE7
:106C1000002122460A4B009004200AF0FBFF36F0C8
:106C200063FE2246009000210420064B0AF0F2FF8A
:106C30000022054B1A7002B010BD00BF55F50308C5
:106C400040F503085DF50308C34B002007B501209C
:106C50000BF098FC01210090034B0420034A0AF03A
:106C6000D9FF03B05DF804FBB3FB030864F5030828
:106C700013B531F0E6FE02280CD10D4B1C78A4B9F7
:106C8000FF210C480AF0E0FC214602B0BDE81040AC
:106C900020F08EB90CF0DAFF074B01900093002131
:106CA0000420064B064A0AF0B5FF02B010BD00BF33
:106CB000C34B0020C01B0020B3FB030887F503086B
:106CC0008CF5030808B531F0BCFE0228044803D057
:106CD000BDE808402EF0E2BEBDE808402EF0D8BE68
:106CE000884904081FB5137800248DF80B305378B9
:106CF0008DF80A108DF80C300523019302AB014684
:106D00000A22009308200A4BADF8084011F0EEFB70
:106D10000321012011F07EFC2146204632F051FA79
:106D200020B1044815F032F904B010BD0248F9E76B
:106D3000A1F50308A3F50308B6F5030830B52DED5A
:106D4000028BFF2189B04D480AF07EFC42F210719F
:106D500020F02EF931F075FE022840F08480484D75
:106D600000F05EFA06A905A800F06CFA4021286838
:106D700006AB05AA2EF03EFD044650B9414832F05C
:106D80009AFA414B02460093042023463F490AF0F9
:106D90008BFF4021286806AB05AA2EF0E8FC0446CC
:106DA000002864D1DDED067A9FED398AF8EEE77AA6
:106DB000C7EE887A17EE900A2DF0FCF9DDED057A22
:106DC000F8EE677AC7EE887ACDE9020117EE900AED
:106DD0002DF0F0F92F4ACDE90001214604200AF0F8
:106DE00019FFDDED067AF8EEE77A87EE887A292139
:106DF00040F2024007AA8DED077AFFF773FF2923BF
:106E0000224640F202410093012007AB32F0EDF838
:106E100007982DF0CFF9204ACDE900012146042042
:106E20000AF0F8FEDDED057AF8EE677A87EE887AEB
:106E3000212140F2054007AA8DED077AFFF752FFA6
:106E40002123224640F205410093012007AB32F096
:106E5000CCF807982DF0AEF9104ACDE90001214693
:106E600004200AF0D7FE09B0BDEC028B30BD002132
:106E700004200B4A0AF0CEFEF5E700BF601B00209D
:106E8000C0100020BCF50308C3790408BDF5030851
:106E900000007A44CEF50308E8F50308FCF5030882
:106EA00014F603082DE9F04F504D93B0012304224E
:106EB0000921022008AC02F009FF0FCD0FC42B6896
:106EC00008A8236001F084F8494B402118682EF08F
:106ED000DBFC20B100210420464A0AF09BFEFF2380
:106EE00045491A4645480AF075FBFF2344491A46AE
:106EF00044480AF06FFBFF2343491A4643480AF00F
:106F000069FBFF2342491A4642480AF063FBFF230C
:106F100041491A4641480AF05DFB414DFF213B487B
:106F20000AF092FB0DAC002120F042F80FCD0FC407
:106F30002B680020236000243A4911F071FC25469B
:106F4000DFF8F890E6B2304604A937F0ABFB024612
:106F5000002845D19DF81030032B31D904238DF83A
:106F6000103022460020304911F074FC9DF810309A
:106F700012AA02EB8303494653F8142C002011F0A7
:106F800069FC30469DF81DA09DF811B09DF8147065
:106F9000BDF8128028F084FF5B465246CDE901809F
:106FA00022490020009711F055FC0DF1150011F059
:106FB000C3FB013500201E49EDB211F031FC01E0A8
:106FC000002BCED101340A2CBCD131F086FD2A46EB
:106FD00003461849002011F023FC13B0BDE8F08FE0
:106FE0000020154911F01CFCECE700BF84F70308F2
:106FF000C01000202FF60308C56C0008E01B00201D
:107000004D6C0008C01B0020716C0008A01B002004
:10701000096C0008801B00203D6D0008601B0020EB
:1070200098F7030870F60308C47004089DF6030877
:10703000AD490408DEF60308BEF60308A68404087A
:1070400030B5912885B005D1154805B0BDE8304070
:107050002EF021BD902820D1002511482EF018FDDA
:107060002C466946E8B237F01DFB28B99DF8003080
:10707000012B04BF0134E4B201350A2DF1D164B112
:107080000122084BFF2108481A700AF0DDFA00219E
:1070900005B0BDE830401FF08BBF05B030BD00BF6C
:1070A00088490408C34B0020601B002013B5044628
:1070B0000C4B01900093012104200B4B0B4A0AF06A
:1070C000A9FD24B100220A4B1A7002B010BDFF21A5
:1070D00008480AF0B9FA40F6B83102B0BDE81040ED
:1070E0001FF066BF72B1040887F50308F5F60308C0
:1070F000B6150020C01B0020002307B50193094BE3
:10710000094A00930121094B04200AF083FDFF2165
:1071100007480AF099FA40F6B83103B05DF804EB7D
:107120001FF046BF72B10408F5F603080BF7030819
:10713000C01B002007B50121054B04200093054A20
:10714000054B01910AF066FD03B05DF804FB00BF3A
:1071500072B10408F5F603080BF7030813B50446EB
:10716000009001210420104B104A0AF053FD54B93D
:10717000FF210F480AF068FA42F2283102B0BDE858
:1071800010401FF015BF0B4A002104200AF042FDF9
:10719000FF2107480AF058FA1FF09EFF0022064B15
:1071A0001A7002B010BD00BF72B1040864F5030884
:1071B000601B002015F70308C34B0020134A08B5D5
:1071C0001168814211D12EF020FC012801461BD10B
:1071D00004200F4A0AF01EFDFF210E480AF034FA7F
:1071E000BDE8084000211FF0E3BE526882420BD187
:1071F0002EF00BFC0128014606D10420064A0AF0B5
:1072000009FDFF210548E9E708BD00BFD0100020B7
:1072100035F70308A01B00204AF70308801B002055
:1072200008B5064B402118682EF02EFB014620B110
:10723000BDE80840024814F0A9BE08BDC0100020F7
:10724000ACF703080246074808B500680B46402122
:107250002EF0D0FA014620B1BDE80840024814F0F3
:1072600095BE08BDC0100020D0F7030808B506F091
:107270005FFBFF2104480AF0E7F9BDE808404FF43E
:107280007A711FF095BE00BF001C002010B50446A7
:1072900070B9FF2307491A4607480AF09BF9FF21F6
:1072A00005480AF0D1F92146BDE810401FF080BE24
:1072B00010BD00BF6D720008001C002030B50A4CE4
:1072C0000A4B22680A4D1A600A4B85B02B600A4BA4
:1072D000019305F0DFFA2B68029001A9206803935F
:1072E0002FF07DFB05B030BDA81000208C2A0020B7
:1072F000882A00209C10002079480408014B186857
:107300002FF081BBA810002038B505F0C3FA044661
:10731000064D2B68D3F8B00205F0B0FA28682FF0BC
:1073200085FB2046BDE8384005F0A8BAA81000202B
:1073300010B5274C01F048FF02F0D6F8236F23F078
:10734000070343F0030323672EF029FC214B0020A1
:107350009B6ADB015EBF4FF480321F4B9A62D4F808
:10736000203123F0070343F00203C4F82031D4F89E
:10737000283123F0070343F00203C4F82831D4F87E
:10738000403123F0030343F00203C4F84031D4F842
:10739000603123F0030343F00203C4F86031D4F8F2
:1073A000403223F0030343F00203C4F84032D4F820
:1073B000003223F0070343F00203C4F80032D4F88C
:1073C000083223F0070343F00203C4F8083210BD6B
:1073D000008000500040005A0060005A08B53A2072
:1073E000012101F0AFFCBDE80840014800F0F0BD0C
:1073F000AC10002030B5264D9DB008AC0FCD0FC4A9
:1074000095E80F0084E80F00262200210DF14600C8
:1074100038F01DF81F4B4FF47025109301238DF8A1
:1074200045305623129305231593062317930923FA
:10743000199308231B9303230E2200210DF1120040
:107440008DF8443038F003F8134B02A9CDE902530C
:107450000B238DF810300C238DF811300F4B08AA38
:107460000593202306930E4B0E48009310AB05F0B6
:107470008DFA04469DF81E304FF4E130002B0CBF0E
:10748000032100212EF03CF920461DB030BD00BF85
:10749000384904080000015B3C00015BC44B00203C
:1074A000DC1E00204C1F0020022905D8034B1B685E
:1074B000186808B1436A1847704700BFC41000201D
:1074C00008B50449044806F017FDBDE80840FFF779
:1074D00091BF00BFC8100020701F002001482FF08E
:1074E0007DBE00BF4C1F0020014B1A6A1868104770
:1074F0004C1F002008B516F0D7FD0022014B1A7072
:1075000008BD00BFE44B002008B504482EF078FA0F
:10751000BDE8084002482EF073BA00BF7049040865
:107520005849040801482EF0B0BA00BF8849040841
:107530001FB5064A0346039203AA009201220821BE
:10754000104609F0E3F905B05DF804FB01012121C3
:107550001FB5064A0346039203AA0092082100229F
:10756000012009F0D3F905B05DF804FB01022121E7
:107570001FB5094903460888897803AAADF80C00AD
:107580008DF80E10009206214222012009F0BEF96A
:1075900005B05DF804FB00BFA04904081FB5084909
:1075A00003460868097902AA02908DF80C1000922F
:1075B00008210222012009F0A9F905B05DF804FBB9
:1075C000A44904081FB5094903460888897803AA15
:1075D000ADF80C008DF80E10009208210622012053
:1075E00009F094F905B05DF804FB00BFAA4904084E
:1075F0000A4601492DF00ABFD85304080A4601493A
:107600002DF004BFD35304080A4601492DF0FEBEF5
:10761000CE5304080A4601492DF0F8BEC9530408A8
:107620000A4601492DF0F2BEC45304080A46014936
:107630002DF0ECBEBD5304080A4601492DF0E6BE0C
:10764000B65304080A4601492DF0E0BEAF530408C2
:107650000A4601492DF0DABEA85304080A4601493A
:107660002DF0D4BEA15304080A4601492DF0CEBE28
:107670009A5304080A4601492DF0C8BE8D530408E8
:107680000A4601492DF0C2BE885304080A46014942
:107690002DF0BCBE7F5304080A4601492DF0B6BE4A
:1076A000785304080A4601492DF0B0BE6D53040812
:1076B0000A4601492DF0AABE605304080A46014952
:1076C0002DF0A4BE5D5304080A4601492DF09EBE6C
:1076D000585304080A4601492DF098BE4F53040838
:1076E0000A4601492DF092BE485304080A46014952
:1076F0002DF08CBE3F5304080A4601492DF086BE8A
:107700003653040807B508202EF0A8F902238DF897
:107710000030054B684601932DF0B6FF082003B0FA
:107720005DF804EB2EF0A5B9006A18100348044A6E
:107730000449121A92102EF0BFB800BF3802050893
:1077400038020508D053002008B500F02FF8FFF7E5
:10775000EDFF124B12498B4212D30020114B1249FC
:107760008B4218D3FFF716FA186850F82240586871
:1077700040F82240013298688242F5D30C33EAE7A0
:107780000022F8E71C6844F8220001325C68A2423B
:10779000F8D30833E4E70022F8E700BFE4FA04086E
:1077A000F0FA0408F0FA0408F0FA04084FF48041F3
:1077B0004FF0FF30114B124A10B59A60D3F8882071
:1077C00042F47002C3F888200E4A91660E4901F512
:1077D000005210660D4850660220C3F8D000BFF377
:1077E0004F8FBFF36F8F01244FF440330848C0F828
:1077F0008041D36004600B6110BD00BF00ED00E06C
:10780000006000080090005000800044F7FF37003F
:1078100000E100E0014B1868704700BFF81000203D
:10782000084B1B6F03F00703022B04D0032B05D07A
:10783000012B05D0FEE7044B18687047034BFBE7AC
:107840000348704700800050F8100020001100200D
:10785000002D310108B5FFF7E3FF054B1B6FC3F3A4
:1078600003330133B0FBF3F0024B186008BD00BFD7
:1078700000800050F41000200048704700B4C40499
:10788000014B1868704700BF00110020054B1860BD
:10789000054B1B6F03F00703032B01D1FFF7DABF82
:1078A000704700BF00110020008000500048704762
:1078B000002D31014FF0B4439868C0F304400C2808
:1078C0000AD8DFE800F00B0909090909072119099D
:1078D0001B1D1F000F487047002070479B6803F076
:1078E0004073B3F1807F11D0B3F1007F10D00A4A0A
:1078F000002B08BF1046704708487047084870477B
:10790000084870470848704708487047084870475B
:1079100008487047405DC60000093D00C0EA2101EB
:1079200080BA8C010048E801005A62020024F40089
:1079300080841E0040420F00014B1868704700BF52
:10794000FC100020BFF34F8F0549064BCA6802F4B4
:10795000E0621343CB60BFF34F8F00BFFDE700BF72
:1079600000ED00E00400FA054FF000639B6A03F1AC
:107970007842B2F5C04F03D21968064A914203D04B
:107980000023037083607047012202709A689B692C
:107990004260F7E707B0CD5E73B54F4B04461A78E7
:1079A0001AB102221A7002B070BDCDE9002200287F
:1079B000F9D001261E702EF016F9484D484B18607C
:1079C00019F0E2FA2B785BB900F0F6FE40B94548B1
:1079D0000823454A4549006815F044FD00B92E705A
:1079E000434B5A6E62619B6E424AA3614FF48043DF
:1079F0009366414B5968E16140499960196E216075
:107A0000596E6160D3F87011A160196CE160596C16
:107A100021613B49086C1864496C59640121516625
:107A20001B6E9C0441D5374AD368D807FCD4364B2B
:107A30001A68531C3ED04FF480139340334A1366A8
:107A40004FF400730426314C266623662DF063FF45
:107A500001300DD02DF05FFF40F20113984207D0A6
:107A60004FF4005323664FF480432366C4F87061DB
:107A70000823264C684623664FF4805323664FF054
:107A8000006323664FF4002301A963662DF027FFEE
:107A9000009B2366019B63662B78002B83D0124BDF
:107AA0001A6822665B6863667DE7194AD368D9075E
:107AB000FCD4BCE7174B1B78002BC1D14FF40072EC
:107AC0000C4B5A6603F5A6235B68002BB8D14FF424
:107AD00080120E4B1A66B3E7E64B0020E74B0020FE
:107AE000981F00202C1100209C1F0020007108000E
:107AF00000800050009000500080004455CEAC0043
:107B000000C0005400000440041100200090004414
:107B100000000450E54B002070B5224D04462E783D
:107B2000012E02D001232B7070BD0028FCD02DF057
:107B3000F2FE01300BD02DF0EEFE40F20113984220
:107B400005D0194B194A5E66D368DE07FCD422685B
:107B5000174B1A6662685A66A268C3F87021E26819
:107B60001A6422695A64E269D00744BF00229A600D
:107B7000104B1A68013207D10F4A127822B90F4907
:107B80004968C90748BF1A6062690D4B5A66A26905
:107B90009A6619F001FA0B4B18682EF02AF80023A8
:107BA000C1E700BFE64B0020009000400000044009
:107BB0000080004404110020E54B002000C0055067
:107BC00000800050981F002070B54FF00064A36A39
:107BD00003F17842B2F5C04F24D21A68134B9A428F
:107BE00020D1134E337813F0FD0F02D0002420462D
:107BF00070BD1048FFF7D0FE01254FF480330E4AC8
:107C00000E49C2F88051CB6015600D4A1361A36A1A
:107C1000DB69984704460748FFF77EFF002CE6D152
:107C20003570E3E74FF48174E1E700BF07B0CD5E44
:107C3000E54B0020781F002000E100E000A0004498
:107C40000090004413B5204B1B7803B9FEE70023D6
:107C50001E4CCDE900336A4608231D49206815F003
:107C600001FCF0B91B4AD2F84031D2F840211F2B59
:107C70004FF0010310D9203A9340019A1A43019220
:107C800008236A461249206815F0A2FB4FF0005302
:107C9000114A1A60FFF756FE9340009A1A43009269
:107CA000EEE70E4B9842F1D10A4AD2F84031D2F8B1
:107CB00040211F2B4FF0010385BF203A9340934092
:107CC000019398BF0093DBE7E64B00202C110020C6
:107CD00000710800008000440B020FF00BE000F080
:107CE00070B5D0B1C9B10E4E431E013913F8014F22
:107CF0002046325D02F00302012A11F8012F08BF6D
:107D000004F12000B55C05F00305012D08BF203209
:107D1000801A01D1002CE9D170BD0120FCE700BF21
:107D2000DBF904080346054A0549106803448B4201
:107D30008CBF4FF0FF301360704700BF0811002068
:107D40000000042010B40A6808461378022B10D0F3
:107D500014213023147913FB041307495B5851791C
:107D6000CB40DB4303F0010313705DF8044BFFF7D6
:107D700025BA5DF8044B704730C00350F7B504686E
:107D8000012105463A2000F0DDFF00230122617940
:107D9000207901F09BFF14223023217913FB01236A
:107DA0001D4A99586379D940C943A37901F001016B
:107DB000022B217017D100F043FC184A2B46617941
:107DC000207900F067FCFF28024660790ED12A4630
:107DD000124900F09BFC0123024661792079CDE92C
:107DE000003301F019FF002003B0F0BD0126277910
:107DF000002301460096384601F0D0FF2A46074985
:107E0000607900F083FC00236179024620790093B9
:107E100001963346E5E700BF30C00350457D0008BA
:107E200002681378022B24D014213023107913FB1D
:107E3000001310495B585179CB40917903F001034D
:107E4000012912D1508843EA40034FF6E07063F0F5
:107E50003F039BB2834202D11170538070474FF6AB
:107E6000DF718B42F9D10021F6E711B983F00103EC
:107E70001370704730C0035008B501213A2000F05C
:107E800061FF012304220321002001F01FFF0020D5
:107E90002DF011FF0122354B3549C3F844244FF42E
:107EA0000022A3F550335A66324BD3F8FC20D2019E
:107EB00046D4D1F8803023F0030343F00203C1F825
:107EC00080304FF4607000F057FF2A4B00F5D5204A
:107ED000D3F8F02000F2FC4042F00102C3F8F02099
:107EE000D3F8FC2042F08072C3F8FC20224AA3F5AC
:107EF0005D431A60214B0222B0FBF3F0204B0138A6
:107F00001861C3F8F0204FF48072C3F804234FF0D7
:107F100060431C4A0020C3F8B02F1B4AC3F8802ED0
:107F2000D3F8002E42F48072C3F8002EFF2283F8AB
:107F30002020D3F8002E22F48072C3F8002E08BD52
:107F4000D3F8FC2022F08072C3F8FC20D1F8802006
:107F500022F0030242F00202C1F88020D3F8FC2094
:107F600042F08072C3F8FC20ABE700BF00D00350A2
:107F70000080005000ED00E0FF030040F8590D00C4
:107F8000000004E055CEACC5090001004FF060438D
:107F9000D3F8802E30B5D20715D501240B4D84407F
:107FA000D5F8FC2042F08072C5F8FC20D3F8002EF2
:107FB0002243C3F8002E53F82020002AF0D003F803
:107FC0002010002030BD1120FCE700BF00ED00E0D4
:107FD0002DE9FF4103680446B3F1B64F55D0354A49
:107FE00093424FD12F20012100F0ACFE01230A2241
:107FF0006179207901F06AFE01230A22E179A079F2
:1080000001F064FE0A2701262B4D4FF0300823793A
:10801000627908FB035306FA02F203F501531A6072
:10802000642007F0CBF92379627908FB035306FA41
:1080300002F203F5825364201A6007F0BFF9013F92
:10804000E3D12068B0F1B64F21D10323C5F8E8345D
:108050006279237943EA0243C5F8EC34E279A379E3
:1080600043EA0243C5F8F03440F20113ADF80030A2
:10807000E36869460293A3680193237C8DF80C3072
:1080800001F0E6FE04B0BDE8F0812E20ABE7094B1D
:108090009842E9D10323C5F8F8346279237943EA99
:1080A0000243C5F8FC34E279A37943EA0243C5F8F8
:1080B0000035D9E70080065000C0035038B50546AA
:1080C00001F0F4FF044C012801D1013C00D138BD7E
:1080D000284601F0DFFEF6E7E193040010B5012227
:1080E00043780178847830209A40054B00FB0133B7
:1080F0001CB903F501531A6010BD03F58253FAE76A
:1081000000C0035010B501224378017884783020F4
:108110009A40054B00FB01331CB903F582531A60EA
:1081200010BD03F50153FAE700C003500122437864
:1081300001789A4030235943014B5A50704700BF91
:1081400040F00350102130230246007813FB001347
:1081500005495B585178CB4003F0010093780BB987
:1081600080F00100704700BF30C003502DE9F04F90
:108170009A46564B85B01B7806460F461546DDF8E5
:108180003C909DF844B0DDF85080002B00F09780C3
:10819000072A00F296800E9B002B00F09280B9F126
:1081A000000F00F08E80129BB3F5006F00F3898002
:1081B000012803D1109B002B00F08380444B03EB7C
:1081C00005131B7B002B7ED0424C102200216846F9
:1081D00037F03DF904EB45141022A7BB3946204681
:1081E00037F035F943F210036380BBF1000F03D180
:1081F000E37843F00303E370364A0E9B02EB451C21
:10820000CCE90193129B6901581E9DF84C30C0F3D4
:108210000A0003F003039B0643EA001E53582E484E
:10822000012E00EA03004EEA0003CDF800A05350EF
:1082300017D0B8F1000F2ED19CF8023068F3041368
:108240008CF8023027E00021204637F000F94FF487
:1082500044736380BBF1000FCED1E37843F0300369
:10826000C9E713230CF1100ECCF80C309CE80F007A
:108270008EE80F006FF00301DCF81C20109B61F307
:108280009F02012FCCF81C20CCF8143003D1CCF87D
:108290001890CCF8043000270D4A290102EB051391
:1082A00042F80180159A28465A60694622469F6026
:1082B0005E7301F09BFF384605B0BDE8F08F0748BC
:1082C000FAE70748F8E70748F6E700BFE84B002061
:1082D000A4200020A41F00200F80FFF3028000F0E4
:1082E000018000F0078000F038B5124B05461B787E
:1082F000DBB1E0B12DF077FC0F4A00231146147B6F
:1083000054B92B6001251A0101EB03131D738C5026
:108310002DF06FFC204638BD0133082B02F110020E
:10832000EDD12DF066FC0548F5E70548F3E7054873
:10833000F1E700BFE84B0020A4200020048000F0FB
:10834000028000F0018000F038B52DF04CFC0023D5
:1083500005460B4A147B6CB90133082B02F110025D
:10836000F8D101F0E5FE074B28461C702DF041FCCA
:10837000204603E028462DF03CFC034838BD00BFF2
:10838000A4200020E84B0020058000F00D4B10B524
:108390001B78044693B1072812D82DF024FC0A4B11
:1083A00003EB04131A7B2AB100241C732DF021FC6B
:1083B000204610BD2DF01DFC0448FAE70448F8E7FC
:1083C0000448F6E7E84B0020A4200020068000F0D7
:1083D000028000F0018000F0154B13B518680023EF
:1083E00001908DF804302DF0FEFB124B1C7824B167
:1083F0002DF0FFFB104802B010BD01221A702DF0C5
:10840000F8FB0E4B01A81C731C7783F82C4083F8F3
:108410003C4083F84C4083F85C4083F86C4083F820
:108420007C4008238DF8073001F0AEFE2046E2E7DD
:1084300030540408E84B0020038000F0A420002002
:108440000A4A08B512785AB107280BD8084A02EB35
:1084500000131B7B43B1002101F088FE002008BD02
:108460000448FCE70448FAE70448F8E7E84B002032
:10847000A4200020028000F0018000F0078000F0BE
:108480000A4A08B512785AB107280BD8084A02EBF5
:1084900000131B7B43B1012101F068FE002008BDE1
:1084A0000448FCE70448FAE70448F8E7E84B0020F2
:1084B000A4200020028000F0018000F0078000F07E
:1084C0000A4A08B5127852B107280AD8084A02EBBE
:1084D00000131B7B3BB101F0D5FE002008BD054811
:1084E000FCE70548FAE70548F8E700BFE84B00203D
:1084F000A4200020028000F0018000F0078000F03E
:108500000D4B1B7893B1072812D889B10B4B03EBA5
:1085100000131B7B73B10A4B1A6D01238340134276
:1085200014BF0123002300200B70704705487047DB
:108530000548704705487047E84B0020A4200020FC
:1085400000000450028000F0018000F0078000F07D
:108550000B4A10B512780C4662B107280CD859B1F5
:10856000084A02EB00131B7B43B101F09DFE207013
:10857000002010BD0448FCE70448FAE70448F8E787
:10858000E84B0020A4200020028000F0018000F0D1
:10859000078000F0184B2DE9F0411F6D5B6D1F4007
:1085A00000D5FEE701260025144CDFF8588037423D
:1085B00018D02368C8F85060A3B1A16828460131DB
:1085C0006268A1609847637B012B0BD150B90C4BBB
:1085D00003EB45131A7B60F341021A731A7F60F3B1
:1085E00041021A770135082D4FEA460604F11004BE
:1085F000DDD1BDE8F08100BF00000450A4200020C0
:10860000A41F00200020045070B5044601250B4E25
:1086100004B970BD94FAA4F0B0FA80F005FA00F342
:1086200006EB001224EA03045368002BF0D0117B00
:1086300011B191689847EBE79847E9E724210020BA
:1086400008B5192000F072FF28B14FF00072074BF7
:10865000C3F880211A601A2000F068FF28B14FF09B
:108660008062024BC3F880211A6008BD00E100E07F
:1086700038B505460C462DF0B6FA0022044B03EB44
:1086800005135C601A73BDE838402DF0B2BA00BF24
:1086900024210020F8B504460D4617461E462DF04D
:1086A000A2FA1CB9052D1AD0FF2421E0012C05D116
:1086B000012D21D0032DF7D1042410E0022C07D185
:1086C000052D1BD0072D1BD0002DEDD1062406E073
:1086D000032CE9D1022D15D0052DE5D10A240A4934
:1086E00004F1100301EB03110123C1E901760B73BF
:1086F0002DF07FFA2046F8BD0324F0E70724EEE7CB
:108700000824ECE70924EAE724210020F8B505460F
:108710000E4617462DF067FA134B2C46D3F8242447
:1087200005F0FC0122FA05F3DB0712D50023013323
:10873000DBB2042B04D1FF242DF05BFA2046F8BDF8
:10874000EC1804F003040C4422FA04FC1CF0010FA2
:10875000EDD1FF2CF0D00122044B03EB0413C3E94D
:1087600001671A73E8E700BF00C00350242100200E
:10877000074BD3F82404D3F8202403F5005310400A
:1087800000F0553020F05020C3F82004FFF73CBF24
:1087900000C00350074BD3F82404D3F8202403F57A
:1087A0000053104000F0AA3020F0A020C3F82004AD
:1087B000FFF72ABF00C00350024B1968024B18682C
:1087C00014F02CBD0C1100202C11002070B5940069
:1087D000224605460E4636F093FE431C0AD058B991
:1087E00022463146284636F008FE0028034808BFD6
:1087F000002070BD0248FCE70248FAE710E000F0F4
:1088000021E000F024E000F010B5044636F074FEDC
:10881000431C10D088B901F0D5FD234620F0030099
:108820002044984201D1002010BD53F8042B01329E
:10883000F7D00348F8E70348F6E70348F4E700BF3A
:108840000EE000F021E000F024E000F008B52DF08B
:10885000BBF9014B186008BD142A0020014B1868B1
:108860002DF0B6B9142A0020044BD3F88420D20688
:10887000FBD4D3F88400C0F381107047004000504F
:1088800038B5104B0546D3F880300C4603F003038F
:10889000022B0BD0032B0DD0012B0FD1FEF7C0FF05
:1088A0000E2305B1286004B1236038BDFFF702F83C
:1088B0000723F6E7FEF7AEFF0623F2E7002318468C
:1088C000EFE700BF0080005038B5184B0546D3F8DD
:1088D00020010C4600F00700062823D8DFE800F04E
:1088E000040A0E16121A1E00012305B1286004B1F5
:1088F000236038BDFEF78EFF0523F6E7FEF7C0FFC5
:108900000323F2E7FEF7D6FF0723EEE7FEF7CEFFDD
:108910000223EAE7FEF77EFF0623E6E7FEF7B0FF55
:108920000423E2E700231846DFE700BF0080005081
:1089300038B5174B0546D3F828310C4603F007032A
:10894000013B052B20D8DFE803F003131B0F0B17A7
:10895000FEF760FF052305B1286004B1236038BD30
:10896000FEF758FF0623F6E7FEF7A4FF0723F2E71A
:10897000FEF786FF0323EEE7FEF782FF0423EAE714
:10898000FEF794FF0223E6E700231846E3E700BF63
:108990000080005073B50D460021114B0191D3F8B2
:1089A0008041064604F00304022C13D0032C0CD0A3
:1089B000012C13D101A8FFF787FF10240EB1019BF2
:1089C000336005B12C6002B070BDFEF773FF072461
:1089D0000190F3E7FEF76AFF0190EFE70C46EDE741
:1089E00000800050002337B50193164B0546D3F89D
:1089F00020320C4603F00703042B21D8DFE803F0F4
:108A0000030B11161B0001230DB1019A2A6004B15A
:108A1000236003B030BD002101A8FFF789FF1223B6
:108A2000F2E7FEF747FF07230190EDE72CF051FF37
:108A30000A230190E8E7FEF77FFF09230190E3E7AF
:108A40000023E1E70080005038B5104B0546D3F80D
:108A500040310C4603F00303022B0BD0032B0DD047
:108A6000012B0FD12CF035FF0A2305B1286004B18A
:108A7000236038BDFEF760FF0923F6E72CF02CFFDA
:108A80000C23F2E701230020EFE700BF0080005035
:108A9000002337B50193164B0546D3F860320C46D8
:108AA00003F00703013B032B1FD8DFE803F0020E9E
:108AB0001914002101A8FFF707FF10230DB1019A37
:108AC0002A6004B1236003B030BD002101A8FFF784
:108AD000BBFF1123F2E7FEF7EDFE07230190EDE760
:108AE000FEF7E4FE02230190E8E70023E6E700BF7B
:108AF00000800050002337B50193164B0546D3F88C
:108B000094320C4603F00703013B032B1FD8DFE828
:108B100003F0020E1914002101A8FFF7D5FE10235F
:108B20000DB1019A2A6004B1236003B030BD002169
:108B300001A8FFF789FF1123F2E7FEF7BBFE072329
:108B40000190EDE7FEF7B2FE02230190E8E7002373
:108B5000E6E700BF0080005038B5144B0546D3F857
:108B600000020C4600F0070004281BD8DFE800F0E4
:108B700003090D111500012305B1286004B123601C
:108B800038BD2CF0A6FE0A23F6E7FEF7D5FE092332
:108B9000F2E72CF0A1FE0C23EEE7FEF75BFE0F23BD
:108BA000800AE9E700231846E6E700BF008000508E
:108BB00038B5144B0546D3F808020C4600F0070000
:108BC00004281BD8DFE800F003090D11150001236C
:108BD00005B1286004B1236038BD2CF07AFE0A2369
:108BE000F6E7FEF7A9FE0923F2E72CF075FE0C2349
:108BF000EEE7FEF72FFE0F23800AE9E70023184671
:108C0000E6E700BF0080005038B5104B0546D3F8AA
:108C100040320C4603F00303022B0BD0032B0DD084
:108C2000012B0FD12CF055FE0A2305B1286004B1A9
:108C3000236038BDFEF780FE0923F6E72CF04CFEDA
:108C40000C23F2E701230020EFE700BF0080005073
:108C500038B5104B0546D3F860310C4603F00303DA
:108C6000022B0BD0032B0DD0012B0FD12CF031FE9A
:108C70000A2305B1286004B1236038BDFEF75CFE0D
:108C80000923F6E72CF028FE0C23F2E7012300204D
:108C9000EFE700BF00800050B0F5207F1FD009D85B
:108CA000B0F5007F15D003D868B1B0F5C07F0AD009
:108CB00000200CE0B0F5607FFAD10B4BD3F88000B8
:108CC000C0F3011003E0084B186FC0F3033001300C
:108CD0007047054BD3F89000C0F30460F7E7024BF0
:108CE000186FC0F38020F2E70080005002464FF476
:108CF0008030104B10B598660020FFF7CDFF504331
:108D000041F671320C4BDC69DA635A6804F4803442
:108D100022F4401259B90949884294BF0020012029
:108D2000000502435A600CB10022DA6310BD044909
:108D3000F2E700BF0090005000000350005A6202AA
:108D4000002D3101430905D0012B0CD0022B084B1B
:108D500018BF002300F01F0039B103F58053012232
:108D600082401A607047034BF4E703F50053F6E7BF
:108D700068800050648000501FB5002180280446A0
:108D8000CDE9001100F0A58035D85E2846D85E28D0
:108D900044D8DFE800F0A243434343434343434303
:108DA0004343434343434343434343434343434393
:108DB000434343434343A2AAA2AABABABABABAAA3D
:108DC000C44DDA714DAAAAAA4343434343434343E4
:108DD000AAAAAA79E4AA43434343434343434343F0
:108DE000434343BAA2A2A2DF4D4DE9885EBF43438D
:108DF00043434399A200B0F5B06F00F090802DD8A6
:108E0000B0F5207F71D00CD8B0F5C07F65D0B0F53B
:108E1000007F65D0B0F5807F00F08680009804B0B8
:108E200010BDB0F5607F6BD00DD8B0F5407FF5D1A7
:108E3000FEF710FD02464FF42070FFF72DFFB2FB46
:108E4000F0F252085AE0B0F5806F5ED0B0F5A06F36
:108E5000E4D100216846FFF7C5FDDFE7B0F5106FEC
:108E600078D016D8B0F5E06F79D00AD8B0F5C06FD9
:108E70006BD0B0F5D06FD1D100216846FFF76CFE02
:108E8000CCE7B0F5F06FC9D100216846FFF7E0FEEE
:108E9000C4E7B0F5406F3DD013D8B0F5206F63D074
:108EA000B0F5286FBAD10021324B0391D3F870325C
:108EB00003F00303012B02D103A8FFF7C5FD039BB9
:108EC0003CE0B0F5486FA9D100216846FFF712FEDB
:108ED000A4E7FEF7A5FC0090A0E7FEF7BBFCFAE7CD
:108EE000FEF79EFC0246204604E0FEF7B3FC024675
:108EF0004FF42070FFF7D0FEB2FBF0F200928DE746
:108F000001A8FFF7BDFC019AEDE700216846FFF7D5
:108F1000DBFC83E700216846FFF70AFD7EE70021BE
:108F20006846FFF737FD79E74FF0E02302911B69B0
:108F30005B0705D5FEF78EFC0290029B00936DE760
:108F400003A902A8FFF780FDF7E700216846FFF7B5
:108F50007BFD63E700216846FFF72AFE5EE70021FC
:108F60006846FFF751FE59E700216846FFF790FD7C
:108F700054E700BF0080005008B58020FFF7FCFEDA
:108F8000034B98429EBF4FF48032024B1A6708BDD4
:108F9000005A620200A000501FB503460020B3F53E
:108FA000807F019000F0C18064D85D2B55D84C2B98
:108FB00007D82D2B48D8232B2CD8019805B05DF865
:108FC00004FB4D3B102BF8D801A252F823F000BF50
:108FD00021910008BB8F0008BB8F0008BB8F0008E1
:108FE000D7900008BB8F0008BB8F0008A591000830
:108FF000F59000089B9000089B910008BB8F00082B
:10900000BB8F0008BB8F0008BB8F0008BB8F000818
:10901000AF910008243B092BCFD801A252F823F0CE
:109020002191000821910008219100082191000858
:1090300021910008BB8F000817910008BB8F000822
:10904000B7900008579100083D2B7FD03E2BB4D13C
:10905000002001A9FFF7D8FDAFE7802BADD1594B18
:109060001B6F03F00703013B032BA6D8DFE803F0D7
:10907000514E858DB3F5F06F68D021D8B3F5B06F40
:1090800049D00FD8B3F5607F00F0838095D3B3F556
:10909000806F45D0B3F5A06F8FD1002001A9FFF7F5
:1090A000A1FC8AE7B3F5D06F55D0B3F5E06FCFD010
:1090B000B3F5C06F81D1002001A9FFF7C5FC7CE7A3
:1090C000B3F5206F6ED00BD8B3F5086F48D0B3F569
:1090D000106F7FF472AF002001A9FFF769FD6CE704
:1090E000B3F5406F59D0B3F5486F60D0B3F5286F32
:1090F0007FF463AF334BD3F8703203F00303012BDB
:109100005AD0022B0CBF1523002300E00523019346
:1091100053E70223FBE7002001A9FFF73BFC4CE7E4
:10912000002001A9FFF7D0FB47E74FF0E0230290B2
:109130001B695B0705D5FEF78DFB0D230393039B8E
:10914000E5E703A902A8FFF77FFCF8E7002001A9E3
:10915000FFF77EFD31E7002001A9FFF7FDFC2CE7BA
:10916000184BD3F8003103F00303022B07D0032B75
:1091700009D0012B0BD1FEF783FB0323C7E7FEF7D2
:10918000DBFB0923C3E72CF0A2FB0823BFE7012385
:10919000BDE701A9FFF774FB0FE7002001A9FFF766
:1091A000C7FB0AE7002001A9FFF772FC05E70020D2
:1091B00001A9FFF79FFC00E7002103A8FFF744FC8B
:1091C0001123A4E7008000504FF48012034B5A662D
:1091D0004FF48032024B9A62704700BF00900050FB
:1091E0000050005A38B504468020FFF7D5FE03280A
:1091F00000F083804FF48012524B4FF0A0615A660A
:1092000045F60E02504BC3F88020504A91624FF44D
:10921000803102F5805291629A6DD203FCD4996D2F
:1092200011F08041FBD1D4E90002120542EA00624C
:10923000E07B0243207B42EA0042607B42EA00324C
:10924000A07B42EA80121A619869D4E9045212069E
:1092500042EA856200F000400243A07EE57E0243C0
:10926000207E42EA0042607E42EA00229A611A6A47
:10927000E06922F00F0242EA8502354D00283DD117
:109280001A6294F82420996A94F82000D2002940A8
:1092900042EA40120A4394F8211042EA011242F4D1
:1092A00080329A622B49284A936D31EA0303FBD13D
:1092B0004FF08071254881621369A56823F470031B
:1092C00043EA055313614FF00043836194F8223061
:1092D0000BB9214B996294F823303BB94FF480329B
:1092E0001D4B9A62184A936D5B00FCD494F82530AC
:1092F0001BB1154B194AC3F8802038BD024342F018
:10930000080202281A6208D119614FF408529961C3
:1093100013484FF47F412CF020FC0B4994F8223085
:109320008A6A94F820001B062A4043EA401313433C
:1093300094F8242043EAC20394F8232043EA02432A
:109340008B62D3E7009000500040005A0050005A52
:10935000C7FFFEFE030001000060005AF1A7FFFFF7
:109360003440005A014B93F900007047BA150020B1
:10937000F0B5D0E901434FF400061A4A4178057868
:1093800056664FF4D156022702F5B8325662164E91
:109390004F2977604FF0010728BF4F2106F580560F
:1093A00077601669F603FCD441EA052151611B017F
:1093B000417B43EA04230B43017B43EA410393606F
:1093C000C37B817B1B0143EA4113417C0B43017C3E
:1093D00043EA41035360837C13B16FF4D15353626A
:1093E000F0BD00BF0090005000100250014B1880EB
:1093F000704700BF76150020014B1880704700BFF2
:1094000074150020B0F5207F10B50C465DD008D84B
:10941000B0F5007F4ED003D8C0B1B0F5C07F15D0F5
:1094200010BDB0F5607FFBD12C4B4C1ED3F8FC2057
:109430002B4912F0807F4FEA041427D1D1F88030F5
:1094400023F030032343C1F88030E9E72CF094FB8C
:109450002CF0A0FB4FF48031224B214A1967136F87
:10946000013C23F4704343EA04331367FEF7F2F937
:109470000446FFF7F9F9C0F1020120462CF084FB05
:1094800000F042F8BDE81040FFF776BDD3F8FC20AD
:1094900022F08072C3F8FC20D1F8802022F0300244
:1094A0002243C1F88020D3F8FC2042F08072C3F838
:1094B000FC20B5E70A4A4C1ED2F8903023F0F8534E
:1094C00043EA0463C2F89030AAE7054A4C1E136FC2
:1094D00023F4806343EA84231367A1E700ED00E0EF
:1094E000008000500090005008B50121022000F0DB
:1094F00085F82CF041FB2CF04DFB4FF48032014BF2
:109500001A6708BD0090005008B54FF4C070FFF70F
:1095100033FCBDE808400449884294BF0121022180
:109520004FF42070FFF76EBF80F0FA02054B42093E
:1095300053F8223000F01F0023FA00F0C04300F07F
:109540000100704700E100E0024A536B0342FCD186
:10955000704700BF00400950044A4178536F23F41C
:10956000407343EA01235367704700BF0040005037
:109570000C4A10B51369044643F00403136104F068
:1095800017FF2CF039FB084B084AC3F8202430BFE2
:109590002CF033FB04F046FF1CB9BDE81040FEF789
:1095A00059B910BD00ED00E000E003500000FF0FCE
:1095B0000A4A10B51369044643F004031361084BCB
:1095C000084AC3F8202404F0F3FE30BF04F02AFF59
:1095D0001CB9BDE81040FEF73DB910BD00ED00E03C
:1095E00000E003500000FF0F034A0179D36E23F01F
:1095F00030030B43D366704700400050F8B5044673
:109600001C4BD3F88420D106FBD4D3F88430C3F3A9
:1096100081139C422CD0FEF703F9012C064602D19F
:1096200021462CF0B1FA2CF0CFFA4FF00072124B19
:1096300007465A6620462CF0E3FA4FF480630D4D3E
:10964000621E93402B676B6E9A0103D4D5F8843069
:109650009B060AD538462CF0BBFA022C08D13046BE
:10966000BDE8F84000212CF08FBAD5F88430EAE745
:10967000F8BD00BF004000500060005010B50C461F
:1096800008B9FEF7CDF8074B21461B783BB1064BD6
:10969000984204D80120BDE81040FFF7AFBF022078
:1096A000F9E700BFE94B0020005A62020278034B41
:1096B000012100201A70FFF7E1BF00BFE94B002035
:1096C0004FF0004238B5244B244C5A664AF6CD334D
:1096D000656C014605F00105236428BB0120FFF7F6
:1096E00033FF6368DB0715D51D4B586008461D4BDB
:1096F000226BD2070CD4984208D1072415B1174B1E
:10970000194A1A6432F062FC204638BD0130EFE796
:109710009842F2D00024F1E70132236B13F00803E2
:1097200005D08A42F8D1E8E700220E49F5E78A42DF
:10973000E3D020210A4A91620121A2F580525160B2
:109740000649084A886A800603D49342D5D001337B
:10975000F8E79342DDE700BF009000500040095059
:109760000060095040420F003254FFFF4FF00042AA
:1097700038B5164B01465A664AF6CD33144C154A95
:10978000656C236443780B205B0043F00103D363D3
:10979000FFF7DAFE63688A7823F4F87343EA02136A
:1097A0006360CA784B7943EA0223A3600A798B7914
:1097B00043EA022323610878FFF782FFEB0744BFE7
:1097C000054B236432F002FC012038BD00900050AC
:1097D00000400950004000503254FFFF4FF000425B
:1097E000124B70B55D6E03F580535A664AF6CD3361
:1097F00004460F4980204E6C0B64FFF7A5FE0B6AF0
:1098000023F00F030F2C94BF234343F00F030B628D
:10981000F30744BF074B0B64002DA2BF4FF000427B
:10982000054B5A6632F0D2FB70BD00BF008000507D
:10983000004009503254FFFF00A000504FF000429A
:10984000104B70B55D6E03F580535A664AF6CD3302
:1098500004460D4980204E6C0B64FFF775FE0B6AC1
:1098600023F4F85343EA04230B62F30744BF074B86
:109870000B64002DA2BF4FF00042054B5A6632F038
:10988000A5FB70BD00800050004009503254FFFF1E
:1098900000A0005010B52CF0B8F9042300F5805159
:1098A00000F500520B6113610B6113610B611361D1
:1098B0000B611361202341F2020103610023C360A5
:1098C000836041614FF4A021836183654162054952
:1098D000C36103628362C36243630365D16403634C
:1098E00010BD00BFFF3F0D0370B505461446084686
:1098F00041B9354B9D4218D0344B9D4208BF57208B
:10990000FFF73AFAAB6813F0010F6B6830D0B0FB89
:10991000F4F4D80704F1FF344FEA046407D42B6948
:1099200023F07F4323432B6170BD5620E8E72821B5
:1099300028462CF066F9AB6C990715D1AB6CDA07A9
:1099400014D4AB6C13F0020F14BF06260026284671
:109950002CF05BF92B69314623F07F4323432B61C5
:10996000BDE870402CF088B90526F0E70926EEE73F
:10997000AB6DDB07AB6848BF640003F0E003402B2E
:109980001BD004D8DBB1202BCED1082304E0602B00
:1099900017D0802BC8D1012363434101B1FBF3F2FF
:1099A0000B4B203A284603EAC20201212CF029F988
:1099B0002A63BDE870402CF024B90623ECE710239D
:1099C000EAE70423E8E700BF0000015B00000A505B
:1099D000F8FF7F002DE9F8439846436804460E4699
:1099E00017461BB140F6FF712CF00BF92046FFF72C
:1099F00051FFF189737B62690B43318A22F44C5227
:109A00000B4322F00F0213436361A268317E337B64
:109A100022F0804222F0E2020B4313437269D6F82F
:109A200008901343A360B9F1000F03D1A36843F07A
:109A30000043A360F069002874D0857A037A6D042E
:109A4000A26845EA83556D4B13401D43838803F498
:109A5000C0431D43437845EA8305437B45EAC3057C
:109A6000837B45EA0315837845EA8325A560D0E921
:109A70000432E5681343624A2A401343827943EA79
:109A80008223C27943EA4223E36003785D4A012BD3
:109A900014D1E36843F00403E360944200F0928041
:109AA000594B9C420CBF01234FF0FF335B0103F184
:109AB000A04342F2944203F5703314E0032B7BD1B0
:109AC000E36843F00403E360944279D04E4B9C4238
:109AD0000CBF01234FF0FF3341F294425B0103F1CD
:109AE000A04303F5703302259D50437A04F580525C
:109AF00093621BB1E36843F40063E360C37A5BB134
:109B0000E36843F40043E3603E4B9C425CD1037B3B
:109B10003E4A03F00F035367636AC27B23F00303DB
:109B2000134363623FB197F8203004F58050002B57
:109B300054D001230362B8F1000F27D004F5805000
:109B400011B14FF4004383652E4BB8F822109C42AC
:109B500098F821304FD02C4A94420DD10122112B7C
:109B600034BF012702272A4DB1F5006FAF5494BFCF
:109B700001270227274DAF54A26D0B4322F4F9525F
:109B800022F01E021343A3650123836505212046AD
:109B90002CF055F8B9F1000F03D04A467168FFF771
:109BA000A3FE204631782CF067F8A36CDB4313F456
:109BB000405FFAD1BDE8F883023B012B84D96CE702
:109BC000002389E7002371E70F4B9C4201BF037B11
:109BD0000E4A03F00F03C2F880309DE7E26997F860
:109BE000223097F8215022F009022B43134343F00F
:109BF0000103C3619FE70022B1E700BFE39BBDFF04
:109C0000FFF9F0870000015B00000A50009003504C
:109C1000EC4B0020EA4B0020072A2DE9F0411546C5
:109C200098464FF0030401F003072DD89600B44086
:109C300000FA06F221461C482CF02EF821461B485B
:109C400007FA06F22CF028F8194B1A499DF818006B
:109C5000B8F1000F18BF1946012303FA05F50D608E
:109C6000154B1649002818BF0B461D60144B9DF874
:109C70001C00C3F82054103103F22443002818BFFD
:109C80000B461D60BDE8F081A2F10806B600B440A5
:109C900000FA06F221460B482BF0FEFF21460A4847
:109CA00007FA06F2CEE700BF00C4035008C4035011
:109CB00010D4035010E4035014E4035014D40350A0
:109CC00000E0035004C403500CC403502DE9F041DC
:109CD00005460F461E4690464AB101233022194CD4
:109CE0008B4002FB004436B304F5825423600F21FD
:109CF000072F05EB450388BFA7F108044FEA0313BC
:109D0000114895BFBC00A40004330C3308FA04F2D8
:109D1000A14018442BF0C0FFB8F1000F09D1012376
:109D20003021084ABB4001FB05223EB102F58252B8
:109D30001360BDE8F08104F50154D7E702F5015244
:109D4000F6E700BF00C0035030C00350104B014085
:109D5000D3F8302422EA0002C3F83024D3F83024A8
:109D60001143C3F83014D3F82C240243C3F82C2435
:109D7000084AD36E03F03003202B1FBFD36E23F0AD
:109D8000300343F01003D366034BC3F8200470473D
:109D900000C003500040005000E0035038B51446A6
:109DA0001D46032283F00103FFF790FF012004F119
:109DB0001001884005FA01F1FFF7C8FF9DF8101067
:109DC000034B044A002918BF1346186038BD00BF72
:109DD00024E4035024D40350F8B505460E46144637
:109DE0005AB303F00307836823F4407383602BF0B6
:109DF000EBFEAA6882EA072303F440735340AB608A
:109E00002BF0E6FE36B9B5F1B64F17D12E20FEF78E
:109E1000B3FF0646AB680C4BDA5D62430DD0A2EB94
:109E2000C403013B3344B3FBF2F3AA68013B92073E
:109E300002D5002B08BF0123AB61F8BD034B9D4247
:109E4000E8D12F20E3E700BF5554040800800650F6
:109E500038B500230E4A036400F50053DA634A78EC
:109E600004460D4600F108037AB903F58053022237
:109E70001A602046D5E901122B7BFFF7ADFF204683
:109E80002978BDE838402BF017BF03F50053EEE703
:109E9000FFFF1F00B0F1B64F70B519D0804B98424C
:109EA00040F0FA807F4B9968C26B12F4C06F15D0F6
:109EB00091050FD5FD225A7009221A700022026402
:109EC00093F90110012900D15A7093F9010070BD76
:109ED000754BE8E75605EFD5FE22ECE71C78082C19
:109EE00000F2D680DFE814F009001F00450053009F
:109EF00070007E009C00A700CB004C880A88E50615
:109F00000AD5120A02F0060242F0F002012119708D
:109F10004263C1600120DAE702F0FE02A10748BFF8
:109F200042F00102F2E7160608D5802100F5005242
:109F3000D1634FF608721A80022318E05506E9D55E
:109F4000402400F50052D4634A88D40604D5022286
:109F50001A700B784363DDE796076AD507221A70FB
:109F60001B7901EBC3031B89012BD3D10823C360E9
:109F7000D0E71506D9D45406CCD5402400F50052BC
:109F8000D4634A88920754D503221A708CE74C8810
:109F90000A88E60643BF120A02F0060242F0F00207
:109FA00002F0FE02650709D51C7942F0010201EBBF
:109FB000C4010989012904BF0821C1600421197065
:109FC0000123C3604263A5E71406AED45206A1D5AF
:109FD000402400F50052D4634A88560729D5072249
:109FE0001A7097E71A795D8801EBC2042689AE42A0
:109FF0000FD800240132D2B21A715C804C886507F8
:10A00000C2D4E40702D4012A7FF64EAF08221A70A8
:10A0100092E76268691C5980525D42630622DFE75D
:10A02000160682D455067FF575AF402400F5005220
:10A03000D4630522A9E794067FF56CAF20261A7930
:10A0400000F5005401EBC2010A89456AE6635C88A9
:10A05000A24281BF4968661C5E800D5559888A42BC
:10A06000D4D90424012AC46004D0013A914201D118
:10A070000822C2601A78092A3FF420AF4AE7D205C5
:10A080007FF548AF4FF4807100F50052D16313E7BC
:10A090004FF609321A8011E76FF0030017E700BF8F
:10A0A00000800650242A0020182A0020B0F1B64F64
:10A0B00010B407D01A4B98422ED06FF003005DF811
:10A0C000044B7047174B0269D20744BF2022C2607D
:10A0D0004A88940702D50C89002CEED0520702D58D
:10A0E0000A8A002AE9D04FF480721A60002299602F
:10A0F0001A71C023C3604369DB050FD4202200F529
:10A100000053DA63084A5DF8044BDA63036C43F4E6
:10A11000FC630364FFF7BEBE044BD4E7436AEAE77F
:10A1200000800650182A0020FFFF1F00242A00206C
:10A130004FF400120B4B10B5C3F88020BFF34F8FC4
:10A14000BFF36F8F0024FF22074B21465C65202060
:10A150009A625C60FEF7F6FD2146BDE810402120C2
:10A16000FEF7F0BD00E100E000000450044A054B9A
:10A17000002908BF1346012282401A60704700BFC1
:10A18000401004504020045010B501210446202006
:10A19000FEF7D8FD01212120FEF7D4FD0122114B4D
:10A1A0005A60227812069A606178A27842EA0142E7
:10A1B0009A61FF229A6200229A631A644FF0004269
:10A1C0005A654FF0FF324FF4001103F500531A6542
:10A1D000054AC2F88011E3781B01DBB282F815331F
:10A1E000116010BD0000045000E100E0F8B5012549
:10A1F000C3B2D1F800E091F80AC00F7B0C469D4035
:10A20000CB7A1D491D4E0D65810001F1A04101F57C
:10A210008821C1F804E04FF0300E0EFB00601B05F2
:10A22000617B43EA0C4343EA475322F00302016691
:10A23000C36502672BF0D7FC736D2B437365237ADC
:10A2400013B1336C2B433364637A13B1B36B2B4379
:10A25000B3632279A37943EA0243074A93616179A0
:10A26000E37943EA014306498B61044B55639D64DE
:10A27000BDE8F8402BF0BDBC0020045000000450A5
:10A280000010045010B50124C0B284402BF0ABFC88
:10A29000044B5A6D22EA04025A659C62BDE81040E4
:10A2A0002BF0A7BC0000045010B50124C0B28440BC
:10A2B0002BF099FC074BDA6A224208D15B6B9C4376
:10A2C0000CBF012400242BF094FC204610BD002478
:10A2D000F9E700BF000004504FF48032054B9A6646
:10A2E00041F6713203F51C33DA63012203F50053A2
:10A2F000DA6070470090005041F671320121064B40
:10A30000DA6303F50052D1600022DA634FF4803241
:10A31000A3F518339A6670470000035001383128BE
:10A320009ABF024B185C0020704700BF59540408C4
:10A3300038B5C2F30625044602F0070241B942EAE5
:10A34000052242F440220634074B43F8242038BD4E
:10A35000114628462BF0BAFC02462846FFF7DEFFDE
:10A36000163442EA0022EFE700800350014BD3F895
:10A3700094007047004000504FF48032064B5A66FC
:10A3800003F5E6239B69C3F38512827003F03F0255
:10A390001B0B4270037070470090005040F6B732BC
:10A3A000064B5B689BB293429FBF4FF47A72B3FB3C
:10A3B000F2F3034AD05C88BF002070470080E00FB2
:10A3C0008B5404080120034B9B680A3303F01F03DE
:10A3D000984070470080E00F034B5A68D20702D5BF
:10A3E000DA69002AF9D1704700800A50054B9A6853
:10A3F0009107FCD45A689207F9D4DA69002AF6D199
:10A40000704700BF00800A5008B5FFF7E5FF022241
:10A41000014B1A6108BD00BF00800A5008B5FFF764
:10A42000E5FF0122024B03F580514A601A6108BD25
:10A4300000800A5008B5044B5968012903D1FFF781
:10A44000E3FF024B596008BD00800A5000A00A508B
:10A4500010B5064CFFF7CAFF6368012B03D1FFF765
:10A46000E9FFFFF7C3FF0378E36010BD00800A50E7
:10A47000B8B94A680B7812B1127843EAC2034A7835
:10A4800043EA42038A6812B1127843EA82138A7857
:10A4900043EA8203CA6812B1127843EA4223014AAE
:10A4A0009364704700800A5008B9014B59647047A3
:10A4B00000900A5008B9014B5964704700A00A5037
:10A4C00008B9014B1964704700A00A5010B9024B3B
:10A4D000186C70470020704700800A5048B911B1CD
:10A4E000012903D07047044BD86C7047024B186D9C
:10A4F00070470020704700BF00800A5040B911B17A
:10A50000012903D07047034BDA647047014B1A6589
:10A51000704700BF00800A5010B9024B586D704759
:10A520000020704700800A5038B50446054D31F0D0
:10A5300072FD0FCC0FC594E8030085E803000020EE
:10A5400038BD00BF302A002047F6FF739A42F0B5AD
:10A550006FD002296FD8394B5B5C012B6BD8384D1B
:10A56000DF0005EBC30415F83330A178012B13D1BC
:10A570000025E078401AA84202D80844C0B2F0BDD5
:10A58000431B6668A0EB530336F913609642D4BFB1
:10A590001D4603F1FF30EEE760680028EFD0B0F908
:10A5A0000040944204DBB0F902409442B8BF144624
:10A5B00083883D44FF2B19BFC8224FF0280CB0F907
:10A5C0000620B0F908C0A2EB04030CBF0126002648
:10A5D00093FBFCF333446E781BB29E4201DD002BEB
:10A5E00001DA731E1BB24FF47A7C01339BB2071D54
:10A5F0005D1E2DB24FEAC50E00EBC505EA88AD68B9
:10A600009E4214FB025222EAE27202F15C02B2FBA9
:10A61000FCF204DD37F8335001339542E8D200EB09
:10A620000E039888904228BF1046884238BF0846DB
:10A63000A4E7FF20A3E70020A1E700BF8E54040891
:10A64000302A00200229F0B555D82C4B585C01283F
:10A6500051D82B4C04EBC00114F830004B68012892
:10A660000FD1C8788C78904294BFC4EB0001C4EB42
:10A670000201001BCAB28242C8BF002233F9120095
:10A68000F0BD002B37D08878904202D3B3F9020096
:10A69000F6E7CC78B3F900009442F1D94C78998868
:10A6A000013CA1F1FF06714203F10405E4B27141DE
:10A6B00003F10C07CEB2B44216D805EBC1014FF43A
:10A6C0007A756A43B1F902404968521A04EBD471B1
:10A6D00002EB610292FBF4F29042D1DBB3F902008B
:10A6E0009042CDDC10B2CBE737F831C04E1C944518
:10A6F000E3D33146DEE70348C2E700BF8E540408C7
:10A70000302A00200080FFFF0148FFF70DBF00BF87
:10A71000945404087FB50222084B0949CDE901236E
:10A720004FF00073CDE90313072301A94FF0FF3069
:10A73000059331F0CFFC07B05DF804FB006A180008
:10A740000002060008B5B0B14FF480620B4B9A6668
:10A750002BF0FCFA4FF098435A6CD202FCD54FF420
:10A760008062586D064B10F470209A6604D0BDE8E4
:10A7700008402BF082BB212008BD00BF0090005094
:10A7800000A000502DE9F0418CB08846DDE912763A
:10A790001D460446002847D0002945D0002F43D04D
:10A7A000002E41D013F00F033ED120482049A36072
:10A7B000002A08BF0146E361C4E90013404609A925
:10A7C0002BF057FC68BB204609992BF0B6FA2946B6
:10A7D00020462BF0B2FA6946404600F0F7FA00BB7B
:10A7E000694620462BF095FA404603A92BF040FD20
:10A7F000B8B9204603A92BF08CFA0697012720460A
:10A8000045F0005506A9079708952BF082FA2046D7
:10A8100009A909960A970B952BF085FA2046FFF7B0
:10A8200091FF0CB0BDE8F0812120FAE7000100049F
:10A83000000101042DE9F04F97B0894690461F466C
:10A840000546DDF880A0002800F0BB80002900F05C
:10A85000B8803AB1229B002B00F0B380239B002BE1
:10A8600000F0AF80BAF1000F00F0AB80219B002B0D
:10A8700000F0A78067B13C680026229B4344029306
:10A88000464507D307B13C60002017B0BDE8F08F04
:10A890003C46F1E75CB1229B219A9B5D125D01343D
:10A8A0005340239A04F00F0493550136E8E7A8EBD0
:10A8B000060BBBF10F0F58D9434B4846C5E900348E
:10A8C000AC60EC6113A92BF0D4FB0028DDD1284645
:10A8D00013992BF00F0B2BF030FA594628462BF02A
:10A8E0002CFA484604A900F071FA0028CDD1284678
:10A8F00004A92BF00EFA484607A92BF0B9FC002852
:10A90000C3D1284607A92BF004FA012322992F4A24
:10A91000CDF828A00B930C928A190D9228464BF083
:10A9200000520AA90E9303920F922BF0F2F92846D7
:10A930000DA92BF0EEF9239B039A9919012310918D
:10A9400011931292214A284610A9CDF84CA01493D5
:10A9500015922BF0E8F9284613A92BF0E4F92846C4
:10A96000FFF7F0FE5E4400288FD1229B03EB060B1D
:10A97000239B1E44029B5B4501D1464680E7ACB950
:10A98000219B2246CDE900A3494610232846FFF724
:10A99000F9FE00287FF479AF0AF1100212F8013DA8
:10A9A0000133DBB213700BB95245F7D1219A1BF872
:10A9B000013B125D0134534006F8013B04F00F04E3
:10A9C000D8E7212061E700BF030300041000002046
:10A9D0002DE9F04F97B0894615469A460446209FC8
:10A9E000DDF88880DDF890B0269E002800F09D807C
:10A9F000002900F09A80002E40F08A80002B00F0A1
:10AA00009480B8F1000F0AD0219B002B00F08D80BC
:10AA1000002A40F09F80F10700F1878002E0002AC1
:10AA200040F08580FB1F062B7FD8524B0BEB0502B5
:10AA30009A427AD80023504A4846C4E90023A360CA
:10AA4000E36113A92BF015FB00285ED12046139972
:10AA50002BF073F9204646EA07412BF06EF9414688
:10AA600020462BF06AF9294620462BF066F9484625
:10AA700001A900F0ABF9002847D1204601A92BF02D
:10AA800048F9484604A92BF0F3FB00283DD14FF0CC
:10AA90000109204604A92BF03CF9239B45F0005501
:10AAA0000793219BCDF82090204609950DA90A9384
:10AAB00047F0005748F00053CDF82C900C93CDF898
:10AAC00034A0CDF838900F972BF023F920460AA92F
:10AAD0002BF01FF9204607A92BF01BF9259B2046D8
:10AAE00010A946F00056CDF840B0CDF8449012952C
:10AAF0001393CDF8509015962BF015F9204613A915
:10AB00002BF011F92046FFF71DFE17B0BDE8F08FBE
:10AB1000259B53B1BAF1000F07D0B8F1000F01D057
:10AB2000219B13B1B5B9022E20D12120EDE7239B43
:10AB3000002BFAD0BBF1000FF7D0C7F10F03DBB247
:10AB4000032B3FF668AF0122DB0002FA03F3AB42AE
:10AB5000EBD9E8E7239B002BE7D0BBF1000FE4D053
:10AB6000C7F10F03DBB2032BDDD8ECE7102E7FF625
:10AB700052AFDAE7FFFF0320000005042DE9F04F94
:10AB800099B0884615469B460446229FDDF898906A
:10AB9000289E60B159B1279B4BB1BBF1000F06D085
:10ABA000249B0BB1239B13B11DB9022E13D121237A
:10ABB0009AE0259B002BFAD0B9F1000FF7D0C7F12E
:10ABC0000F03DBB2032BF0D80122DB0002FA03F300
:10ABD000AB42ECD9E9E7731E0F2BE8D816F0010A57
:10ABE000E5D1FB1F062BE2D8414B09EB05029A4247
:10ABF000DDD8404B4046C4E9003AC4F808A0C4F888
:10AC00001CA015A92BF035FA034600286CD120466C
:10AC100015992BF092F8204646EA07412BF08DF863
:10AC2000204624992BF089F8294620462BF085F8F8
:10AC3000404603A900F0CAF80346002854D1204634
:10AC400003A92BF066F8404606A92BF011FB03463A
:10AC5000002849D14FF00108204606A92BF059F8E9
:10AC6000259B2046099345F00053CDF82880019399
:10AC70000B93239B0FA90C93249B47F0005743F0A1
:10AC80000052CDF834800E92CDF83CB0CDF8408023
:10AC900011972BF03EF820460CA92BF03AF82046ED
:10ACA00009A92BF036F8019B204612A9CDF848904F
:10ACB000CDF84C8014932BF036F8279B204615A92D
:10ACC00046F000561593CDF8588017962BF021F8D2
:10ACD0002046FFF737FD034630B101902A46514622
:10ACE000484634F0B4FB019B184619B0BDE8F08F1C
:10ACF000FFFF0320000006042DE9FF474FF0000886
:10AD00000E4617460446CDF80080002859D022B9D7
:10AD10000025284604B0BDE8F087002951D032F064
:10AD2000030902F0030A1FD04FF0E063C0E90038C6
:10AD300001230191C0F808800293C0F81C8049F0FB
:10AD4000005301A903932AF0EEFF494620462AF05A
:10AD5000F4FF2046FFF7F6FC054628B14A46414677
:10AD6000304634F074FBD4E7BAF1000FD0D04FF086
:10AD700000084FF0E063C4E900380123CDF804D0A7
:10AD80000293114B204601A9C4F80880C4F81C8026
:10AD900003932AF0C8FF042120462AF0CEFF204664
:10ADA000FFF7D0FC054608B13A46D8E7009A4E4472
:10ADB000EB00013522FA03F3AA4506F8013BF7D16F
:10ADC000A6E72125A5E700BF0400002090B189B1C6
:10ADD00001234B60C368013B012B08D88269064BF5
:10ADE0001AB10A6000208B607047044AF9E74FF0FF
:10ADF0000053F7E72120704708000020EC5A0408B0
:10AE0000012300F01F02A0F506200949A0F55060BB
:10AE10004009934051F820201A4341F82020054969
:10AE200051F8202022EA030241F82020704700BF99
:10AE3000682A0020482A00200122A0F506230D4997
:10AE4000A3F550635B0900F01F00824051F8230016
:10AE5000024341F8232000231946074A52F8040B05
:10AE60000133082B0144F9D119B92022014834F0EB
:10AE7000EEBA7047482A0020682A00202DE9F04FDA
:10AE8000A9B003921E4604460822339FCDE904016F
:10AE9000414021FA02F34B40980702F1080218BF23
:10AEA0009B00202A1C44F4D1744BE4B21B7804F5B7
:10AEB000062404F55064002B3ED1FDF77DFC0546C9
:10AEC00020B16FF0910029B0BDE8F08F014640221B
:10AED00008A834F0BCFA4022294618A834F0B7FA82
:10AEE000DFF8B481DFF8B491C3460BF10F0ACDF857
:10AEF00000A05B461022D9F8000008A930F053FEEC
:10AF00000023024608F1100808AD9A423DD1CDF861
:10AF100000A05B461022D9F8000018A930F04CFEC2
:10AF20004FF0000A834618ADD34538D1544B9845AD
:10AF3000DAD10122514B1A704FF480780025DFF8E6
:10AF400060B1A4F50623A3F5506252095BF8221004
:10AF500004F01F00C140C90734D44A4951F82220E7
:10AF6000C240D20722D5A3F6FF43DBB2002D08BFB3
:10AF7000254603F50624B8F1010804F55064E0D134
:10AF8000039BABB1A5B12C4618E055F8040BCDE9F5
:10AF90000623FFF735FF079B069A0133B5E755F8FF
:10AFA000040BFFF749FF0AF1010ABDE7039B13B940
:10AFB0006FF08B0087E7002D18BF2C46349B0020D4
:10AFC0001C6080E7329B13B10023329A13600FB1EB
:10AFD00000233B604FF0100ADFF8C090CDF800A0CE
:10AFE000002332462146D9F8000012F089FA58BBF6
:10AFF00032993268244BC1B99A4206D02146D9F819
:10B00000000012F0E5FB0028D2D1D6E90223DDE9E9
:10B010000410834208BF8A4226D0A4F50624A4F671
:10B02000FF44E4B204F50624A5E732999A42C1F838
:10B0300000A0E3D1002FE8D03B462146D9F800001C
:10B0400018AA12F081FB48B1104B9842D6D0104B91
:10B050009842D3D00F4B9842D7D032E7329A3B6810
:10B0600012689B1A3B60D0E7039B002BA6D0736845
:10B07000012BA3D16FF0840025E700BFEE4B002029
:10B0800000710800482A0020105D175EFFDF00F005
:10B0900011E000F0FEDF00F0006D08002C11002030
:10B0A000682A00202DE9F04F87B0824689469846ED
:10B0B0001646DDF840B02AB1002B4FD040F26C7339
:10B0C0009A424ED8BBF1010F4ED8002406F110076A
:10B0D0003946012005942FF0A9F90546002846D0ED
:10B0E00021463A4634F0B3F905ABCDE9014300946B
:10B0F0002B46012250464946FFF7C0FE044680B168
:10B1000010F18C0F08BF6FF08D043A4600212846DD
:10B1100034F09DF928462FF099F9204607B0BDE894
:10B12000F08F144BC5E902A92B60C5F804B02EB10D
:10B130003246414605F1100034F0AFF9059E0E4845
:10B140003B462A463146006812F042F918B93046AB
:10B15000FFF756FED9E76FF09104D6E76FF086044B
:10B16000DBE76FF09104D8E76FF08504D5E76FF067
:10B170008C04D2E7105D175E2C1100202DE9F043FE
:10B180008DB08146DDE914780E4615461C469BB10C
:10B19000B8F1000F05D16FF0860630460DB0BDE85E
:10B1A000F083002FF7D0B7F1005FF4D3C3F1005361
:10B1B00003F580239F42EED81022002108A834F026
:10B1C00046F9002207AB029305AB019306AB31466B
:10B1D0000093484608ABCDE90522FFF74FFE06462F
:10B1E0000028DAD1059BA4B1AB4215D853EA050477
:10B1F000D1D1069B0B48C8F8004000943A46079905
:10B2000000682B4412F07CF9002818BF6FF09106FB
:10B21000C3E7AB42EDD2BEE75B1B9C4228BF1C4696
:10B22000E7E700BF2C11002030B58DB00C46054675
:10B230001022002108A834F00AF9002207AB02937B
:10B2400005AB019306AB21460093284608ABCDE938
:10B250000522FFF713FE0446D8B9099B012B1BD02A
:10B26000079D104B2946186812F0B2FAB8B90122AE
:10B27000A5F506230C49A3F550635B0905F01F00F3
:10B28000824051F823004240284641F82320FFF72E
:10B29000D3FD20460DB030BD6FF08404F9E76FF0A8
:10B2A0009104F6E72C110020682A002030B50488AC
:10B2B00004F4E043B3F5005F2ED1C4F30223042B62
:10B2C0002AD181F0AA6383F4807333F47E132AD0E9
:10B2D00081F0AA6383F4007333F47E1323D0002338
:10B2E000144D21F47E11A9421AD1B4F5105F17D183
:10B2F000418821F04000802802D0B1F5807F15D12F
:10B30000191F0C2912D8DB0710D4073A072A34BFBB
:10B3100000206FF0860030BD42F204039C42DED173
:10B320006FF08500F7E7C1F30543D9E76FF08600BA
:10B33000F1E700BF000140052DE9F04F9BB08146C9
:10B34000DDE928761D468B46DDF8A880DDF8BCA037
:10B35000099241B138B1249B2BB1269B0BB9279B95
:10B360000BB91FB94EB16FF086047FE02EB1B8F172
:10B37000000FF8D02B9B002BF5D02C9B002BF2D08C
:10B38000BAF1000FEFD02E9B002BECD02D9B002BA1
:10B39000E9D0B9F8003003F4E042B2F5005F69D1BA
:10B3A000C3F30222042A65D185F0AA6383F4807373
:10B3B00033F47E1306D085F0AA6383F4007333F46C
:10B3C0007E1360D1C5F3054329464846259ACAF83D
:10B3D0000030FFF76BFF0446002847D101462022CA
:10B3E0000AA834F034F82022214612A834F02FF8AD
:10B3F0000AA82AF070FD002855D159464846099AF6
:10B4000012AB00F0C3FA044600282FD12B9B9E42BA
:10B410004CD8DAF800302E9A934247D8474508D2E4
:10B42000BB19984505D239463246404633F0F5FF00
:10B430004746204B25F47E159D4226D1DAF8003090
:10B44000324606932D9B0397CDE90483279B12A9CF
:10B450000293269B0AA80193259B0093249BFFF748
:10B46000B7FA212819D0D8B92C9B1E6020461BB0F2
:10B47000BDE8F08F42F20402934204D185F0052327
:10B4800083F480139BE700239EE76FF0880400237A
:10B490002C9A1360CAF80030E8E76FF08604F6E7EC
:10B4A0006FF09204F3E76FF09204DFE76FF0890426
:10B4B000DCE700BF000140052DE9F04F99B08A4656
:10B4C000DDE926659346984681462A9F28B96FF0A4
:10B4D0008604204619B0BDE8F08F0029F7D0229BE2
:10B4E000002BF4D0249B13B9259B002BEFD10EB970
:10B4F000002DECD117B92B9B002BE8D12C9B002BF6
:10B50000E5D0289B002BE2D041464846239AFFF71E
:10B51000CDFE04460028DCD1202201460DEB0200BE
:10B5200033F095FF2022214610A833F090FF08A8A1
:10B530002AF0D1FC10B16FF09204CAE75A46514686
:10B54000484610AB00F022FA04460028C1D12B9BDC
:10B550009D422AD8BE4208D273199F4205D2314675
:10B560002A46384633F059FF3E46144B28F47E18DD
:10B5700098451DD1299B2A460693289B0396CDE921
:10B580000473259B10A90293249B08A80193239B75
:10B590000093229BFFF7F2FA212898D02C280AD09A
:10B5A0000028C8D12C9B1D6093E76FF0890490E7B9
:10B5B0006FF088048DE76FF094048AE7000140057E
:10B5C000084B984202D0084B984207D10B88B3F53C
:10B5D000105F0CBF00206FF0850070476FF0850092
:10B5E000704700BF004440040013C0042DE9F04F31
:10B5F00099460023A3B09346DDE92E74DDE9306857
:10B60000CDE90633CDE90833CDE90A33CDE90C3372
:10B61000DDF8C8A00490059129B96FF08605284689
:10B6200023B0BDE8F08F002AF7D00FB9002CF4D179
:10B630002C9B13B92D9B002BEFD116B9B8F1000F3D
:10B64000EBD1BAF1000FE8D048460499FFF7B8FFF4
:10B6500005460028E3D10146202212A833F0F7FE68
:10B66000202229461AA833F0F2FE12A82AF033FC51
:10B67000002878D1DDE904015A461AAB00F086F9BA
:10B6800005460028CBD11A982AF0CEFF054600289F
:10B69000C5D114B9CAF80000C1E7B7420AD23B19B4
:10B6A0009E4207D24445B8D839462246304633F048
:10B6B000B4FE37464E4B994558D003F54073994533
:10B6C00015D04C4B994540F08C804445A5D814F0DA
:10B6D0000F02A2D12346CDE900761AA912A8FFF7DE
:10B6E00051F80746002834D1CAF8004097E70023F4
:10B6F0004445CDE90E33CDE910338ED82D9B0D2B6B
:10B700008BD101238DF838302C9B0DF1390203F1D8
:10B710000C0153F8040B8B4242F8040BF9D11B784F
:10B72000137001238DF8473014F00F0933D10F2C1B
:10B73000DAD906AB01930EABCDE90276009324F083
:10B740000F0200231AA912A8FFF774F80746002871
:10B7500043D042460021304633F079FE0023012FCA
:10B76000CAF8003040D06FF0920558E744453FF6E4
:10B7700054AF2D9B102B7FF450AF2C9B0DF1380C48
:10B7800003F1100E624618685968083303C2734506
:10B790009446F7D1C8E724F00F033B440DF1280C81
:10B7A00003F1100E624618685968083303C27345E6
:10B7B0009446F7D10F2CBCD824F00F0333440393E5
:10B7C0000AAB029306AB01930EAB00934A460023EB
:10B7D0001AA912A8FFF72EF883E7B9F1000F83D05A
:10B7E000EAE76FF085051AE76FF08B0517E700BFF2
:10B7F0000010C004004440042DE9F04F9946002396
:10B800009FB09346DDE92865DDE92A788A46CDE9CF
:10B810000633CDE90833CDE90A33CDE90C33059081
:10B8200029B96FF0860420461FB0BDE8F08F002ACA
:10B83000F7D00EB9002DF4D117B9B8F1000FF0D13F
:10B840002C9B002BEDD048460599FFF7B9FE044626
:10B850000028E8D1014620220EA833F0F8FD20226E
:10B86000214616A833F0F3FD0EA82AF034FB002879
:10B8700044D15A465146059816AB00F087F8044665
:10B880000028D0D116982AF0CFFE04460028CAD14D
:10B8900015B92C9B1860C6E7BE420AD273199F42A5
:10B8A00007D24545BDD831462A46384633F0B5FD66
:10B8B0003E46344B994549D003F54073994520D015
:10B8C000314B994554D1454555D82B07A9D12B4625
:10B8D0000122CDE9006716A90EA8FEF753FF2C9BA5
:10B8E00006461D6000289ED042460021384633F0AF
:10B8F000AEFD00232C9A012E13603FD06FF092040E
:10B9000091E70D3D454536D801238DF82830334663
:10B910000DF1290206F10C0153F8040B8B4242F899
:10B92000040BF9D11B780D3613704FF48073ADF80A
:10B93000363006AB01930AAB00932A460023CDE9CB
:10B94000026716A90EA8FEF775FFC8E7103D45452A
:10B9500011D833460DF1280C06F1100E6246186816
:10B960005968083303C273459446F7D11036E0E7AF
:10B970006FF0850457E76FF0890454E76FF08B048C
:10B9800051E700BF0010C00400444004F0B5164663
:10B9900000221C4643688DB01B0A07460D460092E4
:10B9A00004D0012B38D06FF08B0071E02246314675
:10B9B00000962AF060FE00286AD1F31CC4E9030552
:10B9C00023F003036361002E00F0A38020220021F6
:10B9D00001A833F03CFD3146384601AA2AF04BFE5F
:10B9E000002840F096802368019A9A4240F09180A6
:10B9F0006368029A9A4240F08C80A368039A9A4244
:10BA000040F08780A369079A9A4240F08280E369F8
:10BA1000089A9A423CD07CE0032E7FD90B78012B08
:10BA200040F08780497800294BD0F7390829BAD8E7
:10BA300001A353F821F000BF9FBA00085DBA0008C7
:10BA4000A7B9000895BA0008A7B90008B9BA000854
:10BA5000A7B90008A9BA0008B1BA00084FF41056F7
:10BA6000F825354F1C22002102A833F0F0FC0323F7
:10BA70000197CDE90435039601AA09AD134603CB1E
:10BA8000AB42206061601A4604F10804F6D1002040
:10BA90000DB0F0BD10274FF08076FA25E2E72027A1
:10BAA0004FF00076F725DDE7FE25234F234ED9E73B
:10BAB000FF25214F224ED5E74FF41056FC251E4F8F
:10BAC000D0E72B2E2AD92022204633F0C0FC05F1E6
:10BAD00010032361AB070DD001AB05F1280C1A460A
