S00E0000526F75746572382E7333372D
S3150800600000100020AD800008B5E20008B9E20008DB
S315080060100F9B0308BDE20008C5E200080F9B0308B2
S315080060200F9B03080F9B03080F9B03080F9B03088E
S31508006030C9E20008689004080F9B03080F9B030831
S31508006040A98500080F9B03080F9B03080F9B0308ED
S315080060500F9B03080F9B03080F9B03080F9B03085E
S315080060600F9B0308B57700080F9B0308957E000869
S31508006070799803080F9B03080F9B03080F9B0308D7
S315080060800F9B03080F9B03080F9B03080F9B03082E
S315080060900F9B0308058D00080F9B03080F9B030839
S315080060A00F9B0308298E0008058E00080F9B03081E
S315080060B00F9B030815120208A11C020873060408A0
S315080060C06F060408491402087F06040877060408C0
S315080060D0791C02087B060408E11C02084D1D02080B
S315080060E00F9B03080F9B0308D5E300080F9B0308C3
S315080060F059B403080F9B03080F9B03080F9B03085B
S315080061000F9B03080F9B03080F9B03080F9B0308AD
S315080061100F9B03080F9B03080F9B03080F9B03089D
S315080061200F9B03080F9B03080F9B03080F9B03088D
S315080061300F9B03080F9B03080F9B03080F9B03087D
S315080061400F9B03080F9B03080F9B03086BB90308F3
S31508006150590202080F9B030873030408790304080D
S315080061600F9B03080F9B03080F9B03080F9B03084D
S31508006170013800D0FCE770472DE9F04F93B0CDE920
S315080061800A32DDE91C530E9353EC102BCDE90801B6
S31508006190104619468DED060B1E9E31F031FB80B177
S315080061A0DDE906014FF0FF32C54B31F051FB40B92E
S315080061B0DDE906014FF0FF326FF4801331F02AFB58
S315080061C070B1DDE908019DED060B0E9B1E96CDE923
S315080061D01C53DDE90A3213B0BDE8F04F00F088B968
S315080061E00022DDE90601002331F014FB002800F047
S315080061F03381DDE906A303F1004BCBF30A5016F40D
S315080062008063A0F2FF3008BF06250F9331F026F809
S315080062109BA3D3E9002331F08BF89BA3D3E9002392
S3150800622030F0D0FECBF31304894644F07F51804604
S315080062300022A44B504641F4401130F0C1FE94A30D
S31508006240D3E9002331F074F802460B464046494626
S3150800625030F0B8FE31F006FB044630F0FFFF8EA39F
S31508006260D3E900238046894631F062F80022964B2E
S3150800627030F0A8FE31F0F6FA89A3D3E900230746E1
S315080062804946404631F054F880463846894630F04B
S31508006290E5FF85A3D3E9002331F04AF802460B4609
S315080062A04046494630F08CFE02460B46CDE90C23A3
S315080062B031F03EF8DDE90C2380468946104619463A
S315080062C030F080FE0022CDE91001804B4046494659
S315080062D031F058F900227E4B30F074FE02460B4628
S315080062E04046494631F04EF900227A4B30F06AFEB4
S315080062F002460B464046494631F044F9DDE90C238F
S315080063008046894600204FF0804130F059FE02460B
S315080063100B464046494630F055FE02460B46DDE937
S31508006320100131F02FF907F2FF3700226A4B30F0DF
S3150800633049FE00223B0530F0FBFF52465B4680468D
S31508006340894631F085FA002840F08980CDE90C8924
S3150800635004F16303C72B34BF0427052731051BD572
S3150800636053A3D3E900235046594631F067FA00286B
S315080063707FD051A3D3E900235046594631F04AFA53
S31508006380002876D00027A542C6BF2C1B04F1FF358E
S3150800639000253C4646F480660E9B9F422CBF4FF074
S315080063A00008A3EB070816F0020903D0002F18BF50
S315080063B04FF000083CB1DDE90C235046594631F050
S315080063C0E1F882468B46DDE906010022002331F01A
S315080063D021FA10B10BF100439B46DDE9080126F4CA
S315080063E00063CDE90183DDE90A324BEC10AB009579
S315080063F000F07EF802465FB3DDE9091316F0200FB8
S3150800640000F10105089E0CBF65204520B047DDE96F
S3150800641008010523002205930A23002CCDE9023240
S3150800642007F1FF374FEAD473B8BF64422A4601938F
S3150800643004970A9B009438F061FF0246B9F1000FF1
S3150800644006D00B9BC41A0B9B1A190E9BA34245D860
S31508006450104613B0BDE8F08FDDE906ABCDE60022A5
S31508006460404649461A4B31F08DF8013CCDE90C01FE
S315080064706EE7002D90D00F9B002B8DD0013D8BE74A
S31508006480FB799F501344D33FB3C8608B288AC63F15
S3150800649061436F63A787D23F71A379094F930A4077
S315080064A01655B5BBB16B0240EF39FAFE422EE63FF0
S315080064B02D431CEBE2361A3F0000000080842E4173
S315080064C0FFFFEF7F0000F83F0000E03F00002C4090
S315080064D000002440000018400000F03F2020DDE9BD
S315080064E00913089DA8470134ADE700BF0000000066
S315080064F02DE9F04F5BEC10AB97B0CDE90501DDE96E
S315080065002057CDE90723504652465B465946229EF8
S3150800651031F076F970B90323CDE902760193B04BD1
S315080065200093DDE90501DDE9072338F007FE17B01A
S31508006530BDE8F08F4FF0FF326FF48013504659468E
S3150800654031F068F928B10423CDE902760193A54B09
S31508006550E6E74FF0FF3250465946A34B31F078F93B
S3150800656068B1A24A06F00403002B08BF0322A04B19
S315080065701CBF13460422CDE902760192D0E75046A5
S3150800658093A3D3E90023594631F062F938B992A3A7
S31508006590D3E900235046594631F03CF968B1DDE9A4
S315080065A00723DDE905014BEC10ABCDE921762095F3
S315080065B017B0BDE8F04FFFF7DFBD002200235046B5
S315080065C0594631F027F9002800F09A805B46524672
S315080065D00020002130F0F4FC012382468B46099303
S315080065E016F4806400F08E80092D40F28E80002417
S315080065F030210EABA5F109020134202C03F8011B4A
S31508006600A5EB040901D09442F6D15946504631F01B
S3150800661029F9784B054603EBC90393ED007B8DED0D
S315080066200A7B30F01BFE02460B465046594630F0B0
S31508006630C7FCDDE90A2330F07BFE02460B46CDE9AE
S315080066400C2331F037F9804630F0F8FD02460B4648
S31508006650DDE90C0130F0B4FC02460B46CDE90C230B
S315080066600022654B31F0F4F8002851D008F10108F2
S31508006670404630F0E3FD02460B46DDE90A0131F0FB
S31508006680D3F810B14FF000080135B9F1000F50D119
S31508006690284630F0E3FD02460B465046594630F090
S315080066A08FFC0022544B8046894631F0B3F830B14E
S315080066B0002240464946504B31F0CAF810B1E80767
S315080066C000D501350A210EAB1A19202C0AD095FBE4
S315080066D0F1F001FB1055303502F8015B013405462F
S315080066E00028F2D106F00302012A57D1002F55D00F
S315080066F0099A12B916F00C0F00D0013F302245E076
S3150800670009906DE74FF006097FE7A94600247CE764
S315080067100022DDE90C01384B31F07CF80028B4D1B1
S31508006720B8F1000F02D018F0010FAED008F1010839
S31508006730ABE70A210EAB2344202C0ED0B8FBF1F0B0
S3150800674001FB1082B8F1090F02F1300209F1FF3995
S3150800675004F1010403F8012B11D83021A1440EAA33
S31508006760202CAFD0A14504F101030AD11C4609F13A
S3150800677058030DEB03092E2309F8203CA2E78046AF
S31508006780DAE7A1541C46EBE71A550134A74205D9A6
S31508006790202CF9D1CDE902760194C1E6202CF9D056
S315080067A0099A3AB12D2104F158026A4402F8201CCC
S315080067B00134EFE7710704D504F158022B216A4426
S315080067C0F4E73207E6D504F1580220216A44EDE7DA
S315080067D00000000065CDCD410000000065CDCDC1AB
S315080067E0E7E70408EBE70408FFFFEF7FDEE70408A6
S315080067F0E3E70408F0E704080000E03F00000000B3
S3150800680070B58EB02C22002103A83DF0F8F8642359
S315080068104FF002320893CDE905230B2301218DF8A9
S315080068203430514B8DF810101B88D80700F195802D
S3150800683008461BF0C3FB0A224C4B4D491A704FF40D
S3150800684028734C48ADF812301BF03EFB4A4C2060CA
S3150800685020B94FF41171494807F02AFC0521206830
S3150800686039F0D6FA20B14FF41571444807F020FCE8
S31508006870206801F01BFB424B2068196839F03EFB83
S315080068800C251CF0B3FA684309901CF0AFFA68436C
S315080068900DEB05010790206815F00EFC20B140F2BB
S315080068A06921364807F004FC00223649206839F089
S315080068B0AEFB20B140F26B21304807F0F9FB40F2FD
S315080068C00353314D314E2B80052396F90000AB70EA
S315080068D07F2801D11BF03CFD3378EB701CF086FA5B
S315080068E000EB80008000A8801CF080FA0023C0001E
S315080068F04FF0FF31E880AB604FF0FF3018A3D3E9C3
S3150800690000231BF083FD2249206839F058FF2068D0
S3150800691002A939F056FB20B14FF42971174807F040
S31508006920C7FB042220680DEB020139F0D5FA0428CA
S3150800693004D040F2A721114807F0BAFB01A90120AB
S3150800694039F0F7FF07F0FAFC01201CF0EFFC33F0F2
S3150800695036FC1CF015FD1BF0B5FB0EB070BD00BF74
S315080069600A0020FF42030000C04F002024580020E0
S31508006970E51F020894130020CC4600200C270508C2
S315080069804812002032580020C046002090180020E7
S3150800699085210208000000002DE9F04F9DB08246CF
S315080069A00C464FF000080F9200224FF0000918928B
S315080069B00A46179211782B293BD02CD80D2926D8B0
S315080069C0082926D800292FD000220D92179D2A784B
S315080069D0302A7DD16A7802F0DF02582A6ED10293F6
S315080069E017A90D9B50468A4A019318AB009319AB19
S315080069F031F04CFD10F00F0604463ED0062E1AD193
S31508006A000F9B0BB101351D6042464B4640E02029DD
S31508006A10DAD10132CDE72D29D6D101210D91511CAC
S31508006A2017915278002AD1D10F9B002BECD01C600D
S31508006A30EAE70021F2E7189A3AB135211AA83DF09B
S31508006A40EFF91899504631F06FFF013E199A042E56
S31508006A5006D8DFE806F022032B2E2200DDE91A8984
S31508006A60E10548BF49F0004929F000431B0D1B0505
S31508006A701BB931F097FC222303600F9B13B1179BB8
S31508006A800F9A13600D9B002BBED0424609F10043B6
S31508006A9043EC102B1DB0BDE8F08FDDE91A8302F236
S31508006AA0334223F4801343EA0259D9E7DFF86891A1
S31508006AB0D6E76FF000494FF0FF38D1E7179B5A1C0D
S31508006AC017925B78302BF9D0002BD6D0012300E043
S31508006AD00023002704930A22179BCDE905770A931A
S31508006AE017980578A5F13003D9B2092924D90122C6
S31508006AF048493CF08CFF00282DD000202A46059DE9
S31508006B0083460346652A01D0452A13D11DB9049A3E
S31508006B10024389D00025179C621C179262782B2A9B
S31508006B206CD02D2A70D04FF0000CA2F13001092943
S31508006B3078D91794002696E0059901300829179008
S31508006B40D7BF069902FB073702FB01330693059B5D
S31508006B5001330593C4E7179B5A1C17925A78059B6D
S31508006B60A3B383461D46A2F13003092B12D901238C
S31508006B70C8E7179B01305A1C17925A78302AF8D062
S31508006B80A2F13103082B00F2EF8483460020179BFD
S31508006B9005460A93303A00F1010311D09B4400EBF5
S31508006BA0050C2B460A219C4512D12B180135082BBA
S31508006BB0054419DC06990A2303FB012306930023DF
S31508006BC0179A1846511C17915278CCE70598D5E7BD
S31508006BD0082B03F1010303DC069E4E430696E2E703
S31508006BE0102BD8BF4F43DEE70F2BDCBF0A2303FB6E
S31508006BF00727E4E74FF0000B012388E74FF0000C66
S31508006C00A21C1792A27890E74FF0010CF8E700BF94
S31508006C10502A05084FC104080000F07F179A511C36
S31508006C2017915278302AF9D0A2F13101082981D872
S31508006C30303A0792179A0C92179A561C179652785A
S31508006C40A2F1300EBEF1090F38D90C99761A082E22
S31508006C5044F61F6603DC07998E42A8BF0E46BCF1B0
S31508006C60000F00D07642002D4FD1049908437FF4D7
S31508006C7004AF002B7FF4D8AE692A29D026DC492A2E
S31508006C8026D04E2A7FF4D0AE9B4917A83CF06BFF5E
S31508006C9000283FF4C9AE179B1B78282B2FD11AAAB8
S31508006CA0964917A83CF073FF052828D11B9BDDF8E9
S31508006CB0688043F0FF4949F4E009DEE6079E0A21A9
S31508006CC001FB0621A1F130020792B5E76E2AD9E742
S31508006CD08B4917A83CF047FF00283FF4A5AE179B41
S31508006CE017A88849013B17933CF03DFF10B9179B3D
S31508006CF001331793DFF81C924FF00008BDE682486F
S31508006D0000F04EFC59EC108BB7E6A6EB0B03069881
S31508006D102C460C93059B002B08BF2B46102D05937C
S31508006D20A8BF102430F08AFA092D8046894613DC5C
S31508006D300C9B002B3FF4A1AE0C9B78DD162B45DC93
S31508006D407249424601EBC3014B46D1E9000130F0D6
S31508006D50EFFA8046894690E66C4B03EBC40353E989
S31508006D60122330F0E5FA80468946384630F066FA4E
S31508006D7002460B464046494630F024F90F2D804618
S31508006D808946D5DD2C1B0C9B1C44002C25DC00F009
S31508006D90A280644214F00F020AD05C4B4046494672
S31508006DA003EBC203D3E9002330F0ECFB80468946A7
S31508006DB0241100F090801F2C40F3B28022234FF05C
S31508006DC000084FF00009CAF8003056E6C5F1250359
S31508006DD00C9A934219DA2C1B144414F00F030AD0A8
S31508006DE04A49424601EBC3014B46D1E9000130F05E
S31508006DF09FFA8046894634F00F046CD0B4F59A7F22
S31508006E0041DD2223CAF8003074E7C5F10F053F4C6F
S31508006E1042464B4604EBC501D1E9000130F088FA39
S31508006E200C9B5D1B04EBC504D4E900238FE71633DE
S31508006E30A8DBABEB0602354B4046494603EBC203DB
S31508006E40D3E9002330F09EFB83E700230693222331
S31508006E50DFF8C0904FF00008CAF80030189950467D
S31508006E6031F062FD0699504631F05EFD05995046AF
S31508006E7031F05AFD1099504631F056FD07995046A3
S31508006E8031F052FDF9E50023241140464946204FCA
S31508006E900493012C22DC0BB180468946049BA9F198
S31508006EA054791B49424601EBC3014B46D1E900011F
S31508006EB030F03EFA174B0A4680460B4016498B427D
S31508006EC09FD8A1F580118B4286BFDFF850904FF00E
S31508006ED0FF3802F15479002304934CE0E20704D505
S31508006EE0D7E9002330F024FA0123049A64100837FE
S31508006EF001320492CDE700BF064604083C2A05087D
S31508006F00302A0508332A0508A7990408B02C05086D
S31508006F10882C05080000F07F0000A07CFFFFEF7FAB
S31508006F2014F0100340464946AA4F18BF6A23049333
S31508006F300023E20704D5D7E9002330F0F9F9012345
S31508006F40641007F10807F4D10BB180468946049B03
S31508006F5043B1C9F30A524946C2F16B03002B4EDC12
S31508006F606A230493002200234046494630F048FC31
S31508006F7000287FF423AF069B5046059A00932B46BC
S31508006F800A9931F03BFD109000283FF43AAF0C9B6C
S31508006F90ABEB060B002BB4BF5B46002311930C9B8F
S31508006FA023EAE3731593002307930593109B504632
S31508006FB0596831F079FC069000283FF448AF109BD9
S31508006FC00C301A6903F10C01023292003CF03EFDC6
S31508006FD01AAA19A9504649EC108BCDE90A8931F04D
S31508006FE0E9FF189000283FF432AF0121504631F0EE
S31508006FF04FFD03460590D0B90023059327E71F2BBD
S315080070000EDD342B4FF00008DBBF4FF0FF33C2F123
S315080070104B024FF05C799340D8BF03EA01099FE71A
S315080070204FF0FF3202FA03F303EA080898E7199CBF
S315080070301A9A002CA9BF119B159BE718159EB8BF75
S315080070401E1B049BB8BF119FE41A634B1444C2F17C
S315080070503602013C9C4280F2B0801B1B01251F2B87
S31508007060A2EB0302CDBFC4F17F449D40002404F582
S315080070707F04C2BF04F57B44E23405FA04F407EB47
S31508007080020B049B16445F451E443B46A8BF5B465D
S31508007090B342A8BF3346002BC2BFABEB030BF61AAD
S315080070A0FF1A119B002B16DD1A460599504631F03A
S315080070B0AFFD059000289FD00146189A504631F03A
S315080070C0FDFC0E9000283FF4C2AE1899504631F0E8
S315080070D02BFC0E9B1893BBF1000F71DC0C9B002B4D
S315080070E008DD159A5046069931F092FD069000285B
S315080070F03FF4ABAE002E08DD32460699504631F015
S31508007100E1FD069000283FF4A0AE002F08DD3A46C0
S315080071100599504631F0D6FD059000283FF497AE04
S31508007120069A5046189931F039FE079000283FF420
S315080071308EAEC36805990E930023C3603CF023FE08
S3150800714000284BDA0E9B53EA080340F0BD80C9F3CA
S315080071501303002B40F0B88029F000431B0D1B05D4
S31508007160B3F1D66F40F2B080079B5B6923B9079BE2
S315080071701B69012B40F3A88001220799504631F07C
S31508007180A1FD059907903CF0FEFD002840F39C8080
S3150800719029F00043049A1B0D1B05002A7AD0B3F187
S315080071A0D66F6ED8B3F15C7F46D84FF000084FF023
S315080071B000092223CAF8003050E6002401255EE7BC
S315080071C05A461899504631F07DFD1890002885D109
S315080071D03DE600BF682A050802FCFFFFCB4640F0E3
S315080071E0A4800E9AC9F31303002A41D09C4A9342FD
S315080071F059D1049B42467BB9B8F1FF3F40F08A80DB
S31508007200984B99453FF423AE974BDDF8108009EA71
S31508007210030303F5801921E6934B09EA0303B3F147
S31508007220D46F17D918F101011CD18E4A91453FF444
S315080072300EAE03F5801980468C4B4046494600221F
S3150800724030F076F8884B804689460B40002B7FF451
S3150800725005AEAEE71E0D4FF0FF31C6F16B06B14025
S315080072608845E6D0002C5ED014EA0B0FE4D01EE069
S31508007270002B4AD1B8F1000F8AD064B314EA0B0F79
S315080072802BE0A3F580134FF0FF386FEA13596FEA26
S315080072900959D1E7A3F580134FF0FF386FEA135960
S315080072A06FEA0959DAE59CB114EA090F0CD0404691
S315080072B04946049A3CF0FAFADDE90A0153EC102B28
S315080072C02FF080FE80468946049B002BB4D1C5E585
S315080072D015EA080FEAE718EA050FF5D0049A4046BA
S315080072E049463CF0E3FADDE90A0153EC102B2FF08E
S315080072F067FE0022002304460D4630F081FA002876
S315080073007FF453AFA046A946DEE7002CB6D115EAAE
S31508007310080FE2E724B114EA090F3FF49FADC6E768
S3150800732018EA050FF9E72A42A0E7059907983CF0FD
S3150800733045FD00224FF0804355EC104B2046294668
S3150800734030F072FA00286DD00E9B002B78D1B8F178
S31508007350000F56D1C9F31303002B59D10022444B11
S315080073602046294630F056FA002858D120462946A4
S315080073700022404B2FF0DCFF04460D4605F1004382
S3150800738008940993384B0BEA03031493149A3A4B5F
S315080073909A42DDE9086740F0A880ABF1547949ECD8
S315080073A0108B31F093FDDDE9082351EC100B2FF01B
S315080073B0BFFF42464B462FF005FE0B462A4980463C
S315080073C02E4A194091425BD90B9A264B9A4203D111
S315080073D00A9B01333FF43BADDFF888904FF0FF3846
S315080073E01899504631F0A0FA0699504631F09CFAA1
S315080073F00599504631F098FA0799504631F094FAB3
S31508007400D4E5B8F1010F03D1B9F1000F3FF4CDAEC1
S315080074100024174D9FED0E7B8DED087BB2E7002407
S31508007420144DABE7134B2046294600222FF080FF68
S315080074300E9B04460D46002BA0D0CDE90845A1E7D2
S315080074409FED057B55EC174B8DED087B9AE700BF42
S31508007450000000000000F0BF000000000000F03F40
S31508007460FFFF0F00FFFFEF7F0000F07F000050399D
S315080074700000F03F0000E03F0000E07FFFFF9F7C38
S3150800748003F15479049B4E46002BA9D129F00043F9
S31508007490149A1B0D1B059A42A2D12046294632F0A2
S315080074A0E7F8C9F313062FF015FF0B4602462946DF
S315080074B0204646EA08062FF083FD0E9B04460D4635
S315080074C01E434BD02EA3D3E9002330F0A3F900289E
S315080074D07FF4C4AC204629462BA3D3E9002330F019
S315080074E0B7F900283FF47CAFB8E4049B13B3149BA8
S315080074F0B3F1D46F1ED82046294625A3D3E9002325
S3150800750030F092F990B12946204630F0D3F9012897
S3150800751038BF01202FF092FE0E9B04460D46D3B9C4
S3150800752001F1004312901393DDE9126707F1D66360
S31508007530149A9F1A9DED0A0B31F0C8FC304639465D
S3150800754053EC102B2FF0F4FEDDE90A232FF03AFD59
S315080075508046894696E7CDE91245E5E70EA3D3E9C5
S31508007560002330F057F9BCE7652A3FF443AB452AB8
S315080075703FF440AB0123FFF778BB00BFAFF30080B1
S315080075809535A094FFFFDF3F35E5AF350000E03FB6
S315080075900000C0FFFFFFDF419535A094FFFFCF3FF6
S315080075A09FED010B704700BF000000000000F87F48
S315080075B00348044B834202D0034B03B11847704774
S315080075C0741A0020741A002000000000064B0749B0
S315080075D0C91A891048BF0131491003D0044B0BB1B1
S315080075E001481847704700BF741A0020741A002013
S315080075F00000000010B5064C237843B9FFF7D8FF02
S31508007600044B13B10448AFF300800123237010BD67
S315080076105050002000000000E82D050808B5054B6D
S315080076201BB105490548AFF30080BDE80840FFF7E0
S31508007630CDBF00BF00000000B81D0020E82D0508DA
S31508007640A3F5803A704700BF174B002B08BF134BB2
S315080076509D46FFF7F5FF00218B460F461348144A4F
S31508007660121A3CF0CCF90E4B002B00D098470D4B64
S31508007670002B00D098470020002104000D000D487B
S31508007680002802D00C48AFF3008030F091FE2000AD
S31508007690290032F04EF830F015FB00BF0000080054
S315080076A0000000000000000000100020741A0020EE
S315080076B0A8580020000000000000000038B5042586
S315080076C00C4C0D48256712F097FC00F09BF90B4A05
S315080076D00B48D36C2B43D36412F08EFCFF2125672D
S315080076E008480AF015FD084B1968BDE838401DF032
S315080076F095BC00BF00F003508043040800C0055045
S315080077008C430408D01D0020141E002005220B4BB4
S3150800771010B51A6046F2A812094B0A4C1A60FF23E4
S3150800772020461A4608490AF0B9FCFF2120460AF005
S31508007730EFFCBDE8104000211DF070BC181E0020AB
S31508007740141E0020D01D0020BD76000830B5154D4A
S3150800775089B001AC0FCD0FC495E8070084E807008F
S315080077604FF00212104B114CC3F8382702F580323D
S31508007770C3F8302714222046C3F8202701A903F0AE
S315080077800FFB204601A903F00BFB4FF40072084BD0
S31508007790C3F880211A604FF48062C3F880211A600A
S315080077A009B030BD9843040800C0035000C0055016
S315080077B000E100E0414B2DE9F04F5B6A404CDBB23B
S315080077C02768DFF80C91262B9BB009F8073006D0FE
S315080077D0312F04D8013727601BB0BDE8F08F00268B
S315080077E04822314608A808AD2660A8463CF007F9A5
S315080077F0DFF8C8A023689F425CD26F460026284659
S315080078003CF03DF851EC100B30F074F80136082EB8
S3150800781047F8040B05F10905F1D1DFED2A7A9DED4C
S31508007820017A27EE277A284B022283ED027A9DED0C
S31508007830027A27EE277A83ED037A9DED037A27EEFF
S31508007840277A83ED047A9DED047A27EE277A83ED6D
S31508007850067A9DED057A27EE277A83ED077A9DED60
S31508007860067A67EE277A1A62184AC3ED057A10680F
S31508007870928818609A8000F0C5F800232360ABE769
S3150800788050460BF8011B32F02DFC236801332360A8
S31508007890236819F80310202901D09F42F0D20A2143
S315080078A0504632F01FFC236801360133236008F185
S315080078B009089FE7082EA0D0C346E9E700C005508F
S315080078C01C1E00200000C842F01D00208F4304083B
S315080078D05150002008B506F0BDFDFF2104480AF006
S315080078E017FCBDE808404FF47A711DF097BB00BF3E
S315080078F0201E002010B5044670B9FF2307491A4612
S3150800790007480AF0CBFBFF2105480AF001FC21468F
S31508007910BDE810401DF082BB10BD00BFD578000839
S31508007920201E002007B501200BF0B2F801210090B7
S31508007930034B0420034A0AF0CFFE03B05DF804FBAC
S31508007940F7470408B443040813B535F092F802283B
S315080079500ED10EF0ADFE0124047135F010FC21465F
S3150800796000900E4B04200E4A0AF0B6FE02B010BD77
S315080079700BF0CEFE0B4B0C4A01210190009304201C
S315080079800A4B0AF0A9FEFF2109480AF0C1FB0021AB
S315080079901DF044FB0122074B1A70E7E7D74304089A
S315080079A0F8430408F7470408ED430408E8430408C5
S315080079B0841E00208350002008B50F4B1B78ABB1FE
S315080079C035F057F802280CD00C4832F077F9FF2129
S315080079D00B480AF09DFBBDE808404FF47A611DF09C
S315080079E01DBB0648BDE8084032F062B935F041F8DB
S315080079F00228F6D008BD00BF83500020B48E0408C4
S31508007A00841E002070B5202096B030F06DF904462B
S31508007A10052030F069F92060062030F065F96060CD
S31508007A20052030F061F9A060052030F05DF9E060CE
S31508007A30052030F059F92061052030F055F96061CC
S31508007A40052030F051F9A061052030F04DF92E4E91
S31508007A5005ADE0610FCE0FC596E80F0085E80F006B
S31508007A602A4B002518689B880D90ADF83830284BAE
S31508007A7020461093274B0DA91193274BCDF83A5062
S31508007A801293264BADF83E50139314930123159386
S31508007A9031F059FE0323ADF80A30214B8DF80D500D
S31508007AA0ADF80E508DF812501B7805AD8DF80C30D8
S31508007AB0043C00F11C06002154F8042F55F8043B39
S31508007AC0084600929BB202AA34F009FEB442F2D1EB
S31508007AD0144C154821680131216012F08DFAFF21F6
S31508007AE012480AF015FB41F288311DF097FA23680F
S31508007AF0012B07DDFF210D480AF00AFB1DF022FBCA
S31508007B000023236016B070BD1C4404080C44040806
S31508007B1000003041666636419A9929410000B04115
S31508007B204C300020401E002003440408441E002058
S31508007B3008B5FF230F491A460F480AF0AFFAFF2384
S31508007B400E491A460E480AF0A9FAFF230D491A46A5
S31508007B500D480AF0A3FAFF230C491A460C480AF006
S31508007B609DFA10F0CBF94FF6117303800123837049
S31508007B7008BD00BF49790008A41E0020B97900088D
S31508007B80841E002025790008641E0020057A000856
S31508007B90441E0020912802D1044832F08CB890285F
S31508007BA002D1024832F084B8704700BFB48E040888
S31508007BB013B504460C4B01900093012104200B4B8E
S31508007BC00B4A0AF089FD24B100220A4B1A7002B04A
S31508007BD010BDFF2108480AF09BFA40F6B83102B0FA
S31508007BE0BDE810401DF01ABA1BE20408E843040871
S31508007BF0ED43040883500020641E0020002307B5C7
S31508007C000193094B094A00930121094B04200AF004
S31508007C1063FDFF2107480AF07BFA40F6B83103B046
S31508007C205DF804EB1DF0FAB91BE20408ED430408FD
S31508007C3012440408641E002007B50121064B0420DF
S31508007C400093064A064B01910AF046FD0022054BB1
S31508007C501A7003B05DF804FB1BE20408ED43040840
S31508007C60124404088350002007B5064B00900121F2
S31508007C700420054A0AF030FD0022044B1A7003B0AE
S31508007C805DF804FB1BE20408B44304088350002093
S31508007C9030B50A4C0A4B22680A4D1A600A4B85B061
S31508007CA02B600A4B019305F087FB2B68029001A90C
S31508007CB02068039333F047F805B030BDA8100020BC
S31508007CC0902D00208C2D00209C100020558E040835
S31508007CD0014B186833F04BB8A810002038B505F0EA
S31508007CE06BFB0446064D2B68D3F8B00205F058FB2B
S31508007CF0286833F04FF82046BDE8384005F050BBF9
S31508007D00A810002010B5274C02F078F802F006FA01
S31508007D10236F23F0070343F00303236732F0BEF80B
S31508007D20214B00209B6ADB015EBF4FF480321F4B5C
S31508007D309A62D4F8203123F0070343F00203C4F80B
S31508007D402031D4F8283123F0070343F00203C4F89E
S31508007D502831D4F8403123F0030343F00203C4F872
S31508007D604031D4F8603123F0030343F00203C4F82A
S31508007D706031D4F8403223F0030343F00203C4F819
S31508007D804032D4F8003223F0070343F00203C4F864
S31508007D900032D4F8083223F0070343F00203C4F88C
S31508007DA0083210BD008000500040005A0060005A9A
S31508007DB030B5254D9DB008AC0FCD0FC495E80F0022
S31508007DC084E80F002A2200210DF146003BF017FE39
S31508007DD01E4B01241093562312930523159306234D
S31508007DE0179303230E2200210DF112008DF845404A
S31508007DF08DF844303BF003FE4FF47020144B02A973
S31508007E00CDE902030B238DF810300C238DF81130C1
S31508007E10104B08AA0593202306930F4B0F4800938F
S31508007E2010AB8DF81D4005F043FB04469DF81E3047
S31508007E304FF4E130002B0CBF0321002131F058FE2E
S31508007E4020461DB030BD00BF948E04080000015BBB
S31508007E503C00015B8450002080210020F021002096
S31508007E60022905D8034B1B68186808B1436A1847E6
S31508007E70704700BFAC10002008B50449044806F056
S31508007E80CDFDBDE80840FFF793BF00BFB010002046
S31508007E9014220020014833F055BB00BFF021002012
S31508007EA0014B1A6A18681047F021002008B514F02B
S31508007EB031F90022014B1A7008BD00BFA4500020FA
S31508007EC0014831F0F2BE00BFB48E040818B1034B66
S31508007ED01860002070472520704700BF1C2200202C
S31508007EE010B5054C0549206801F0CCF92068BDE8B5
S31508007EF01040FFF7EBBF00BFDC110020B8100020D0
S31508007F00014B1868704700BF1C22002013B50820D3
S31508007F1031F0B4FEFFF7F4FF0123124C8DF8003060
S31508007F2090F836302060DBB9006832F0A1F8236893
S31508007F3020F07F4093F8353040EA83700190684618
S31508007F4031F09AFD02238DF80030074B68460193FD
S31508007F5031F092FD082002B0BDE8104031F099BE1C
S31508007F600020E4E780220020006A18102DE9F0417D
S31508007F70424D88B001AC0FCD0FC495E8070084E8E0
S31508007F800700012401213A2001F0F6FC3C4E0121AC
S31508007F90292001F0F1FC3B4B304601A903938DF8EB
S31508007FA0124002F05DFF234604220321022002F05C
S31508007FB0E3FC022122460846002302F0DDFC2346A4
S31508007FC021460422022002F0D7FC0422002123467F
S31508007FD0022002F0D1FC2C4D2C4B05F50058C5F8B3
S31508007FE034374FF00213C5F8303703F58033C5F838
S31508007FF038371C234FF44870C5F8203707F042FF7E
S3150800800005F580571420C8F8A04007F03BFF232049
S31508008010C7F8A04007F036FFB9213046C8F8A04097
S3150800802032F056F8002303211A460220C7F8A0406A
S3150800803002F0A2FC002302211A46084602F09CFC24
S31508008040234621460022022002F096FC00222346FF
S315080080501146022002F090FC304602F07FFE002115
S315080080602920C5F83417C5F83017C5F83817C5F8E4
S31508008070201701F081FC08B0BDE8F0814C90040897
S3150800808000C0055000127A0000C00350020001002B
S315080080900348044A0449121A921031F039BD00BF48
S315080080A0D4370508D4370508A858002008B500F0C5
S315080080B02FF8FFF7EDFF124B12498B4212D300201F
S315080080C0114B12498B4218D3FFF7BEFA186850F8BD
S315080080D02240586840F82240013298688242F5D317
S315080080E00C33EAE70022F8E71C6844F8220001325C
S315080080F05C68A242F8D30833E4E70022F8E700BF39
S31508008100F02D0508FC2D0508FC2D0508FC2D050895
S315080081104FF480414FF0FF30114B124A10B59A6068
S31508008120D3F8882042F47002C3F888200E4A916674
S315080081300E4901F5005210660D4850660220C3F834
S31508008140D000BFF34F8FBFF36F8F01244FF4403336
S315080081500848C0F88041D36004600B6110BD00BFB9
S3150800816000ED00E000600008009000500080004428
S31508008170F7FF370000E100E0014B1868704700BFC1
S3150800818000120020084B1B6F03F00703022B04D0D4
S31508008190032B05D0012B05D0FEE7044B1868704762
S315080081A0034BFBE70348704700800050001200208D
S315080081B008120020002D310108B5FFF7E3FF054B33
S315080081C01B6FC3F303330133B0FBF3F0024B1860A4
S315080081D008BD00BF00800050FC1100200048704711
S315080081E000B4C404014B1868704700BF0812002089
S315080081F0054B1860054B1B6F03F00703032B01D1D2
S31508008200FFF7DABF704700BF081200200080005051
S3150800821000487047002D31014FF0B4439868C0F309
S3150800822004400C280AD8DFE800F00B0909090909F7
S31508008230072119091B1D1F000F48704700207047AA
S315080082409B6803F04073B3F1807F11D0B3F1007FD0
S3150800825010D00A4A002B08BF1046704708487047D6
S3150800826008487047084870470848704708487047E4
S315080082700848704708487047405DC60000093D0039
S31508008280C0EA210180BA8C010048E801005A62025E
S315080082900024F40080841E0040420F00014B186839
S315080082A0704700BF04120020BFF34F8F0549064BE5
S315080082B0CA6802F4E0621343CB60BFF34F8F00BF76
S315080082C0FDE700BF00ED00E00400FA054FF000638B
S315080082D09B6A03F17842B2F5C04F03D21968064A81
S315080082E0914203D000230370836070470122027015
S315080082F09A689B694260F7E707B0CD5E73B54F4B46
S3150800830004461A781AB102221A7002B070BDCDE975
S3150800831000220028F9D001261E7031F0E3FD484DF1
S31508008320484B186016F066FE2B785BB900F08EFD98
S3150800833040B945480823454A4549006813F0C8F836
S3150800834000B92E70434B5A6E62619B6E424AA36116
S315080083504FF480439366414B5968E16140499960FF
S31508008360196E2160596E6160D3F87011A160196C9D
S31508008370E160596C21613B49086C1864496C596481
S31508008380012151661B6E9C0441D5374AD368D8072C
S31508008390FCD4364B1A68531C3ED04FF480139340D6
S315080083A0334A13664FF400730426314C2666236657
S315080083B031F0DDFB01300DD031F0D9FB40F201136D
S315080083C0984207D04FF4005323664FF48043236640
S315080083D0C4F870610823264C684623664FF4805318
S315080083E023664FF0006323664FF4002301A96366F2
S315080083F031F0A1FB009B2366019B63662B78002B5B
S3150800840083D0124B1A6822665B6863667DE7194A51
S31508008410D368D907FCD4BCE7174B1B78002BC1D10E
S315080084204FF400720C4B5A6603F5A6235B68002BC3
S31508008430B8D14FF480120E4B1A66B3E7A650002047
S31508008440A7500020A422002034120020A8220020D1
S315080084500071080000800050009000500080004421
S3150800846055CEAC0000C00054000004400C12002099
S315080084700090004400000450A550002070B5224D1D
S3150800848004462E78012E02D001232B7070BD0028D9
S31508008490FCD031F06CFB01300BD031F068FB40F2B8
S315080084A00113984205D0194B194A5E66D368DE0750
S315080084B0FCD42268174B1A6662685A66A268C3F823
S315080084C07021E2681A6422695A64E269D00744BFD7
S315080084D000229A60104B1A68013207D10F4A1278A7
S315080084E022B90F494968C90748BF1A6062690D4B26
S315080084F05A66A2699A6616F085FD0B4B186831F024
S31508008500F7FC0023C1E700BFA650002000900040FA
S3150800851000000440008000440C120020A5500020F2
S3150800852000C0055000800050A422002070B54FF00E
S315080085300064A36A03F17842B2F5C04F24D21A68E0
S31508008540134B9A4220D1134E337813F0FD0F02D005
S315080085500024204670BD1048FFF7D0FE01254FF4D1
S3150800856080330E4A0E49C2F88051CB6015600D4A19
S315080085701361A36ADB69984704460748FFF77EFF3D
S31508008580002CE6D13570E3E74FF48174E1E700BFCC
S3150800859007B0CD5EA55000208422002000E100E04F
S315080085A000A000440090004413B5204B1B7803B983
S315080085B0FEE700231E4CCDE900336A4608231D4911
S315080085C0206812F085FFF0B91B4AD2F84031D2F87C
S315080085D040211F2B4FF0010310D9203A9340019AEE
S315080085E01A43019208236A461249206812F026FFA8
S315080085F04FF00053114A1A60FFF756FE9340009A4F
S315080086001A430092EEE70E4B9842F1D10A4AD2F885
S315080086104031D2F840211F2B4FF0010385BF203A85
S3150800862093409340019398BF0093DBE7A650002040
S315080086303412002000710800008000440B020FF07D
S315080086400BE000F070B5D0B1C9B10E4E431E01392A
S3150800865013F8014F2046325D02F00302012A11F891
S31508008660012F08BF04F12000B55C05F00305012DB4
S3150800867008BF2032801A01D1002CE9D170BD012033
S31508008680FCE700BF912A05080346054A0549106814
S3150800869003448B428CBF4FF0FF301360704700BF16
S315080086A0101200200000042008B501213A2001F02C
S315080086B063F9012304220321002002F05DF900205A
S315080086C031F078FC0122354B3549C3F844244FF480
S315080086D00022A3F550335A66324BD3F8FC20D20158
S315080086E046D4D1F8803023F0030343F00203C1F8DF
S315080086F080304FF4607001F059F92A4B00F5D52007
S31508008700D3F8F02000F2FC4042F00102C3F8F02052
S31508008710D3F8FC2042F08072C3F8FC20224AA3F565
S315080087205D431A60214B0222B0FBF3F0204B01385F
S315080087301861C3F8F0204FF48072C3F804234FF091
S3150800874060431C4A0020C3F8B02F1B4AC3F8802E8A
S31508008750D3F8002E42F48072C3F8002EFF2283F865
S315080087602020D3F8002E22F48072C3F8002E08BD0C
S31508008770D3F8FC2022F08072C3F8FC20D1F88020C0
S3150800878022F0030242F00202C1F88020D3F8FC204E
S3150800879042F08072C3F8FC20ABE700BF00D003505C
S315080087A00080005000ED00E0FF030040F8590D007E
S315080087B0000004E055CEACC5090001004FF0604347
S315080087C0D3F8802E30B5D20715D501240B4D844039
S315080087D0D5F8FC2042F08072C5F8FC20D3F8002EAC
S315080087E02243C3F8002E53F82020002AF0D003F8BD
S315080087F02010002030BD1120FCE700BF00ED00E08E
S3150800880010B5012243780178847830209A40054BC8
S3150800881000FB01331CB903F501531A6010BD03F5BB
S315080088208253FAE700C0035010B501224378017855
S31508008830847830209A40054B00FB01331CB903F5B8
S3150800884082531A6010BD03F50153FAE700C00350BE
S315080088500122437801789A4030235943014B5A50F4
S31508008860704700BF40F003501021302302460078BD
S3150800887013FB001305495B585178CB4003F0010000
S3150800888093780BB980F00100704700BF30C00350E1
S315080088902DE9F04F9A46564B85B01B7806460F468B
S315080088A01546DDF83C909DF844B0DDF85080002B65
S315080088B000F09780072A00F296800E9B002B00F0A6
S315080088C09280B9F1000F00F08E80129BB3F5006F0D
S315080088D000F38980012803D1109B002B00F08380C8
S315080088E0444B03EB05131B7B002B7ED0424C102216
S315080088F0002168463BF083F804EB45141022A7BB19
S31508008900394620463BF07BF843F210036380BBF1FF
S31508008910000F03D1E37843F00303E370364A0E9B56
S3150800892002EB451CCCE90193129B6901581E9DF880
S315080089304C30C0F30A0003F003039B0643EA001E0B
S3150800894053582E48012E00EA03004EEA0003CDF8DC
S3150800895000A0535017D0B8F1000F2ED19CF8023062
S3150800896068F304138CF8023027E0002120463BF018
S3150800897046F84FF444736380BBF1000FCED1E37819
S3150800898043F03003C9E713230CF1100ECCF80C3072
S315080089909CE80F008EE80F006FF00301DCF81C203E
S315080089A0109B61F39F02012FCCF81C20CCF81430E1
S315080089B003D1CCF81890CCF8043000270D4A2901C9
S315080089C002EB051342F80180159A28465A60694653
S315080089D022469F605E7302F06DF8384605B0BDE822
S315080089E0F08F0748FAE70748F8E70748F6E700BFB1
S315080089F0A8500020B0230020B02200200F80FFF3EB
S31508008A00028000F0018000F0078000F038B5124BB4
S31508008A1005461B78DBB1E0B131F064FA0F4A002352
S31508008A201146147B54B92B6001251A0101EB031377
S31508008A301D738C5031F05CFA204638BD0133082B83
S31508008A4002F11002EDD131F053FA0548F5E7054871
S31508008A50F3E70548F1E700BFA8500020B02300203F
S31508008A60048000F0028000F0018000F038B531F093
S31508008A7039FA002305460B4A147B6CB90133082BD7
S31508008A8002F11002F8D101F0B7FF074B28461C7017
S31508008A9031F02EFA204603E0284631F029FA034839
S31508008AA038BD00BFB0230020A8500020058000F084
S31508008AB00D4B10B51B78044693B1072812D831F030
S31508008AC011FA0A4B03EB04131A7B2AB100241C7310
S31508008AD031F00EFA204610BD31F00AFA0448FAE7DA
S31508008AE00448F8E70448F6E7A8500020B023002019
S31508008AF0068000F0028000F0018000F0154B13B5E7
S31508008B001868002301908DF8043031F0EBF9124B08
S31508008B101C7824B131F0ECF9104802B010BD0122DE
S31508008B201A7031F0E5F90E4B01A81C731C7783F80F
S31508008B302C4083F83C4083F84C4083F85C4083F82B
S31508008B406C4083F87C4008238DF8073001F080FFDD
S31508008B502046E2E7B8900408A8500020038000F0F9
S31508008B60B02300200A4A08B512785AB107280BD84C
S31508008B70084A02EB00131B7B43B1002101F05AFFA0
S31508008B80002008BD0448FCE70448FAE70448F8E76B
S31508008B90A8500020B0230020028000F0018000F0D9
S31508008BA0078000F00A4A08B512785AB107280BD888
S31508008BB0084A02EB00131B7B43B1012101F03AFF7F
S31508008BC0002008BD0448FCE70448FAE70448F8E72B
S31508008BD0A8500020B0230020028000F0018000F099
S31508008BE0078000F00A4A08B5127852B107280AD851
S31508008BF0084A02EB00131B7B3BB101F0A7FF0020DC
S31508008C0008BD0548FCE70548FAE70548F8E700BF48
S31508008C10A8500020B0230020028000F0018000F058
S31508008C20078000F00C4B1B787BB107280FD871B171
S31508008C300A4B03EB00131B7B5BB1094BDB6AC34092
S31508008C4003F0010300200B7070470648704706487A
S31508008C5070470648704700BFA8500020B023002080
S31508008C6000000450028000F0018000F0078000F048
S31508008C700D4B1B7893B1072812D889B10B4B03EB20
S31508008C8000131B7B73B10A4B1A6D012383401342F1
S31508008C9014BF0123002300200B7070470548704756
S31508008CA00548704705487047A8500020B0230020A3
S31508008CB000000450028000F0018000F0078000F0F8
S31508008CC00B4A10B512780C4662B107280CD859B170
S31508008CD0084A02EB00131B7B43B101F049FF2070E1
S31508008CE0002010BD0448FCE70448FAE70448F8E702
S31508008CF0A8500020B0230020028000F0018000F078
S31508008D00078000F0184B2DE9F0411F6D5B6D1F4081
S31508008D1000D5FEE701260025144CDFF858803742B7
S31508008D2018D02368C8F85060A3B1A1682846013155
S31508008D306268A1609847637B012B0BD150B90C4B35
S31508008D4003EB45131A7B60F341021A731A7F60F32B
S31508008D5041021A770135082D4FEA460604F1100438
S31508008D60DDD1BDE8F08100BF00000450B02300202B
S31508008D70B02200200020045070B5044601250B4E91
S31508008D8004B970BD94FAA4F0B0FA80F005FA00F3BD
S31508008D9006EB001224EA03045368002BF0D0117B7B
S31508008DA011B191689847EBE79847E9E73024002026
S31508008DB008B5192001F0E6F928B14FF00072074B03
S31508008DC0C3F880211A601A2001F0DCF928B14FF0A7
S31508008DD08062024BC3F880211A6008BD00E100E0FA
S31508008DE038B505460C4631F07DF80022044B03EBF6
S31508008DF005135C601A73BDE8384031F079B800BFD6
S31508008E0030240020074BD3F82404D3F8202403F594
S31508008E100053104000F0553020F05020C3F82004CD
S31508008E20FFF7AABF00C00350074BD3F82404D3F8B2
S31508008E30202403F50053104000F0AA3020F0A020AB
S31508008E40C3F82004FFF798BF00C00350024B196807
S31508008E50024B186812F018BA1412002034120020B7
S31508008E6070B59400224605460E463BF069FA431C47
S31508008E700AD058B92246314628463AF096FD0028C7
S31508008E80034808BF002070BD0248FCE70248FAE71D
S31508008E9010E000F021E000F024E000F010B50446F0
S31508008EA03BF04AFA431C10D088B901F0EFFE23467E
S31508008EB020F003002044984201D1002010BD53F849
S31508008EC0042B0132F7D00348F8E70348F6E70348CE
S31508008ED0F4E700BF0EE000F021E000F024E000F027
S31508008EE008B530F0F0FF014B186008BD202D0020B2
S31508008EF0014B186830F0EBBF202D002038B141B186
S31508008F00013AB2F5006F044838BF0020704703489D
S31508008F1070470148704700BF037000F0027000F008
S31508008F20104930B50A78104B2AB9C3E90022C3E9BB
S31508008F30022201220A700C4900220C4654F8045BEE
S31508008F40854208D00132042AF8D1002251F8044B90
S31508008F501CB943F82200002030BD0132042AF5D19D
S31508008F600248F9E7A9500020242D0020027000F0DD
S31508008F7010B50446FFF7C2FD002104F10800FFF70B
S31508008F8045FD014608B1044810BD04F10C00FFF781
S31508008F903DFD0028F8D0F6E70E7000F090F8353061
S31508008FA0022B0DD114223023417F13FB0123054ADE
S31508008FB09B5890F8212023FA02F000F00100704730
S31508008FC00020704730C00350002313B51D4A52F8DD
S31508008FD0044B94F8211081420ED00133042BF6D1AC
S31508008FE002B010BD0028FBD19DF80730002BF7D042
S31508008FF0A068FFF7B7FDF3E794F83530022BEFD1F9
S315080090002046FFF7CBFF637E2076022BE8D194F843
S31508009010323003F0FF02002BE2D1A0680DF1070100
S315080090208DF80720FFF7FEFD237E1BB194F8333039
S31508009030002BD7D00023A06884F83330FFF7B2FDA1
S31508009040CEE700BF242D002010B590F83630044630
S3150800905063B9042203685A619A699207FCD5237991
S315080090600C4AB9335B011021995010BD022BFCD173
S315080090700068836CDB074CBF0521062130F07BFFB7
S31508009080237941F294425B0103F1A04303F570335F
S31508009090E9E700BF00C003502DE9F0410446174632
S315080090A0FFF72CFF88460646E8B9152001F078F840
S315080090B00546E26A93889BB213B194F83230ABB195
S315080090C094F83630BBB923689D6915F0020527D098
S315080090D0012384F834304744B845206844D183696D
S315080090E09B06FCD545B33046BDE8F081002DE1D09E
S315080090F0FFF708FEDDE7022B12D123689D6C15F0F9
S3150800910002050DD0012384F83430474447452068CA
S3150800911031D142F22002836C32EA0303FBD1E1E744
S315080091202046FFF791FF012394F8365084F834302F
S31508009130002DD0D0022D1CD094F8363003B3022B64
S31508009140D1D12068816C11F0010118BF092130F0D6
S3150800915012FF42F29442102123795B0103F1A043E6
S3150800916003F570339950BEE718F8011B30F0BAFFC3
S31508009170B2E70025C9E718F8011B30F001FFC5E77B
S3150800918010212379044A03F239135B01D1500822CE
S3150800919023685A61A7E700BF00C0035010B504460C
S315080091A080B190F832302BB9FFF7F8FE10B9A068F5
S315080091B0FFF7D8FC002094F832300133DBB284F88C
S315080091C0323010BD0048FCE7027000F010B50446C6
S315080091D0A0B190F832309BB190F83230012B05D10E
S315080091E0FFF7DCFE10B9A068FFF7DCFC002094F856
S315080091F03230013BDBB284F8323010BD0148FCE75F
S315080092000148FAE7027000F0057000F037B590F8EB
S3150800921035500446022D1DD1012290F82230457E94
S31508009220817F9A403020164B3DB900FB013303F588
S3150800923001531A60002003B030BD012D04D100FB94
S31508009240013303F58253F4E7247E00FB0133002C37
S31508009250F7D1ECE7012DEDD1037E73B911238DF813
S315080092600730FFF79BFF2A4620460DF10701FFF757
S3150800927013FF2046FFF7AAFFDCE71323EFE700BF3B
S3150800928000C003502DE9F04304466F4F89B001AE84
S315080092900D460FCF0FC697E8070086E80700002C93
S315080092A000F0D08025B9694E304609B0BDE8F08394
S315080092B06022002120463AF0A2FB2046FFF730FE46
S315080092C006460028F0D14FF001092B7D84F8353089
S315080092D02B6884F8360023602A7BC4F85C902271D8
S315080092E05B4A9342DFD1292363624FF480235949AD
S315080092F08046C4E90413D5E90723A262108050808A
S31508009300908084F83000E3621880588098806B68F3
S3150800931084F831000393EB8984F83300ADF81430F0
S315080093202B8A4946ADF81230AB7C3A208DF81030BE
S31508009330EB7C494F8DF8163005238DF8113000F077
S315080093401BFB4946606A00F017FB286801A98DF8DF
S31508009350046001F025FD14212B7B03F1390252012B
S31508009360B9502E7AA87A07EB431346EA0042C3F8A7
S315080093703827697AEA7A41EA024CC3F830C7E676B2
S31508009380E077217784F820206B7D49466377AB7DAB
S31508009390204684F82130EB7DA3772B7E84F8223093
S315080093A030F0EBFC064600287FF47EAF30F09AFDDD
S315080093B02B7D8146032B33D102212A7B02F1B90387
S315080093C05B01F950042107EB421741F22C722B6816
S315080093D003F58053D965297EEB7D43EA0143BB50EB
S315080093E0AA7D6B7D43EA024341F22872BB504FF0D7
S315080093F0FF32286800F500539A642B7D032B0CBFB7
S315080094000521042130F055FE4FF440622B682046B2
S315080094105A61FFF7ADFD0646484630F069FD43E759
S31508009420022BE4D194F821000C49FFF7D9FCFFF789
S31508009430BFFC4FF400732046238384F81A80FFF795
S31508009440E5FED4E7064E2FE7E0900408037000F027
S3150800945000C005500200040000C00350C98F000870
S31508009460027000F00B4B10B51B7883B10023012066
S31508009470094951F8042B32B192F85C40022C02BF1C
S315080094800120D06520460133042BF2D110BD0120FE
S31508009490FCE700BFA9500020242D0020044BD3F878
S315080094A08420D206FBD4D3F88400C0F38110704719
S315080094B00040005038B5104B0546D3F880300C46AE
S315080094C003F00303022B0BD0032B0DD0012B0FD176
S315080094D0FEF758FE0E2305B1286004B1236038BD97
S315080094E0FEF79AFE0723F6E7FEF746FE0623F2E79F
S315080094F000231846EFE700BF0080005038B5184B28
S315080095000546D3F820010C4600F00700062823D8A4
S31508009510DFE800F0040A0E16121A1E00012305B130
S31508009520286004B1236038BDFEF726FE0523F6E75A
S31508009530FEF758FE0323F2E7FEF76EFE0723EEE773
S31508009540FEF766FE0223EAE7FEF716FE0623E6E7BF
S31508009550FEF748FE0423E2E700231846DFE700BFCC
S315080095600080005038B5174B0546D3F828310C460D
S3150800957003F00703013B052B20D8DFE803F00313AC
S315080095801B0F0B17FEF7F8FD052305B1286004B17C
S31508009590236038BDFEF7F0FD0623F6E7FEF73CFE2E
S315080095A00723F2E7FEF71EFE0323EEE7FEF71AFE91
S315080095B00423EAE7FEF72CFE0223E6E70023184613
S315080095C0E3E700BF0080005073B50D460021114B3C
S315080095D00191D3F88041064604F00304022C13D007
S315080095E0032C0CD0012C13D101A8FFF787FF1024F8
S315080095F00EB1019B336005B12C6002B070BDFEF759
S315080096000BFE07240190F3E7FEF702FE0190EFE751
S315080096100C46EDE700800050002337B50193164B42
S315080096200546D3F820320C4603F00703042B21D84D
S31508009630DFE803F0030B11161B0001230DB1019A95
S315080096402A6004B1236003B030BD002101A8FFF7EA
S3150800965089FF1223F2E7FEF7DFFD07230190EDE706
S3150800966030F063FA0A230190E8E7FEF717FE0923AC
S315080096700190E3E70023E1E70080005038B5104B7E
S315080096800546D3F840310C4603F00303022B0BD0F2
S31508009690032B0DD0012B0FD130F047FA0A2305B161
S315080096A0286004B1236038BDFEF7F8FD0923F6E704
S315080096B030F03EFA0C23F2E701230020EFE700BF63
S315080096C000800050002337B50193164B0546D3F8A2
S315080096D060320C4603F00703013B032B1FD8DFE873
S315080096E003F0020E1914002101A8FFF707FF102343
S315080096F00DB1019A2A6004B1236003B030BD002180
S3150800970001A8FFF7BBFF1123F2E7FEF785FD072344
S315080097100190EDE7FEF77CFD02230190E8E70023C0
S31508009720E6E700BF00800050002337B50193164BCB
S315080097300546D3F894320C4603F00703013B032B86
S315080097401FD8DFE803F0020E1914002101A8FFF75D
S31508009750D5FE10230DB1019A2A6004B1236003B027
S3150800976030BD002101A8FFF789FF1123F2E7FEF7B4
S3150800977053FD07230190EDE7FEF74AFD022301900A
S31508009780E8E70023E6E700BF0080005038B5144B31
S315080097900546D3F800020C4600F0070004281BD83B
S315080097A0DFE800F003090D111500012305B1286053
S315080097B004B1236038BD30F0B8F90A23F6E7FEF79E
S315080097C06DFD0923F2E730F0B3F90C23EEE7FEF757
S315080097D0F3FC0F23800AE9E700231846E6E700BFF3
S315080097E00080005038B5144B0546D3F808020C46DD
S315080097F000F0070004281BD8DFE800F003090D1164
S315080098001500012305B1286004B1236038BD30F086
S315080098108CF90A23F6E7FEF741FD0923F2E730F053
S3150800982087F90C23EEE7FEF7C7FC0F23800AE9E762
S3150800983000231846E6E700BF0080005038B5104BF5
S315080098400546D3F840320C4603F00303022B0BD02F
S31508009850032B0DD0012B0FD130F067F90A2305B180
S31508009860286004B1236038BDFEF718FD0923F6E722
S3150800987030F05EF90C23F2E701230020EFE700BF82
S315080098800080005038B5104B0546D3F860310C46B9
S3150800989003F00303022B0BD0032B0DD0012B0FD1A2
S315080098A030F043F90A2305B1286004B1236038BDB6
S315080098B0FEF7F4FC0923F6E730F03AF90C23F2E751
S315080098C001230020EFE700BF00800050B0F5207F9D
S315080098D01FD009D8B0F5007F15D003D868B1B0F508
S315080098E0C07F0AD000200CE0B0F5607FFAD10B4BA0
S315080098F0D3F88000C0F3011003E0084B186FC0F3DB
S31508009900033001307047054BD3F89000C0F304606C
S31508009910F7E7024B186FC0F38020F2E7008000508B
S3150800992002464FF48030104B10B598660020FFF7BA
S31508009930CDFF504341F671320C4BDC69DA635A6845
S3150800994004F4803422F4401259B90949884294BF74
S3150800995000200120000502435A600CB10022DA6398
S3150800996010BD0449F2E700BF009000500000035004
S31508009970005A6202002D3101430905D0012B0CD093
S31508009980022B084B18BF002300F01F0039B103F55E
S315080099908053012282401A607047034BF4E703F5AF
S315080099A00053F6E768800050648000501FB5002118
S315080099B080280446CDE9001100F0A58035D85E2838
S315080099C046D85E2844D8DFE800F0A2434343434321
S315080099D04343434343434343434343434343434349
S315080099E043434343434343434343A2AAA2AABABABF
S315080099F0BABABAAAC44DDA714DAAAAAA43434343CE
S31508009A0043434343AAAAAA79E4AA434343434343A5
S31508009A1043434343434343BAA2A2A2DF4D4DE988D9
S31508009A205EBF434343434399A200B0F5B06F00F0CD
S31508009A3090802DD8B0F5207F71D00CD8B0F5C07FB6
S31508009A4065D0B0F5007F65D0B0F5807F00F08680E0
S31508009A50009804B010BDB0F5607F6BD00DD8B0F596
S31508009A60407FF5D1FEF7A8FB02464FF42070FFF7BA
S31508009A702DFFB2FBF0F252085AE0B0F5806F5ED0C7
S31508009A80B0F5A06FE4D100216846FFF7C5FDDFE712
S31508009A90B0F5106F78D016D8B0F5E06F79D00AD83F
S31508009AA0B0F5C06F6BD0B0F5D06FD1D10021684644
S31508009AB0FFF76CFECCE7B0F5F06FC9D10021684618
S31508009AC0FFF7E0FEC4E7B0F5406F3DD013D8B0F518
S31508009AD0206F63D0B0F5286FBAD10021324B0391BD
S31508009AE0D3F8703203F00303012B02D103A8FFF762
S31508009AF0C5FD039B3CE0B0F5486FA9D10021684637
S31508009B00FFF712FEA4E7FEF73DFB0090A0E7FEF77D
S31508009B1053FBFAE7FEF736FB0246204604E0FEF75B
S31508009B204BFB02464FF42070FFF7D0FEB2FBF0F273
S31508009B3000928DE701A8FFF7BDFC019AEDE7002129
S31508009B406846FFF7DBFC83E700216846FFF70AFD56
S31508009B507EE700216846FFF737FD79E74FF0E023F7
S31508009B6002911B695B0705D5FEF726FB0290029B4F
S31508009B7000936DE703A902A8FFF780FDF7E7002128
S31508009B806846FFF77BFD63E700216846FFF72AFE74
S31508009B905EE700216846FFF751FE59E7002168464F
S31508009BA0FFF790FD54E700BF0080005008B58020FD
S31508009BB0FFF7FCFE034B98429EBF4FF48032024BE0
S31508009BC01A6708BD005A620200A000501FB5034676
S31508009BD00020B3F5807F019000F0C18064D85D2B2A
S31508009BE055D84C2B07D82D2B48D8232B2CD8019881
S31508009BF005B05DF804FB4D3B102BF8D801A252F8CE
S31508009C0023F000BF559D0008EF9B0008EF9B000856
S31508009C10EF9B00080B9D0008EF9B0008EF9B0008D0
S31508009C20D99D0008299D0008CF9C0008CF9D0008F3
S31508009C30EF9B0008EF9B0008EF9B0008EF9B0008CE
S31508009C40EF9B0008E39D0008243B092BCFD801A20F
S31508009C5052F823F0559D0008559D0008559D0008AB
S31508009C60559D0008559D0008EF9B00084B9D000870
S31508009C70EF9B0008EB9C00088B9D00083D2B7FD0CE
S31508009C803E2BB4D1002001A9FFF7D8FDAFE7802B02
S31508009C90ADD1594B1B6F03F00703013B032BA6D825
S31508009CA0DFE803F0514E858DB3F5F06F68D021D803
S31508009CB0B3F5B06F49D00FD8B3F5607F00F0838055
S31508009CC095D3B3F5806F45D0B3F5A06F8FD100203B
S31508009CD001A9FFF7A1FC8AE7B3F5D06F55D0B3F514
S31508009CE0E06FCFD0B3F5C06F81D1002001A9FFF78F
S31508009CF0C5FC7CE7B3F5206F6ED00BD8B3F5086FBB
S31508009D0048D0B3F5106F7FF472AF002001A9FFF7B2
S31508009D1069FD6CE7B3F5406F59D0B3F5486F60D06D
S31508009D20B3F5286F7FF463AF334BD3F8703203F083
S31508009D300303012B5AD0022B0CBF1523002300E086
S31508009D400523019353E70223FBE7002001A9FFF748
S31508009D503BFC4CE7002001A9FFF7D0FB47E74FF093
S31508009D60E02302901B695B0705D5FEF725FA0D234C
S31508009D700393039BE5E703A902A8FFF77FFCF8E72F
S31508009D80002001A9FFF77EFD31E7002001A9FFF7B2
S31508009D90FDFC2CE7184BD3F8003103F00303022B24
S31508009DA007D0032B09D0012B0BD1FEF71BFA03238F
S31508009DB0C7E7FEF773FA0923C3E72FF0B4FE0823B3
S31508009DC0BFE70123BDE701A9FFF774FB0FE70020F2
S31508009DD001A9FFF7C7FB0AE7002001A9FFF772FCF4
S31508009DE005E7002001A9FFF79FFC00E7002103A86B
S31508009DF0FFF744FC1123A4E7008000504FF48012BB
S31508009E00034B5A664FF48032024B9A62704700BF82
S31508009E10009000500050005A38B504468020FFF7DD
S31508009E20D5FE032800F083804FF48012524B4FF082
S31508009E30A0615A6645F60E02504BC3F88020504A78
S31508009E4091624FF4803102F5805291629A6DD20385
S31508009E50FCD4996D11F08041FBD1D4E900021205BA
S31508009E6042EA0062E07B0243207B42EA0042607BD2
S31508009E7042EA0032A07B42EA80121A619869D4E964
S31508009E800452120642EA856200F000400243A07EB0
S31508009E90E57E0243207E42EA0042607E42EA0022D4
S31508009EA09A611A6AE06922F00F0242EA8502354D84
S31508009EB000283DD11A6294F82420996A94F8200063
S31508009EC0D200294042EA40120A4394F8211042EA95
S31508009ED0011242F480329A622B49284A936D31EA7C
S31508009EE00303FBD14FF08071254881621369A56889
S31508009EF023F4700343EA055313614FF0004383616B
S31508009F0094F822300BB9214B996294F823303BB967
S31508009F104FF480321D4B9A62184A936D5B00FCD44D
S31508009F2094F825301BB1154B194AC3F8802038BD63
S31508009F30024342F0080202281A6208D119614FF456
S31508009F400852996113484FF47F412FF085FF0B495A
S31508009F5094F822308A6A94F820001B062A4043EABD
S31508009F604013134394F8242043EAC20394F82320A9
S31508009F7043EA02438B62D3E7009000500040005A40
S31508009F800050005AC7FFFEFE030001000060005A99
S31508009F90F1A7FFFF3440005A014B93F900007047C0
S31508009FA03D180020F0B5D0E901434FF400061A4ADF
S31508009FB04178057856664FF4D156022702F5B8322D
S31508009FC05662164E4F2977604FF0010728BF4F217A
S31508009FD006F5805677601669F603FCD441EA052132
S31508009FE051611B01417B43EA04230B43017B43EA8E
S31508009FF041039360C37B817B1B0143EA4113417C88
S3150800A0000B43017C43EA41035360837C13B16FF42D
S3150800A010D1535362F0BD00BF0090005000100250AB
S3150800A020014B1880704700BFFA170020014B1880B3
S3150800A030704700BFF8170020B0F5207F10B50C4612
S3150800A0405DD008D8B0F5007F4ED003D8C0B1B0F5C2
S3150800A050C07F15D010BDB0F5607FFBD12C4B4C1ED0
S3150800A060D3F8FC202B4912F0807F4FEA041427D13D
S3150800A070D1F8803023F030032343C1F88030E9E774
S3150800A0802FF0F9FE2FF005FF4FF48031224B214ABD
S3150800A0901967136F013C23F4704343EA04331367CB
S3150800A0A0FEF78AF80446FFF7F9F9C0F102012046DF
S3150800A0B02FF0E9FE00F042F8BDE81040FFF776BD44
S3150800A0C0D3F8FC2022F08072C3F8FC20D1F8802057
S3150800A0D022F030022243C1F88020D3F8FC2042F057
S3150800A0E08072C3F8FC20B5E70A4A4C1ED2F89030B5
S3150800A0F023F0F85343EA0463C2F89030AAE7054A06
S3150800A1004C1E136F23F4806343EA84231367A1E785
S3150800A11000ED00E0008000500090005008B50121D5
S3150800A120022000F0C1F82FF0A6FE2FF0B2FE4FF481
S3150800A1308032014B1A6708BD0090005008B54FF4ED
S3150800A140C070FFF733FCBDE808400449884294BF55
S3150800A150012102214FF42070FFF76EBF80F0FA024A
S3150800A1600028ABBF00F16040054B00F5614000F0E8
S3150800A1700F00ACBF90F80003185C0009704700BFD9
S3150800A18014ED00E0054B420953F8223000F01F0099
S3150800A19023FA00F0C04300F00100704700E100E038
S3150800A1A0014608B5EFF31083DB0702D501221046F6
S3150800A1B008BDFFF7E7FF02460028F7D10846FFF774
S3150800A1C0CFFF0146EFF3118313B1B0EB131FEDD2A6
S3150800A1D0074B5B68C3F30803002BE8D0103B58B263
S3150800A1E0FFF7BEFF88428CBF00220122DFE700BFCF
S3150800A1F000ED00E0024A536B0342FCD1704700BFF2
S3150800A20000400950044A4178536F23F4407343EAE7
S3150800A21001235367704700BF004000500C4A10B531
S3150800A2201369044643F00403136104F053FE2FF048
S3150800A23062FE084B084AC3F8202430BF2FF05CFEA4
S3150800A24004F082FE1CB9BDE81040FDF7B5BF10BD8D
S3150800A25000ED00E000E003500000FF0F0A4A10B5C9
S3150800A2601369044643F004031361084B084AC3F80C
S3150800A270202404F02FFE30BF04F066FE1CB9BDE8AA
S3150800A2801040FDF799BF10BD00ED00E000E0035057
S3150800A2900000FF0F034A0179D36E23F030030B4306
S3150800A2A0D366704700400050F8B504461C4BD3F8F7
S3150800A2B08420D106FBD4D3F88430C3F381139C429F
S3150800A2C02CD0FDF75FFF012C064602D121462FF060
S3150800A2D0DAFD2FF0F8FD4FF00072124B07465A666A
S3150800A2E020462FF00CFE4FF480630D4D621E9340FE
S3150800A2F02B676B6E9A0103D4D5F884309B060AD572
S3150800A30038462FF0E4FD022C08D13046BDE8F84067
S3150800A31000212FF0B8BDD5F88430EAE7F8BD00BFB4
S3150800A320004000500060005010B50C4608B9FDF713
S3150800A33029FF074B21461B783BB1064B984204D8A8
S3150800A3400120BDE81040FFF7AFBF0220F9E700BFC4
S3150800A350AA500020005A62020278034B012100200D
S3150800A3601A70FFF7E1BF00BFAA5000204FF0004265
S3150800A37038B5244B244C5A664AF6CD33656C0146EB
S3150800A38005F00105236428BB0120FFF733FF636846
S3150800A390DB0715D51D4B586008461D4B226BD207A7
S3150800A3A00CD4984208D1072415B1174B194A1A64D8
S3150800A3B035F090FD204638BD0130EFE79842F2D0DF
S3150800A3C00024F1E70132236B13F0080305D08A4213
S3150800A3D0F8D1E8E700220E49F5E78A42E3D02021C2
S3150800A3E00A4A91620121A2F5805251600649084A3B
S3150800A3F0886A800603D49342D5D00133F8E793429E
S3150800A400DDE700BF00900050004009500060095089
S3150800A41040420F003254FFFF4FF0004238B5164B4A
S3150800A42001465A664AF6CD33144C154A656C2364C0
S3150800A43043780B205B0043F00103D363FFF7DAFE92
S3150800A44063688A7823F4F87343EA02136360CA7868
S3150800A4504B7943EA0223A3600A798B7943EA0223FC
S3150800A46023610878FFF782FFEB0744BF054B236497
S3150800A47035F030FD012038BD0090005000400950ED
S3150800A480004000503254FFFF4FF00042124B70B5A7
S3150800A4905D6E03F580535A664AF6CD3304460F4976
S3150800A4A080204E6C0B64FFF7A5FE0B6A23F00F03A2
S3150800A4B00F2C94BF234343F00F030B62F30744BFEB
S3150800A4C0074B0B64002DA2BF4FF00042054B5A669E
S3150800A4D035F000FD70BD00BF0080005000400950F7
S3150800A4E03254FFFF00A000504FF00042104B70B5E9
S3150800A4F05D6E03F580535A664AF6CD3304460D4918
S3150800A50080204E6C0B64FFF775FE0B6A23F4F85334
S3150800A51043EA04230B62F30744BF074B0B64002D81
S3150800A520A2BF4FF00042054B5A6635F0D3FC70BD0A
S3150800A53000800050004009503254FFFF00A0005030
S3150800A54010B52FF0E1FC042300F5805100F5005208
S3150800A5500B6113610B6113610B6113610B6113616D
S3150800A560202341F2020103610023C3608360416135
S3150800A5704FF4A0218361836541620549C361036283
S3150800A5808362C36243630365D164036310BD00BF7E
S3150800A590FF3F0D0370B505461446084641B9354BCD
S3150800A5A09D4218D0344B9D4208BF5720FFF7FEF94D
S3150800A5B0AB6813F0010F6B6830D0B0FBF4F4D80722
S3150800A5C004F1FF344FEA046407D42B6923F07F4370
S3150800A5D023432B6170BD5620E8E7282128462FF033
S3150800A5E08FFCAB6C990715D1AB6CDA0714D4AB6C3E
S3150800A5F013F0020F14BF0626002628462FF084FC07
S3150800A6002B69314623F07F4323432B61BDE8704015
S3150800A6102FF0B1BC0526F0E70926EEE7AB6DDB07A0
S3150800A620AB6848BF640003F0E003402B1BD004D896
S3150800A630DBB1202BCED1082304E0602B17D0802B6A
S3150800A640C8D1012363434101B1FBF3F20B4B203A16
S3150800A650284603EAC20201212FF052FC2A63BDE80C
S3150800A66070402FF04DBC0623ECE71023EAE70423DD
S3150800A670E8E700BF0000015B00000A50F8FF7F0012
S3150800A6802DE9F8439846436804460E4617461BB11B
S3150800A69040F6FF712FF034FC2046FFF751FFF18991
S3150800A6A0737B62690B43318A22F44C520B4322F0C6
S3150800A6B00F0213436361A268317E337B22F0804226
S3150800A6C022F0E2020B4313437269D6F8089013434B
S3150800A6D0A360B9F1000F03D1A36843F00043A36058
S3150800A6E0F069002874D0857A037A6D04A26845EA71
S3150800A6F083556D4B13401D43838803F4C0431D43A4
S3150800A700437845EA8305437B45EAC305837B45EAE7
S3150800A7100315837845EA8325A560D0E90432E56800
S3150800A7201343624A2A401343827943EA8223C27951
S3150800A73043EA4223E36003785D4A012B14D1E368B8
S3150800A74043F00403E360944200F09280594B9C4224
S3150800A7500CBF01234FF0FF335B0103F1A04342F224
S3150800A760944203F5703314E0032B7BD1E36843F07E
S3150800A7700403E360944279D04E4B9C420CBF0123FC
S3150800A7804FF0FF3341F294425B0103F1A04303F516
S3150800A790703302259D50437A04F5805293621BB1AB
S3150800A7A0E36843F40063E360C37A5BB1E36843F4A8
S3150800A7B00043E3603E4B9C425CD1037B3E4A03F078
S3150800A7C00F035367636AC27B23F003031343636271
S3150800A7D03FB197F8203004F58050002B54D0012360
S3150800A7E00362B8F1000F27D004F5805011B14FF479
S3150800A7F0004383652E4BB8F822109C4298F8213006
S3150800A8004FD02C4A94420DD10122112B34BF012777
S3150800A81002272A4DB1F5006FAF5494BF01270227CE
S3150800A820274DAF54A26D0B4322F4F95222F01E02B3
S3150800A8301343A36501238365052120462FF07EFB7C
S3150800A840B9F1000F03D04A467168FFF7A3FE204608
S3150800A85031782FF090FBA36CDB4313F4405FFAD1F9
S3150800A860BDE8F883023B012B84D96CE7002389E70E
S3150800A870002371E70F4B9C4201BF037B0E4A03F08E
S3150800A8800F03C2F880309DE7E26997F8223097F8FF
S3150800A890215022F009022B43134343F00103C361FD
S3150800A8A09FE70022B1E700BFE39BBDFFFFF9F087F2
S3150800A8B00000015B00000A5000900350AD500020D4
S3150800A8C0AB500020072A2DE9F041154698464FF06F
S3150800A8D0030401F003072DD89600B44000FA06F2E7
S3150800A8E021461C482FF057FB21461B4807FA06F25B
S3150800A8F02FF051FB194B1A499DF81800B8F1000FB3
S3150800A90018BF1946012303FA05F50D60154B1649BC
S3150800A910002818BF0B461D60144B9DF81C00C3F891
S3150800A9202054103103F22443002818BF0B461D603B
S3150800A930BDE8F081A2F10806B600B44000FA06F2B6
S3150800A94021460B482FF027FB21460A4807FA06F24C
S3150800A950CEE700BF00C4035008C4035010D4035008
S3150800A96010E4035014E4035014D4035000E00350D9
S3150800A97004C403500CC403502DE9F04105460F46A4
S3150800A9801E4690464AB101233022194C8B4002FBE1
S3150800A990004436B304F5825423600F21072F05EBD4
S3150800A9A0450388BFA7F108044FEA0313114895BF6A
S3150800A9B0BC00A40004330C3308FA04F2A14018447E
S3150800A9C02FF0E9FAB8F1000F09D101233021084A1E
S3150800A9D0BB4001FB05223EB102F582521360BDE879
S3150800A9E0F08104F50154D7E702F50152F6E700BFF6
S3150800A9F000C0035030C003504FF400120B4B10B583
S3150800AA00C3F88020BFF34F8FBFF36F8F0024FF2258
S3150800AA10074B21465C6520209A625C60FEF7ACFF16
S3150800AA202146BDE810402120FEF7A6BF00E100E060
S3150800AA3000000450044A054B002908BF13460122AA
S3150800AA4082401A60704700BF4010045040200450EE
S3150800AA5010B5012104462020FEF78EFF0121212092
S3150800AA60FEF78AFF0122114B5A60227812069A6075
S3150800AA706178A27842EA01429A61FF229A6200222C
S3150800AA809A631A644FF000425A654FF0FF324FF44A
S3150800AA90001103F500531A65054AC2F88011E378D8
S3150800AAA01B01DBB282F81533116010BD000004509B
S3150800AAB000E100E0F8B50125C3B2D1F800E091F84D
S3150800AAC00AC00F7B0C469D40CB7A1D491D4E0D656D
S3150800AAD0810001F1A04101F58821C1F804E04FF099
S3150800AAE0300E0EFB00601B05617B43EA0C4343EA0C
S3150800AAF0475322F003020166C36502672FF0F2F995
S3150800AB00736D2B437365237A13B1336C2B4333640C
S3150800AB10637A13B1B36B2B43B3632279A37943EA00
S3150800AB200243074A93616179E37943EA0143064997
S3150800AB308B61044B55639D64BDE8F8402FF0D8B986
S3150800AB4000200450000004500010045010B50124E1
S3150800AB50C0B284402FF0C6F9044B5A6D22EA0402AB
S3150800AB605A659C62BDE810402FF0C2B90000045037
S3150800AB7010B50124C0B284402FF0B4F9074BDA6A45
S3150800AB80224208D15B6B9C430CBF012400242FF0A2
S3150800AB90AFF9204610BD0024F9E700BF00000450B5
S3150800ABA04FF48032054B9A6641F6713203F51C3331
S3150800ABB0DA63012203F50053DA607047009000500B
S3150800ABC041F671320121064BDA6303F50052D16072
S3150800ABD00022DA634FF48032A3F518339A66704779
S3150800ABE000000350013831289ABF024B185C002038
S3150800ABF0704700BF1C91040838B5C2F30625044601
S3150800AC0002F0070241B942EA052242F4402206341C
S3150800AC10074B43F8242038BD114628462FF0CBF9B8
S3150800AC2002462846FFF7DEFF163442EA0022EFE71F
S3150800AC3000800350014BD3F8940070470040005041
S3150800AC404FF48032064B5A6603F5E6239B69C3F335
S3150800AC508512827003F03F021B0B42700370704727
S3150800AC600090005040F6B732064B5B689BB29342A1
S3150800AC709FBF4FF47A72B3FBF2F3034AD05C88BFE6
S3150800AC80002070470080E00F4E9104080120034B16
S3150800AC909B680A3303F01F03984070470080E00F53
S3150800ACA070B5054616461C4621B94FF42070FEF7C6
S3150800ACB07DFE0146402C1BD003D8DCB1202C1BD0CE
S3150800ACC070BD602CFCD1042303FB06F2530803EB8A
S3150800ACD04113B3FBF2F3094A203B02EAC303AA680D
S3150800ACE022F06002AA60AA681443AC60EB61E7E749
S3150800ACF00623E9E71023E7E70823E5E7F8FF7F00DF
S3150800AD00F8B5154E1C4615460E40FAB9202B05D047
S3150800AD10402B1ED0002B0CBF10244024012306F51F
S3150800AD2080765E430023324619462CF033FE02FB3A
S3150800AD3005F100FB04F704FB0311A2FB040400233E
S3150800AD40324621442CF026FE3844F8BD80240025DE
S3150800AD50E4E780240323E2E7F8FF7F00012100F5FA
S3150800AD60805310B5596040F6AA6341F20502436163
S3150800AD700023094C8360C365C26000F50052036175
S3150800AD80C361C3649464054C8365A04204BF03652C
S3150800AD904365516010BD00BFFFFF010000C00550AC
S3150800ADA070B50D46FFF7DAFF012300F5805673608C
S3150800ADB0AB7C04461BB1836843F080438360EB7C1D
S3150800ADC05BB1244B9C4202BF2A7DA3F51033C3F81E
S3150800ADD0C821E36D43F08003E3652A8A6B7B20462E
S3150800ADE01343EA891343E3602B7BD5E90112FFF786
S3150800ADF057FF6B7D1BB1A36843F48033A360AB7D1B
S3150800AE001BB1A36843F40043A360EB7D2A7E1B07AE
S3150800AE10120502F4E00203F0E0431343A3656B7ED8
S3150800AE209A1E012A4FF0020209D80B49032BC1F8D2
S3150800AE30202709D10423F3652B78636170BD074980
S3150800AE40012BC1F82027F4E7042204F50053DA653C
S3150800AE50F2E700BF00C0055000D0035000E00350E1
S3150800AE6038B50D46FFF77AFF012200F580535A6080
S3150800AE702B8AA97B826843F0010343EA81231343A3
S3150800AE80836083682A7D044643EA42738360AB7C09
S3150800AE905BB1194B984202BFEA7CA3F51033C3F89D
S3150800AEA0C821C36D43F08003C3652B7B2046D5E9D3
S3150800AEB0011243F48053E3602FF0EBF86B7B0BB180
S3150800AEC0102363616B7D1BB1A36843F48033A360D1
S3150800AED0AB7D1BB1A36843F40043A360EB7D2A7ED8
S3150800AEE01B07120503F0E04302F4E0021343A365CF
S3150800AEF02B78636138BD00BF00C00550034B5A6804
S3150800AF00D20702D5DA69002AF9D1704700800A50BB
S3150800AF10054B9A689107FCD45A689207F9D4DA69FE
S3150800AF20002AF6D1704700BF00800A5008B5FFF71F
S3150800AF30E5FF0222014B1A6108BD00BF00800A50D6
S3150800AF4008B5FFF7E5FF0122024B03F580514A6079
S3150800AF501A6108BD00800A5008B5044B59680129D2
S3150800AF6003D1FFF7E3FF024B596008BD00800A5082
S3150800AF7000A00A5010B5064CFFF7CAFF6368012BFC
S3150800AF8003D1FFF7E9FFFFF7C3FF0378E36010BDBE
S3150800AF9000800A50B8B94A680B7812B1127843EAA9
S3150800AFA0C2034A7843EA42038A6812B1127843EA2E
S3150800AFB082138A7843EA8203CA6812B1127843EA8E
S3150800AFC04223014A9364704700800A5008B9014B2E
S3150800AFD05964704700900A5008B9014B5964704784
S3150800AFE000A00A5008B9014B1964704700A00A501E
S3150800AFF010B9024B186C70470020704700800A5041
S3150800B00048B911B1012903D07047044BD86C704771
S3150800B010024B186D70470020704700BF00800A5029
S3150800B02040B911B1012903D07047034BDA64704760
S3150800B030014B1A65704700BF00800A5010B9024BD1
S3150800B040586D70470020704700800A5038B504468E
S3150800B050054D34F064FF0FCC0FC594E8030085E86E
S3150800B0600300002038BD00BF342D002047F6FF73CB
S3150800B0709A42F0B56FD002296FD8394B5B5C012B29
S3150800B0806BD8384DDF0005EBC30415F83330A178CB
S3150800B090012B13D10025E078401AA84202D80844AB
S3150800B0A0C0B2F0BD431B6668A0EB530336F91360C4
S3150800B0B09642D4BF1D4603F1FF30EEE760680028CC
S3150800B0C0EFD0B0F90040944204DBB0F90240944254
S3150800B0D0B8BF144683883D44FF2B19BFC8224FF0DA
S3150800B0E0280CB0F90620B0F908C0A2EB04030CBF7F
S3150800B0F00126002693FBFCF333446E781BB29E426E
S3150800B10001DD002B01DA731E1BB24FF47A7C013382
S3150800B1109BB2071D5D1E2DB24FEAC50E00EBC50595
S3150800B120EA88AD689E4214FB025222EAE27202F1F4
S3150800B1305C02B2FBFCF204DD37F83350013395426A
S3150800B140E8D200EB0E039888904228BF1046884242
S3150800B15038BF0846A4E7FF20A3E70020A1E700BF01
S3150800B16051910408342D00200229F0B555D82C4BEE
S3150800B170585C012851D82B4C04EBC00114F8300058
S3150800B1804B6801280FD1C8788C78904294BFC4EBDD
S3150800B1900001C4EB0201001BCAB28242C8BF0022EA
S3150800B1A033F91200F0BD002B37D08878904202D3CD
S3150800B1B0B3F90200F6E7CC78B3F900009442F1D966
S3150800B1C04C789988013CA1F1FF06714203F1040508
S3150800B1D0E4B2714103F10C07CEB2B44216D805EBBE
S3150800B1E0C1014FF47A756A43B1F902404968521AA7
S3150800B1F004EBD47102EB610292FBF4F29042D1DBCC
S3150800B200B3F902009042CDDC10B2CBE737F831C073
S3150800B2104E1C9445E3D33146DEE70348C2E700BF38
S3150800B22051910408342D00200080FFFF0148FFF7E4
S3150800B2300DBF00BF549104087FB50222084B094987
S3150800B240CDE901234FF00073CDE90313072301A9C4
S3150800B2504FF0FF30059334F0C1FE07B05DF804FBEC
S3150800B260006A18000002060008B5B0B14FF4806203
S3150800B2700B4B9A662EF0DFFE4FF098435A6CD202BB
S3150800B280FCD54FF48062586D064B10F470209A6610
S3150800B29004D0BDE808402EF0A4BF212008BD00BF99
S3150800B2A00090005000A000502DE9F0418CB088466F
S3150800B2B0DDE912761D460446002847D0002945D008
S3150800B2C0002F43D0002E41D013F00F033ED1204863
S3150800B2D02049A360002A08BF0146E361C4E90013B8
S3150800B2E0404609A92FF079F868BB204609992EF03F
S3150800B2F099FE294620462EF095FE6946404600F0FE
S3150800B300F7FA00BB694620462EF078FE404603A9A8
S3150800B3102FF062F9B8B9204603A92EF06FFE0697FA
S3150800B3200127204645F0005506A9079708952EF0EF
S3150800B33065FE204609A909960A970B952EF068FE20
S3150800B3402046FFF791FF0CB0BDE8F0812120FAE70F
S3150800B35000010004000101042DE9F04F97B0894669
S3150800B36090461F460546DDF880A0002800F0BB8001
S3150800B370002900F0B8803AB1229B002B00F0B38078
S3150800B380239B002B00F0AF80BAF1000F00F0AB80D2
S3150800B390219B002B00F0A78067B13C680026229B02
S3150800B3A043440293464507D307B13C60002017B0D3
S3150800B3B0BDE8F08F3C46F1E75CB1229B219A9B5D84
S3150800B3C0125D01345340239A04F00F049355013655
S3150800B3D0E8E7A8EB060BBBF10F0F58D9434B4846D5
S3150800B3E0C5E90034AC60EC6113A92EF0F6FF00281D
S3150800B3F0DDD1284613992BF00F0B2EF013FE594674
S3150800B40028462EF00FFE484604A900F071FA0028D7
S3150800B410CDD1284604A92EF0F1FD484607A92FF0FC
S3150800B420DBF80028C3D1284607A92EF0E7FD01233B
S3150800B43022992F4ACDF828A00B930C928A190D92BF
S3150800B44028464BF000520AA90E9303920F922EF04B
S3150800B450D5FD28460DA92EF0D1FD239B039A9919EF
S3150800B4600123109111931292214A284610A9CDF86A
S3150800B4704CA0149315922EF0CBFD284613A92EF056
S3150800B480C7FD2846FFF7F0FE5E4400288FD1229BB1
S3150800B49003EB060B239B1E44029B5B4501D14646E4
S3150800B4A080E7ACB9219B2246CDE900A34946102383
S3150800B4B02846FFF7F9FE00287FF479AF0AF1100253
S3150800B4C012F8013D0133DBB213700BB95245F7D1BF
S3150800B4D0219A1BF8013B125D0134534006F8013BE3
S3150800B4E004F00F04D8E7212061E700BF0303000436
S3150800B4F0100000202DE9F04F97B0894615469A4668
S3150800B5000446209FDDF88880DDF890B0269E002846
