:020000040800F2
:1060000000100020157D0008E5DC0008E9DC000830
:1060100023050408EDDC0008F5DC0008230504086E
:1060200023050408230504082305040823050408A0
:10603000F9DC0008C83C050823050408230504080A
:106040001182000823050408230504082305040819
:10605000918E00082305040823050408230504087D
:1060600023050408596D00088D6D00082975000886
:10607000EFFA030823050408230504082305040890
:106080002305040823050408230504082305040840
:1060900023050408558A000823050408230504087D
:1060A00023050408558C0008318C000823050408DA
:1060B0002305040839790208C58302080B84040803
:1060C000078404086D7B0208178404080F84040801
:1060D0009D83020813840408058402087184020861
:1060E000230504082305040805DE00082305040829
:1060F000991E040823050408230504082305040841
:1061000023050408230504082305040823050408BF
:1061100023050408230504082305040823050408AF
:10612000230504082305040823050408230504089F
:10613000230504082305040823050408230504088F
:10614000230504082305040823050408AD230408D7
:106150007D690208230504080B81040811810408E5
:10616000230504082305040823050408230504085F
:10617000013800D0FCE770472DE9F04F4FF0FF0BDE
:10618000C9B09A460DF11B099DF8503108AFCDF802
:106190000C90CDF808B0019705930389044600934D
:1061A00083790E46904641888288407816F0CCFA72
:1061B000054650B10090A388002062883A4916F045
:1061C00029FE284649B0BDE8F08F99F800003EF05E
:1061D00017F938B12846A3886288344916F01AFEA8
:1061E0008D25EEE75A46394699F800003EF0D7F87B
:1061F0008346002851D0529B1BB1BDF84C319842C8
:106200004BD8002399F800900793A9F14102012A85
:106210005FFA8BF123D838460139254ADFF898C058
:106220005FFA81FE734513DB059B04210792C3B916
:1062300007AF18221F489FED1A7B02FB0604204679
:106240000A460830394684ED027B45F037FC11E000
:1062500010F8011F013351400CFB01F2E2E7059BEE
:1062600033B123464A463846009611F0DDFBA8E7D5
:106270000829DED9B8F1000F01D088F80090BAF1F2
:10628000000F01D0AAF800B0529B002B99D05A46BB
:10629000184608A945F012FC93E7012591E700BFD5
:1062A0000000000000000000F782050828830508B0
:1062B000C59D1C8108190020930100010000000009
:1062C0002DE9F04F93B0CDE90A32DDE91C530E936E
:1062D00053EC102BCDE90801104619468DED060B45
:1062E0001E9E38F06DFE80B1DDE906014FF0FF32F1
:1062F000C54B38F08DFE40B9DDE906014FF0FF32A5
:106300006FF4801338F066FE70B1DDE908019DED91
:10631000060B0E9B1E96CDE91C53DDE90A3213B025
:10632000BDE8F04F00F088B90022DDE90601002346
:1063300038F050FE002800F03381DDE906A303F1B8
:10634000004BCBF30A5016F48063A0F2FF3008BF75
:1063500006250F9338F062FB9BA3D3E9002338F0A6
:10636000C7FB9BA3D3E9002338F00CFACBF313044B
:10637000894644F07F5180460022A44B504641F4A8
:10638000401138F0FDF994A3D3E9002338F0B0FBB5
:1063900002460B464046494638F0F4F938F042FED2
:1063A000044638F03BFB8EA3D3E9002380468946A0
:1063B00038F09EFB0022964B38F0E4F938F032FEBC
:1063C00089A3D3E9002307464946404638F090FBAD
:1063D00080463846894638F021FB85A3D3E900235F
:1063E00038F086FB02460B464046494638F0C8F96D
:1063F00002460B46CDE90C2338F07AFBDDE90C238D
:10640000804689461046194638F0BCF90022CDE98D
:106410001001804B4046494638F094FC00227E4BE8
:1064200038F0B0F902460B464046494638F08AFC3F
:1064300000227A4B38F0A6F902460B464046494600
:1064400038F080FCDDE90C238046894600204FF0BF
:10645000804138F095F902460B464046494638F0EF
:1064600091F902460B46DDE9100138F06BFC07F2AA
:10647000FF3700226A4B38F085F900223B0538F0DF
:1064800037FB52465B468046894638F0C1FD0028FE
:1064900040F08980CDE90C8904F16303C72B34BF38
:1064A0000427052731051BD553A3D3E90023504604
:1064B000594638F0A3FD00287FD051A3D3E900232B
:1064C0005046594638F086FD002876D00027A54270
:1064D000C6BF2C1B04F1FF3500253C4646F4806600
:1064E0000E9B9F422CBF4FF00008A3EB070816F04D
:1064F000020903D0002F18BF4FF000083CB1DDE9BE
:106500000C235046594638F01DFC82468B46DDE987
:1065100006010022002338F05DFD10B10BF10043AD
:106520009B46DDE9080126F40063CDE90183DDE93E
:106530000A324BEC10AB009500F07EF802465FB3D8
:10654000DDE9091316F0200F00F10105089E0CBFCC
:1065500065204520B047DDE90801052300220593A9
:106560000A23002CCDE9023207F1FF374FEAD4733A
:10657000B8BF64422A46019304970A9B009440F0F6
:1065800089FD0246B9F1000F06D00B9BC41A0B9B84
:106590001A190E9BA34245D8104613B0BDE8F08FE0
:1065A000DDE906ABCDE60022404649461A4B38F0FD
:1065B000C9FB013CCDE90C016EE7002D90D00F9B8B
:1065C000002B8DD0013D8BE7FB799F501344D33FC7
:1065D000B3C8608B288AC63F61436F63A787D23FE9
:1065E00071A379094F930A401655B5BBB16B0240B0
:1065F000EF39FAFE422EE63F2D431CEBE2361A3FFE
:106600000000000080842E41FFFFEF7F0000F83F74
:106610000000E03F00002C40000024400000184033
:106620000000F03F2020DDE90913089DA847013450
:10663000ADE700BF000000002DE9F04F5BEC10ABB0
:1066400097B0CDE90501DDE92057CDE90723504694
:1066500052465B465946229E38F0B2FC70B903237D
:10666000CDE902760193B04B0093DDE90501DDE948
:10667000072340F02FFC17B0BDE8F08F4FF0FF323A
:106680006FF480135046594638F0A4FC28B1042317
:10669000CDE902760193A54BE6E74FF0FF32504675
:1066A0005946A34B38F0B4FC68B1A24A06F0040383
:1066B000002B08BF0322A04B1CBF13460422CDE9C8
:1066C00002760192D0E7504693A3D3E900235946BE
:1066D00038F09EFC38B992A3D3E9002350465946BE
:1066E00038F078FC68B1DDE90723DDE905014BEC02
:1066F00010ABCDE92176209517B0BDE8F04FFFF73C
:10670000DFBD002200235046594638F063FC0028C4
:1067100000F09A805B4652460020002138F030F8A5
:10672000012382468B46099316F4806400F08E8024
:10673000092D40F28E80002430210EABA5F1090214
:106740000134202C03F8011BA5EB040901D094426D
:10675000F6D15946504638F065FC784B054603EBB8
:10676000C90393ED007B8DED0A7B38F057F90246A3
:106770000B465046594638F003F8DDE90A2338F055
:10678000B7F902460B46CDE90C2338F073FC80467E
:1067900038F034F902460B46DDE90C0137F0F0FF22
:1067A00002460B46CDE90C230022654B38F030FC45
:1067B000002851D008F10108404638F01FF9024680
:1067C0000B46DDE90A0138F00FFC10B14FF000086C
:1067D0000135B9F1000F50D1284638F01FF90246B3
:1067E0000B465046594637F0CBFF0022544B8046AB
:1067F000894638F0EFFB30B1002240464946504B05
:1068000038F006FC10B1E80700D501350A210EABBF
:106810001A19202C0AD095FBF1F001FB10553035E8
:1068200002F8015B013405460028F2D106F00302AC
:10683000012A57D1002F55D0099A12B916F00C0F22
:1068400000D0013F302245E009906DE74FF0060986
:106850007FE7A94600247CE70022DDE90C01384BE4
:1068600038F0B8FB0028B4D1B8F1000F02D018F00E
:10687000010FAED008F10108ABE70A210EAB2344AB
:10688000202C0ED0B8FBF1F001FB1082B8F1090FFB
:1068900002F1300209F1FF3904F1010403F8012B80
:1068A00011D83021A1440EAA202CAFD0A14504F16B
:1068B00001030AD11C4609F158030DEB03092E23ED
:1068C00009F8203CA2E78046DAE7A1541C46EBE732
:1068D0001A550134A74205D9202CF9D1CDE9027609
:1068E0000194C1E6202CF9D0099A3AB12D2104F186
:1068F00058026A4402F8201C0134EFE7710704D5FE
:1069000004F158022B216A44F4E73207E6D504F17A
:10691000580220216A44EDE70000000065CDCD411A
:106920000000000065CDCDC1E7B00508EBB005085B
:10693000FFFFEF7FDEB00508E3B00508F0B0050803
:106940000000E03F0000000070B58EB02C22002156
:1069500003A845F08DF864234FF002320893CDE987
:1069600005230B2301218DF83430514B8DF8101085
:106970001B88D80700F19580084623F0C5F80A2245
:106980004C4B4D491A704FF428734C48ADF81230F7
:1069900021F02CFE4A4C206020B94FF41171494877
:1069A00007F09EF80521206841F0FEF820B14FF471
:1069B0001571444807F094F8206800F0C1FD424B7F
:1069C0002068196841F066F90C2523F0B5FF68438B
:1069D000099023F0B1FF68430DEB05010790206893
:1069E0001BF0FCFE20B140F26921364807F078F830
:1069F00000223649206841F0D6F920B140F26B21DF
:106A0000304807F06DF840F20353314D314E2B8082
:106A1000052396F90000AB707F2801D123F03EFAE0
:106A20003378EB7023F088FF00EB80008000A880B3
:106A300023F082FF0023C0004FF0FF31E880AB60FD
:106A40004FF0FF3018A3D3E9002323F085FA224941
:106A5000206841F080FD206802A941F07EF920B154
:106A60004FF42971174807F03BF8042220680DEB1A
:106A7000020141F0FDF8042804D040F2A72111489A
:106A800007F02EF801A9012042F025F807F06EF971
:106A9000012024F0F1F93AF0B2F824F017FA23F0CB
:106AA000B7F80EB070BD00BF0A0020FF420300001F
:106AB00004530020105E0020319B020824130020A4
:106AC000C849002012F00508241100201E5E002095
:106AD000BC490020C5160020D19C02080348044B85
:106AE000834202D0034B03B118477047AC18002013
:106AF000AC18002000000000064B0749C91A891095
:106B000048BF0131491003D0044B0BB1014818476D
:106B1000704700BFAC180020AC1800200000000037
:106B200010B5064C237843B9FFF7D8FF044B13B1D7
:106B30000448AFF300800123237010BD865300206A
:106B40000000000020F4050808B5054B1BB10549FD
:106B50000548AFF30080BDE80840FFF7CDBF00BF98
:106B600000000000481D002020F40508A3F5803A2D
:106B7000704700BF174B002B08BF134B9D46FFF714
:106B8000F5FF00218B460F461348144A121A44F0B1
:106B90006FFF0E4B002B00D098470D4B002B00D001
:106BA00098470020002104000D000D48002802D065
:106BB0000C48AFF3008038F095FE2000290038F033
:106BC00000FF38F00FFC00BF0000080000000000CC
:106BD0000000000000100020AC180020905E002093
:106BE000000000000000000010B5002486B0094B32
:106BF000684602938DF80C4014F090FC024620B9D0
:106C0000054916F007F906B010BD2046034916F0F5
:106C100001F9F8E722220B1460BB04088FBB0408BB
:106C200008B5FFF7E1FF034819F050FDBDE8084043
:106C300038F0EDBE3FC2040808B507F023F9FF2184
:106C400004480AF06BFFBDE808404FF47A7125F064
:106C50008BBF00BF601D002010B5044670B9FF2334
:106C600007491A4607480AF01FFFFF2105480AF0A6
:106C700055FF2146BDE8104025F076BF10BD00BF8E
:106C8000396C0008601D002010B54FF4807086B08C
:106C900038F0BAFB164B04461A6AD3ED036A93ED3B
:106CA000027A0492D3ED077AFDEEE77ACDED037A0E
:106CB000D3ED067AFDEEE77ACDED027AD3ED057AD3
:106CC000FDEEE77ACDED017AD3ED047AFDEEE77AB9
:106CD000CDED007AFDEEE67A17EE903AFDEEC77A3A
:106CE000044917EE902A19F005FD204606B010BDA4
:106CF000881D0020B6BB040830B5134D89B001AC27
:106D00000FCD0FC495E8070084E807004FF002128A
:106D10000E4B0F48C3F8382702F58032C3F83027EE
:106D2000142201A9C3F8202703F052FD4FF400728A
:106D3000084BC3F880211A604FF48062C3F88021A9
:106D40001A6009B030BD00BFE8BC040800C00350A1
:106D500000C0055000E100E0084B09495A6A0948A3
:106D6000D2B20B680A2AC25404D04F2B02D8013386
:106D70000B6070470022044B1A70704700C005502A
:106D8000841D0020875300205C1600200A490B4B0D
:106D90000A681B689A420A4B05D2501C08600949D0
:106DA0008A5CDA6370470121074A1170DA6C22F0BD
:106DB0000202DA64704700BF801D0020841D00209D
:106DC00000C00550875300205C16002070B50546B2
:106DD00000240B4E284644F07EFEA04209D80D2127
:106DE000074839F09FFEBDE870400A21044839F099
:106DF00099BE295D304639F095FE0134EAE700BFBF
:106E000000C0055010B50446C0B02E48FFF7DEFFA5
:106E100042F2107001F0FAFF4FF47A7001F0F6FFC1
:106E20002948FFF7D3FF47F2305001F0EFFF4FF44E
:106E30007A7001F0EBFF2548FFF7C8FF47F23050AA
:106E400001F0E4FF4FF47A7001F0E0FF204644F0D7
:106E500042FE4FF4807103461D4A684619F05EFCFD
:106E60006846FFF7B3FF4FF47A7001F0CFFF47F2A7
:106E7000305001F0CBFF2046FFF7A8FF4FF47A70A7
:106E800001F0C4FF4FF47A7001F0C0FF4CF25030B3
:106E900001F0BCFF0F48FFF799FF4CF2503001F0B2
:106EA000B5FF4FF47A7001F0B1FF4FF47A7001F042
:106EB000ADFF0948FFF78AFF41F2883001F0A6FFD5
:106EC00040B010BD00BC04080CBC040876BC04082B
:106ED0009FBC0408B4BC0408C4BC040808B50D4831
:106EE000FFF774FF4FF47A7001F090FF0A48FFF744
:106EF0006DFF4FF47A7001F089FF0848FFF766FFD5
:106F00004FF47A7001F082FFFFF7BEFEBDE8084043
:106F1000FFF778BFD0BC0408D3BC0408DDBC04086C
:106F200010B53DF0CFF9022810D1FF2108480AF032
:106F3000F5FD25F0ADFE01200CF0A4F9BDE81040F0
:106F4000034601210420034A0CF034B910BD00BFF0
:106F5000AC1D002004BD04081FB53DF0B3F90228A4
:106F600015D100900DF10E030022032101203DF008
:106F700038FEBDF80E30094863B139F0C5FBFF217A
:106F800007480AF0CBFD4FF47A6125F0EDFD05B01E
:106F90005DF804FB39F0B2FBF9E700BF6C2005088F
:106FA000CC1D00201FB501230022009306210DF106
:106FB0000F033DF016FE28B99DF80F30044823B1A9
:106FC00039F09CFB05B05DF804FB39F09AFBF9E75A
:106FD0006C200508912808B504D1BDE8084009488F
:106FE00039F08FBB90280BD1064839F087FBFF2181
:106FF00005480AF093FDBDE80840002125F0B4BD26
:1070000008BD00BF6C200508AC1D0020FF2310B593
:107010000D4C1A4620460D490AF046FDFF230C4947
:107020001A460C480AF040FDFF2120460AF076FD82
:10703000002125F099FD17F013FA4FF61173038024
:107040000123837010BD00BFCC1D0020596F0008C4
:10705000216F0008AC1D0020002301210420014AFB
:107060000CF0A8B827BD04082DE9F04304460F46EC
:107070001546C3B00A880020774915F0CBFE002CD6
:1070800040F0BD80754E2846D6E90032013342F10A
:107090000002C6E9003225F021FB2246C3B20746B2
:1070A0002946009402A825F0DBFCDFF808920DF1D8
:1070B0000808A3B29F426ED8284625F00FFB014670
:1070C0000446674819F002FB0022E3B22946009209
:1070D00022A825F0C5FC9DF88830012B63D16148BA
:1070E000621E0DF1890144F0E9FC5F4819F0EEFAE7
:1070F0009DF80830072B40D15C4C5B4819F0E6FA4C
:10710000A06837F09DFC02460B46594819F0DEFA9C
:10711000206937F095FC02460B46564819F0D6FA1E
:10712000A06937F08DFC02460B46534819F0CEFAA1
:10713000E06937F085FC02460B46504819F0C6FA64
:1071400021464F4819F0C2FA606937F079FC0246CF
:107150000B464C4819F0BAFAE06837F071FC024669
:107160000B46494819F0B2FA216A484819F0AEFABC
:10717000D6E90023464819F0A9FAD6E90032143BB3
:10718000134305D1FFF7AAFE00220023C6E900231E
:1071900043B0BDE8F0834946002018F8012B15F0F4
:1071A00053FE013485E7023B062B9ED8DFE803F04F
:1071B00004090E13181D22002C48621E0DF18901CE
:1071C00091E73448621E0DF189018CE73248621E56
:1071D0000DF1890187E73148621E0DF1890182E7CF
:1071E0002F48621E0DF189017DE72E48621E0DF1C8
:1071F000890178E72C48621E0DF1890173E7022CA2
:10720000C6D1284625F06AFA7D28064606D9002010
:10721000264943B0BDE8F04315F0FCBD0024C3B2DD
:1072200022462946009422A825F01AFC4FF6117335
:107230003A899A42ACD120461D4915F0EBFD1D4F0D
:1072400022ADA3B29E42A3D93946002015F8012BE6
:1072500015F0FAFD0134F4E745BD0408B01800202C
:1072600071BD0408901D002069BD0408881D002020
:1072700078BD040887BD040896BD0408AABD0408AB
:10728000BDBD0408CABD0408DDBD0408F0BD040886
:10729000FEBD0408941D0020981D0020A01D0020A4
:1072A000A41D0020A81D00209C1D002009BE04086C
:1072B00021BE04086BBD0408012108B514F00AFAC8
:1072C000024620B9BDE80840044915F0A3BD0020DE
:1072D000BDE80840024915F09DBD00BF34BE04085A
:1072E00073BE04080D4B10B55B680446834206D19B
:1072F00039F0C1F9012802D13C20FFF7DDFF20461B
:1073000039F0B9F9044640B9FF2105480AF006FCF6
:107310002146BDE8104025F027BC10BDB810002064
:10732000AC1D002030B50A4C0A4B22680A4D1A6089
:107330000A4B85B02B600A4B019305F055FD2B6875
:10734000029001A9206803933AF01DFA05B030BD00
:10735000A8100020482C0020442C00209C10002065
:10736000551F0508014B18683AF021BAA8100020F3
:1073700038B505F039FD0446064D2B68D3F8B00248
:1073800005F026FD28683AF025FA2046BDE8384089
:1073900005F01EBDA810002010B5274C02F03AFAE7
:1073A00002F0C8FB236F23F0070343F003032367B6
:1073B00039F02BFA214B00209B6ADB015EBF4FF4B2
:1073C00080321F4B9A62D4F8203123F0070343F038
:1073D0000203C4F82031D4F8283123F0070343F026
:1073E0000203C4F82831D4F8403123F0030343F0FA
:1073F0000203C4F84031D4F8603123F0030343F0B2
:107400000203C4F86031D4F8403223F0030343F0A0
:107410000203C4F84032D4F8003223F0070343F0EB
:107420000203C4F80032D4F8083223F0070343F013
:107430000203C4F8083210BD008000500040005A1A
:107440000060005A30B5254D9DB008AC0FCD0FC47B
:1074500095E80F0084E80F002A2200210DF1460074
:1074600044F006FB1E4B0124109356231293052370
:1074700015930623179303230E2200210DF112000A
:107480008DF845408DF8443044F0F2FA4FF4702006
:10749000144B02A9CDE902030B238DF810300C2305
:1074A0008DF81130104B08AA0593202306930F4B3B
:1074B0000F48009310AB8DF81D4005F011FD0446F8
:1074C0009DF81E304FF4E130002B0CBF032100214A
:1074D00039F018F820461DB030BD00BF3420050833
:1074E0000000015B3C00015BD7530020A820002076
:1074F00018210020022905D8034B1B68186808B121
:10750000436A1847704700BFAC10002008B5044913
:10751000044806F09BFFBDE80840FFF793BF00BF9B
:10752000B01000203C21002001483AF02BBD00BFE4
:1075300018210020014B1A6A1868104718210020F2
:1075400008B51BF079F90022014B1A7008BD00BF85
:10755000F7530020014839F089B800BF54200508CE
:10756000014839F0C8B800BF6C2005081FB50849AC
:1075700003460868097902AA02908DF80C1000925F
:1075800005210022012009F02BFC05B05DF804FB69
:10759000842005081FB50A4A0346106802A9029014
:1075A00090889279ADF80C008DF80E20009144225D
:1075B0004FF44071012009F013FC05B05DF804FBA5
:1075C0008A2005081FB5084903460868097902AAF8
:1075D00002908DF80C10009205214222012009F042
:1075E000FFFB05B05DF804FB922005081FB50849B4
:1075F00003460868097902AA02908DF80C100092DF
:1076000005214022012009F0EBFB05B05DF804FBE9
:10761000842005081FB5074A0346039203AA009277
:107620004FF440714122012009F0DAFB05B05DF80A
:1076300004FB00BF010221211FB509490346086868
:10764000097902AA02908DF80C1000924FF4407153
:107650004022012009F0C4FB05B05DF804FB00BF27
:10766000982005081FB5094903460868097902AA48
:1076700002908DF80C1000924FF4407143220120CB
:1076800009F0AEFB05B05DF804FB00BF98200508CB
:107690001FB5094903460868097902AA02908DF8C6
:1076A0000C1000924FF440714222012009F098FB27
:1076B00005B05DF804FB00BF8C2005081FB5064A25
:1076C0000346039203AA009201220821104609F002
:1076D00087FB05B05DF804FB010121211FB5074AB6
:1076E0000346039203AA00924FF44071082201203E
:1076F00009F076FB05B05DF804FB00BF12122121F2
:107700001FB5094A0346106892880290ADF80C2014
:1077100002AA00924FF440714B22012009F060FB55
:1077200005B05DF804FB00BF9E2005081FB5074AA1
:107730000346039203AA009201224FF440711046BF
:1077400009F04EFB05B05DF804FB00BF01012121EB
:107750001FB5074A0346039203AA00924FF44071F3
:107760000422012009F03CFB05B05DF804FB00BFDA
:10777000010121211FB5094903460868097902AAB8
:1077800002908DF80C1000924FF4407107220120F6
:1077900009F026FB05B05DF804FB00BF9F2005083B
:1077A0001FB5074A0346039203AA00924FF44071A3
:1077B0000A22012009F014FB05B05DF804FB00BFAC
:1077C000020221211FB5094903460868097902AA66
:1077D00002908DF80C1000924FF4407100220120AD
:1077E00009F0FEFA05B05DF804FB00BFA52005080E
:1077F0001FB5094903460868097902AA02908DF865
:107800000C1000924FF440710622012009F0E8FAB2
:1078100005B05DF804FB00BFA52005081FB5064AAA
:107820000346039203AA009208210022012009F0D6
:10783000D7FA05B05DF804FB010221211FB5074A04
:107840000346039203AA00924FF4407103220120E1
:1078500009F0C6FA05B05DF804FB00BF0102212162
:107860001FB5094903460888897803AAADF80C00BA
:107870008DF80E10009206214222012009F0B0FA84
:1078800005B05DF804FB00BFAB2005081FB503AAD7
:10789000009205220749034608888978ADF80C0054
:1078A0008DF80E100120114609F09AFA05B05DF826
:1078B00004FB00BFAF2005081FB508490346086850
:1078C000097902AA02908DF80C1000920821022278
:1078D000012009F085FA05B05DF804FBA520050834
:1078E0001FB5094903460868097902AA02908DF874
:1078F0000C1000924FF440710922012009F070FA37
:1079000005B05DF804FB00BFB32005081FB50A4AA7
:107910000346106802A9029090889279ADF80C0095
:107920008DF80E2000914C224FF44071012009F097
:1079300057FA05B05DF804FBB92005081FB50949E1
:1079400003460868097902AA02908DF80C1000928B
:107950004FF440710222012009F042FA05B05DF8AF
:1079600004FB00BFC12005081FB50949034608688C
:10797000097902AA02908DF80C1000924FF4407120
:107980000522012009F02CFA05B05DF804FB00BFC8
:10799000C12005081FB5094903460888897803AA4C
:1079A000ADF80C008DF80E1000920821062201207F
:1079B00009F016FA05B05DF804FB00BFC720050802
:1079C0000A46014938F06BBAA33C05080A4601494A
:1079D00038F065BA983C05080A46014938F05FBAA4
:1079E000933C05080A46014938F059BA8E3C05080F
:1079F0000A46014938F053BA893C05080A4601494C
:107A000038F04DBA7C3C05080A46014938F047BABF
:107A10006D3C05080A46014938F041BA683C050842
:107A20000A46014938F03BBA5F3C05080A4601495D
:107A300038F035BA563C05080A46014938F02FBAE5
:107A40004D3C05080A46014938F029BA463C05086C
:107A50000A46014938F023BA3B3C05080A46014969
:107A600038F01DBA303C05080A46014938F017BA0B
:107A7000253C05080A46014938F011BA1C3C0508A6
:107A80000A46014938F00BBA113C05080A4601497B
:107A900038F005BA0E3C05080A46014938F0FFB92E
:107AA0000B3C05080A46014938F0F9B9083C0508BD
:107AB0000A46014938F0F3B9053C05080A46014970
:107AC00038F0EDB9023C05080A46014938F0E7B93B
:107AD000FD3B05080A46014938F0E1B9F83B0508C5
:107AE0000A46014938F0DBB9EF3B05080A4601496F
:107AF00038F0D5B9E43B05080A46014938F0CFB95A
:107B0000DF3B05080A46014938F0C9B9DA3B0508E8
:107B10000A46014938F0C3B9D53B05080A46014970
:107B200038F0BDB9D03B05080A46014938F0B7B96D
:107B3000C53B05080A46014938F0B1B9BA3B05080A
:107B40000A46014938F0ABB9B33B05080A4601497A
:107B500038F0A5B9B03B05080A46014938F09FB98D
:107B6000AD3B05080A46014938F099B9A23B050822
:107B70000A46014938F093B99D3B05080A46014978
:107B800038F08DB9943B05080A46014938F087B9A9
:107B90008B3B05080A46014938F081B9863B050848
:107BA0000A46014938F07BB97B3B050807B5082038
:107BB00038F08AFD02238DF80030054B68460193AA
:107BC00038F064FC082003B05DF804EB38F087BDA2
:107BD000006A18102DE9F041424D88B001AC0FCD7C
:107BE0000FC495E8070084E80700012401213A202A
:107BF00001F0CEFB3C4E0121292001F0C9FB3B4B9B
:107C0000304601A903938DF8124002F041FE23464D
:107C100004220321022002F07FFB022122460846B3
:107C2000002302F079FB234621460422022002F0C1
:107C300073FB042200212346022002F06DFB2C4D31
:107C40002C4B05F50058C5F834374FF00213C5F832
:107C5000303703F58033C5F838371C234FF44870AC
:107C6000C5F8203707F026FE05F580571420C8F820
:107C7000A04007F01FFE2320C7F8A04007F01AFE1F
:107C8000B9213046C8F8A04038F042FF0023032154
:107C90001A460220C7F8A04002F03EFB0023022152
:107CA0001A46084602F038FB2346214600220220ED
:107CB00002F032FB002223461146022002F02CFB88
:107CC000304602F063FD00212920C5F83417C5F8BD
:107CD0003017C5F83817C5F8201701F059FB08B060
:107CE000BDE8F081AC3C050800C0055000127A00E8
:107CF00000C00350020001000348044A0449121A5C
:107D0000921038F00FBC00BF44FC050844FC050885
:107D1000905E002008B500F02FF8FFF7EDFF124B42
:107D200012498B4212D30020114B12498B4218D3B7
:107D3000FEF720FF186850F82240586840F82240AB
:107D4000013298688242F5D30C33EAE70022F8E763
:107D50001C6844F8220001325C68A242F8D3083360
:107D6000E4E70022F8E700BF28F4050834F405082A
:107D700034F4050834F405084FF480414FF0FF3027
:107D8000114B124A10B59A60D3F8882042F4700261
:107D9000C3F888200E4A91660E4901F5005210661C
:107DA0000D4850660220C3F8D000BFF34F8FBFF3D9
:107DB0006F8F01244FF440330848C0F88041D360EE
:107DC00004600B6110BD00BF00ED00E00060000822
:107DD0000090005000800044F7FF370000E100E011
:107DE000014B1868704700BFDC100020084B1B6F68
:107DF00003F00703022B04D0032B05D0012B05D081
:107E0000FEE7044B18687047034BFBE703487047D5
:107E100000800050DC100020E4100020002D310113
:107E200008B5FFF7E3FF054B1B6FC3F303330133C3
:107E3000B0FBF3F0024B186008BD00BF008000509B
:107E4000D81000200048704700B4C404014B1868E3
:107E5000704700BFE4100020054B1860054B1B6FF6
:107E600003F00703032B01D1FFF7DABF704700BF10
:107E7000E41000200080005000487047002D3101C0
:107E80004FF0B4439868C0F304400C280AD8DFE8E8
:107E900000F00B0909090909072119091B1D1F0019
:107EA0000F487047002070479B6803F04073B3F1A0
:107EB000807F11D0B3F1007F10D00A4A002B08BF99
:107EC0001046704708487047084870470848704790
:107ED0000848704708487047084870470848704786
:107EE000405DC60000093D00C0EA210180BA8C0156
:107EF0000048E801005A62020024F40080841E0059
:107F000040420F00014B1868704700BFE01000208E
:107F1000BFF34F8F0549064BCA6802F4E062134372
:107F2000CB60BFF34F8F00BFFDE700BF00ED00E067
:107F30000400FA054FF000639B6A03F17842B2F542
:107F4000C04F03D21968064A914203D00023037040
:107F500083607047012202709A689B694260F7E76C
:107F600007B0CD5E73B54F4B04461A781AB10222A2
:107F70001A7002B070BDCDE900220028F9D00126A8
:107F80001E7038F066FC484D484B18601DF0C4FB6D
:107F90002B785BB900F070FE40B945480823454A8C
:107FA0004549006819F026FE00B92E70434B5A6E01
:107FB00062619B6E424AA3614FF480439366414BDA
:107FC0005968E16140499960196E2160596E61609C
:107FD000D3F87011A160196CE160596C21613B49C3
:107FE000086C1864496C5964012151661B6E9C042D
:107FF00041D5374AD368D807FCD4364B1A68531C8E
:108000003ED04FF480139340334A13664FF400730D
:108010000426314C2666236638F0B3FA01300DD0C1
:1080200038F0AFFA40F20113984207D04FF40053F2
:1080300023664FF480432366C4F870610823264CFE
:10804000684623664FF4805323664FF0006323662F
:108050004FF4002301A9636638F077FA009B23668A
:10806000019B63662B78002B83D0124B1A68226623
:108070005B6863667DE7194AD368D907FCD4BCE71F
:10808000174B1B78002BC1D14FF400720C4B5A6672
:1080900003F5A6235B68002BB8D14FF480120E4B7A
:1080A0001A66B3E7F9530020FA5300206421002038
:1080B000101100206821002000710800008000508D
:1080C000009000500080004455CEAC0000C0005429
:1080D00000000440E810002000900044000004501C
:1080E000F853002070B5224D04462E78012E02D0A0
:1080F00001232B7070BD0028FCD038F042FA01300B
:108100000BD038F03EFA40F20113984205D0194BDB
:10811000194A5E66D368DE07FCD42268174B1A66DC
:1081200062685A66A268C3F87021E2681A6422691C
:108130005A64E269D00744BF00229A60104B1A6863
:10814000013207D10F4A127822B90F494968C9078D
:1081500048BF1A6062690D4B5A66A2699A661DF0A3
:10816000E3FA0B4B186838F07AFB0023C1E700BF35
:10817000F9530020009000400000044000800044BB
:10818000E8100020F853002000C005500080005087
:108190006421002070B54FF00064A36A03F17842B7
:1081A000B2F5C04F24D21A68134B9A4220D1134E15
:1081B000337813F0FD0F02D00024204670BD104824
:1081C000FFF7D0FE01254FF480330E4A0E49C2F866
:1081D0008051CB6015600D4A1361A36ADB69984733
:1081E00004460748FFF77EFF002CE6D13570E3E731
:1081F0004FF48174E1E700BF07B0CD5EF853002073
:108200004421002000E100E000A000440090004470
:1082100013B5204B1B7803B9FEE700231E4CCDE9B4
:1082200000336A4608231D49206819F0E3FCF0B9C1
:108230001B4AD2F84031D2F840211F2B4FF00103E6
:1082400010D9203A9340019A1A43019208236A46B2
:108250001249206819F084FC4FF00053114A1A604B
:10826000FFF756FE9340009A1A430092EEE70E4B3A
:108270009842F1D10A4AD2F84031D2F840211F2B5E
:108280004FF0010385BF203A93409340019398BF7C
:108290000093DBE7F9530020101100200071080063
:1082A000008000440B020FF00BE000F070B5D0B17D
:1082B000C9B10E4E431E013913F8014F2046325DFD
:1082C00002F00302012A11F8012F08BF04F1200077
:1082D000B55C05F00305012D08BF2032801A01D1DD
:1082E000002CE9D170BD0120FCE700BF1DF305089B
:1082F0000346054A0549106803448B428CBF4FF082
:10830000FF301360704700BFEC1000200000042015
:1083100010B40A6808461378022B10D014213023B9
:10832000147913FB041307495B585179CB40DB43A5
:1083300003F0010313705DF8044BFEF7D3BF5DF843
:10834000044B704730C00350F7B50468012105465F
:108350003A2001F01DF8002301226179207901F013
:10836000DBFF14223023217913FB01231D4A995886
:108370006379D940C943A37901F00101022B21702F
:1083800017D100F0BDFB184A2B466179207900F027
:10839000E1FBFF28024660790ED12A46124900F01F
:1083A00015FC0123024661792079CDE9003301F003
:1083B00059FF002003B0F0BD0126277900230146B4
:1083C0000096384602F010F82A460749607900F016
:1083D000FDFB002361790246207900930196334624
:1083E000E5E700BF30C0035011830008026813782E
:1083F000022B24D014213023107913FB00131049D1
:108400005B585179CB40917903F00103012912D1D6
:10841000508843EA40034FF6E07063F03F039BB29D
:10842000834202D11170538070474FF6DF718B4247
:10843000F9D10021F6E711B983F0010313707047F9
:1084400030C0035008B501213A2000F0A1FF0123FC
:1084500004220321002001F05FFF002038F061FAC0
:108460000122354B3549C3F844244FF40022A3F5CB
:1084700050335A66324BD3F8FC20D20146D4D1F89F
:10848000803023F0030343F00203C1F880304FF43F
:10849000607000F097FF2A4B00F5D520D3F8F0204C
:1084A00000F2FC4042F00102C3F8F020D3F8FC20B7
:1084B00042F08072C3F8FC20224AA3F55D431A60A3
:1084C000214B0222B0FBF3F0204B01381861C3F8B6
:1084D000F0204FF48072C3F804234FF060431C4A2D
:1084E0000020C3F8B02F1B4AC3F8802ED3F8002E0B
:1084F00042F48072C3F8002EFF2283F82020D3F8C4
:10850000002E22F48072C3F8002E08BDD3F8FC20A0
:1085100022F08072C3F8FC20D1F8802022F0030200
:1085200042F00202C1F88020D3F8FC2042F08072B1
:10853000C3F8FC20ABE700BF00D003500080005020
:1085400000ED00E0FF030040F8590D00000004E0DA
:1085500055CEACC5090001004FF06043D3F8802E22
:1085600030B5D20715D501240B4D8440D5F8FC2039
:1085700042F08072C5F8FC20D3F8002E2243C3F8E5
:10858000002E53F82020002AF0D003F820100020FD
:1085900030BD1120FCE700BF00ED00E010B5012266
:1085A00043780178847830209A40054B00FB0133F2
:1085B0001CB903F501531A6010BD03F58253FAE7A5
:1085C00000C0035010B50122437801788478302030
:1085D0009A40054B00FB01331CB903F582531A6026
:1085E00010BD03F50153FAE700C0035001224378A0
:1085F00001789A4030235943014B5A50704700BFCD
:1086000040F00350102130230246007813FB001382
:1086100005495B585178CB4003F0010093780BB9C2
:1086200080F00100704700BF30C003502DE9F04FCB
:108630009A46564B85B01B7806460F461546DDF820
:108640003C909DF844B0DDF85080002B00F09780FE
:10865000072A00F296800E9B002B00F09280B9F161
:10866000000F00F08E80129BB3F5006F00F389803D
:10867000012803D1109B002B00F08380444B03EBB7
:1086800005131B7B002B7ED0424C10220021684634
:1086900043F0EEF904EB45141022A7BB39462046FF
:1086A00043F0E6F943F210036380BBF1000F03D1FE
:1086B000E37843F00303E370364A0E9B02EB451C5C
:1086C000CCE90193129B6901581E9DF84C30C0F310
:1086D0000A0003F003039B0643EA001E53582E488A
:1086E000012E00EA03004EEA0003CDF800A053502B
:1086F00017D0B8F1000F2ED19CF8023068F30413A4
:108700008CF8023027E00021204643F0B1F94FF405
:1087100044736380BBF1000FCED1E37843F03003A4
:10872000C9E713230CF1100ECCF80C309CE80F00B5
:108730008EE80F006FF00301DCF81C20109B61F342
:108740009F02012FCCF81C20CCF8143003D1CCF8B8
:108750001890CCF8043000270D4A290102EB0513CC
:1087600042F80180159A28465A60694622469F6061
:108770005E7301F0B5FE384605B0BDE8F08F0748DE
:10878000FAE70748F8E70748F6E700BFFB53002081
:1087900070220020702100200F80FFF3028000F083
:1087A000018000F0078000F038B5124B05461B78B9
:1087B000DBB1E0B138F04DF80F4A00231146147BCD
:1087C00054B92B6001251A0101EB03131D738C5062
:1087D00038F045F8204638BD0133082B02F110026D
:1087E000EDD138F03CF80548F5E70548F3E70548D2
:1087F000F1E700BFFB53002070220020048000F04E
:10880000028000F0018000F038B538F022F8002333
:1088100005460B4A147B6CB90133082B02F1100298
:10882000F8D101F0FFFD074B28461C7038F017F80F
:10883000204603E0284638F012F8034838BD00BF50
:1088400070220020FB530020058000F00D4B10B576
:108850001B78044693B1072812D837F0FAFF0A4B69
:1088600003EB04131A7B2AB100241C7337F0F7FFC3
:10887000204610BD37F0F3FF0448FAE70448F8E754
:108880000448F6E7FB53002070220020068000F029
:10889000028000F0018000F0154B13B5186800232A
:1088A00001908DF8043037F0D4FF124B1C7824B1BE
:1088B00037F0D5FF104802B010BD01221A7037F012
:1088C000CEFF0E4B01A81C731C7783F82C4083F855
:1088D0003C4083F84C4083F85C4083F86C4083F85C
:1088E0007C4008238DF8073001F0C8FD2046E2E700
:1088F000183D0508FB530020038000F07022002083
:108900000A4A08B512785AB107280BD8084A02EB70
:1089100000131B7B43B1002101F0A2FD002008BD24
:108920000448FCE70448FAE70448F8E7FB53002052
:1089300070220020028000F0018000F0078000F02B
:108940000A4A08B512785AB107280BD8084A02EB30
:1089500000131B7B43B1012101F082FD002008BD03
:108960000448FCE70448FAE70448F8E7FB53002012
:1089700070220020028000F0018000F0078000F0EB
:108980000A4A08B5127852B107280AD8084A02EBF9
:1089900000131B7B3BB101F0EFFD002008BD054833
:1089A000FCE70548FAE70548F8E700BFFB5300205D
:1089B00070220020028000F0018000F0078000F0AB
:1089C0000D4B1B7893B1072812D889B10B4B03EBE1
:1089D00000131B7B73B10A4B1A6D012383401342B2
:1089E00014BF0123002300200B7070470548704717
:1089F0000548704705487047FB530020702200204F
:108A000000000450028000F0018000F0078000F0B8
:108A10000B4A10B512780C4662B107280CD859B130
:108A2000084A02EB00131B7B43B101F0B7FD207035
:108A3000002010BD0448FCE70448FAE70448F8E7C2
:108A4000FB53002070220020028000F0018000F023
:108A5000078000F0184B2DE9F0411F6D5B6D1F4042
:108A600000D5FEE701260025144CDFF85880374278
:108A700018D02368C8F85060A3B1A1682846013116
:108A80006268A1609847637B012B0BD150B90C4BF6
:108A900003EB45131A7B60F341021A731A7F60F3EC
:108AA00041021A770135082D4FEA460604F11004F9
:108AB000DDD1BDE8F08100BF00000450702200202D
:108AC000702100200020045070B5044601250B4E93
:108AD00004B970BD94FAA4F0B0FA80F005FA00F37E
:108AE00006EB001224EA03045368002BF0D0117B3C
:108AF00011B191689847EBE79847E9E7F022002029
:108B000008B5192001F038F828B14FF00072074B72
:108B1000C3F880211A601A2001F02EF828B14FF016
:108B20008062024BC3F880211A6008BD00E100E0BA
:108B300038B505460C4637F08CFE0022044B03EB9B
:108B400005135C601A73BDE8384037F088BE00BF7B
:108B5000F0220020F8B504460D4617461E4637F0B1
:108B600078FE1CB9052D1AD0FF2421E0012C05D177
:108B7000012D21D0032DF7D1042410E0022C07D1C0
:108B8000052D1BD0072D1BD0002DEDD1062406E0AE
:108B9000032CE9D1022D15D0052DE5D10A240A496F
:108BA00004F1100301EB03110123C1E901760B73FA
:108BB00037F055FE2046F8BD0324F0E70724EEE722
:108BC0000824ECE70924EAE7F0220020F8B505467E
:108BD0000E46174637F03DFE134B2C46D3F824249F
:108BE00005F0FC0122FA05F3DB0712D5002301335F
:108BF000DBB2042B04D1FF2437F031FE2046F8BD50
:108C0000EC1804F003040C4422FA04FC1CF0010FDD
:108C1000EDD1FF2CF0D00122044B03EB0413C3E988
:108C200001671A73E8E700BF00C00350F02200207C
:108C3000074BD3F82404D3F8202403F50053104045
:108C400000F0553020F05020C3F82004FFF73CBF5F
:108C500000C00350074BD3F82404D3F8202403F5B5
:108C60000053104000F0AA3020F0A020C3F82004E8
:108C7000FFF72ABF00C00350024B1968024B186867
:108C800018F094BEF01000201011002070B5940070
:108C9000224605460E4642F03FFF431C0AD058B913
:108CA00022463146284642F0B9FE0028034808BF54
:108CB000002070BD0248FCE70248FAE710E000F02F
:108CC00021E000F024E000F010B5044642F028FF57
:108CD000431C10D088B901F0EFFC234620F00300BC
:108CE0002044984201D1002010BD53F8042B0132DA
:108CF000F7D00348F8E70348F6E70348F4E700BF76
:108D00000EE000F021E000F024E000F008B537F0BC
:108D100091FD014B186008BDE02B0020014B186845
:108D200037F08CBDE02B002030B5012489B00F2234
:108D300000210DF1110042F09BFE0D22002168463A
:108D40008DF8104042F094FE02232146264C242048
:108D50008DF8063000F01CFB6A460021204637F0F3
:108D600086FE236B4FF6FF73E36100231F4DADF8C2
:108D70001230204604A937F039FE4FF4806000F02D
:108D800021FBBDF812300133B0FBF3F09BB2B3F519
:108D9000806F2860ADF8123002D2154B9842E8D8A7
:108DA000002000F00FFB134C1349B4FBF0F42868CB
:108DB00000258C462946E0FB04C1002360460F4A8B
:108DC00036F078F90E4B084A18600E4B1D70936907
:108DD00023F01003936110220B4BC3F880211A601B
:108DE000284609B030BD00BF00800450E82B0020A9
:108DF00080841E0000B0710B20A1070040420F00CC
:108E0000E42B0020FC53002000E100E0F7B5002136
:108E10001A4B1B4C1D681B4AE5FB004100232046F2
:108E200036F048F94FF6E9564FF6E757164C174D0E
:108E3000B04271F1000311D280B260B112494A6AA6
:108E400092B24B6A9BB2ADF80630BDF806309B1A61
:108E50009BB29842F5D8002003B0F0BD626A92B28E
:108E6000636A9BB2ADF80430BDF804309B1A9BB224
:108E7000BB42F5D9401961F10001D9E7E82B002088
:108E800020A1070040420F00008004501802FFFF9D
:108E9000054B5B69DB0605D51022044B5A610122A4
:108EA000034B1A70704700BF0080045000A00450AC
:108EB000FC530020044BD3F88420D206FBD4D3F813
:108EC0008400C0F3811070470040005038B5104B4B
:108ED0000546D3F880300C4603F00303022B0BD079
:108EE000032B0DD0012B0FD1FEF780FF0E2305B110
:108EF000286004B1236038BDFEF7C2FF0723F6E700
:108F0000FEF76EFF0623F2E700231846EFE700BFE7
:108F10000080005038B5184B0546D3F820010C46A8
:108F200000F00700062823D8DFE800F0040A0E1638
:108F3000121A1E00012305B1286004B1236038BD58
:108F4000FEF74EFF0523F6E7FEF780FF0323F2E767
:108F5000FEF796FF0723EEE7FEF78EFF0223EAE710
:108F6000FEF73EFF0623E6E7FEF770FF0423E2E785
:108F700000231846DFE700BF0080005038B5174BCC
:108F80000546D3F828310C4603F00703013B052BB7
:108F900020D8DFE803F003131B0F0B17FEF720FFA9
:108FA000052305B1286004B1236038BDFEF718FF22
:108FB0000623F6E7FEF764FF0723F2E7FEF746FF16
:108FC0000323EEE7FEF742FF0423EAE7FEF754FF30
:108FD0000223E6E700231846E3E700BF00800050C5
:108FE00073B50D460021114B0191D3F8804106461F
:108FF00004F00304022C13D0032C0CD0012C13D149
:1090000001A8FFF787FF10240EB1019B336005B163
:109010002C6002B070BDFEF733FF07240190F3E728
:10902000FEF72AFF0190EFE70C46EDE700800050C5
:10903000002337B50193164B0546D3F820320C4672
:1090400003F00703042B21D8DFE803F0030B11160C
:109050001B0001230DB1019A2A6004B1236003B003
:1090600030BD002101A8FFF789FF1223F2E7FEF7C8
:1090700007FF07230190EDE737F061FA0A2301901B
:10908000E8E7FEF73FFF09230190E3E70023E1E76C
:109090000080005038B5104B0546D3F840310C46DF
:1090A00003F00303022B0BD0032B0DD0012B0FD1A8
:1090B00037F045FA0A2305B1286004B1236038BDB2
:1090C000FEF720FF0923F6E737F03CFA0C23F2E71E
:1090D00001230020EFE700BF00800050002337B5D8
:1090E0000193164B0546D3F860320C4603F0070394
:1090F000013B032B1FD8DFE803F0020E19140021F7
:1091000001A8FFF707FF10230DB1019A2A6004B1EF
:10911000236003B030BD002101A8FFF7BBFF11237E
:10912000F2E7FEF7ADFE07230190EDE7FEF7A4FEA0
:1091300002230190E8E70023E6E700BF008000502B
:10914000002337B50193164B0546D3F894320C46ED
:1091500003F00703013B032B1FD8DFE803F0020EE7
:109160001914002101A8FFF7D5FE10230DB1019AB3
:109170002A6004B1236003B030BD002101A8FFF7CD
:1091800089FF1123F2E7FEF77BFE07230190EDE74D
:10919000FEF772FE02230190E8E70023E6E700BF36
:1091A0000080005038B5144B0546D3F800020C4639
:1091B00000F0070004281BD8DFE800F003090D11B8
:1091C0001500012305B1286004B1236038BD37F0D4
:1091D000B6F90A23F6E7FEF795FE0923F2E737F022
:1091E000B1F90C23EEE7FEF71BFE0F23800AE9E737
:1091F00000231846E6E700BF0080005038B5144B46
:109200000546D3F808020C4600F0070004281BD8D6
:10921000DFE800F003090D111500012305B12860F6
:1092200004B1236038BD37F08AF90A23F6E7FEF768
:1092300069FE0923F2E737F085F90C23EEE7FEF724
:10924000EFFD0F23800AE9E700231846E6E700BF99
:109250000080005038B5104B0546D3F840320C461C
:1092600003F00303022B0BD0032B0DD0012B0FD1E6
:1092700037F065F90A2305B1286004B1236038BDD1
:10928000FEF740FE0923F6E737F05CF90C23F2E71E
:1092900001230020EFE700BF0080005038B5104BDD
:1092A0000546D3F860310C4603F00303022B0BD0C4
:1092B000032B0DD0012B0FD137F041F90A2305B153
:1092C000286004B1236038BDFEF71CFE0923F6E7D1
:1092D00037F038F90C23F2E701230020EFE700BF55
:1092E00000800050B0F5207F1FD009D8B0F5007F76
:1092F00015D003D868B1B0F5C07F0AD000200CE0CB
:10930000B0F5607FFAD10B4BD3F88000C0F30110A9
:1093100003E0084B186FC0F3033001307047054B72
:10932000D3F89000C0F30460F7E7024B186FC0F366
:109330008020F2E70080005002464FF48030104B4E
:1093400010B598660020FFF7CDFF504341F671320B
:109350000C4BDC69DA635A6804F4803422F440125E
:1093600059B90949884294BF0020012000050243F1
:109370005A600CB10022DA6310BD0449F2E700BF65
:109380000090005000000350005A6202002D31018D
:10939000430905D0012B0CD0022B084B18BF00232A
:1093A00000F01F0039B103F58053012282401A609A
:1093B0007047034BF4E703F50053F6E7688000506D
:1093C000648000501FB5002180280446CDE90011BB
:1093D00000F0A58035D85E2846D85E2844D8DFE85E
:1093E00000F0A24343434343434343434343434384
:1093F000434343434343434343434343434343433D
:109400004343A2AAA2AABABABABABAAAC44DDA7196
:109410004DAAAAAA4343434343434343AAAAAA7972
:10942000E4AA43434343434343434343434343BA8D
:10943000A2A2A2DF4D4DE9885EBF43434343439957
:10944000A200B0F5B06F00F090802DD8B0F5207F6D
:1094500071D00CD8B0F5C07F65D0B0F5007F65D075
:10946000B0F5807F00F08680009804B010BDB0F5A4
:10947000607F6BD00DD8B0F5407FF5D1FEF7D0FC02
:1094800002464FF42070FFF72DFFB2FBF0F25208B6
:109490005AE0B0F5806F5ED0B0F5A06FE4D1002146
:1094A0006846FFF7C5FDDFE7B0F5106F78D016D836
:1094B000B0F5E06F79D00AD8B0F5C06F6BD0B0F5D9
:1094C000D06FD1D100216846FFF76CFECCE7B0F534
:1094D000F06FC9D100216846FFF7E0FEC4E7B0F5A0
:1094E000406F3DD013D8B0F5206F63D0B0F5286F32
:1094F000BAD10021324B0391D3F8703203F0030349
:10950000012B02D103A8FFF7C5FD039B3CE0B0F59A
:10951000486FA9D100216846FFF712FEA4E7FEF7C5
:1095200065FC0090A0E7FEF77BFCFAE7FEF75EFC27
:109530000246204604E0FEF773FC02464FF420701A
:10954000FFF7D0FEB2FBF0F200928DE701A8FFF723
:10955000BDFC019AEDE700216846FFF7DBFC83E7DD
:1095600000216846FFF70AFD7EE700216846FFF705
:1095700037FD79E74FF0E02302911B695B0705D5C2
:10958000FEF74EFC0290029B00936DE703A902A830
:10959000FFF780FDF7E700216846FFF77BFD63E7F3
:1095A00000216846FFF72AFE5EE700216846FFF7C4
:1095B00051FE59E700216846FFF790FD54E700BFD0
:1095C0000080005008B58020FFF7FCFE034B984256
:1095D0009EBF4FF48032024B1A6708BD005A6202E8
:1095E00000A000501FB503460020B3F5807F019016
:1095F00000F0C18064D85D2B55D84C2B07D82D2B9B
:1096000048D8232B2CD8019805B05DF804FB4D3BBE
:10961000102BF8D801A252F823F000BF6D97000874
:109620000796000807960008079600082397000889
:109630000796000807960008F19700084197000870
:10964000E7960008E79700080796000807960008C5
:10965000079600080796000807960008FB97000881
:10966000243B092BCFD801A252F823F06D970008B4
:109670006D9700086D9700086D9700086D970008BA
:1096800007960008639700080796000803970008EC
:10969000A39700083D2B7FD03E2BB4D1002001A919
:1096A000FFF7D8FDAFE7802BADD1594B1B6F03F00F
:1096B0000703013B032BA6D8DFE803F0514E858D4D
:1096C000B3F5F06F68D021D8B3F5B06F49D00FD89B
:1096D000B3F5607F00F0838095D3B3F5806F45D0FC
:1096E000B3F5A06F8FD1002001A9FFF7A1FC8AE795
:1096F000B3F5D06F55D0B3F5E06FCFD0B3F5C06FF1
:1097000081D1002001A9FFF7C5FC7CE7B3F5206FEC
:109710006ED00BD8B3F5086F48D0B3F5106F7FF457
:1097200072AF002001A9FFF769FD6CE7B3F5406F48
:1097300059D0B3F5486F60D0B3F5286F7FF463AFAD
:10974000334BD3F8703203F00303012B5AD0022BB2
:109750000CBF1523002300E00523019353E70223E8
:10976000FBE7002001A9FFF73BFC4CE7002001A923
:10977000FFF7D0FB47E74FF0E02302901B695B0740
:1097800005D5FEF74DFB0D230393039BE5E703A9E6
:1097900002A8FFF77FFCF8E7002001A9FFF77EFD94
:1097A00031E7002001A9FFF7FDFC2CE7184BD3F8A7
:1097B000003103F00303022B07D0032B09D0012B48
:1097C0000BD1FEF743FB0323C7E7FEF79BFB0923FF
:1097D000C3E736F0B2FE0823BFE70123BDE701A9C6
:1097E000FFF774FB0FE7002001A9FFF7C7FB0AE7AB
:1097F000002001A9FFF772FC05E7002001A9FFF78F
:109800009FFC00E7002103A8FFF744FC1123A4E715
:10981000008000504FF48012034B5A664FF48032A0
:10982000024B9A62704700BF009000500050005AEF
:1098300038B504468020FFF7D5FE032800F083806A
:109840004FF48012524B4FF0A0615A6645F60E025B
:10985000504BC3F88020504A91624FF4803102F59A
:10986000805291629A6DD203FCD4996D11F08041BF
:10987000FBD1D4E90002120542EA0062E07B024318
:10988000207B42EA0042607B42EA0032A07B42EA4F
:1098900080121A619869D4E90452120642EA85627C
:1098A00000F000400243A07EE57E0243207E42EAB3
:1098B0000042607E42EA00229A611A6AE06922F060
:1098C0000F0242EA8502354D00283DD11A6294F814
:1098D0002420996A94F82000D200294042EA4012DC
:1098E0000A4394F8211042EA011242F480329A624B
:1098F0002B49284A936D31EA0303FBD14FF0807165
:10990000254881621369A56823F4700343EA05536F
:1099100013614FF00043836194F822300BB9214B5F
:10992000996294F823303BB94FF480321D4B9A6210
:10993000184A936D5B00FCD494F825301BB1154B8D
:10994000194AC3F8802038BD024342F008020228B9
:109950001A6208D119614FF40852996113484FF403
:109960007F4136F030FF0B4994F822308A6A94F830
:1099700020001B062A4043EA4013134394F8242096
:1099800043EAC20394F8232043EA02438B62D3E7FD
:10999000009000500040005A0050005AC7FFFEFEE1
:1099A000030001000060005AF1A7FFFF3440005A95
:1099B000014B93F90000704760160020F0B5D0E924
:1099C00001434FF400061A4A4178057856664FF471
:1099D000D156022702F5B8325662164E4F297760EB
:1099E0004FF0010728BF4F2106F5805677601669B2
:1099F000F603FCD441EA052151611B01417B43EA96
:109A000004230B43017B43EA41039360C37B817BC7
:109A10001B0143EA4113417C0B43017C43EA4103B0
:109A20005360837C13B16FF4D1535362F0BD00BF18
:109A30000090005000100250014B1880704700BF8A
:109A40001A160020014B1880704700BF181600201E
:109A5000B0F5207F10B50C465DD008D8B0F5007F7A
:109A60004ED003D8C0B1B0F5C07F15D010BDB0F551
:109A7000607FFBD12C4B4C1ED3F8FC202B4912F0FD
:109A8000807F4FEA041427D1D1F8803023F03003CF
:109A90002343C1F88030E9E736F0A4FE36F0B0FE8B
:109AA0004FF48031224B214A1967136F013C23F494
:109AB000704343EA04331367FEF7B2F90446FFF735
:109AC000F9F9C0F10201204636F094FE00F042F8A8
:109AD000BDE81040FFF776BDD3F8FC2022F080727D
:109AE000C3F8FC20D1F8802022F030022243C1F8D4
:109AF0008020D3F8FC2042F08072C3F8FC20B5E748
:109B00000A4A4C1ED2F8903023F0F85343EA04631B
:109B1000C2F89030AAE7054A4C1E136F23F4806305
:109B200043EA84231367A1E700ED00E000800050C2
:109B30000090005008B50121022000F085F836F0B1
:109B400051FE36F05DFE4FF48032014B1A6708BDBE
:109B50000090005008B54FF4C070FFF733FCBDE82B
:109B600008400449884294BF012102214FF420702B
:109B7000FFF76EBF80F0FA02054B420953F822301E
:109B800000F01F0023FA00F0C04300F0010070470E
:109B900000E100E0024A536B0342FCD1704700BF72
:109BA00000400950044A4178536F23F4407343EA5C
:109BB00001235367704700BF004000500C4A10B5A6
:109BC0001369044643F00403136104F09BFE36F06E
:109BD00049FE084B084AC3F8202430BF36F043FE44
:109BE00004F0CAFE1CB9BDE81040FEF719B910BD5B
:109BF00000ED00E000E003500000FF0F0A4A10B53E
:109C00001369044643F004031361084B084AC3F880
:109C1000202404F077FE30BF04F0AEFE1CB9BDE88E
:109C20001040FEF7FDB810BD00ED00E000E003506D
:109C30000000FF0F034A0179D36E23F030030B437A
:109C4000D366704700400050F8B504461C4BD3F86B
:109C50008420D106FBD4D3F88430C3F381139C4213
:109C60002CD0FEF7C3F8012C064602D1214636F06F
:109C7000C1FD36F0DFFD4FF00072124B07465A6609
:109C8000204636F0F3FD4FF480630D4D621E934085
:109C90002B676B6E9A0103D4D5F884309B060AD5E6
:109CA000384636F0CBFD022C08D13046BDE8F840EE
:109CB000002136F09FBDD5F88430EAE7F8BD00BF3B
:109CC000004000500060005010B50C4608B9FEF787
:109CD0008DF8074B21461B783BB1064B984204D8C0
:109CE0000120BDE81040FFF7AFBF0220F9E700BF39
:109CF000FD530020005A62020278034B012100202C
:109D00001A70FFF7E1BF00BFFD5300204FF0004283
:109D100038B5244B244C5A664AF6CD33656C01465F
:109D200005F00105236428BB0120FFF733FF6368BA
:109D3000DB0715D51D4B586008461D4B226BD2071B
:109D40000CD4984208D1072415B1174B194A1A644C
:109D50003DF08CFF204638BD0130EFE79842F2D04D
:109D60000024F1E70132236B13F0080305D08A4287
:109D7000F8D1E8E700220E49F5E78A42E3D0202136
:109D80000A4A91620121A2F5805251600649084AAF
:109D9000886A800603D49342D5D00133F8E7934212
:109DA000DDE700BF009000500040095000600950FE
:109DB00040420F003254FFFF4FF0004238B5164BBF
:109DC00001465A664AF6CD33144C154A656C236435
:109DD00043780B205B0043F00103D363FFF7DAFE07
:109DE00063688A7823F4F87343EA02136360CA78DD
:109DF0004B7943EA0223A3600A798B7943EA022371
:109E000023610878FFF782FFEB0744BF054B23640B
:109E10003DF02CFF012038BD00900050004009505B
:109E2000004000503254FFFF4FF00042124B70B51B
:109E30005D6E03F580535A664AF6CD3304460F49EA
:109E400080204E6C0B64FFF7A5FE0B6A23F00F0316
:109E50000F2C94BF234343F00F030B62F30744BF5F
:109E6000074B0B64002DA2BF4FF00042054B5A6612
:109E70003DF0FCFE70BD00BF008000500040095066
:109E80003254FFFF00A000504FF00042104B70B55D
:109E90005D6E03F580535A664AF6CD3304460D498C
:109EA00080204E6C0B64FFF775FE0B6A23F4F853A9
:109EB00043EA04230B62F30744BF074B0B64002DF6
:109EC000A2BF4FF00042054B5A663DF0CFFE70BD79
:109ED00000800050004009503254FFFF00A00050A5
:109EE00010B536F0C8FC042300F5805100F500528F
:109EF0000B6113610B6113610B6113610B611361E2
:109F0000202341F2020103610023C36083604161A9
:109F10004FF4A0218361836541620549C3610362F7
:109F20008362C36243630365D164036310BD00BFF2
:109F3000FF3F0D0370B505461446084641B9354B41
:109F40009D4218D0344B9D4208BF5720FFF73AFA84
:109F5000AB6813F0010F6B6830D0B0FBF4F4D80796
:109F600004F1FF344FEA046407D42B6923F07F43E4
:109F700023432B6170BD5620E8E72821284636F0A0
:109F800076FCAB6C990715D1AB6CDA0714D4AB6CCB
:109F900013F0020F14BF06260026284636F06BFC8D
:109FA0002B69314623F07F4323432B61BDE870408A
:109FB00036F098BC0526F0E70926EEE7AB6DDB0727
:109FC000AB6848BF640003F0E003402B1BD004D80B
:109FD000DBB1202BCED1082304E0602B17D0802BDF
:109FE000C8D1012363434101B1FBF3F20B4B203A8B
:109FF000284603EAC202012136F039FC2A63BDE893
:10A00000704036F034BC0623ECE71023EAE7042363
:10A01000E8E700BF0000015B00000A50F8FF7F0086
:10A020002DE9F8439846436804460E4617461BB18F
:10A0300040F6FF7136F01BFC2046FFF751FFF18917
:10A04000737B62690B43318A22F44C520B4322F03A
:10A050000F0213436361A268317E337B22F080429A
:10A0600022F0E2020B4313437269D6F808901343BF
:10A07000A360B9F1000F03D1A36843F00043A360CC
:10A08000F069002874D0857A037A6D04A26845EAE5
:10A0900083556D4B13401D43838803F4C0431D4318
:10A0A000437845EA8305437B45EAC305837B45EA5C
:10A0B0000315837845EA8325A560D0E90432E56875
:10A0C0001343624A2A401343827943EA8223C279C6
:10A0D00043EA4223E36003785D4A012B14D1E3682D
:10A0E00043F00403E360944200F09280594B9C4299
:10A0F0000CBF01234FF0FF335B0103F1A04342F299
:10A10000944203F5703314E0032B7BD1E36843F0F2
:10A110000403E360944279D04E4B9C420CBF012370
:10A120004FF0FF3341F294425B0103F1A04303F58A
:10A13000703302259D50437A04F5805293621BB11F
:10A14000E36843F40063E360C37A5BB1E36843F41C
:10A150000043E3603E4B9C425CD1037B3E4A03F0EC
:10A160000F035367636AC27B23F0030313436362E5
:10A170003FB197F8203004F58050002B54D00123D4
:10A180000362B8F1000F27D004F5805011B14FF4ED
:10A19000004383652E4BB8F822109C4298F821307A
:10A1A0004FD02C4A94420DD10122112B34BF0127EC
:10A1B00002272A4DB1F5006FAF5494BF0127022743
:10A1C000274DAF54A26D0B4322F4F95222F01E0228
:10A1D0001343A365012383650521204636F065FB03
:10A1E000B9F1000F03D04A467168FFF7A3FE20467D
:10A1F000317836F077FBA36CDB4313F4405FFAD180
:10A20000BDE8F883023B012B84D96CE7002389E782
:10A21000002371E70F4B9C4201BF037B0E4A03F002
:10A220000F03C2F880309DE7E26997F8223097F873
:10A23000215022F009022B43134343F00103C36171
:10A240009FE70022B1E700BFE39BBDFFFFF9F08766
:10A250000000015B00000A500090035000540020F1
:10A26000FE530020072A2DE9F041154698464FF08D
:10A27000030401F003072DD89600B44000FA06F25B
:10A2800021461C4836F03EFB21461B4807FA06F2E1
:10A2900036F038FB194B1A499DF81800B8F1000F39
:10A2A00018BF1946012303FA05F50D60154B164931
:10A2B000002818BF0B461D60144B9DF81C00C3F806
:10A2C0002054103103F22443002818BF0B461D60B0
:10A2D000BDE8F081A2F10806B600B44000FA06F22B
:10A2E00021460B4836F00EFB21460A4807FA06F2D3
:10A2F000CEE700BF00C4035008C4035010D403507D
:10A3000010E4035014E4035014D4035000E003504D
:10A3100004C403500CC403502DE9F04105460F4618
:10A320001E4690464AB101233022194C8B4002FB55
:10A33000004436B304F5825423600F21072F05EB48
:10A34000450388BFA7F108044FEA0313114895BFDE
:10A35000BC00A40004330C3308FA04F2A1401844F2
:10A3600036F0D0FAB8F1000F09D101233021084AA4
:10A37000BB4001FB05223EB102F582521360BDE8ED
:10A38000F08104F50154D7E702F50152F6E700BF6A
:10A3900000C0035030C00350104B0140D3F83024AC
:10A3A00022EA0002C3F83024D3F830241143C3F862
:10A3B0003014D3F82C240243C3F82C24084AD36E5B
:10A3C00003F03003202B1FBFD36E23F0300343F084
:10A3D0001003D366034BC3F82004704700C003503A
:10A3E0000040005000E0035038B514461D460322DB
:10A3F00083F00103FFF790FF012004F11001884072
:10A4000005FA01F1FFF7C8FF9DF81010034B044A4D
:10A41000002918BF1346186038BD00BF24E403505C
:10A4200024D403504FF400120B4B10B5C3F8802016
:10A43000BFF34F8FBFF36F8F0024FF22074B2146DE
:10A440005C6520209A625C60FEF7A2FF2146BDE8B1
:10A4500010402120FEF79CBF00E100E00000045006
:10A46000044A054B002908BF1346012282401A60A6
:10A47000704700BF401004504020045010B5012127
:10A4800004462020FEF784FF01212120FEF780FFF3
:10A490000122114B5A60227812069A606178A278E4
:10A4A00042EA01429A61FF229A6200229A631A6488
:10A4B0004FF000425A654FF0FF324FF4001103F5A0
:10A4C00000531A65054AC2F88011E3781B01DBB21C
:10A4D00082F81533116010BD0000045000E100E067
:10A4E000F8B50125C3B2D1F800E091F80AC00F7B9E
:10A4F0000C469D40CB7A1D491D4E0D65810001F132
:10A50000A04101F58821C1F804E04FF0300E0EFBA8
:10A5100000601B05617B43EA0C4343EA475322F08A
:10A5200003020166C365026736F093F9736D2B432E
:10A530007365237A13B1336C2B433364637A13B19D
:10A54000B36B2B43B3632279A37943EA0243074AEF
:10A5500093616179E37943EA014306498B61044BD6
:10A5600055639D64BDE8F84036F079B90020045089
:10A57000000004500010045010B50124C0B2844003
:10A5800036F067F9044B5A6D22EA04025A659C6260
:10A59000BDE8104036F063B90000045010B5012446
:10A5A000C0B2844036F055F9074BDA6A224208D12E
:10A5B0005B6B9C430CBF0124002436F050F920460D
:10A5C00010BD0024F9E700BF000004504FF48032B2
:10A5D000054B9A6641F6713203F51C33DA630122AA
:10A5E00003F50053DA6070470090005041F6713275
:10A5F0000121064BDA6303F50052D1600022DA63D1
:10A600004FF48032A3F518339A6670470000035068
:10A61000013831289ABF024B185C0020704700BFF8
:10A620003D3D050838B5C2F30625044602F0070291
:10A6300041B942EA052242F440220634074B43F86E
:10A64000242038BD1146284636F06CF902462846CB
:10A65000FFF7DEFF163442EA0022EFE700800350E6
:10A66000014BD3F894007047004000504FF4803203
:10A67000064B5A6603F5E6239B69C3F38512827085
:10A6800003F03F021B0B42700370704700900050B4
:10A6900040F6B732064B5B689BB293429FBF4FF4C4
:10A6A0007A72B3FBF2F3034AD05C88BF0020704794
:10A6B0000080E00F6F3D05080120034B9B680A33C3
:10A6C00003F01F03984070470080E00F30B5154C31
:10A6D000A04219D004F58044A04217D004F580446C
:10A6E000A04215D004F58044A04213D004F5804464
:10A6F000A04208D1042006250B4C6BB105FB0010CD
:10A7000004EB8004A26430BD0020F4E70120F2E7EE
:10A710000220F0E70320EEE705FB0011120204EB34
:10A720008104EFE7008004500081035070B50546B6
:10A7300016461C4621B94FF42070FEF743FE014631
:10A74000402C1BD003D8DCB1202C1BD070BD602C5A
:10A75000FCD1042303FB06F2530803EB4113B3FBC4
:10A76000F2F3094A203B02EAC303AA6822F060021E
:10A77000AA60AA681443AC60EB61E7E70623E9E747
:10A780001023E7E70823E5E7F8FF7F00012100F544
:10A79000805310B5596040F6AA6341F20502436147
:10A7A0000023094C8360C365C26000F50052036159
:10A7B000C361C3649464054C8365A04204BF036510
:10A7C0004365516010BD00BFFFFF010000C0055090
:10A7D00070B50D46FFF7DAFF012300F58056736070
:10A7E000AB7C04461BB1836843F080438360EB7C01
:10A7F0005BB1244B9C4202BF2A7DA3F51033C3F802
:10A80000C821E36D43F08003E3652A8A6B7B204611
:10A810001343EA891343E3602B7BD5E90112FFF769
:10A8200085FF6B7D1BB1A36843F48033A360AB7DD0
:10A830001BB1A36843F40043A360EB7D2A7E1B0792
:10A84000120502F4E00203F0E0431343A3656B7EBC
:10A850009A1E012A4FF0020209D80B49032BC1F8B6
:10A86000202709D10423F3652B78636170BD074964
:10A87000012BC1F82027F4E7042204F50053DA6520
:10A88000F2E700BF00C0055000D0035000E00350C5
:10A8900038B50D46FFF77AFF012200F580535A6064
:10A8A0002B8AA97B826843F0010343EA8123134387
:10A8B000836083682A7D044643EA42738360AB7CED
:10A8C0005BB1194B984202BFEA7CA3F51033C3F881
:10A8D000C821C36D43F08003C3652B7B2046D5E9B7
:10A8E000011243F48053E36036F002F96B7B0BB145
:10A8F000102363616B7D1BB1A36843F48033A360B5
:10A90000AB7D1BB1A36843F40043A360EB7D2A7EBB
:10A910001B07120503F0E04302F4E0021343A365B2
:10A920002B78636138BD00BF00C00550034B5A68E7
:10A93000D20702D5DA69002AF9D1704700800A509F
:10A94000054B9A689107FCD45A689207F9D4DA69E2
:10A95000002AF6D1704700BF00800A5008B5FFF703
:10A96000E5FF0222014B1A6108BD00BF00800A50BA
:10A9700008B5FFF7E5FF0122024B03F580514A605D
:10A980001A6108BD00800A5008B5044B59680129B6
:10A9900003D1FFF7E3FF024B596008BD00800A5066
:10A9A00000A00A5010B5064CFFF7CAFF6368012BE0
:10A9B00003D1FFF7E9FFFFF7C3FF0378E36010BDA2
:10A9C00000800A50B8B94A680B7812B1127843EA8D
:10A9D000C2034A7843EA42038A6812B1127843EA12
:10A9E00082138A7843EA8203CA6812B1127843EA72
:10A9F0004223014A9364704700800A5008B9014B12
:10AA00005964704700900A5008B9014B5964704767
:10AA100000A00A5008B9014B1964704700A00A5001
:10AA200010B9024B186C70470020704700800A5024
:10AA300048B911B1012903D07047044BD86C704755
:10AA4000024B186D70470020704700BF00800A500D
:10AA500040B911B1012903D07047034BDA64704744
:10AA6000014B1A65704700BF00800A5010B9024BB5
:10AA7000586D70470020704700800A5038B5044672
:10AA8000054D3DF018F90FCC0FC594E8030085E89B
:10AA90000300002038BD00BFEC2B002047F6FF73F9
:10AAA0009A42F0B56FD002296FD8394B5B5C012B0D
:10AAB0006BD8384DDF0005EBC30415F83330A178AF
:10AAC000012B13D10025E078401AA84202D808448F
:10AAD000C0B2F0BD431B6668A0EB530336F91360A8
:10AAE0009642D4BF1D4603F1FF30EEE760680028B0
:10AAF000EFD0B0F90040944204DBB0F90240944238
:10AB0000B8BF144683883D44FF2B19BFC8224FF0BD
:10AB1000280CB0F90620B0F908C0A2EB04030CBF62
:10AB20000126002693FBFCF333446E781BB29E4251
:10AB300001DD002B01DA731E1BB24FF47A7C013366
:10AB40009BB2071D5D1E2DB24FEAC50E00EBC50579
:10AB5000EA88AD689E4214FB025222EAE27202F1D8
:10AB60005C02B2FBFCF204DD37F83350013395424E
:10AB7000E8D200EB0E039888904228BF1046884226
:10AB800038BF0846A4E7FF20A3E70020A1E700BFE5
:10AB9000723D0508EC2B00200229F0B555D82C4B4E
:10ABA000585C012851D82B4C04EBC00114F830003C
:10ABB0004B6801280FD1C8788C78904294BFC4EBC1
:10ABC0000001C4EB0201001BCAB28242C8BF0022CE
:10ABD00033F91200F0BD002B37D08878904202D3B1
:10ABE000B3F90200F6E7CC78B3F900009442F1D94A
:10ABF0004C789988013CA1F1FF06714203F10405EC
:10AC0000E4B2714103F10C07CEB2B44216D805EBA1
:10AC1000C1014FF47A756A43B1F902404968521A8A
:10AC200004EBD47102EB610292FBF4F29042D1DBAF
:10AC3000B3F902009042CDDC10B2CBE737F831C057
:10AC40004E1C9445E3D33146DEE70348C2E700BF1C
:10AC5000723D0508EC2B00200080FFFF0148FFF744
:10AC60000DBF00BF783D05087FB50222084B09499A
:10AC7000CDE901234FF00073CDE90313072301A9A8
:10AC80004FF0FF3005933DF075F807B05DF804FB19
:10AC9000006A18000002060008B5B0B14FF48062E7
:10ACA0000B4B9A6635F07EFE4FF098435A6CD202F9
:10ACB000FCD54FF48062586D064B10F470209A66F4
:10ACC00004D0BDE8084035F0ACBF212008BD00BF6E
:10ACD0000090005000A000502DE9F0418CB0884653
:10ACE000DDE912761D460446002847D0002945D0EC
:10ACF000002F43D0002E41D013F00F033ED1204847
:10AD00002049A360002A08BF0146E361C4E900139B
:10AD1000404609A936F081F868BB2046099935F00C
:10AD200038FE2946204635F034FE6946404600F09C
:10AD3000F7FA00BB6946204635F017FE404603A9E6
:10AD400036F06AF9B8B9204603A935F00EFE069729
:10AD50000127204645F0005506A90797089535F0CC
:10AD600004FE204609A909960A970B9535F007FEBF
:10AD70002046FFF791FF0CB0BDE8F0812120FAE7F3
:10AD800000010004000101042DE9F04F97B089464D
:10AD900090461F460546DDF880A0002800F0BB80E5
:10ADA000002900F0B8803AB1229B002B00F0B3805C
:10ADB000239B002B00F0AF80BAF1000F00F0AB80B6
:10ADC000219B002B00F0A78067B13C680026229BE6
:10ADD00043440293464507D307B13C60002017B0B7
:10ADE000BDE8F08F3C46F1E75CB1229B219A9B5D68
:10ADF000125D01345340239A04F00F049355013639
:10AE0000E8E7A8EB060BBBF10F0F58D9434B4846B8
:10AE1000C5E90034AC60EC6113A935F0FEFF0028F1
:10AE2000DDD1284613992BF00F0B35F0B2FD5946B2
:10AE3000284635F0AEFD484604A900F071FA002816
:10AE4000CDD1284604A935F090FD484607A936F033
:10AE5000E3F80028C3D1284607A935F086FD012371
:10AE600022992F4ACDF828A00B930C928A190D92A3
:10AE700028464BF000520AA90E9303920F9235F028
:10AE800074FD28460DA935F070FD239B039A99198E
:10AE90000123109111931292214A284610A9CDF84E
:10AEA0004CA01493159235F06AFD284613A935F08D
:10AEB00066FD2846FFF7F0FE5E4400288FD1229BF6
:10AEC00003EB060B239B1E44029B5B4501D14646C8
:10AED00080E7ACB9219B2246CDE900A34946102367
:10AEE0002846FFF7F9FE00287FF479AF0AF1100237
:10AEF00012F8013D0133DBB213700BB95245F7D1A3
:10AF0000219A1BF8013B125D0134534006F8013BC6
:10AF100004F00F04D8E7212061E700BF0303000419
:10AF2000100000202DE9F04F97B0894615469A464B
:10AF30000446209FDDF88880DDF890B0269E00282A
:10AF400000F09D80002900F09A80002E40F08A8059
:10AF5000002B00F09480B8F1000F0AD0219B002B49
:10AF600000F08D80002A40F09F80F10700F187807B
:10AF700002E0002A40F08580FB1F062B7FD8524B51
:10AF80000BEB05029A427AD80023504A4846C4E99E
:10AF90000023A360E36113A935F03FFF00285ED1D1
:10AFA0002046139935F0F5FC204646EA074135F076
:10AFB000F0FC4146204635F0ECFC2946204635F0B1
:10AFC000E8FC484601A900F0ABF9002847D120462B
:10AFD00001A935F0CAFC484604A936F01DF800283E
:10AFE0003DD14FF00109204604A935F0BEFC239B5A
:10AFF00045F000550793219BCDF8209020460995F8
:10B000000DA90A9347F0005748F00053CDF82C9053
:10B010000C93CDF834A0CDF838900F9735F0A5FCFF
:10B0200020460AA935F0A1FC204607A935F09DFC71
:10B03000259B204610A946F00056CDF840B0CDF82B
:10B04000449012951393CDF85090159635F097FCD7
:10B05000204613A935F093FC2046FFF71DFE17B0DC
:10B06000BDE8F08F259B53B1BAF1000F07D0B8F1BE
:10B07000000F01D0219B13B1B5B9022E20D12120A0
:10B08000EDE7239B002BFAD0BBF1000FF7D0C7F1FF
:10B090000F03DBB2032B3FF668AF0122DB0002FA9D
:10B0A00003F3AB42EBD9E8E7239B002BE7D0BBF1DE
:10B0B000000FE4D0C7F10F03DBB2032BDDD8ECE7C0
:10B0C000102E7FF652AFDAE7FFFF032000000504E1
:10B0D0002DE9F04F99B0884615469B460446229FBD
:10B0E000DDF89890289E60B159B1279B4BB1BBF118
:10B0F000000F06D0249B0BB1239B13B11DB9022E68
:10B1000013D121239AE0259B002BFAD0B9F1000F2F
:10B11000F7D0C7F10F03DBB2032BF0D80122DB001D
:10B1200002FA03F3AB42ECD9E9E7731E0F2BE8D820
:10B1300016F0010AE5D1FB1F062BE2D8414B09EBC3
:10B1400005029A42DDD8404B4046C4E9003AC4F8B3
:10B1500008A0C4F81CA015A935F05FFE034600281E
:10B160006CD12046159935F014FC204646EA07417B
:10B1700035F00FFC2046249935F00BFC294620467B
:10B1800035F007FC404603A900F0CAF80346002842
:10B1900054D1204603A935F0E8FB404606A935F016
:10B1A0003BFF0346002849D14FF00108204606A97D
:10B1B00035F0DBFB259B2046099345F00053CDF885
:10B1C000288001930B93239B0FA90C93249B47F09A
:10B1D000005743F00052CDF834800E92CDF83CB0C9
:10B1E000CDF84080119735F0C0FB20460CA935F012
:10B1F000BCFB204609A935F0B8FB019B204612A9EB
:10B20000CDF84890CDF84C80149335F0B8FB279BCF
:10B21000204615A946F000561593CDF8588017968C
:10B2200035F0A3FB2046FFF737FD034630B1019010
:10B230002A465146484640F01BFC019B184619B06F
:10B24000BDE8F08FFFFF0320000006042DE9FF4753
:10B250004FF000080E4617460446CDF8008000283F
:10B2600059D022B90025284604B0BDE8F08700294E
:10B2700051D032F0030902F0030A1FD04FF0E0630F
:10B28000C0E9003801230191C0F808800293C0F89A
:10B290001C8049F0005301A9039335F070FB494627
:10B2A000204635F076FB2046FFF7F6FC054628B130
:10B2B0004A464146304640F0DBFBD4E7BAF1000F86
:10B2C000D0D04FF000084FF0E063C4E9003801230C
:10B2D000CDF804D00293114B204601A9C4F8088090
:10B2E000C4F81C80039335F04AFB0421204635F056
:10B2F00050FB2046FFF7D0FC054608B13A46D8E798
:10B30000009A4E44EB00013522FA03F3AA4506F8F1
:10B31000013BF7D1A6E72125A5E700BF04000020E7
:10B3200090B189B101234B60C368013B012B08D860
:10B330008269064B1AB10A6000208B607047044A8C
:10B34000F9E74FF00053F7E721207047080000208D
:10B35000E8430508012300F01F02A0F50620094973
:10B36000A0F550604009934051F820201A4341F85D
:10B370002020054951F8202022EA030241F820202C
:10B38000704700BF242C0020042C00200122A0F5CF
:10B3900006230D49A3F550635B0900F01F008240AE
:10B3A00051F82300024341F8232000231946074A9D
:10B3B00052F8040B0133082B0144F9D119B92022AA
:10B3C000014840F055BB7047042C0020242C00207D
:10B3D0002DE9F04FA9B003921E4604460822339F80
:10B3E000CDE90401414021FA02F34B40980702F1F4
:10B3F000080218BF9B00202A1C44F4D1744BE4B20D
:10B400001B7804F5062404F55064002B3ED1FDF7AB
:10B4100033FC054620B16FF0910029B0BDE8F08FF4
:10B420000146402208A840F023FB4022294618A8E4
:10B4300040F01EFBDFF8B481DFF8B491C3460BF196
:10B440000F0ACDF800A05B461022D9F8000008A929
:10B450003CF0F9F90023024608F1100808AD9A42C1
:10B460003DD1CDF800A05B461022D9F8000018A904
:10B470003CF0F2F94FF0000A834618ADD34538D1BD
:10B48000544B9845DAD10122514B1A704FF4807811
:10B490000025DFF860B1A4F50623A3F55062520938
:10B4A0005BF8221004F01F00C140C90734D44A4998
:10B4B00051F82220C240D20722D5A3F6FF43DBB2C7
:10B4C000002D08BF254603F50624B8F1010804F550
:10B4D0005064E0D1039BABB1A5B12C4618E055F800
:10B4E000040BCDE90623FFF735FF079B069A0133CE
:10B4F000B5E755F8040BFFF749FF0AF1010ABDE76C
:10B50000039B13B96FF08B0087E7002D18BF2C4603
:10B51000349B00201C6080E7329B13B10023329AD9
:10B5200013600FB100233B604FF0100ADFF8C090AA
:10B53000CDF800A0002332462146D9F8000016F0CD
:10B54000A7FB58BB32993268244BC1B99A4206D046
:10B550002146D9F8000016F003FD0028D2D1D6E923
:10B560000223DDE90410834208BF8A4226D0A4F5F5
:10B570000624A4F6FF44E4B204F50624A5E73299B4
:10B580009A42C1F800A0E3D1002FE8D03B46214603
:10B59000D9F8000018AA16F09FFC48B1104B984249
:10B5A000D6D0104B9842D3D00F4B9842D7D032E729
:10B5B000329A3B6812689B1A3B60D0E7039B002BD2
:10B5C000A6D07368012BA3D16FF0840025E700BFDC
:10B5D0000254002000710800042C0020105D175E4A
:10B5E000FFDF00F011E000F0FEDF00F0006D08006A
:10B5F00010110020242C00202DE9F04F87B0824646
:10B60000894698461646DDF840B02AB1002B4FD047
:10B6100040F26C739A424ED8BBF1010F4ED8002411
:10B6200006F110073946012005943AF04BFD054616
:10B63000002846D021463A4640F01AFA05ABCDE93B
:10B64000014300942B46012250464946FFF7C0FEB5
:10B65000044680B110F18C0F08BF6FF08D043A469C
:10B660000021284640F004FA28463AF03BFD2046E7
:10B6700007B0BDE8F08F144BC5E902A92B60C5F8EF
:10B6800004B02EB13246414605F1100040F016FAE2
:10B69000059E0E483B462A463146006816F060FA81
:10B6A00018B93046FFF756FED9E76FF09104D6E798
:10B6B0006FF08604DBE76FF09104D8E76FF0850444
:10B6C000D5E76FF08C04D2E7105D175E10110020F3
:10B6D0002DE9F0438DB08146DDE914780E4615461C
:10B6E0001C469BB1B8F1000F05D16FF086063046BD
:10B6F0000DB0BDE8F083002FF7D0B7F1005FF4D3B1
:10B70000C3F1005303F580239F42EED8102200219D
:10B7100008A840F0ADF9002207AB029305AB0193F6
:10B7200006AB31460093484608ABCDE90522FFF74A
:10B730004FFE06460028DAD1059BA4B1AB4215D8CE
:10B7400053EA0504D1D1069B0B48C8F80040009489
:10B750003A46079900682B4416F09AFA002818BF59
:10B760006FF09106C3E7AB42EDD2BEE75B1B9C4294
:10B7700028BF1C46E7E700BF1011002030B58DB090
:10B780000C4605461022002108A840F071F900225D
:10B7900007AB029305AB019306AB21460093284605
:10B7A00008ABCDE90522FFF713FE0446D8B9099B83
:10B7B000012B1BD0079D104B2946186816F0D0FBB3
:10B7C000B8B90122A5F506230C49A3F550635B091E
:10B7D00005F01F00824051F823004240284641F8FE
:10B7E0002320FFF7D3FD20460DB030BD6FF0840459
:10B7F000F9E76FF09104F6E710110020242C0020E7
:10B8000030B5048804F4E043B3F5005F2ED1C4F3EF
:10B810000223042B2AD181F0AA6383F4807333F4CA
:10B820007E132AD081F0AA6383F4007333F47E136D
:10B8300023D00023144D21F47E11A9421AD1B4F56E
:10B84000105F17D1418821F04000802802D0B1F567
:10B85000807F15D1191F0C2912D8DB0710D4073AA5
:10B86000072A34BF00206FF0860030BD42F2040387
:10B870009C42DED16FF08500F7E7C1F30543D9E7BD
:10B880006FF08600F1E700BF000140052DE9F04FA1
:10B890009BB08146DDE928761D468B46DDF8A88001
:10B8A000DDF8BCA0099241B138B1249B2BB1269B95
:10B8B0000BB9279B0BB91FB94EB16FF086047FE01F
:10B8C0002EB1B8F1000FF8D02B9B002BF5D02C9B9C
:10B8D000002BF2D0BAF1000FEFD02E9B002BECD052
:10B8E0002D9B002BE9D0B9F8003003F4E042B2F50B
:10B8F000005F69D1C3F30222042A65D185F0AA63EF
:10B9000083F4807333F47E1306D085F0AA6383F446
:10B91000007333F47E1360D1C5F3054329464846CE
:10B92000259ACAF80030FFF76BFF0446002847D17C
:10B93000014620220AA840F09BF82022214612A8A6
:10B9400040F096F80AA835F09AF9002855D15946E2
:10B950004846099A12AB00F0C3FA044600282FD1DA
:10B960002B9B9E424CD8DAF800302E9A934247D84F
:10B97000474508D2BB19984505D23946324640465C
:10B9800040F05CF84746204B25F47E159D4226D1B9
:10B99000DAF80030324606932D9B0397CDE90483F5
:10B9A000279B12A90293269B0AA80193259B00932B
:10B9B000249BFFF7B7FA212819D0D8B92C9B1E6019
:10B9C00020461BB0BDE8F08F42F20402934204D13E
:10B9D00085F0052383F480139BE700239EE76FF037
:10B9E000880400232C9A1360CAF80030E8E76FF04F
:10B9F0008604F6E76FF09204F3E76FF09204DFE756
:10BA00006FF08904DCE700BF000140052DE9F04F2D
:10BA100099B08A46DDE926659346984681462A9F75
:10BA200028B96FF08604204619B0BDE8F08F0029D0
:10BA3000F7D0229B002BF4D0249B13B9259B002B1D
:10BA4000EFD10EB9002DECD117B92B9B002BE8D10B
:10BA50002C9B002BE5D0289B002BE2D0414648468A
:10BA6000239AFFF7CDFE04460028DCD120220146B0
:10BA70000DEB02003FF0FCFF2022214610A83FF012
:10BA8000F7FF08A835F0FBF810B16FF09204CAE791
:10BA90005A465146484610AB00F022FA04460028A8
:10BAA000C1D12B9B9D422AD8BE4208D273199F4216
:10BAB00005D231462A4638463FF0C0FF3E46144B79
:10BAC00028F47E1898451DD1299B2A460693289B69
:10BAD0000396CDE90473259B10A90293249B08A823
