:020000040800F2
:10600000001000203176000815D2000819D20008CF
:10601000072A04081DD2000825D20008072A040810
:10602000072A0408072A0408072A0408072A04087C
:1060300029D2000850560508072A0408072A040830
:106040002D7B0008072A0408072A0408072A0408E9
:10605000072A0408072A0408072A0408072A04084C
:10606000072A0408072A0408072A04084D720008B2
:106070009B180408072A0408072A0408072A0408AA
:10608000072A0408072A0408072A0408072A04081C
:10609000072A040871830008072A0408072A04084D
:1060A000072A0408718500084D850008072A04089E
:1060B000072A04084D920208D99C02082FAB040855
:1060C0002BAB0408819402083BAB040833AB0408F3
:1060D000B19C020837AB0408199D0208859D02088F
:1060E000072A0408072A040835D30008072A0408E9
:1060F0002D420408072A0408072A0408072A04086E
:10610000072A0408072A0408072A0408072A04089B
:10611000072A0408072A0408072A0408072A04088B
:10612000072A0408072A0408072A0408072A04087B
:10613000072A0408072A0408072A0408072A04086B
:10614000072A0408072A0408072A04084147040804
:1061500091820208072A04082FA8040835A8040819
:10616000072A0408072A0408072A0408072A04083B
:106170002DE9F04F4FF002098BB01F4608AE0DF12C
:106180001F030393CDF808900196038904460093FA
:1061900083798A4690464188828840789DF858B035
:1061A00017F072FF054650B10090A3880020628866
:1061B000434918F0E1FA28460BB0BDE8F08F9DF88E
:1061C0001F0040F01CFE38B12846A38862883D4974
:1061D00018F0D2FA8D25EEE74A4631469DF81F00A9
:1061E00040F0DCFD0346002864D0149A72B3BDF879
:1061F000542090425ED89DF81F900995A9F1410264
:10620000012AC1B22AD9BBF1000F40D118222E4871
:106210009FED297B02FB0A0420460A4608303146DE
:10622000059384ED027B47F0DBFF059BB8F1000F7F
:1062300001D088F8009007B13B80149A002ABAD0A8
:106240001A46149808A947F0CBFFB4E79DF81F90B1
:106250000995A9F14102012AC1B215D801395FFAA5
:1062600081FEB4460021194A714506DB04210992DA
:10627000BBF1000F0BD109AEC8E71CF8010F0131CB
:106280005040134A4243EFE7BBF1000F07D02346CB
:106290004A463046CDF800A013F022FB8BE70829D0
:1062A000B4D9B8F1000F01D088F80090002F82D047
:1062B0003B8080E701257EE7000000000000000031
:1062C000C7AD0508F8AD0508D0180020C59D1C8194
:1062D00093010001000000002DE9F04F93B0CDE9DB
:1062E0000A32DDE91C530E9353EC102BCDE9080163
:1062F000104619468DED060B1E9E3AF063FD80B1E7
:10630000DDE906014FF0FF32C54B3AF083FD40B99D
:10631000DDE906014FF0FF326FF480133AF05CFDC7
:1063200070B1DDE908019DED060B0E9B1E96CDE9CF
:106330001C53DDE90A3213B0BDE8F04F00F088B914
:106340000022DDE9060100233AF046FD002800F0B6
:106350003381DDE906A303F1004BCBF30A5016F4B9
:106360008063A0F2FF3008BF06250F933AF058FA79
:106370009BA3D3E900233AF0BDFA9BA3D3E9002302
:106380003AF002F9CBF31304894644F07F5180467A
:106390000022A44B504641F440113AF0F3F894A384
:1063A000D3E900233AF0A6FA02460B464046494696
:1063B0003AF0EAF83AF038FD04463AF031FA8EA3A2
:1063C000D3E90023804689463AF094FA0022964B9E
:1063D0003AF0DAF83AF028FD89A3D3E9002307461A
:1063E000494640463AF086FA8046384689463AF0B1
:1063F00017FA85A3D3E900233AF07CFA02460B464C
:10640000404649463AF0BEF802460B46CDE90C2319
:106410003AF070FADDE90C238046894610461946A9
:106420003AF0B2F80022CDE91001804B40464946CF
:106430003AF08AFB00227E4B3AF0A6F802460B4661
:10644000404649463AF080FB00227A4B3AF09CF8ED
:1064500002460B46404649463AF076FBDDE90C23FE
:106460008046894600204FF080413AF08BF8024682
:106470000B46404649463AF087F802460B46DDE9AE
:1064800010013AF061FB07F2FF3700226A4B3AF045
:106490007BF800223B053AF02DFA52465B468046D7
:1064A00089463AF0B7FC002840F08980CDE90C8994
:1064B00004F16303C72B34BF0427052731051BD51F
:1064C00053A3D3E90023504659463AF099FC0028DB
:1064D0007FD051A3D3E90023504659463AF07CFCC3
:1064E000002876D00027A542C6BF2C1B04F1FF353B
:1064F00000253C4646F480660E9B9F422CBF4FF021
:106500000008A3EB070816F0020903D0002F18BFFC
:106510004FF000083CB1DDE90C23504659463AF0F3
:1065200013FB82468B46DDE90601002200233AF088
:1065300053FC10B10BF100439B46DDE9080126F442
:106540000063CDE90183DDE90A324BEC10AB009525
:1065500000F07EF802465FB3DDE9091316F0200F64
:1065600000F10105089E0CBF65204520B047DDE91C
:1065700008010523002205930A23002CCDE90232ED
:1065800007F1FF374FEAD473B8BF64422A4601933C
:1065900004970A9B009443F00FF90246B9F1000FEB
:1065A00006D00B9BC41A0B9B1A190E9BA34245D80D
:1065B000104613B0BDE8F08FDDE906ABCDE6002252
:1065C000404649461A4B3AF0BFFA013CCDE90C016E
:1065D0006EE7002D90D00F9B002B8DD0013D8BE7F7
:1065E000FB799F501344D33FB3C8608B288AC63FC2
:1065F00061436F63A787D23F71A379094F930A4024
:106600001655B5BBB16B0240EF39FAFE422EE63F9C
:106610002D431CEBE2361A3F0000000080842E411F
:10662000FFFFEF7F0000F83F0000E03F00002C403C
:1066300000002440000018400000F03F2020DDE969
:106640000913089DA8470134ADE700BF0000000012
:106650002DE9F04F5BEC10AB97B0CDE90501DDE91A
:106660002057CDE90723504652465B465946229EA5
:106670003AF0A8FB70B90323CDE902760193B04B41
:106680000093DDE90501DDE9072342F0B5FF17B00E
:10669000BDE8F08F4FF0FF326FF48013504659463B
:1066A0003AF09AFB28B10423CDE902760193A54B79
:1066B000E6E74FF0FF3250465946A34B3AF0AAFBAB
:1066C00068B1A24A06F00403002B08BF0322A04BC6
:1066D0001CBF13460422CDE902760192D0E7504652
:1066E00093A3D3E9002359463AF094FB38B992A317
:1066F000D3E90023504659463AF06EFB68B1DDE914
:106700000723DDE905014BEC10ABCDE9217620959F
:1067100017B0BDE8F04FFFF7DFBD00220023504661
:1067200059463AF059FB002800F09A805B465246E1
:106730000020002139F026FF012382468B46099371
:1067400016F4806400F08E80092D40F28E800024C3
:1067500030210EABA5F109020134202C03F8011BF6
:10676000A5EB040901D09442F6D1594650463AF0BF
:106770005BFB784B054603EBC90393ED007B8DED86
:106780000A7B3AF04DF802460B465046594639F01E
:10679000F9FEDDE90A233AF0ADF802460B46CDE9F1
:1067A0000C233AF069FB80463AF02AF802460B4681
:1067B000DDE90C0139F0E6FE02460B46CDE90C237B
:1067C0000022654B3AF026FB002851D008F1010861
:1067D00040463AF015F802460B46DDE90A013AF068
:1067E00005FB10B14FF000080135B9F1000F50D191
:1067F00028463AF015F802460B465046594639F0FD
:10680000C1FE0022544B804689463AF0E5FA30B189
:10681000002240464946504B3AF0FCFA10B1E807D6
:1068200000D501350A210EAB1A19202C0AD095FB90
:10683000F1F001FB1055303502F8015B01340546DB
:106840000028F2D106F00302012A57D1002F55D0BB
:10685000099A12B916F00C0F00D0013F302245E022
:1068600009906DE74FF006097FE7A94600247CE711
:106870000022DDE90C01384B3AF0AEFA0028B4D121
:10688000B8F1000F02D018F0010FAED008F10108E6
:10689000ABE70A210EAB2344202C0ED0B8FBF1F05D
:1068A00001FB1082B8F1090F02F1300209F1FF3942
:1068B00004F1010403F8012B11D83021A1440EAAE0
:1068C000202CAFD0A14504F101030AD11C4609F1E7
:1068D00058030DEB03092E2309F8203CA2E780465C
:1068E000DAE7A1541C46EBE71A550134A74205D953
:1068F000202CF9D1CDE902760194C1E6202CF9D003
:10690000099A3AB12D2104F158026A4402F8201C78
:106910000134EFE7710704D504F158022B216A44D2
:10692000F4E73207E6D504F1580220216A44EDE786
:106930000000000065CDCD410000000065CDCDC157
:106940000BD505080FD50508FFFFEF7F02D5050819
:1069500007D5050818D505080000E03F0000000035
:1069600070B58EB02C22002103A847F013FC6423DD
:106970004FF002320893CDE905230B2301218DF856
:106980003430514B8DF810101B88D80700F19580DA
:10699000084624F0BBFF0A224C4B4D491A704FF4B5
:1069A00028734C48ADF8123023F0AAFA4A4C206004
:1069B00020B94FF41171494806F02AFB05212068DF
:1069C00043F084FC20B14FF41571444806F020FBDD
:1069D000206800F047FC424B2068196843F0ECFC4B
:1069E0000C2525F0ABFE6843099025F0A7FE68430F
:1069F0000DEB0501079020681DF07AFB20B140F2F5
:106A00006921364806F004FB00223649206843F02D
:106A10005CFD20B140F26B21304806F0F9FA40F2FB
:106A20000353314D314E2B80052396F90000AB7096
:106A30007F2801D125F034F93378EB7025F07EFE04
:106A400000EB80008000A88025F078FE0023C000C5
:106A50004FF0FF31E880AB604FF0FF3018A3D3E96F
:106A6000002325F07BF92249206844F006F92068CC
:106A700002A943F004FD20B14FF42971174806F034
:106A8000C7FA042220680DEB020143F083FC0428BE
:106A900004D040F2A721114806F0BAFA01A901205A
:106AA00044F0ABFB06F0FAFB012026F0E7F83CF0DF
:106AB00070FA26F00DF924F0ADFF0EB070BD00BFE6
:106AC0000A0020FF42030000EC5200203C5B002043
:106AD00035B90208F8120020BC4900203A14060813
:106AE000201100204A5B0020B04900209B160020A6
:106AF000D5BA02080348044B834202D0034B03B1CA
:106B000018477047801800208018002000000000FF
:106B1000064B0749C91A891048BF0131491003D0F3
:106B2000044B0BB101481847704700BF8018002084
:106B3000801800200000000010B5064C237843B9EF
:106B4000FFF7D8FF044B13B10448AFF300800123D3
:106B5000237010BD6E530020000000004818060886
:106B600008B5054B1BB105490548AFF30080BDE8EA
:106B70000840FFF7CDBF00BF00000000681C0020E8
:106B800048180608A3F5803A704700BF174B002B42
:106B900008BF134B9D46FFF7F5FF00218B460F46BC
:106BA0001348144A121A47F0F5FA0E4B002B00D086
:106BB00098470D4B002B00D098470020002104007F
:106BC0000D000D48002802D00C48AFF300803AF0C9
:106BD00083FD200029003AF0EFFD3AF005FB00BFED
:106BE000000008000000000000000000001000206D
:106BF00080180020BC5B00200000000000000000A6
:106C000008B506F0D7FBFF2104480AF0FFF9BDE8FC
:106C100008404FF47A7127F0A9BE00BF801C002005
:106C200010B5044670B9FF2307491A4607480AF011
:106C3000B3F9FF2105480AF0E9F92146BDE8104003
:106C400027F094BE10BD00BF016C0008801C00201E
:106C500010B540F036F8022810D1FF2108480AF09C
:106C6000D5F927F017FF01200BF084FDBDE8104097
:106C7000034601210420034A0BF014BD10BD00BFE0
:106C8000C41C002080E204081FB540F01AF8022856
:106C90001BD100900DF10E0300220321012040F0D2
:106CA00033FBBDF80E300F4863B13BF09FFFFF216F
:106CB0000D480AF0ABF94FF47A6127F057FE05B0A2
:106CC0005DF804FB3BF08CFFF9E711F0A1FF074BE7
:106CD0000190009301210420054B064A0BF0E2FCD1
:106CE000EDE700BF08460508E41C0020CCE70408D7
:106CF000A3E20408A8E204081FB5012300220093C0
:106D000006210DF10F0340F0FFFA28B99DF80F306E
:106D1000044823B13BF064FF05B05DF804FB3BF091
:106D200062FFF9E708460508912808B504D1BDE8D7
:106D3000084009483BF057BF90280BD106483BF06C
:106D40004FFFFF2105480AF061F9BDE80840002126
:106D500027F00CBE08BD00BF08460508C41C002073
:106D6000FF2310B50D4C1A4620460D490AF014F9C0
:106D7000FF230C491A460C480AF00EF9FF21204661
:106D80000AF044F9002127F0F1FD19F01BF84FF645
:106D9000117303800123837010BD00BFE41C002029
:106DA000896C0008516C0008C41C002010B5044612
:106DB0000346012104200C4A0BF074FC9CB114F032
:106DC0008DFE034620B101210420084A0BF06AFC25
:106DD000002011F075F8BDE81040034601210420A1
:106DE000034A0BF05FBC10BDBEE20408DCE20408FD
:106DF0000AE30408002301210420014A0BF052BCDD
:106E000025E304082DE9F04104460F461546C2B0BB
:106E10000A8800206B4917F0AFFC002C40F0A480DA
:106E2000284627F05DFB2246C3B206462946009459
:106E300002A827F017FDDFF8E08102AFA3B29E425F
:106E40005ED8284627F04CFB014604465E481BF0FE
:106E5000EFF80022E3B22946009222A827F002FDB3
:106E60009DF88830012B53D15848621E0DF18901DD
:106E700047F0B6F956481BF0DBF89DF80830072BB1
:106E80003BD1544C52481BF0D3F8A06839F0DAFCDF
:106E900002460B4650481BF0CBF8206939F0D2FC73
:106EA00002460B464D481BF0C3F8A06939F0CAFCF6
:106EB00002460B464A481BF0BBF8E06939F0C2FCB9
:106EC00002460B4647481BF0B3F8214646481BF0E4
:106ED000AFF8606939F0B6FC02460B4643481BF038
:106EE000A7F8E06839F0AEFC02460B4640481BF0BC
:106EF0009FF8216A3F481BF09BF842B0BDE8F08143
:106F00004146002017F8012B17F050FC013495E79B
:106F1000023B062BAED8DFE803F004090E13181D60
:106F200022002C48621E0DF18901A1E73248621E41
:106F30000DF189019CE73148621E0DF1890197E747
:106F40002F48621E0DF1890192E72E48621E0DF155
:106F500089018DE72C48621E0DF1890188E72B48D5
:106F6000621E0DF1890183E7022CC6D1284627F065
:106F7000B7FA7D28064606D90020254942B0BDE86B
:106F8000F04117F0F9BB0024C3B222462946009411
:106F900022A827F067FC4FF611733A899A42ACD1C8
:106FA00020461C4917F0E8FB1B4F22ADA3B29E42BE
:106FB000A3D93946002015F8012B17F0F7FB01344F
:106FC000F4E700BF43E304086FE30408A81C0020B3
:106FD00067E30408A01C002076E3040885E30408A6
:106FE00094E30408A8E30408BBE30408C8E3040826
:106FF000DBE30408EEE30408AC1C0020B01C002016
:10700000B81C0020BC1C0020C01C0020B41C0020A8
:10701000FCE3040814E4040869E3040810B53BF039
:107020009CFD044640B9FF21044809F0EFFF2146CA
:10703000BDE8104027F09ABC10BD00BFC41C002062
:1070400030B50A4C0A4B22680A4D1A600A4B85B0CB
:107050002B600A4B019305F05FF92B68029001A9A0
:10706000206803933CF059FD05B030BDA810002006
:10707000582B0020542B00209C100020E1440508D0
:10708000014B18683CF05DBDA810002038B505F034
:1070900043F90446064D2B68D3F8B00205F030F9E9
:1070A00028683CF061FD2046BDE8384005F028B96D
:1070B000A810002010B5274C01F074FF02F002F96F
:1070C000236F23F0070343F0030323673BF00FFE16
:1070D000214B00209B6ADB015EBF4FF480321F4BC7
:1070E0009A62D4F8203123F0070343F00203C4F876
:1070F0002031D4F8283123F0070343F00203C4F809
:107100002831D4F8403123F0030343F00203C4F8DC
:107110004031D4F8603123F0030343F00203C4F894
:107120006031D4F8403223F0030343F00203C4F883
:107130004032D4F8003223F0070343F00203C4F8CE
:107140000032D4F8083223F0070343F00203C4F8F6
:10715000083210BD008000500040005A0060005A04
:1071600030B5274D9DB008AC0FCD0FC495E80F008A
:1071700084E80F00262200210DF1460047F00AF8AE
:10718000204B0124109356231293052315930623B5
:1071900017930923199308231B9303230E2200211D
:1071A0000DF112008DF845408DF8443046F0F2FFA5
:1071B0004FF4702C144B02A9CDE902C30B238DF8B8
:1071C00010300C238DF81130104B08AA05932023A2
:1071D00006930F4B0F48009310AB8DF81D4005F040
:1071E00017F904469DF81E304FF4E130002B0CBF18
:1071F000032100213BF0F8FB20461DB030BD00BF4D
:10720000D04505080000015B3C00015B6F53002086
:10721000C01F002030200020022905D8034B1B6826
:10722000186808B1436A1847704700BFAC100020C7
:1072300008B50449044806F0A1FBBDE80840FFF783
:107240008FBF00BFB01000205420002001483DF047
:1072500063B800BF30200020014B1A6A186810473D
:107260003020002008B51CF071FF0022014B1A707D
:1072700008BD00BF8F53002001483BF069BC00BF30
:10728000F045050801483BF0A8BC00BF08460508CA
:107290001FB5084903460868097902AA02908DF8CB
:1072A0000C10009205210022012009F011F805B010
:1072B0005DF804FB204605081FB508490346086829
:1072C000097902AA02908DF80C1000920521422241
:1072D000012008F0FDFF05B05DF804FB2646050817
:1072E0001FB5084903460868097902AA02908DF87B
:1072F0000C10009205214022012008F0E9FF05B0A2
:107300005DF804FB204605081FB5064A03460392B4
:1073100003AA009201220821104608F0D9FF05B007
:107320005DF804FB010121211FB5064A03460392C3
:1073300003AA009208210022012008F0C9FF05B02D
:107340005DF804FB010221211FB5094903460888A5
:10735000897803AAADF80C008DF80E100092062172
:107360004222012008F0B4FF05B05DF804FB00BF25
:107370002C4605081FB503AA0092052207490346BB
:1073800008888978ADF80C008DF80E1001201146A0
:1073900008F09EFF05B05DF804FB00BF304605080D
:1073A0001FB5084903460868097902AA02908DF8BA
:1073B0000C10009208210222012008F089FF05B07C
:1073C0005DF804FB344605081FB5094903460888E3
:1073D000897803AAADF80C008DF80E1000920821F0
:1073E0000622012008F074FF05B05DF804FB00BF21
:1073F0003A4605080A4601493AF016BC48560508BF
:107400000A4601493AF010BC3F5605080A460149B0
:107410003AF00ABC345605080A4601493AF004BC61
:107420002F5605080A4601493AF0FEBB2A560508C0
:107430000A4601493AF0F8BB255605080A460149B3
:107440003AF0F2BB185605080A4601493AF0ECBB7F
:10745000095605080A4601493AF0E6BB04560508F4
:107460000A4601493AF0E0BBFB5505080A460149C6
:107470003AF0DABBF25505080A4601493AF0D4BBA6
:10748000E95505080A4601493AF0CEBBE255050820
:107490000A4601493AF0C8BBD75505080A460149D2
:1074A0003AF0C2BBCC5505080A4601493AF0BCBBCC
:1074B000C15505080A4601493AF0B6BBB85505085A
:1074C0000A4601493AF0B0BBAD5505080A460149E4
:1074D0003AF0AABBAA5505080A4601493AF0A4BBEE
:1074E000A75505080A4601493AF09EBBA455050870
:1074F0000A4601493AF098BBA15505080A460149D8
:107500003AF092BB9E5505080A4601493AF08CBBF9
:10751000995505080A4601493AF086BB9455050875
:107520000A4601493AF080BB8B5505080A460149D5
:107530003AF07ABB805505080A4601493AF074BB17
:107540007B5505080A4601493AF06EBB7655050899
:107550000A4601493AF068BB715505080A460149D7
:107560003AF062BB6C5505080A4601493AF05CBB2B
:10757000615505080A4601493AF056BB56550508BB
:107580000A4601493AF050BB4F5505080A460149E1
:107590003AF04ABB4C5505080A4601493AF044BB4B
:1075A000495505080A4601493AF03EBB3E550508D3
:1075B0000A4601493AF038BB395505080A460149DF
:1075C0003AF032BB305505080A4601493AF02CBB67
:1075D000275505080A4601493AF026BB22550508F9
:1075E0000A4601493AF020BB1755050807B508209F
:1075F0003BF0DCFA02238DF80030054B684601931E
:107600003BF0B6F9082003B05DF804EB3BF0D9BAC3
:10761000006A18100348044A0449121A92103BF0F9
:10762000F3B900BF4020060840200608BC5B0020DC
:1076300008B500F02FF8FFF7EDFF124B12498B420F
:1076400012D30020114B12498B4218D3FFF79EFA38
:10765000186850F82240586840F822400132986873
:107660008242F5D30C33EAE70022F8E71C6844F8BD
:10767000220001325C68A242F8D30833E4E700221A
:10768000F8E700BF501806085C1806085C180608E2
:107690005C1806084FF480414FF0FF30114B124A3E
:1076A00010B59A60D3F8882042F47002C3F888209D
:1076B0000E4A91660E4901F5005210660D4850665B
:1076C0000220C3F8D000BFF34F8FBFF36F8F0124A8
:1076D0004FF440330848C0F88041D36004600B6128
:1076E00010BD00BF00ED00E00060000800900050F9
:1076F00000800044F7FF370000E100E0014B18680C
:10770000704700BFD8100020084B1B6F03F0070321
:10771000022B04D0032B05D0012B05D0FEE7044B30
:1077200018687047034BFBE7034870470080005020
:10773000D8100020E0100020002D310108B5FFF71F
:10774000E3FF054B1B6FC3F303330133B0FBF3F0CF
:10775000024B186008BD00BF00800050D41000200C
:107760000048704700B4C404014B1868704700BF5C
:10777000E0100020054B1860054B1B6F03F007035A
:10778000032B01D1FFF7DABF704700BFE0100020E4
:107790000080005000487047002D31014FF0B44385
:1077A0009868C0F304400C280AD8DFE800F00B0901
:1077B00009090909072119091B1D1F000F487047F6
:1077C000002070479B6803F04073B3F1807F11D0B5
:1077D000B3F1007F10D00A4A002B08BF1046704753
:1077E000084870470848704708487047084870477D
:1077F000084870470848704708487047405DC60011
:1078000000093D00C0EA210180BA8C010048E8016E
:10781000005A62020024F40080841E0040420F00DF
:10782000014B1868704700BFDC100020BFF34F8F7A
:107830000549064BCA6802F4E0621343CB60BFF30C
:107840004F8F00BFFDE700BF00ED00E00400FA0528
:107850004FF000639B6A03F17842B2F5C04F03D248
:107860001968064A914203D0002303708360704771
:10787000012202709A689B694260F7E707B0CD5E0B
:1078800073B54F4B04461A781AB102221A7002B02F
:1078900070BDCDE900220028F9D001261E703BF012
:1078A0004AFA484D484B18601FF0C0FB2B785BB973
:1078B00000F070FE40B945480823454A4549006834
:1078C0001BF022FE00B92E70434B5A6E62619B6E14
:1078D000424AA3614FF480439366414B5968E1618A
:1078E00040499960196E2160596E6160D3F870113A
:1078F000A160196CE160596C21613B49086C186406
:10790000496C5964012151661B6E9C0441D5374A6C
:10791000D368D807FCD4364B1A68531C3ED04FF4BA
:1079200080139340334A13664FF400730426314C9E
:10793000266623663BF097F801300DD03BF093F8B4
:1079400040F20113984207D04FF4005323664FF4DE
:1079500080432366C4F870610823264C684623667A
:107960004FF4805323664FF0006323664FF40023E7
:1079700001A963663BF05BF8009B2366019B63668D
:107980002B78002B83D0124B1A6822665B686366E3
:107990007DE7194AD368D907FCD4BCE7174B1B789D
:1079A000002BC1D14FF400720C4B5A6603F5A6238D
:1079B0005B68002BB8D14FF480120E4B1A66B3E708
:1079C00091530020925300207C2000200C110020B5
:1079D00080200020007108000080005000900050BE
:1079E0000080004455CEAC0000C0005400000440AC
:1079F000E410002000900044000004509053002048
:107A000070B5224D04462E78012E02D001232B7032
:107A100070BD0028FCD03BF026F801300BD03BF0C5
:107A200022F840F20113984205D0194B194A5E66BC
:107A3000D368DE07FCD42268174B1A6662685A6660
:107A4000A268C3F87021E2681A6422695A64E26984
:107A5000D00744BF00229A60104B1A68013207D148
:107A60000F4A127822B90F494968C90748BF1A60FE
:107A700062690D4B5A66A2699A661FF0DFFA0B4BDA
:107A800018683BF05EF90023C1E700BF9153002066
:107A9000009000400000044000800044E4100020FA
:107AA0009053002000C00550008000507C20002032
:107AB00070B54FF00064A36A03F17842B2F5C04F8D
:107AC00024D21A68134B9A4220D1134E337813F004
:107AD000FD0F02D00024204670BD1048FFF7D0FEF5
:107AE00001254FF480330E4A0E49C2F88051CB6015
:107AF00015600D4A1361A36ADB699847044607487D
:107B0000FFF77EFF002CE6D13570E3E74FF4817478
:107B1000E1E700BF07B0CD5E905300205C2000205D
:107B200000E100E000A000440090004413B5204BA9
:107B30001B7803B9FEE700231E4CCDE900336A46EB
:107B400008231D4920681BF0DFFCF0B91B4AD2F85E
:107B50004031D2F840211F2B4FF0010310D9203AB9
:107B60009340019A1A43019208236A4612492068F9
:107B70001BF080FC4FF00053114A1A60FFF756FECD
:107B80009340009A1A430092EEE70E4B9842F1D1CF
:107B90000A4AD2F84031D2F840211F2B4FF001039E
:107BA00085BF203A93409340019398BF0093DBE751
:107BB000915300200C110020007108000080004447
:107BC0000B020FF00BE000F070B5D0B1C9B10E4E52
:107BD000431E013913F8014F2046325D02F00302C3
:107BE000012A11F8012F08BF04F12000B55C05F04F
:107BF0000305012D08BF2032801A01D1002CE9D1E4
:107C000070BD0120FCE700BF451706080346054A82
:107C10000549106803448B428CBF4FF0FF3013605E
:107C2000704700BFE81000200000042010B40A686C
:107C300008461378022B10D014213023147913FB3B
:107C4000041307495B585179CB40DB4303F0010330
:107C500013705DF8044BFFF7E1B95DF8044B704712
:107C600030C00350F7B50468012105463A2000F002
:107C700057FF002301226179207901F015FF1422BA
:107C80003023217913FB01231D4A99586379D94088
:107C9000C943A37901F00101022B217017D100F033
:107CA000BDFB184A2B466179207900F0E1FBFF28E3
:107CB000024660790ED12A46124900F015FC0123D4
:107CC000024661792079CDE9003301F093FE00206E
:107CD00003B0F0BD012627790023014600963846FF
:107CE00001F04AFF2A460749607900F0FDFB0023B6
:107CF000617902462079009301963346E5E700BF9B
:107D000030C003502D7C000802681378022B24D069
:107D100014213023107913FB001310495B5851795B
:107D2000CB40917903F00103012912D1508843EA35
:107D300040034FF6E07063F03F039BB2834202D1F1
:107D40001170538070474FF6DF718B42F9D10021DB
:107D5000F6E711B983F001031370704730C0035088
:107D600008B501213A2000F0DBFE012304220321A3
:107D7000002001F099FE00203BF045F80122354B30
:107D80003549C3F844244FF40022A3F550335A6612
:107D9000324BD3F8FC20D20146D4D1F8803023F006
:107DA000030343F00203C1F880304FF4607000F029
:107DB000D1FE2A4B00F5D520D3F8F02000F2FC408C
:107DC00042F00102C3F8F020D3F8FC2042F08072A8
:107DD000C3F8FC20224AA3F55D431A60214B02221E
:107DE000B0FBF3F0204B01381861C3F8F0204FF4DA
:107DF0008072C3F804234FF060431C4A0020C3F88C
:107E0000B02F1B4AC3F8802ED3F8002E42F48072A4
:107E1000C3F8002EFF2283F82020D3F8002E22F48E
:107E20008072C3F8002E08BDD3F8FC2022F08072C7
:107E3000C3F8FC20D1F8802022F0030242F00202B5
:107E4000C1F88020D3F8FC2042F08072C3F8FC20F7
:107E5000ABE700BF00D003500080005000ED00E011
:107E6000FF030040F8590D00000004E055CEACC5FA
:107E7000090001004FF06043D3F8802E30B5D207DF
:107E800015D501240B4D8440D5F8FC2042F08072BA
:107E9000C5F8FC20D3F8002E2243C3F8002E53F877
:107EA0002020002AF0D003F82010002030BD11203F
:107EB000FCE700BF00ED00E010B501224378017837
:107EC000847830209A40054B00FB01331CB903F540
:107ED00001531A6010BD03F58253FAE700C0035046
:107EE00010B5012243780178847830209A40054B00
:107EF00000FB01331CB903F582531A6010BD03F572
:107F00000153FAE700C003500122437801789A40F8
:107F100030235943014B5A50704700BF40F0035083
:107F2000102130230246007813FB001305495B58EB
:107F30005178CB4003F0010093780BB980F0010039
:107F4000704700BF30C003502DE9F04F9A46564BA2
:107F500085B01B7806460F461546DDF83C909DF827
:107F600044B0DDF85080002B00F09780072A00F223
:107F700096800E9B002B00F09280B9F1000F00F06C
:107F80008E80129BB3F5006F00F38980012803D126
:107F9000109B002B00F08380444B03EB05131B7BED
:107FA000002B7ED0424C10220021684646F0F2F8A9
:107FB00004EB45141022A7BB3946204646F0EAF8E8
:107FC00043F210036380BBF1000F03D1E37843F069
:107FD0000303E370364A0E9B02EB451CCCE9019388
:107FE000129B6901581E9DF84C30C0F30A0003F043
:107FF00003039B0643EA001E53582E48012E00EA55
:1080000003004EEA0003CDF800A0535017D0B8F19A
:10801000000F2ED19CF8023068F304138CF8023064
:1080200027E00021204646F0B5F84FF44473638002
:10803000BBF1000FCED1E37843F03003C9E713233F
:108040000CF1100ECCF80C309CE80F008EE80F00FD
:108050006FF00301DCF81C20109B61F39F02012FDD
:10806000CCF81C20CCF8143003D1CCF81890CCF804
:10807000043000270D4A290102EB051342F8018064
:10808000159A28465A60694622469F605E7301F041
:10809000EFFD384605B0BDE8F08F0748FAE707481E
:1080A000F8E70748F6E700BF935300208821002037
:1080B000882000200F80FFF3028000F0018000F094
:1080C000078000F038B5124B05461B78DBB1E0B1F4
:1080D0003AF031FE0F4A00231146147B54B92B604D
:1080E00001251A0101EB03131D738C503AF029FE90
:1080F000204638BD0133082B02F11002EDD13AF0D1
:1081000020FE0548F5E70548F3E70548F1E700BF1D
:108110009353002088210020048000F0028000F0AA
:10812000018000F038B53AF006FE002305460B4A00
:10813000147B6CB90133082B02F11002F8D101F065
:1081400039FD074B28461C703AF0FBFD204603E042
:1081500028463AF0F6FD034838BD00BF88210020CC
:1081600093530020058000F00D4B10B51B7804469A
:1081700093B1072812D83AF0DEFD0A4B03EB041343
:108180001A7B2AB100241C733AF0DBFD204610BD97
:108190003AF0D7FD0448FAE70448F8E70448F6E760
:1081A0009353002088210020068000F0028000F018
:1081B000018000F0154B13B51868002301908DF86D
:1081C00004303AF0B8FD124B1C7824B13AF0B9FDF6
:1081D000104802B010BD01221A703AF0B2FD0E4BE9
:1081E00001A81C731C7783F82C4083F83C4083F86B
:1081F0004C4083F85C4083F86C4083F87C40082353
:108200008DF8073001F002FD2046E2E7A056050890
:1082100093530020038000F0882100200A4A08B50B
:1082200012785AB107280BD8084A02EB00131B7BBF
:1082300043B1002101F0DCFC002008BD0448FCE74C
:108240000448FAE70448F8E7935300208821002007
:10825000028000F0018000F0078000F00A4A08B5B3
:1082600012785AB107280BD8084A02EB00131B7B7F
:1082700043B1012101F0BCFC002008BD0448FCE72B
:108280000448FAE70448F8E79353002088210020C7
:10829000028000F0018000F0078000F00A4A08B573
:1082A000127852B107280AD8084A02EB00131B7B48
:1082B0003BB101F029FD002008BD0548FCE7054859
:1082C000FAE70548F8E700BF935300208821002013
:1082D000028000F0018000F0078000F00D4B1B7859
:1082E00093B1072812D889B10B4B03EB00131B7B0A
:1082F00073B10A4B1A6D01238340134214BF01234B
:10830000002300200B7070470548704705487047F0
:108310000548704793530020882100200000045036
:10832000028000F0018000F0078000F00B4A10B5D9
:1083300012780C4662B107280CD859B1084A02EBF2
:1083400000131B7B43B101F0F1FC2070002010BD35
:108350000448FCE70448FAE70448F8E79353002090
:1083600088210020028000F0018000F0078000F0EA
:10837000184B2DE9F0411F6D5B6D1F4000D5FEE7E6
:1083800001260025144CDFF85880374218D02368A6
:10839000C8F85060A3B1A168284601316268A160A5
:1083A0009847637B012B0BD150B90C4B03EB451362
:1083B0001A7B60F341021A731A7F60F341021A7745
:1083C0000135082D4FEA460604F11004DDD1BDE861
:1083D000F08100BF00000450882100208820002088
:1083E0000020045070B5044601250B4E04B970BD41
:1083F00094FAA4F0B0FA80F005FA00F306EB00124C
:1084000024EA03045368002BF0D0117B11B191686A
:108410009847EBE79847E9E70822002008B51920BC
:1084200000F072FF28B14FF00072074BC3F88021B3
:108430001A601A2000F068FF28B14FF08062024BEA
:10844000C3F880211A6008BD00E100E038B5054698
:108450000C463AF070FC0022044B03EB05135C6001
:108460001A73BDE838403AF06CBC00BF0822002007
:10847000F8B504460D4617461E463AF05CFC1CB99A
:10848000052D1AD0FF2421E0012C05D1012D21D08A
:10849000032DF7D1042410E0022C07D1052D1BD0A9
:1084A000072D1BD0002DEDD1062406E0032CE9D1C9
:1084B000022D15D0052DE5D10A240A4904F1100337
:1084C00001EB03110123C1E901760B733AF039FC8A
:1084D0002046F8BD0324F0E70724EEE70824ECE784
:1084E0000924EAE708220020F8B505460E4617469B
:1084F0003AF021FC134B2C46D3F8242405F0FC0160
:1085000022FA05F3DB0712D500230133DBB2042B7B
:1085100004D1FF243AF015FC2046F8BDEC1804F015
:1085200003040C4422FA04FC1CF0010FEDD1FF2CD3
:10853000F0D00122044B03EB0413C3E901671A7363
:10854000E8E700BF00C0035008220020074BD3F823
:108550002404D3F8202403F50053104000F05530D4
:1085600020F05020C3F82004FFF73CBF00C00350A8
:10857000074BD3F82404D3F8202403F5005310400C
:1085800000F0AA3020F0A020C3F82004FFF72ABF93
:1085900000C00350024B1968024B18681AF090BED5
:1085A000EC1000200C11002070B594002246054606
:1085B0000E4645F045FE431C0AD058B922463146C6
:1085C000284645F0BDFD0028034808BF002070BDC7
:1085D0000248FCE70248FAE710E000F021E000F072
:1085E00024E000F010B5044645F026FE431C10D0F0
:1085F00088B901F029FC234620F00300204498426A
:1086000001D1002010BD53F8042B0132F7D00348EC
:10861000F8E70348F6E70348F4E700BF0EE000F090
:1086200021E000F024E000F008B53AF075FB014BC2
:10863000186008BDF82A0020014B18683AF070BB9A
:10864000F82A0020044BD3F88420D206FBD4D3F8B8
:108650008400C0F3811070470040005038B5104BC3
:108660000546D3F880300C4603F00303022B0BD0F1
:10867000032B0DD0012B0FD1FFF746F80E2305B1C8
:10868000286004B1236038BDFFF788F80723F6E7B8
:10869000FFF734F80623F2E700231846EFE700BFA0
:1086A0000080005038B5184B0546D3F820010C4621
:1086B00000F00700062823D8DFE800F0040A0E16B1
:1086C000121A1E00012305B1286004B1236038BDD1
:1086D000FFF714F80523F6E7FFF746F80323F2E760
:1086E000FFF75CF80723EEE7FFF754F80223EAE709
:1086F000FFF704F80623E6E7FFF736F80423E2E77E
:1087000000231846DFE700BF0080005038B5174B44
:108710000546D3F828310C4603F00703013B052B2F
:1087200020D8DFE803F003131B0F0B17FEF7E6FF5B
:10873000052305B1286004B1236038BDFEF7DEFFD4
:108740000623F6E7FFF72AF80723F2E7FFF70CF80E
:108750000323EEE7FFF708F80423EAE7FFF71AF828
:108760000223E6E700231846E3E700BF008000503D
:1087700073B50D460021114B0191D3F88041064697
:1087800004F00304022C13D0032C0CD0012C13D1C1
:1087900001A8FFF787FF10240EB1019B336005B1DC
:1087A0002C6002B070BDFEF7F9FF07240190F3E7DB
:1087B000FEF7F0FF0190EFE70C46EDE70080005078
:1087C000002337B50193164B0546D3F820320C46EB
:1087D00003F00703042B21D8DFE803F0030B111685
:1087E0001B0001230DB1019A2A6004B1236003B07C
:1087F00030BD002101A8FFF789FF1223F2E7FEF741
:10880000CDFF07230190EDE73AF00BF90A23019021
:10881000E8E7FFF705F809230190E3E70023E1E724
:108820000080005038B5104B0546D3F840310C4657
:1088300003F00303022B0BD0032B0DD0012B0FD120
:108840003AF0EFF80A2305B1286004B1236038BD7F
:10885000FEF7E6FF0923F6E73AF0E6F80C23F2E725
:1088600001230020EFE700BF00800050002337B550
:108870000193164B0546D3F860320C4603F007030C
:10888000013B032B1FD8DFE803F0020E191400216F
:1088900001A8FFF707FF10230DB1019A2A6004B168
:1088A000236003B030BD002101A8FFF7BBFF1123F7
:1088B000F2E7FEF773FF07230190EDE7FEF76AFF8B
:1088C00002230190E8E70023E6E700BF00800050A4
:1088D000002337B50193164B0546D3F894320C4666
:1088E00003F00703013B032B1FD8DFE803F0020E60
:1088F0001914002101A8FFF7D5FE10230DB1019A2C
:108900002A6004B1236003B030BD002101A8FFF745
:1089100089FF1123F2E7FEF741FF07230190EDE7FE
:10892000FEF738FF02230190E8E70023E6E700BFE7
:108930000080005038B5144B0546D3F800020C46B1
:1089400000F0070004281BD8DFE800F003090D1130
:108950001500012305B1286004B1236038BD3AF049
:1089600060F80A23F6E7FEF75BFF0923F2E73AF027
:108970005BF80C23EEE7FEF7E1FE0F23800AE9E740
:1089800000231846E6E700BF0080005038B5144BBE
:108990000546D3F808020C4600F0070004281BD84F
:1089A000DFE800F003090D111500012305B128606F
:1089B00004B1236038BD3AF034F80A23F6E7FEF735
:1089C0002FFF0923F2E73AF02FF80C23EEE7FEF72A
:1089D000B5FE0F23800AE9E700231846E6E700BF4B
:1089E0000080005038B5104B0546D3F840320C4695
:1089F00003F00303022B0BD0032B0DD0012B0FD15F
:108A00003AF00FF80A2305B1286004B1236038BD9D
:108A1000FEF706FF0923F6E73AF006F80C23F2E723
:108A200001230020EFE700BF0080005038B5104B55
:108A30000546D3F860310C4603F00303022B0BD03C
:108A4000032B0DD0012B0FD139F0EBFF0A2305B119
:108A5000286004B1236038BDFEF7E2FE0923F6E783
:108A600039F0E2FF0C23F2E701230020EFE700BF1B
:108A700000800050B0F5207F1FD009D8B0F5007FEE
:108A800015D003D868B1B0F5C07F0AD000200CE043
:108A9000B0F5607FFAD10B4BD3F88000C0F3011022
:108AA00003E0084B186FC0F3033001307047054BEB
:108AB000D3F89000C0F30460F7E7024B186FC0F3DF
:108AC0008020F2E70080005002464FF48030104BC7
:108AD00010B598660020FFF7CDFF504341F6713284
:108AE0000C4BDC69DA635A6804F4803422F44012D7
:108AF00059B90949884294BF00200120000502436A
:108B00005A600CB10022DA6310BD0449F2E700BFDD
:108B10000090005000000350005A6202002D310105
:108B2000430905D0012B0CD0022B084B18BF0023A2
:108B300000F01F0039B103F58053012282401A6012
:108B40007047034BF4E703F50053F6E768800050E5
:108B5000648000501FB5002180280446CDE9001133
:108B600000F0A58035D85E2846D85E2844D8DFE8D6
:108B700000F0A243434343434343434343434343FC
:108B800043434343434343434343434343434343B5
:108B90004343A2AAA2AABABABABABAAAC44DDA710F
:108BA0004DAAAAAA4343434343434343AAAAAA79EB
:108BB000E4AA43434343434343434343434343BA06
:108BC000A2A2A2DF4D4DE9885EBF434343434399D0
:108BD000A200B0F5B06F00F090802DD8B0F5207FE6
:108BE00071D00CD8B0F5C07F65D0B0F5007F65D0EE
:108BF000B0F5807F00F08680009804B010BDB0F51D
:108C0000607F6BD00DD8B0F5407FF5D1FEF796FDB3
:108C100002464FF42070FFF72DFFB2FBF0F252082E
:108C20005AE0B0F5806F5ED0B0F5A06FE4D10021BE
:108C30006846FFF7C5FDDFE7B0F5106F78D016D8AE
:108C4000B0F5E06F79D00AD8B0F5C06F6BD0B0F551
:108C5000D06FD1D100216846FFF76CFECCE7B0F5AC
:108C6000F06FC9D100216846FFF7E0FEC4E7B0F518
:108C7000406F3DD013D8B0F5206F63D0B0F5286FAA
:108C8000BAD10021324B0391D3F8703203F00303C1
:108C9000012B02D103A8FFF7C5FD039B3CE0B0F513
:108CA000486FA9D100216846FFF712FEA4E7FEF73E
:108CB0002BFD0090A0E7FEF741FDFAE7FEF724FD4B
:108CC0000246204604E0FEF739FD02464FF42070CC
:108CD000FFF7D0FEB2FBF0F200928DE701A8FFF79C
:108CE000BDFC019AEDE700216846FFF7DBFC83E756
:108CF00000216846FFF70AFD7EE700216846FFF77E
:108D000037FD79E74FF0E02302911B695B0705D53A
:108D1000FEF714FD0290029B00936DE703A902A8E1
:108D2000FFF780FDF7E700216846FFF77BFD63E76B
:108D300000216846FFF72AFE5EE700216846FFF73C
:108D400051FE59E700216846FFF790FD54E700BF48
:108D50000080005008B58020FFF7FCFE034B9842CE
:108D60009EBF4FF48032024B1A6708BD005A620260
:108D700000A000501FB503460020B3F5807F01908E
:108D800000F0C18064D85D2B55D84C2B07D82D2B13
:108D900048D8232B2CD8019805B05DF804FB4D3B37
:108DA000102BF8D801A252F823F000BFFD8E000866
:108DB000978D0008978D0008978D0008B38E0008E6
:108DC000978D0008978D0008818F0008D18E0008CC
:108DD000778E0008778F0008978D0008978D000820
:108DE000978D0008978D0008978D00088B8F0008DD
:108DF000243B092BCFD801A252F823F0FD8E0008A6
:108E0000FD8E0008FD8E0008FD8E0008FD8E000816
:108E1000978D0008F38E0008978D0008938E000848
:108E2000338F00083D2B7FD03E2BB4D1002001A909
:108E3000FFF7D8FDAFE7802BADD1594B1B6F03F087
:108E40000703013B032BA6D8DFE803F0514E858DC5
:108E5000B3F5F06F68D021D8B3F5B06F49D00FD813
:108E6000B3F5607F00F0838095D3B3F5806F45D074
:108E7000B3F5A06F8FD1002001A9FFF7A1FC8AE70D
:108E8000B3F5D06F55D0B3F5E06FCFD0B3F5C06F69
:108E900081D1002001A9FFF7C5FC7CE7B3F5206F65
:108EA0006ED00BD8B3F5086F48D0B3F5106F7FF4D0
:108EB00072AF002001A9FFF769FD6CE7B3F5406FC1
:108EC00059D0B3F5486F60D0B3F5286F7FF463AF26
:108ED000334BD3F8703203F00303012B5AD0022B2B
:108EE0000CBF1523002300E00523019353E7022361
:108EF000FBE7002001A9FFF73BFC4CE7002001A99C
:108F0000FFF7D0FB47E74FF0E02302901B695B07B8
:108F100005D5FEF713FC0D230393039BE5E703A997
:108F200002A8FFF77FFCF8E7002001A9FFF77EFD0C
:108F300031E7002001A9FFF7FDFC2CE7184BD3F81F
:108F4000003103F00303022B07D0032B09D0012BC0
:108F50000BD1FEF709FC0323C7E7FEF761FC0923E9
:108F6000C3E739F05CFD0823BFE70123BDE701A992
:108F7000FFF774FB0FE7002001A9FFF7C7FB0AE723
:108F8000002001A9FFF772FC05E7002001A9FFF707
:108F90009FFC00E7002103A8FFF744FC1123A4E78E
:108FA000008000504FF48012034B5A664FF4803219
:108FB000024B9A62704700BF009000500050005A68
:108FC00038B504468020FFF7D5FE032800F08380E3
:108FD0004FF48012524B4FF0A0615A6645F60E02D4
:108FE000504BC3F88020504A91624FF4803102F513
:108FF000805291629A6DD203FCD4996D11F0804138
:10900000FBD1D4E90002120542EA0062E07B024390
:10901000207B42EA0042607B42EA0032A07B42EAC7
:1090200080121A619869D4E90452120642EA8562F4
:1090300000F000400243A07EE57E0243207E42EA2B
:109040000042607E42EA00229A611A6AE06922F0D8
:109050000F0242EA8502354D00283DD11A6294F88C
:109060002420996A94F82000D200294042EA401254
:109070000A4394F8211042EA011242F480329A62C3
:109080002B49284A936D31EA0303FBD14FF08071DD
:10909000254881621369A56823F4700343EA0553E8
:1090A00013614FF00043836194F822300BB9214BD8
:1090B000996294F823303BB94FF480321D4B9A6289
:1090C000184A936D5B00FCD494F825301BB1154B06
:1090D000194AC3F8802038BD024342F00802022832
:1090E0001A6208D119614FF40852996113484FF47C
:1090F0007F4139F0DAFD0B4994F822308A6A94F8FE
:1091000020001B062A4043EA4013134394F824200E
:1091100043EAC20394F8232043EA02438B62D3E775
:10912000009000500040005A0050005AC7FFFEFE59
:10913000030001000060005AF1A7FFFF3440005A0D
:10914000014B93F90000704735160020F0B5D0E9C7
:1091500001434FF400061A4A4178057856664FF4E9
:10916000D156022702F5B8325662164E4F29776063
:109170004FF0010728BF4F2106F58056776016692A
:10918000F603FCD441EA052151611B01417B43EA0E
:1091900004230B43017B43EA41039360C37B817B40
:1091A0001B0143EA4113417C0B43017C43EA410329
:1091B0005360837C13B16FF4D1535362F0BD00BF91
:1091C0000090005000100250014B1880704700BF03
:1091D000EE150020014B1880704700BFEC150020F1
:1091E000B0F5207F10B50C465DD008D8B0F5007FF3
:1091F0004ED003D8C0B1B0F5C07F15D010BDB0F5CA
:10920000607FFBD12C4B4C1ED3F8FC202B4912F075
:10921000807F4FEA041427D1D1F8803023F0300347
:109220002343C1F88030E9E739F04EFD39F05AFDAB
:109230004FF48031224B214A1967136F013C23F40C
:10924000704343EA04331367FEF778FA0446FFF7E6
:10925000F9F9C0F10201204639F03EFD00F042F874
:10926000BDE81040FFF776BDD3F8FC2022F08072F5
:10927000C3F8FC20D1F8802022F030022243C1F84C
:109280008020D3F8FC2042F08072C3F8FC20B5E7C0
:109290000A4A4C1ED2F8903023F0F85343EA046394
:1092A000C2F89030AAE7054A4C1E136F23F480637E
:1092B00043EA84231367A1E700ED00E0008000503B
:1092C0000090005008B50121022000F085F839F027
:1092D000FBFC39F007FD4FF48032014B1A6708BDE3
:1092E0000090005008B54FF4C070FFF733FCBDE8A4
:1092F00008400449884294BF012102214FF42070A4
:10930000FFF76EBF80F0FA02054B420953F8223096
:1093100000F01F0023FA00F0C04300F00100704786
:1093200000E100E0024A536B0342FCD1704700BFEA
:1093300000400950044A4178536F23F4407343EAD4
:1093400001235367704700BF004000500C4A10B51E
:109350001369044643F00403136104F06BFD39F014
:10936000F3FC084B084AC3F8202430BF39F0EDFC69
:1093700004F09AFD1CB9BDE81040FEF7DFB910BD3E
:1093800000ED00E000E003500000FF0F0A4A10B5B6
:109390001369044643F004031361084B084AC3F8F9
:1093A000202404F047FD30BF04F07EFD1CB9BDE869
:1093B0001040FEF7C3B910BD00ED00E000E003501F
:1093C0000000FF0F034A0179D36E23F030030B43F3
:1093D000D366704700400050F8B504461C4BD3F8E4
:1093E0008420D106FBD4D3F88430C3F381139C428C
:1093F0002CD0FEF789F9012C064602D1214639F01E
:109400006BFC39F089FC4FF00072124B07465A662C
:10941000204639F09DFC4FF480630D4D621E934051
:109420002B676B6E9A0103D4D5F884309B060AD55E
:10943000384639F075FC022C08D13046BDE8F840BA
:10944000002139F049BCD5F88430EAE7F8BD00BF07
:10945000004000500060005010B50C4608B9FEF7FF
:1094600053F9074B21461B783BB1064B984204D871
:109470000120BDE81040FFF7AFBF0220F9E700BFB1
:1094800094530020005A62020278034B012100200D
:109490001A70FFF7E1BF00BF945300204FF0004265
:1094A00038B5244B244C5A664AF6CD33656C0146D8
:1094B00005F00105236428BB0120FFF733FF636833
:1094C000DB0715D51D4B586008461D4B226BD20794
:1094D0000CD4984208D1072415B1174B194A1A64C5
:1094E00040F056FF204638BD0130EFE79842F2D0F9
:1094F0000024F1E70132236B13F0080305D08A4200
:10950000F8D1E8E700220E49F5E78A42E3D02021AE
:109510000A4A91620121A2F5805251600649084A27
:10952000886A800603D49342D5D00133F8E793428A
:10953000DDE700BF00900050004009500060095076
:1095400040420F003254FFFF4FF0004238B5164B37
:1095500001465A664AF6CD33144C154A656C2364AD
:1095600043780B205B0043F00103D363FFF7DAFE7F
:1095700063688A7823F4F87343EA02136360CA7855
:109580004B7943EA0223A3600A798B7943EA0223E9
:1095900023610878FFF782FFEB0744BF054B236484
:1095A00040F0F6FE012038BD009000500040095008
:1095B000004000503254FFFF4FF00042124B70B594
:1095C0005D6E03F580535A664AF6CD3304460F4963
:1095D00080204E6C0B64FFF7A5FE0B6A23F00F038F
:1095E0000F2C94BF234343F00F030B62F30744BFD8
:1095F000074B0B64002DA2BF4FF00042054B5A668B
:1096000040F0C6FE70BD00BF008000500040095011
:109610003254FFFF00A000504FF00042104B70B5D5
:109620005D6E03F580535A664AF6CD3304460D4904
:1096300080204E6C0B64FFF775FE0B6A23F4F85321
:1096400043EA04230B62F30744BF074B0B64002D6E
:10965000A2BF4FF00042054B5A6640F099FE70BD24
:1096600000800050004009503254FFFF00A000501D
:1096700010B539F072FB042300F5805100F500525B
:109680000B6113610B6113610B6113610B6113615A
:10969000202341F2020103610023C3608360416122
:1096A0004FF4A0218361836541620549C361036270
:1096B0008362C36243630365D164036310BD00BF6B
:1096C000FF3F0D0370B505461446084641B9354BBA
:1096D0009D4218D0344B9D4208BF5720FFF73AFAFD
:1096E000AB6813F0010F6B6830D0B0FBF4F4D8070F
:1096F00004F1FF344FEA046407D42B6923F07F435D
:1097000023432B6170BD5620E8E72821284639F015
:1097100020FBAB6C990715D1AB6CDA0714D4AB6C9A
:1097200013F0020F14BF06260026284639F015FB59
:109730002B69314623F07F4323432B61BDE8704002
:1097400039F042BB0526F0E70926EEE7AB6DDB07F3
:10975000AB6848BF640003F0E003402B1BD004D883
:10976000DBB1202BCED1082304E0602B17D0802B57
:10977000C8D1012363434101B1FBF3F20B4B203A03
:10978000284603EAC202012139F0E3FA2A63BDE860
:10979000704039F0DEBA0623ECE71023EAE7042331
:1097A000E8E700BF0000015B00000A50F8FF7F00FF
:1097B0002DE9F8439846436804460E4617461BB108
:1097C00040F6FF7139F0C5FA2046FFF751FFF189E5
:1097D000737B62690B43318A22F44C520B4322F0B3
:1097E0000F0213436361A268317E337B22F0804213
:1097F00022F0E2020B4313437269D6F80890134338
:10980000A360B9F1000F03D1A36843F00043A36044
:10981000F069002874D0857A037A6D04A26845EA5D
:1098200083556D4B13401D43838803F4C0431D4390
:10983000437845EA8305437B45EAC305837B45EAD4
:109840000315837845EA8325A560D0E90432E568ED
:109850001343624A2A401343827943EA8223C2793E
:1098600043EA4223E36003785D4A012B14D1E368A5
:1098700043F00403E360944200F09280594B9C4211
:109880000CBF01234FF0FF335B0103F1A04342F211
:10989000944203F5703314E0032B7BD1E36843F06B
:1098A0000403E360944279D04E4B9C420CBF0123E9
:1098B0004FF0FF3341F294425B0103F1A04303F503
:1098C000703302259D50437A04F5805293621BB198
:1098D000E36843F40063E360C37A5BB1E36843F495
:1098E0000043E3603E4B9C425CD1037B3E4A03F065
:1098F0000F035367636AC27B23F00303134363625E
:109900003FB197F8203004F58050002B54D001234C
:109910000362B8F1000F27D004F5805011B14FF465
:10992000004383652E4BB8F822109C4298F82130F2
:109930004FD02C4A94420DD10122112B34BF012764
:1099400002272A4DB1F5006FAF5494BF01270227BB
:10995000274DAF54A26D0B4322F4F95222F01E02A0
:109960001343A365012383650521204639F00FFACF
:10997000B9F1000F03D04A467168FFF7A3FE2046F5
:10998000317839F021FAA36CDB4313F4405FFAD14C
:10999000BDE8F883023B012B84D96CE7002389E7FB
:1099A000002371E70F4B9C4201BF037B0E4A03F07B
:1099B0000F03C2F880309DE7E26997F8223097F8EC
:1099C000215022F009022B43134343F00103C361EA
:1099D0009FE70022B1E700BFE39BBDFFFFF9F087DF
:1099E0000000015B00000A500090035097530020D4
:1099F00095530020072A2DE9F041154698464FF06F
:109A0000030401F003072DD89600B44000FA06F2D3
:109A100021461C4839F0E8F921461B4807FA06F2AE
:109A200039F0E2F9194B1A499DF81800B8F1000F06
:109A300018BF1946012303FA05F50D60154B1649A9
:109A4000002818BF0B461D60144B9DF81C00C3F87E
:109A50002054103103F22443002818BF0B461D6028
:109A6000BDE8F081A2F10806B600B44000FA06F2A3
:109A700021460B4839F0B8F921460A4807FA06F2A0
:109A8000CEE700BF00C4035008C4035010D40350F5
:109A900010E4035014E4035014D4035000E00350C6
:109AA00004C403500CC403502DE9F04105460F4691
:109AB0001E4690464AB101233022194C8B4002FBCE
:109AC000004436B304F5825423600F21072F05EBC1
:109AD000450388BFA7F108044FEA0313114895BF57
:109AE000BC00A40004330C3308FA04F2A14018446B
:109AF00039F07AF9B8F1000F09D101233021084A71
:109B0000BB4001FB05223EB102F582521360BDE865
:109B1000F08104F50154D7E702F50152F6E700BFE2
:109B200000C0035030C00350104B0140D3F8302424
:109B300022EA0002C3F83024D3F830241143C3F8DA
:109B40003014D3F82C240243C3F82C24084AD36ED3
:109B500003F03003202B1FBFD36E23F0300343F0FC
:109B60001003D366034BC3F82004704700C00350B2
:109B70000040005000E0035038B514461D46032253
:109B800083F00103FFF790FF012004F110018840EA
:109B900005FA01F1FFF7C8FF9DF81010034B044AC6
:109BA000002918BF1346186038BD00BF24E40350D5
:109BB00024D403504FF400120B4B10B5C3F880208F
:109BC000BFF34F8FBFF36F8F0024FF22074B214657
:109BD0005C6520209A625C60FEF7A2FF2146BDE82A
:109BE00010402120FEF79CBF00E100E0000004507F
:109BF000044A054B002908BF1346012282401A601F
:109C0000704700BF401004504020045010B501219F
:109C100004462020FEF784FF01212120FEF780FF6B
:109C20000122114B5A60227812069A606178A2785C
:109C300042EA01429A61FF229A6200229A631A6400
:109C40004FF000425A654FF0FF324FF4001103F518
:109C500000531A65054AC2F88011E3781B01DBB294
:109C600082F81533116010BD0000045000E100E0DF
:109C7000F8B50125C3B2D1F800E091F80AC00F7B16
:109C80000C469D40CB7A1D491D4E0D65810001F1AA
:109C9000A04101F58821C1F804E04FF0300E0EFB21
:109CA00000601B05617B43EA0C4343EA475322F003
:109CB00003020166C365026739F03DF8736D2B43FB
:109CC0007365237A13B1336C2B433364637A13B116
:109CD000B36B2B43B3632279A37943EA0243074A68
:109CE00093616179E37943EA014306498B61044B4F
:109CF00055639D64BDE8F84039F023B80020045056
:109D0000000004500010045010B50124C0B284407B
:109D100039F011F8044B5A6D22EA04025A659C622C
:109D2000BDE8104039F00DB80000045010B5012412
:109D3000C0B2844038F0FFFF074BDA6A224208D1F4
:109D40005B6B9C430CBF0124002438F0FAFF2046D3
:109D500010BD0024F9E700BF000004504FF480322A
:109D6000054B9A6641F6713203F51C33DA63012222
:109D700003F50053DA6070470090005041F67132ED
:109D80000121064BDA6303F50052D1600022DA6349
:109D90004FF48032A3F518339A66704700000350E1
:109DA000013831289ABF024B185C0020704700BF71
:109DB000C556050838B5C2F30625044602F0070269
:109DC00041B942EA052242F440220634074B43F8E7
:109DD000242038BD1146284639F016F80246284698
:109DE000FFF7DEFF163442EA0022EFE7008003505F
:109DF000014BD3F894007047004000504FF480327C
:109E0000064B5A6603F5E6239B69C3F385128270FD
:109E100003F03F021B0B427003707047009000502C
:109E200040F6B732064B5B689BB293429FBF4FF43C
:109E30007A72B3FBF2F3034AD05C88BF002070470C
:109E40000080E00FF75605080120034B9B680A339A
:109E500003F01F03984070470080E00F034B5A68DF
:109E6000D20702D5DA69002AF9D1704700800A507A
:109E7000054B9A689107FCD45A689207F9D4DA69BD
:109E8000002AF6D1704700BF00800A5008B5FFF7DE
:109E9000E5FF0222014B1A6108BD00BF00800A5095
:109EA00008B5FFF7E5FF0122024B03F580514A6038
:109EB0001A6108BD00800A5008B5044B5968012991
:109EC00003D1FFF7E3FF024B596008BD00800A5041
:109ED00000A00A5010B5064CFFF7CAFF6368012BBB
:109EE00003D1FFF7E9FFFFF7C3FF0378E36010BD7D
:109EF00000800A50B8B94A680B7812B1127843EA68
:109F0000C2034A7843EA42038A6812B1127843EAEC
:109F100082138A7843EA8203CA6812B1127843EA4C
:109F20004223014A9364704700800A5008B9014BEC
:109F30005964704700900A5008B9014B5964704742
:109F400000A00A5008B9014B1964704700A00A50DC
:109F500010B9024B186C70470020704700800A50FF
:109F600048B911B1012903D07047044BD86C704730
:109F7000024B186D70470020704700BF00800A50E8
:109F800040B911B1012903D07047034BDA6470471F
:109F9000014B1A65704700BF00800A5010B9024B90
:109FA000586D70470020704700800A5038B504464D
:109FB000054D40F012FA0FCC0FC594E8030085E878
:109FC0000300002038BD00BFFC2A002047F6FF73C5
:109FD0009A42F0B56FD002296FD8394B5B5C012BE8
:109FE0006BD8384DDF0005EBC30415F83330A1788A
:109FF000012B13D10025E078401AA84202D808446A
:10A00000C0B2F0BD431B6668A0EB530336F9136082
:10A010009642D4BF1D4603F1FF30EEE7606800288A
:10A02000EFD0B0F90040944204DBB0F90240944212
:10A03000B8BF144683883D44FF2B19BFC8224FF098
:10A04000280CB0F90620B0F908C0A2EB04030CBF3D
:10A050000126002693FBFCF333446E781BB29E422C
:10A0600001DD002B01DA731E1BB24FF47A7C013341
:10A070009BB2071D5D1E2DB24FEAC50E00EBC50554
:10A08000EA88AD689E4214FB025222EAE27202F1B3
:10A090005C02B2FBFCF204DD37F833500133954229
:10A0A000E8D200EB0E039888904228BF1046884201
:10A0B00038BF0846A4E7FF20A3E70020A1E700BFC0
:10A0C000FA560508FC2A00200229F0B555D82C4B79
:10A0D000585C012851D82B4C04EBC00114F8300017
:10A0E0004B6801280FD1C8788C78904294BFC4EB9C
:10A0F0000001C4EB0201001BCAB28242C8BF0022A9
:10A1000033F91200F0BD002B37D08878904202D38B
:10A11000B3F90200F6E7CC78B3F900009442F1D924
:10A120004C789988013CA1F1FF06714203F10405C6
:10A13000E4B2714103F10C07CEB2B44216D805EB7C
:10A14000C1014FF47A756A43B1F902404968521A65
:10A1500004EBD47102EB610292FBF4F29042D1DB8A
:10A16000B3F902009042CDDC10B2CBE737F831C032
:10A170004E1C9445E3D33146DEE70348C2E700BFF7
:10A18000FA560508FC2A00200080FFFF0148FFF76F
:10A190000DBF00BF005705087FB50222084B0949D3
:10A1A000CDE901234FF00073CDE90313072301A983
:10A1B0004FF0FF30059340F06FF907B05DF804FBF6
:10A1C000006A18000002060008B5B0B14FF48062C2
:10A1D0000B4B9A6638F058FE4FF098435A6CD202F7
:10A1E000FCD54FF48062586D064B10F470209A66CF
:10A1F00004D0BDE8084038F0DEBE212008BD00BF15
:10A200000090005000A000502DE9F0418CB088462D
:10A21000DDE912761D460446002847D0002945D0C6
:10A22000002F43D0002E41D013F00F033ED1204821
:10A230002049A360002A08BF0146E361C4E9001376
:10A24000404609A938F0B3FF68BB2046099938F0A9
:10A2500012FE2946204638F00EFE6946404600F0C0
:10A26000F7FA00BB6946204638F0F1FD404603A9E5
:10A2700039F09CF8B8B9204603A938F0E8FD0697F4
:10A280000127204645F0005506A90797089538F0A4
:10A29000DEFD204609A909960A970B9538F0E1FDE5
:10A2A0002046FFF791FF0CB0BDE8F0812120FAE7CE
:10A2B00000010004000101042DE9F04F97B0894628
:10A2C00090461F460546DDF880A0002800F0BB80C0
:10A2D000002900F0B8803AB1229B002B00F0B38037
:10A2E000239B002B00F0AF80BAF1000F00F0AB8091
:10A2F000219B002B00F0A78067B13C680026229BC1
:10A3000043440293464507D307B13C60002017B091
:10A31000BDE8F08F3C46F1E75CB1229B219A9B5D42
:10A32000125D01345340239A04F00F049355013613
:10A33000E8E7A8EB060BBBF10F0F58D9434B484693
:10A34000C5E90034AC60EC6113A938F030FF002897
:10A35000DDD1284613992BF00F0B38F08CFD5946B0
:10A36000284638F088FD484604A900F071FA002814
:10A37000CDD1284604A938F06AFD484607A939F02E
:10A3800015F80028C3D1284607A938F060FD01233D
:10A3900022992F4ACDF828A00B930C928A190D927E
:10A3A00028464BF000520AA90E9303920F9238F000
:10A3B0004EFD28460DA938F04AFD239B039A9919B2
:10A3C0000123109111931292214A284610A9CDF829
:10A3D0004CA01493159238F044FD284613A938F088
:10A3E00040FD2846FFF7F0FE5E4400288FD1229BF7
:10A3F00003EB060B239B1E44029B5B4501D14646A3
:10A4000080E7ACB9219B2246CDE900A34946102341
:10A410002846FFF7F9FE00287FF479AF0AF1100211
:10A4200012F8013D0133DBB213700BB95245F7D17D
:10A43000219A1BF8013B125D0134534006F8013BA1
:10A4400004F00F04D8E7212061E700BF03030004F4
:10A45000100000202DE9F04F97B0894615469A4626
:10A460000446209FDDF88880DDF890B0269E002805
:10A4700000F09D80002900F09A80002E40F08A8034
:10A48000002B00F09480B8F1000F0AD0219B002B24
:10A4900000F08D80002A40F09F80F10700F1878056
:10A4A00002E0002A40F08580FB1F062B7FD8524B2C
:10A4B0000BEB05029A427AD80023504A4846C4E979
:10A4C0000023A360E36113A938F071FE00285ED178
:10A4D0002046139938F0CFFC204646EA074138F071
:10A4E000CAFC4146204638F0C6FC2946204638F0D2
:10A4F000C2FC484601A900F0ABF9002847D120462C
:10A5000001A938F0A4FC484604A938F04FFF002800
:10A510003DD14FF00109204604A938F098FC239B57
:10A5200045F000550793219BCDF8209020460995D2
:10A530000DA90A9347F0005748F00053CDF82C902E
:10A540000C93CDF834A0CDF838900F9738F07FFCFD
:10A5500020460AA938F07BFC204607A938F077FC92
:10A56000259B204610A946F00056CDF840B0CDF806
:10A57000449012951393CDF85090159638F071FCD5
:10A58000204613A938F06DFC2046FFF71DFE17B0DA
:10A59000BDE8F08F259B53B1BAF1000F07D0B8F199
:10A5A000000F01D0219B13B1B5B9022E20D121207B
:10A5B000EDE7239B002BFAD0BBF1000FF7D0C7F1DA
:10A5C0000F03DBB2032B3FF668AF0122DB0002FA78
:10A5D00003F3AB42EBD9E8E7239B002BE7D0BBF1B9
:10A5E000000FE4D0C7F10F03DBB2032BDDD8ECE79B
:10A5F000102E7FF652AFDAE7FFFF032000000504BC
:10A600002DE9F04F99B0884615469B460446229F97
:10A61000DDF89890289E60B159B1279B4BB1BBF1F2
:10A62000000F06D0249B0BB1239B13B11DB9022E42
:10A6300013D121239AE0259B002BFAD0B9F1000F0A
:10A64000F7D0C7F10F03DBB2032BF0D80122DB00F8
:10A6500002FA03F3AB42ECD9E9E7731E0F2BE8D8FB
:10A6600016F0010AE5D1FB1F062BE2D8414B09EB9E
:10A6700005029A42DDD8404B4046C4E9003AC4F88E
:10A6800008A0C4F81CA015A938F091FD03460028C5
:10A690006CD12046159938F0EEFB204646EA07417A
:10A6A00038F0E9FB2046249938F0E5FB294620469E
:10A6B00038F0E1FB404603A900F0CAF80346002841
:10A6C00054D1204603A938F0C2FB404606A938F011
:10A6D0006DFE0346002849D14FF00108204606A927
:10A6E00038F0B5FB259B2046099345F00053CDF883
:10A6F000288001930B93239B0FA90C93249B47F075
:10A70000005743F00052CDF834800E92CDF83CB0A3
:10A71000CDF84080119738F09AFB20460CA938F00C
:10A7200096FB204609A938F092FB019B204612A90E
:10A73000CDF84890CDF84C80149338F092FB279BCD
:10A74000204615A946F000561593CDF85880179667
:10A7500038F07DFB2046FFF737FD034630B101900E
:10A760002A465146484643F015FD019B184619B04C
:10A77000BDE8F08FFFFF0320000006042DE9FF472E
:10A780004FF000080E4617460446CDF8008000281A
:10A7900059D022B90025284604B0BDE8F087002929
:10A7A00051D032F0030902F0030A1FD04FF0E063EA
:10A7B000C0E9003801230191C0F808800293C0F875
:10A7C0001C8049F0005301A9039338F04AFB494625
:10A7D000204638F050FB2046FFF7F6FC054628B12E
:10A7E0004A464146304643F0D5FCD4E7BAF1000F63
:10A7F000D0D04FF000084FF0E063C4E900380123E7
:10A80000CDF804D00293114B204601A9C4F808806A
:10A81000C4F81C80039338F024FB0421204638F050
:10A820002AFB2046FFF7D0FC054608B13A46D8E798
:10A83000009A4E44EB00013522FA03F3AA4506F8CC
:10A84000013BF7D1A6E72125A5E700BF04000020C2
:10A8500090B189B101234B60C368013B012B08D83B
:10A860008269064B1AB10A6000208B607047044A67
:10A87000F9E74FF00053F7E7212070470800002068
:10A88000585D0508012300F01F02A0F506200949C4
:10A89000A0F550604009934051F820201A4341F838
:10A8A0002020054951F8202022EA030241F8202007
:10A8B000704700BF342B0020142B00200122A0F58C
:10A8C00006230D49A3F550635B0900F01F00824089
:10A8D00051F82300024341F8232000231946074A78
:10A8E00052F8040B0133082B0144F9D119B9202285
:10A8F000014843F04FBC7047142B0020342B00203C
:10A900002DE9F04FA9B003921E4604460822339F5A
:10A91000CDE90401414021FA02F34B40980702F1CE
:10A92000080218BF9B00202A1C44F4D1744BE4B2E7
:10A930001B7804F5062404F55064002B3ED1FDF786
:10A9400029FE054620B16FF0910029B0BDE8F08FD7
:10A950000146402208A843F01DFC4022294618A8C1
:10A9600043F018FCDFF8B481DFF8B491C3460BF173
:10A970000F0ACDF800A05B461022D9F8000008A904
:10A980003FF0F3FA0023024608F1100808AD9A429E
:10A990003DD1CDF800A05B461022D9F8000018A9DF
:10A9A0003FF0ECFA4FF0000A834618ADD34538D19A
:10A9B000544B9845DAD10122514B1A704FF48078EC
:10A9C0000025DFF860B1A4F50623A3F55062520913
:10A9D0005BF8221004F01F00C140C90734D44A4973
:10A9E00051F82220C240D20722D5A3F6FF43DBB2A2
:10A9F000002D08BF254603F50624B8F1010804F52B
:10AA00005064E0D1039BABB1A5B12C4618E055F8DA
:10AA1000040BCDE90623FFF735FF079B069A0133A8
:10AA2000B5E755F8040BFFF749FF0AF1010ABDE746
:10AA3000039B13B96FF08B0087E7002D18BF2C46DE
:10AA4000349B00201C6080E7329B13B10023329AB4
:10AA500013600FB100233B604FF0100ADFF8C09085
:10AA6000CDF800A0002332462146D9F8000018F0A6
:10AA700099FD58BB32993268244BC1B99A4206D02D
:10AA80002146D9F8000018F0F5FE0028D2D1D6E909
:10AA90000223DDE90410834208BF8A4226D0A4F5D0
:10AAA0000624A4F6FF44E4B204F50624A5E732998F
:10AAB0009A42C1F800A0E3D1002FE8D03B462146DE
:10AAC000D9F8000018AA18F091FE48B1104B98422E
:10AAD000D6D0104B9842D3D00F4B9842D7D032E704
:10AAE000329A3B6812689B1A3B60D0E7039B002BAD
:10AAF000A6D07368012BA3D16FF0840025E700BFB7
:10AB00009953002000710800142B0020105D175E7F
:10AB1000FFDF00F011E000F0FEDF00F0006D080044
:10AB20000C110020342B00202DE9F04F87B0824615
:10AB3000894698461646DDF840B02AB1002B4FD022
:10AB400040F26C739A424ED8BBF1010F4ED80024EC
:10AB500006F110073946012005943DF049FE0546EF
:10AB6000002846D021463A4643F014FB05ABCDE918
:10AB7000014300942B46012250464946FFF7C0FE90
:10AB8000044680B110F18C0F08BF6FF08D043A4677
:10AB90000021284643F0FEFA28463DF039FE2046C3
:10ABA00007B0BDE8F08F144BC5E902A92B60C5F8CA
:10ABB00004B02EB13246414605F1100043F010FBBF
:10ABC000059E0E483B462A463146006818F052FC66
:10ABD00018B93046FFF756FED9E76FF09104D6E773
:10ABE0006FF08604DBE76FF09104D8E76FF085041F
:10ABF000D5E76FF08C04D2E7105D175E0C110020D2
:10AC00002DE9F0438DB08146DDE914780E461546F6
:10AC10001C469BB1B8F1000F05D16FF08606304697
:10AC20000DB0BDE8F083002FF7D0B7F1005FF4D38B
:10AC3000C3F1005303F580239F42EED81022002178
:10AC400008A843F0A7FA002207AB029305AB0193D3
:10AC500006AB31460093484608ABCDE90522FFF725
:10AC60004FFE06460028DAD1059BA4B1AB4215D8A9
:10AC700053EA0504D1D1069B0B48C8F80040009464
:10AC80003A46079900682B4418F08CFC002818BF3E
:10AC90006FF09106C3E7AB42EDD2BEE75B1B9C426F
:10ACA00028BF1C46E7E700BF0C11002030B58DB06F
:10ACB0000C4605461022002108A843F06BFA00223A
:10ACC00007AB029305AB019306AB214600932846E0
:10ACD00008ABCDE90522FFF713FE0446D8B9099B5E
:10ACE000012B1BD0079D104B2946186818F0C2FD98
:10ACF000B8B90122A5F506230C49A3F550635B09F9
:10AD000005F01F00824051F823004240284641F8D8
:10AD10002320FFF7D3FD20460DB030BD6FF0840433
:10AD2000F9E76FF09104F6E70C110020342B0020B6
:10AD300030B5048804F4E043B3F5005F2ED1C4F3CA
:10AD40000223042B2AD181F0AA6383F4807333F4A5
:10AD50007E132AD081F0AA6383F4007333F47E1348
:10AD600023D00023144D21F47E11A9421AD1B4F549
:10AD7000105F17D1418821F04000802802D0B1F542
:10AD8000807F15D1191F0C2912D8DB0710D4073A80
:10AD9000072A34BF00206FF0860030BD42F2040362
:10ADA0009C42DED16FF08500F7E7C1F30543D9E798
:10ADB0006FF08600F1E700BF000140052DE9F04F7C
:10ADC0009BB08146DDE928761D468B46DDF8A880DC
:10ADD000DDF8BCA0099241B138B1249B2BB1269B70
:10ADE0000BB9279B0BB91FB94EB16FF086047FE0FA
:10ADF0002EB1B8F1000FF8D02B9B002BF5D02C9B77
:10AE0000002BF2D0BAF1000FEFD02E9B002BECD02C
:10AE10002D9B002BE9D0B9F8003003F4E042B2F5E5
:10AE2000005F69D1C3F30222042A65D185F0AA63C9
:10AE300083F4807333F47E1306D085F0AA6383F421
:10AE4000007333F47E1360D1C5F3054329464846A9
:10AE5000259ACAF80030FFF76BFF0446002847D157
:10AE6000014620220AA843F095F92022214612A883
:10AE700043F090F90AA838F0CCF8002855D159468B
:10AE80004846099A12AB00F0C3FA044600282FD1B5
:10AE90002B9B9E424CD8DAF800302E9A934247D82A
:10AEA000474508D2BB19984505D239463246404637
:10AEB00043F056F94746204B25F47E159D4226D196
:10AEC000DAF80030324606932D9B0397CDE90483D0
:10AED000279B12A90293269B0AA80193259B009306
:10AEE000249BFFF7B7FA212819D0D8B92C9B1E60F4
:10AEF00020461BB0BDE8F08F42F20402934204D119
:10AF000085F0052383F480139BE700239EE76FF011
:10AF1000880400232C9A1360CAF80030E8E76FF029
:10AF20008604F6E76FF09204F3E76FF09204DFE730
:10AF30006FF08904DCE700BF000140052DE9F04F08
:10AF400099B08A46DDE926659346984681462A9F50
:10AF500028B96FF08604204619B0BDE8F08F0029AB
:10AF6000F7D0229B002BF4D0249B13B9259B002BF8
:10AF7000EFD10EB9002DECD117B92B9B002BE8D1E6
:10AF80002C9B002BE5D0289B002BE2D04146484665
:10AF9000239AFFF7CDFE04460028DCD1202201468B
:10AFA0000DEB020043F0F6F82022214610A843F0F2
:10AFB000F1F808A838F02DF810B16FF09204CAE744
:10AFC0005A465146484610AB00F022FA0446002883
:10AFD000C1D12B9B9D422AD8BE4208D273199F42F1
:10AFE00005D231462A46384643F0BAF83E46144B5D
:10AFF00028F47E1898451DD1299B2A460693289B44
:10B000000396CDE90473259B10A90293249B08A8FD
:10B010000193239B0093229BFFF7F2FA212898D0FB
:10B020002C280AD00028C8D12C9B1D6093E76FF014
:10B03000890490E76FF088048DE76FF094048AE745
:10B0400000014005084B984202D0084B984207D1B6
:10B050000B88B3F5105F0CBF00206FF085007047C0
:10B060006FF08500704700BF004440040013C00427
:10B070002DE9F04F99460023A3B09346DDE92E74E5
:10B08000DDE93068CDE90633CDE90833CDE90A338F
:10B09000CDE90C33DDF8C8A00490059129B96FF013
:10B0A0008605284623B0BDE8F08F002AF7D00FB9F7
:10B0B000002CF4D12C9B13B92D9B002BEFD116B98A
:10B0C000B8F1000FEBD1BAF1000FE8D0484604996F
:10B0D000FFF7B8FF05460028E3D10146202212A859
:10B0E00043F058F8202229461AA843F053F812A832
:10B0F00037F08FFF002878D1DDE904015A461AABFA
:10B1000000F086F905460028CBD11A9838F02AFBC2
:10B1100005460028C5D114B9CAF80000C1E7B742F6
:10B120000AD23B199E4207D24445B8D83946224636
:10B13000304643F015F837464E4B994558D003F545
:10B140004073994515D04C4B994540F08C8044454F
:10B15000A5D814F00F02A2D12346CDE900761AA992
:10B1600012A8FFF751F80746002834D1CAF800406A
:10B1700097E700234445CDE90E33CDE910338ED84F
:10B180002D9B0D2B8BD101238DF838302C9B0DF18D
:10B19000390203F10C0153F8040B8B4242F8040B03
:10B1A000F9D11B78137001238DF8473014F00F0983
:10B1B00033D10F2CDAD906AB01930EABCDE9027671
:10B1C000009324F00F0200231AA912A8FFF774F8C5
:10B1D0000746002843D042460021304642F0DAFFBD
:10B1E0000023012FCAF8003040D06FF0920558E7D5
:10B1F00044453FF654AF2D9B102B7FF450AF2C9B52
:10B200000DF1380C03F1100E6246186859680833C6
:10B2100003C273459446F7D1C8E724F00F033B44BB
:10B220000DF1280C03F1100E6246186859680833B6
:10B2300003C273459446F7D10F2CBCD824F00F03FA
:10B24000334403930AAB029306AB01930EAB009316
:10B250004A4600231AA912A8FFF72EF883E7B9F18E
:10B26000000F83D0EAE76FF085051AE76FF08B05D2
:10B2700017E700BF0010C004004440042DE9F04F60
:10B28000994600239FB09346DDE92865DDE92A78D9
:10B290008A46CDE90633CDE90833CDE90A33CDE955
:10B2A0000C33059029B96FF0860420461FB0BDE825
:10B2B000F08F002AF7D00EB9002DF4D117B9B8F1EC
:10B2C000000FF0D12C9B002BEDD048460599FFF7DD
:10B2D000B9FE04460028E8D1014620220EA842F01B
:10B2E00059FF2022214616A842F054FF0EA837F03D
:10B2F00090FE002844D15A465146059816AB00F0FE
:10B3000087F804460028D0D1169838F02BFA044666
:10B310000028CAD115B92C9B1860C6E7BE420AD2D4
:10B3200073199F4207D24545BDD831462A46384653
:10B3300042F016FF3E46344B994549D003F5407321
:10B34000994520D0314B994554D1454555D82B07C7
:10B35000A9D12B460122CDE9006716A90EA8FEF758
:10B3600053FF2C9B06461D6000289ED042460021BC
:10B37000384642F00FFF00232C9A012E13603FD075
:10B380006FF0920491E70D3D454536D801238DF8C5
:10B39000283033460DF1290206F10C0153F8040B55
:10B3A0008B4242F8040BF9D11B780D3613704FF421
:10B3B0008073ADF8363006AB01930AAB00932A4692
:10B3C0000023CDE9026716A90EA8FEF775FFC8E7AE
:10B3D000103D454511D833460DF1280C06F1100EED
:10B3E000624618685968083303C273459446F7D11A
:10B3F0001036E0E76FF0850457E76FF0890454E7F3
:10B400006FF08B0451E700BF0010C00400444004FB
:10B41000F0B5164600221C4643688DB01B0A07464D
:10B420000D46009204D0012B38D06FF08B0071E0F4
:10B4300022463146009638F0BCF900286AD1F31C48
:10B44000C4E9030523F003036361002E00F0A38029
:10B450002022002101A842F09DFE3146384601AA73
:10B4600038F0A7F9002840F096802368019A9A42A4
:10B4700040F091806368029A9A4240F08C80A36801
:10B48000039A9A4240F08780A369079A9A4240F053
:10B490008280E369089A9A423CD07CE0032E7FD9EF
:10B4A0000B78012B40F08780497800294BD0F73981
:10B4B0000829BAD801A353F821F000BF23B500082A
:10B4C000E1B400082BB4000819B500082BB400083B
:10B4D0003DB500082BB400082DB5000835B50008AF
:10B4E0004FF41056F825354F1C22002102A842F0D7
:10B4F00051FE03230197CDE90435039601AA09AD56
:10B50000134603CBAB42206061601A4604F1080485
:10B51000F6D100200DB0F0BD10274FF08076FA254F
:10B52000E2E720274FF00076F725DDE7FE25234FE1
:10B53000234ED9E7FF25214F224ED5E74FF4105671
:10B54000FC251E4FD0E72B2E2AD92022204642F080
:10B5500021FE05F110032361AB070DD001AB05F10E
:10B56000280C1A4628686968083503C265451346E1
:10B57000F7D1286801AD10606B68103E2360AB689E
:10B5800069466360EB682046A36001236661E3605F
:10B5900037F04EFD38B120220021204642F0FAFD5E
:10B5A0006FF08600B6E7009E626906F11C039A42BE
:10B5B000BFF44BAFEFE76FF09100ABE720000080E6
:10B5C000004400020044000310B54FF42F72002124
:10B5D000044642F0DFFD8023C4F88C30054B04F1B3
:10B5E0009C00C4F88430012384F88830BDE8104002
:10B5F00037F069BA605D050810B5D0F8A0400A467A
:10B6000084B938F039FC044610B90024204610BD36
:10B610002D2896BF064B074953F82010064838F0EE
:10B6200071FDF3E7D0F8A4101046A047EDE700BF86
:10B63000145E05086F5D050875870508F8B590F874
:10B640008060044616B100263046F8BD38F047FA4F
:10B650000028F8D1012384F8803094F8883033B181
:10B66000D4F88410194884F8886038F04BFD4FF006
:10B67000FF37D4F8B402421C1CD0C4F8B47210F0E6
:10B68000FF0520D0204638F027FA2946204600F052
:10B69000AFFB0028EDD0204638F02CFA94F8883023
:10B6A0006BB1D4F88410094838F02CFD002384F8DD
:10B6B000883004E038F00BFD431CE0D10126002364
:10B6C00084F88030C0E70126D3E700BFFE8205087A
:10B6D000F8B50B780446302B0D46164604D14B784E
:10B6E00003F0DF03582B11D0284F6A1E12F8011FF8
:10B6F000002934D128460A2235F0CEFF202C0346FB
:10B700000D4631D1B1FA81F040091AE04A1C1F49B7
:10B7100012F8013F8BB9284642F06FFD1C4B0238EE
:10B720002340032B12D10134A41084420AD1A878FB
:10B7300037288CBF0020012003E0CB5C13F04400CD
:10B74000E6D1F8BDCCBF01200020FAE7002CB8BF3D
:10B750000334B0EBA40FD4BF01200020F1E77B5CE1
:10B7600013F00400C2D1ECE726B1084302D0013B3C
:10B7700061F100050122A240013A1A40002D08BFE4
:10B780009A420CBF01200020DBE700BF45170608E6
:10B7900003000080F0B5037801467B2B17D10646E5
:10B7A000022400220B4F16F8015F7D2D05D10B5DA1
:10B7B0006BB9D24302F0010008E07B5D13F0440056
:10B7C00002D001320134EEE7202DFBD0F0BD002085
:10B7D000FCE700BF4517060870B506460D4642F067
:10B7E0000CFD0446304638F08DFC044EAC4200D3CC
:10B7F00070BD304638F086FC0134F7E7407A050822
:10B800002DE9F84F044602216048FFF7E5FF1E21AD
:10B810002068FFF7E1FF6368586838F073FC5C4804
:10B8200038F070FC67683B7BFD2B12D8D7F8088096
:10B830004FF0FF34404642F0E0FC0646DFF84C9102
:10B84000DFF8A8A1DFF864B10C3717F8013BFF2B34
:10B8500001D1BDE8F88F212B14D8212B14D8DFE8B3
:10B8600003F0178C8884807C7874131313131313DC
:10B870001313706C6864605C585413131313131320
:10B880001313504CFE2B34D006B10134414D02E06D
:10B8900006B10134404D02214846FFF79DFF1E21AD
:10B8A0004846FFF799FF504638F02CFC5946284689
:10B8B00042F08CFC3949002818BF2946384838F036
:10B8C00021FC3B78202B02D12B2038F00FFC35488F
:10B8D00038F018FC4EB118F804301F2B05D018F8BA
:10B8E00004001F2801D0B4424BDB294838F00AFC81
:10B8F000ABE706B101342C4DCDE706B101342B4D39
:10B90000C9E7002EA1D001349FE706B10134284DCC
:10B91000C1E706B10134274DBDE706B10134264D1C
:10B92000B9E706B10134254DB5E706B10134244D20
:10B93000B1E706B10134234DADE706B10134224D24
:10B94000A9E706B10134214DA5E706B10134204D28
:10B95000A1E706B101341F4D9DE706B101341E4D2C
:10B9600099E706B101341D4D95E706B101341C4D30
:10B9700091E706B101341B4D8DE706B101341A4D34
:10B9800089E738F0B3FB0134A9E700BF2B4605086F
:10B9900067E30408D95E0508D35E05082A5F050839
:10B9A000FE820508E274050839AF0508E15E050866
:10B9B000EA5E0508F15E0508FC5E0508065F0508FD
:10B9C000105F0508FB5E0508055F05080F5F0508A9
:10B9D000185F05081C5F0508245F0508CD5E050893
:10B9E000D45E0508235F0508CC5E0508599F05084D
:10B9F0002DE9F04F9BB005468B460024009204933E
:10BA000042F0FBFB249F049B05901C6028463C6091
:10BA10000AAA09A938F097FB064658B90A9842F0D5
:10BA2000ECFB3446B146049B1860D5F89C30039378
:10BA3000039B1BB920461BB0BDE8F08F039B9B689E
:10BA40000193002B69D02E4416F8013B202B12D015
:10BA500000260C237343019A02EB030AD358029386
:10BA6000002B55D0DDF82480C84551DB9AF808300A
:10BA70002BB1721C35E03B6801333B60E4E73B6867
:10BA8000D5F894200299D21A049B1A601AAB03EBE2
:10BA9000890353F8403C1846069342F083FB079015
:10BAA0000028E6D1029842F0A8FBDAF80410034619
:10BAB000087BD7F800A0FE28079A16D108F1FF38B6
:10BAC000C8452ED00B6806980292019342F095FB70
:10BAD0000AF10103029A0344E95C21B13B6009F1D8
