S01200005345445F50524F5F4D41582E73333771
S31508006000001000208D710008B9CB0008BDCB000830
S3150800601091F20208C1CB0008C9CB000891F2020828
S3150800602091F2020891F2020891F2020891F202082E
S31508006030CDCB000898BE030891F2020891F2020837
S315080060408976000891F2020891F2020891F2020894
S3150800605091F2020891F2020891F2020891F20208FE
S3150800606091F2020891F2020891F20208E96F00081B
S3150800607001F0020891F2020891F2020891F2020870
S3150800608091F2020891F2020891F2020891F20208CE
S3150800609091F20208857E000891F2020891F2020840
S315080060A091F2020891F2020891F2020891F20208AE
S315080060B091F202081DE60108A9F001088F580308A5
S315080060C08B58030851E801089B580308935803089E
S315080060D081F0010897580308E9F0010855F101080D
S315080060E091F2020891F20208D9CC000891F202084E
S315080060F0A30A030891F2020891F2020891F2020833
S3150800610091F2020891F2020891F2020891F202084D
S3150800611091F2020891F2020891F2020891F202083D
S3150800612091F2020891F2020891F2020891F202082D
S3150800613091F2020891F2020891F2020891F202081D
S3150800614091F2020891F2020891F20208B50F0308CB
S3150800615061D6010891F202088F5503089555030880
S3150800616091F2020891F2020891F2020891F20208ED
S31508006170013800D0FCE770472DE9F04F93B0CDE920
S315080061800A32DDE91C530E9353EC102BCDE90801B6
S31508006190104619468DED060B1E9E28F091F980B122
S315080061A0DDE906014FF0FF32C54B28F0B1F940B9D9
S315080061B0DDE906014FF0FF326FF4801328F08AF903
S315080061C070B1DDE908019DED060B0E9B1E96CDE923
S315080061D01C53DDE90A3213B0BDE8F04F00F088B968
S315080061E00022DDE90601002328F074F9002800F0F2
S315080061F03381DDE906A303F1004BCBF30A5016F40D
S315080062008063A0F2FF3008BF06250F9327F086FEAD
S315080062109BA3D3E9002327F0EBFE9BA3D3E9002336
S3150800622027F030FDCBF31304894644F07F518046AE
S315080062300022A44B504641F4401127F021FD94A3B7
S31508006240D3E9002327F0D4FE02460B4640464946CA
S3150800625027F018FD28F066F9044627F05FFE8EA39E
S31508006260D3E900238046894627F0C2FE0022964BD2
S3150800627027F008FD28F056F989A3D3E90023074635
S315080062804946404627F0B4FE80463846894627F0F8
S3150800629045FE85A3D3E9002327F0AAFE02460B464E
S315080062A04046494627F0ECFC02460B46CDE90C234E
S315080062B027F09EFEDDE90C238046894610461946DE
S315080062C027F0E0FC0022CDE91001804B4046494604
S315080062D027F0B8FF00227E4B27F0D4FC02460B4677
S315080062E04046494627F0AEFF00227A4B27F0CAFC03
S315080062F002460B464046494627F0A4FFDDE90C2333
S315080063008046894600204FF0804127F0B9FC0246B6
S315080063100B464046494627F0B5FC02460B46DDE9E2
S31508006320100127F08FFF07F2FF3700226A4B27F08C
S31508006330A9FC00223B0527F05BFE52465B468046D9
S31508006340894628F0E5F8002840F08980CDE90C89CF
S3150800635004F16303C72B34BF0427052731051BD572
S3150800636053A3D3E900235046594628F0C7F8002816
S315080063707FD051A3D3E900235046594628F0AAF8FE
S31508006380002876D00027A542C6BF2C1B04F1FF358E
S3150800639000253C4646F480660E9B9F422CBF4FF074
S315080063A00008A3EB070816F0020903D0002F18BF50
S315080063B04FF000083CB1DDE90C235046594627F05A
S315080063C041FF82468B46DDE906010022002328F0BC
S315080063D081F810B10BF100439B46DDE9080126F46C
S315080063E00063CDE90183DDE90A324BEC10AB009579
S315080063F000F07EF802465FB3DDE9091316F0200FB8
S3150800640000F10105089E0CBF65204520B047DDE96F
S3150800641008010523002205930A23002CCDE9023240
S3150800642007F1FF374FEAD473B8BF64422A4601938F
S3150800643004970A9B00942EF06FF80246B9F1000FF4
S3150800644006D00B9BC41A0B9B1A190E9BA34245D860
S31508006450104613B0BDE8F08FDDE906ABCDE60022A5
S31508006460404649461A4B27F0EDFE013CCDE90C01A2
S315080064706EE7002D90D00F9B002B8DD0013D8BE74A
S31508006480FB799F501344D33FB3C8608B288AC63F15
S3150800649061436F63A787D23F71A379094F930A4077
S315080064A01655B5BBB16B0240EF39FAFE422EE63FF0
S315080064B02D431CEBE2361A3F0000000080842E4173
S315080064C0FFFFEF7F0000F83F0000E03F00002C4090
S315080064D000002440000018400000F03F2020DDE9BD
S315080064E00913089DA8470134ADE700BF0000000066
S315080064F02DE9F04F5BEC10AB97B0CDE90501DDE96E
S315080065002057CDE90723504652465B465946229EF8
S3150800651027F0D6FF70B90323CDE902760193B04B75
S315080065200093DDE90501DDE907232DF015FF17B016
S31508006530BDE8F08F4FF0FF326FF48013504659468E
S3150800654027F0C8FF28B10423CDE902760193A54BAD
S31508006550E6E74FF0FF3250465946A34B27F0D8FFDF
S3150800656068B1A24A06F00403002B08BF0322A04B19
S315080065701CBF13460422CDE902760192D0E75046A5
S3150800658093A3D3E90023594627F0C2FF38B992A34B
S31508006590D3E900235046594627F09CFF68B1DDE948
S315080065A00723DDE905014BEC10ABCDE921762095F3
S315080065B017B0BDE8F04FFFF7DFBD002200235046B5
S315080065C0594627F087FF002800F09A805B46524616
S315080065D00020002127F054FB012382468B460993AD
S315080065E016F4806400F08E80092D40F28E80002417
S315080065F030210EABA5F109020134202C03F8011B4A
S31508006600A5EB040901D09442F6D15946504627F025
S3150800661089FF784B054603EBC90393ED007B8DEDA7
S315080066200A7B27F07BFC02460B465046594627F064
S3150800663027FBDDE90A2327F0DBFC02460B46CDE9FA
S315080066400C2327F097FF804627F058FC02460B4696
S31508006650DDE90C0127F014FB02460B46CDE90C23B5
S315080066600022654B27F054FF002851D008F1010895
S31508006670404627F043FC02460B46DDE90A0127F0AF
S3150800668033FF10B14FF000080135B9F1000F50D1B2
S31508006690284627F043FC02460B465046594627F043
S315080066A0EFFA0022544B8046894627F013FF30B193
S315080066B0002240464946504B27F02AFF10B1E8070A
S315080066C000D501350A210EAB1A19202C0AD095FBE4
S315080066D0F1F001FB1055303502F8015B013405462F
S315080066E00028F2D106F00302012A57D1002F55D00F
S315080066F0099A12B916F00C0F00D0013F302245E076
S3150800670009906DE74FF006097FE7A94600247CE764
S315080067100022DDE90C01384B27F0DCFE0028B4D155
S31508006720B8F1000F02D018F0010FAED008F1010839
S31508006730ABE70A210EAB2344202C0ED0B8FBF1F0B0
S3150800674001FB1082B8F1090F02F1300209F1FF3995
S3150800675004F1010403F8012B11D83021A1440EAA33
S31508006760202CAFD0A14504F101030AD11C4609F13A
S3150800677058030DEB03092E2309F8203CA2E78046AF
S31508006780DAE7A1541C46EBE71A550134A74205D9A6
S31508006790202CF9D1CDE902760194C1E6202CF9D056
S315080067A0099A3AB12D2104F158026A4402F8201CCC
S315080067B00134EFE7710704D504F158022B216A4426
S315080067C0F4E73207E6D504F1580220216A44EDE7DA
S315080067D00000000065CDCD410000000065CDCDC1AB
S315080067E0540D0408580D0408FFFFEF7F4B0D0408ED
S315080067F0500D0408600D04080000E03F000000008A
S3150800680070B58EB02C22002103A831F0FAFB642360
S315080068104FF002320893CDE905230B2301218DF8A9
S315080068203430514B8DF810101B88D80700F195802D
S31508006830084618F0C7FD0A224C4B4D491A704FF40A
S3150800684028734C48ADF8123018F042FD4A4C2060C7
S3150800685020B94FF41171494806F0ACF805212068B3
S315080068602EF0E4FB20B14FF41571444806F0A2F867
S31508006870206800F0C5FB424B206819682EF04CFCD6
S315080068800C2519F0C3FC6843099019F0BFFC68434E
S315080068900DEB05010790206812F012FE20B140F2B8
S315080068A06921364806F086F80022364920682EF017
S315080068B0BCFC20B140F26B21304806F07BF840F270
S315080068C00353314D314E2B80052396F90000AB70EA
S315080068D07F2801D118F040FF3378EB7019F096FC49
S315080068E000EB80008000A88019F090FC0023C0000F
S315080068F04FF0FF31E880AB604FF0FF3018A3D3E9C3
S31508006900002318F087FF224920682FF066F82068D0
S3150800691002A92EF064FC20B14FF42971174806F03D
S3150800692049F8042220680DEB02012EF0E3FB042847
S3150800693004D040F2A721114806F03CF801A901202D
S315080069402FF00BF906F07CF9012019F0F1FE28F07A
S315080069505BFF19F017FF18F0B9FD0EB070BD00BF48
S315080069600A0020FF420300008A46002094480020BF
S31508006970EDF3010888120020F83F00207C4C04083B
S3150800698034110020A2480020EC3F00207E1500208C
S315080069908DF501080348044B834202D0034B03B12B
S315080069A0184770475C1700205C170020000000009D
S315080069B0064B0749C91A891048BF0131491003D047
S315080069C0044B0BB101481847704700BF5C170020FD
S315080069D05C1700200000000010B5064C237843B968
S315080069E0FFF7D8FF044B13B10448AFF30080012327
S315080069F0237010BDF6460020000000001850040859
S31508006A0008B5054B1BB105490548AFF30080BDE83D
S31508006A100840FFF7CDBF00BF00000000E8190020BE
S31508006A2018500408A3F5803A704700BF174B002B8F
S31508006A3008BF134B9D46FFF7F5FF00218B460F460F
S31508006A401348144A121A31F0DCFA0E4B002B00D008
S31508006A5098470D4B002B00D09847002000210400D2
S31508006A600D000D48002802D00C48AFF3008028F02E
S31508006A70B9F92000290028F063FA27F033FF00BF90
S31508006A8000000800000000000000000000100020C0
S31508006A905C170020E4480020000000000000000009
S31508006AA007B501200AF016FF01210090034B0420C8
S31508006AB0034A0AF093FA03B05DF804FB87850308D6
S31508006AC00081030813B52BF008F902280ED10DF042
S31508006AD005F9012404712BF07CFC214600900E4B2D
S31508006AE004200E4A0AF07AFA02B010BD0BF098FAA2
S31508006AF00B4B0C4A01210190009304200A4B0AF023
S31508006B006DFAFF21094809F085FF00211BF0A8FC52
S31508006B100122074B1A70E7E723810308448103081B
S31508006B20878503083981030834810308441A00203D
S31508006B30F746002008B50F4B1B78ABB12BF0CDF804
S31508006B4002280CD00C4828F068FCFF210B4809F0F5
S31508006B5061FFBDE808404FF47A611BF081BC064826
S31508006B60BDE8084028F053BC2BF0B7F80228F6D049
S31508006B7008BD00BFF7460020D8BC0308441A002009
S31508006B8070B5202096B027F0BFFE0646052027F0F0
S31508006B90BBFE3060062027F0B7FE7060052027F0A0
S31508006BA0B3FEB060052027F0AFFEF060052027F0A1
S31508006BB0ABFE3061052027F0A7FE7061052027F09F
S31508006BC0A3FEB061052027F09FFE224C05ADF061BB
S31508006BD00FCC0FC594E80F00103485E80F000FCCD2
S31508006BE00DAD0FC50FCC0FC5236830460DA92B6018
S31508006BF028F066F90323ADF80A3000238DF80D3026
S31508006C00ADF80E308DF81230134B341F1B7805ADD6
S31508006C108DF80C301C36002154F8042F55F8043B27
S31508006C20084600929BB202AA2AF0C7FEB442F2D1E5
S31508006C300A4B0B4819680131196010F0E1FBFF2176
S31508006C40084809F0E7FE44F620611BF009FC16B077
S31508006C5070BD00BF58810308E8290020001A0020EB
S31508006C604F810308041A002008B5FF230F491A4666
S31508006C700F4809F095FEFF230E491A460E4809F0FB
S31508006C808FFEFF230D491A460D4809F089FEFF239A
S31508006C900C491A460C4809F083FE0EF03DFC4FF6E7
S31508006CA0117303800123837008BD00BFC56A0008FD
S31508006CB0641A0020356B0008441A0020A16A0008EF
S31508006CC0241A0020816B0008041A0020912808B5B0
S31508006CD004D1BDE80840094828F09CBB90280BD190
S31508006CE0064828F094FBFF21054809F093FEBDE805
S31508006CF0084000211BF0B4BB08BD00BFD8BC030880
S31508006D00041A002013B504460C4B01900093012188
S31508006D1004200B4B0B4A0AF061F924B100220A4BF6
S31508006D201A7002B010BDFF21084809F073FE40F63C
S31508006D30B83102B0BDE810401BF092BB8F070408BB
S31508006D403481030839810308F7460020241A0020F5
S31508006D5007B5064B009001210420054A0AF03EF9C2
S31508006D600022044B1A7003B05DF804FB8F07040871
S31508006D7000810308F746002008B505F0EDFFFF215E
S31508006D80044809F047FEBDE808404FF47A711BF045
S31508006D9067BB00BF841A002010B5044670B9FF23EC
S31508006DA007491A46074809F0FBFDFF21054809F07F
S31508006DB031FE2146BDE810401BF052BB10BD00BF96
S31508006DC0796D0008841A002030B50A4C0A4B2268EF
S31508006DD00A4D1A600A4B85B02B600A4B019304F0E2
S31508006DE06DFF2B68029001A92068039329F0D0FA59
S31508006DF005B030BDA8100020F8260020F426002093
S31508006E009C10002089BC0308014B186829F0D4BAE5
S31508006E10A810002038B504F051FF0446064D2B682B
S31508006E20D3F8B00204F03EFF286829F0D8FA2046C5
S31508006E30BDE8384004F036BFA810002010B5274C2E
S31508006E4001F062FD01F0F0FE236F23F0070343F023
S31508006E500303236728F062FB214B00209B6ADB01B2
S31508006E605EBF4FF480321F4B9A62D4F8203123F06C
S31508006E70070343F00203C4F82031D4F8283123F07D
S31508006E80070343F00203C4F82831D4F8403123F04D
S31508006E90030343F00203C4F84031D4F8603123F009
S31508006EA0030343F00203C4F86031D4F8403223F0F8
S31508006EB0030343F00203C4F84032D4F8003223F047
S31508006EC0070343F00203C4F80032D4F8083223F06B
S31508006ED0070343F00203C4F8083210BD00800050CF
S31508006EE00040005A0060005A08B53A20012101F016
S31508006EF0C9FABDE80840014800F0F2BCAC10002011
S31508006F0030B5264D9DB008AC0FCD0FC495E80F00DF
S31508006F1084E80F002A2200210DF1460031F071F8AD
S31508006F201F4B562210930123129208228DF84530E2
S31508006F308DF86030052315920922199303234FF41F
S31508006F407024179200210E220DF112008DF844309C
S31508006F5031F057F8134B02A9CDE902430B238DF8FC
S31508006F6010300C238DF811300F4B08AA05932023F7
S31508006F7006930E4B0E48009310AB04F01BFF044615
S31508006F809DF81E304FF4E130002B0CBF0321002181
S31508006F9028F06FF920461DB030BD00BFB8BC030805
S31508006FA00000015B3C00015BF8460020601D0020E4
S31508006FB0D01D0020022905D8034B1B68186808B1A4
S31508006FC0436A1847704700BFC010002008B5044937
S31508006FD0044806F0A5F9BDE80840FFF791BF00BFD1
S31508006FE0C4100020F41D0020014829F0D0BD00BFC0
S31508006FF0D01D0020014B1A6A18681047D01D0020C2
S3150800700008B512F08BFA0022014B1A7008BD00BFB2
S3150800701018470020014828F0F7B900BFD8BC030874
S3150800702007B5082028F0D9F902238DF80030054B5A
S315080070306846019328F0E1F8082003B05DF804EBF0
S3150800704028F0D6B9006A18102DE9F043434D89B0E7
S3150800705001AC0FCD0FC495E80700012584E80700A9
S3150800706001213A2001F00EFA3D4F0121292001F0B5
S3150800707009FA3C4B384601A903938DF8125002F0E1
S3150800708071FB2B4629460422022002F057F90221F9
S315080070902A460846002302F051F92B46042203210A
S315080070A0022002F04BF904222B461146022002F078
S315080070B045F92D4C2D4B1026C4F834374FF00213E2
S315080070C0C4F83037A3F58033C4F838371C2304F5E1
S315080070D00059C4F820374FF4487007F055FB04F5FB
S315080070E080581420C9F8A06007F04EFB2320C8F882
S315080070F0A06007F049FBB9213846C9F8A06028F016
S3150800710011FB002329461A460220C8F8A06002F09F
S3150800711015F9002302211A46084602F00FF92B46F4
S3150800712000220321022002F009F92B46002204213D
S31508007130022002F003F9384602F0F2FA002129206B
S31508007140C4F83417C4F83017C4F83817C4F8201729
S3150800715001F098F909B0BDE8F08300BF7CBE0308CA
S3150800716000C0055000127A0000C003500200030058
S315080071700348044A0449121A921028F08AB800BF34
S31508007180EC560408EC560408E448002008B500F05C
S315080071902FF8FFF7EDFF124B12498B4212D300204E
S315080071A0114B12498B4218D3FFF740FC186850F868
S315080071B02240586840F82240013298688242F5D346
S315080071C00C33EAE70022F8E71C6844F8220001328B
S315080071D05C68A242F8D30833E4E70022F8E700BF68
S315080071E0205004082C5004082C5004082C5004087D
S315080071F04FF480414FF0FF30114B124A10B59A6098
S31508007200D3F8882042F47002C3F888200E4A9166A3
S315080072100E4901F5005210660D4850660220C3F863
S31508007220D000BFF34F8FBFF36F8F01244FF4403365
S315080072300848C0F88041D36004600B6110BD00BFE8
S3150800724000ED00E000600008009000500080004457
S31508007250F7FF370000E100E0014B1868704700BFF0
S31508007260EC100020084B1B6F03F00703022B04D019
S31508007270032B05D0012B05D0FEE7044B1868704791
S31508007280034BFBE70348704700800050EC100020D2
S31508007290F4100020002D310108B5FFF7E3FF054B78
S315080072A01B6FC3F303330133B0FBF3F0024B1860D3
S315080072B008BD00BF00800050E81000200048704755
S315080072C000B4C404014B1868704700BFF4100020CE
S315080072D0054B1860054B1B6F03F00703032B01D101
S315080072E0FFF7DABF704700BFF41000200080005097
S315080072F000487047002D31014FF0B4439868C0F339
S3150800730004400C280AD8DFE800F00B090909090926
S31508007310072119091B1D1F000F48704700207047D9
S315080073209B6803F04073B3F1807F11D0B3F1007FFF
S3150800733010D00A4A002B08BF104670470848704705
S315080073400848704708487047084870470848704713
S315080073500848704708487047405DC60000093D0068
S31508007360C0EA210180BA8C010048E801005A62028D
S315080073700024F40080841E0040420F00014B186868
S31508007380704700BFF0100020BFF34F8F0549064B2A
S31508007390CA6802F4E0621343CB60BFF34F8F00BFA5
S315080073A0FDE700BF00ED00E00400FA054FF00063BA
S315080073B09B6A03F17842B2F5C04F03D21968064AB0
S315080073C0914203D000230370836070470122027044
S315080073D09A689B694260F7E707B0CD5E73B54F4B75
S315080073E004461A781AB102221A7002B070BDCDE9A5
S315080073F000220028F9D001261E7028F0B3F8484D5F
S31508007400484B186014F0FAFF2B785BB900F074FD4E
S3150800741040B945480823454A4549006811F05CFAD1
S3150800742000B92E70434B5A6E62619B6E424AA36145
S315080074304FF480439366414B5968E161404999602E
S31508007440196E2160596E6160D3F87011A160196CCC
S31508007450E160596C21613B49086C1864496C5964B0
S31508007460012151661B6E9C0441D5374AD368D8075B
S31508007470FCD4364B1A68531C3ED04FF48013934005
S31508007480334A13664FF400730426314C2666236686
S3150800749027F02EFF01300DD027F02AFF40F2011306
S315080074A0984207D04FF4005323664FF4804323666F
S315080074B0C4F870610823264C684623664FF4805347
S315080074C023664FF0006323664FF4002301A9636621
S315080074D027F0F2FE009B2366019B63662B78002B40
S315080074E083D0124B1A6822665B6863667DE7194A81
S315080074F0D368D907FCD4BCE7174B1B78002BC1D13E
S315080075004FF400720C4B5A6603F5A6235B68002BF2
S31508007510B8D14FF480120E4B1A66B3E71A4700200B
S315080075201B4700201C1E002020110020201E0020C2
S315080075300071080000800050009000500080004450
S3150800754055CEAC0000C0005400000440F8100020DE
S3150800755000900044000004501947002070B5224DE1
S3150800756004462E78012E02D001232B7070BD002808
S31508007570FCD027F0BDFE01300BD027F0B9FE40F253
S315080075800113984205D0194B194A5E66D368DE077F
S31508007590FCD42268174B1A6662685A66A268C3F852
S315080075A07021E2681A6422695A64E269D00744BF06
S315080075B000229A60104B1A68013207D10F4A1278D6
S315080075C022B90F494968C90748BF1A6062690D4B55
S315080075D05A66A2699A6614F019FF0B4B186827F0C9
S315080075E0C7FF0023C1E700BF1A47002000900040EC
S315080075F00000044000800044F810002019470020CD
S3150800760000C00550008000501C1E002070B54FF0C9
S315080076100064A36A03F17842B2F5C04F24D21A680F
S31508007620134B9A4220D1134E337813F0FD0F02D034
S315080076300024204670BD1048FFF7D0FE01254FF400
S3150800764080330E4A0E49C2F88051CB6015600D4A48
S315080076501361A36ADB69984704460748FFF77EFF6C
S31508007660002CE6D13570E3E74FF48174E1E700BFFB
S3150800767007B0CD5E19470020FC1D002000E100E0A0
S3150800768000A000440090004413B5204B1B7803B9B2
S31508007690FEE700231E4CCDE900336A4608231D4940
S315080076A0206811F019F9F0B91B4AD2F84031D2F81E
S315080076B040211F2B4FF0010310D9203A9340019A1D
S315080076C01A43019208236A461249206811F0BAF84B
S315080076D04FF00053114A1A60FFF756FE9340009A7E
S315080076E01A430092EEE70E4B9842F1D10A4AD2F8B5
S315080076F04031D2F840211F2B4FF0010385BF203AB5
S3150800770093409340019398BF0093DBE71A47002004
S315080077102011002000710800008000440B020FF0C1
S315080077200BE000F070B5D0B1C9B10E4E431E013959
S3150800773013F8014F2046325D02F00302012A11F8C0
S31508007740012F08BF04F12000B55C05F00305012DE3
S3150800775008BF2032801A01D1002CE9D170BD012062
S31508007760FCE700BF174F04080346054A0549106899
S3150800777003448B428CBF4FF0FF301360704700BF45
S31508007780FC1000200000042008B501213A2000F072
S3150800779079FE012304220321002001F0CFFD0020F9
S315080077A027F048FF0122354B3549C3F844244FF4E6
S315080077B00022A3F550335A66324BD3F8FC20D20187
S315080077C046D4D1F8803023F0030343F00203C1F80E
S315080077D080304FF4607000F06FFE2A4B00F5D5201C
S315080077E0D3F8F02000F2FC4042F00102C3F8F02082
S315080077F0D3F8FC2042F08072C3F8FC20224AA3F595
S315080078005D431A60214B0222B0FBF3F0204B01388E
S315080078101861C3F8F0204FF48072C3F804234FF0C0
S3150800782060431C4A0020C3F8B02F1B4AC3F8802EB9
S31508007830D3F8002E42F48072C3F8002EFF2283F894
S315080078402020D3F8002E22F48072C3F8002E08BD3B
S31508007850D3F8FC2022F08072C3F8FC20D1F88020EF
S3150800786022F0030242F00202C1F88020D3F8FC207D
S3150800787042F08072C3F8FC20ABE700BF00D003508B
S315080078800080005000ED00E0FF030040F8590D00AD
S31508007890000004E055CEACC5090001004FF0604376
S315080078A0D3F8802E30B5D20715D501240B4D844068
S315080078B0D5F8FC2042F08072C5F8FC20D3F8002EDB
S315080078C02243C3F8002E53F82020002AF0D003F8EC
S315080078D02010002030BD1120FCE700BF00ED00E0BD
S315080078E02DE9FF4103680446B3F1B64F55D0354A32
S315080078F093424FD12F20012100F0C4FD01230A2213
S315080079006179207901F01AFD01230A22E179A0792B
S3150800791001F014FD0A2701262B4D4FF03008237974
S31508007920627908FB035306FA02F203F501531A605B
S31508007930642006F029FF2379627908FB035306FAC7
S3150800794002F203F5825364201A6006F01DFF013F18
S31508007950E3D12068B0F1B64F21D10323C5F8E83446
S315080079606279237943EA0243C5F8EC34E279A379CC
S3150800797043EA0243C5F8F03440F20113ADF800308B
S31508007980E36869460293A3680193237C8DF80C305B
S3150800799001F050FD04B0BDE8F0812E20ABE7094B9D
S315080079A09842E9D10323C5F8F8346279237943EA82
S315080079B00243C5F8FC34E279A37943EA0243C5F8E1
S315080079C00035D9E70080065000C0035010B50122E3
S315080079D043780178847830209A40054B00FB0133C0
S315080079E01CB903F501531A6010BD03F58253FAE773
S315080079F000C0035010B501224378017884783020FE
S31508007A009A40054B00FB01331CB903F582531A60F3
S31508007A1010BD03F50153FAE700C00350012243786D
S31508007A2001789A4030235943014B5A50704700BF9A
S31508007A3040F00350102130230246007813FB001350
S31508007A4005495B585178CB4003F0010093780BB990
S31508007A5080F00100704700BF30C003502DE9F04F99
S31508007A609A46564B85B01B7806460F461546DDF8EE
S31508007A703C909DF844B0DDF85080002B00F09780CC
S31508007A80072A00F296800E9B002B00F09280B9F12F
S31508007A90000F00F08E80129BB3F5006F00F389800B
S31508007AA0012803D1109B002B00F08380444B03EB85
S31508007AB005131B7B002B7ED0424C10220021684602
S31508007AC030F09FFA04EB45141022A7BB394620462E
S31508007AD030F097FA43F210036380BBF1000F03D12D
S31508007AE0E37843F00303E370364A0E9B02EB451C2A
S31508007AF0CCE90193129B6901581E9DF84C30C0F3DE
S31508007B000A0003F003039B0643EA001E53582E4857
S31508007B10012E00EA03004EEA0003CDF800A05350F8
S31508007B2017D0B8F1000F2ED19CF8023068F3041371
S31508007B308CF8023027E00021204630F062FA4FF434
S31508007B4044736380BBF1000FCED1E37843F0300372
S31508007B50C9E713230CF1100ECCF80C309CE80F0083
S31508007B608EE80F006FF00301DCF81C20109B61F310
S31508007B709F02012FCCF81C20CCF8143003D1CCF886
S31508007B801890CCF8043000270D4A290102EB05139A
S31508007B9042F80180159A28465A60694622469F602F
S31508007BA05E7301F0C7FC384605B0BDE8F08F07489C
S31508007BB0FAE70748F8E70748F6E700BF1C4700203A
S31508007BC0281F0020281E00200F80FFF3028000F0E7
S31508007BD0018000F0078000F038B5124B05461B7887
S31508007BE0DBB1E0B127F0BEFC0F4A00231146147B37
S31508007BF054B92B6001251A0101EB03131D738C5030
S31508007C0027F0B6FC204638BD0133082B02F11002D6
S31508007C10EDD127F0ADFC0548F5E70548F3E705483B
S31508007C20F1E700BF1C470020281F0020048000F051
S31508007C30028000F0018000F038B527F093FC00239D
S31508007C4005460B4A147B6CB90133082B02F1100266
S31508007C50F8D101F011FC074B28461C7027F088FC68
S31508007C60204603E0284627F083FC034838BD00BFBA
S31508007C70281F00201C470020058000F00D4B10B57A
S31508007C801B78044693B1072812D827F06BFC0A4BD9
S31508007C9003EB04131A7B2AB100241C7327F068FC33
S31508007CA0204610BD27F064FC0448FAE70448F8E7C4
S31508007CB00448F6E71C470020281F0020068000F02D
S31508007CC0028000F0018000F0154B13B518680023F8
S31508007CD001908DF8043027F045FC124B1C7824B12E
S31508007CE027F046FC104802B010BD01221A7027F092
S31508007CF03FFC0E4B01A81C731C7783F82C4083F8B5
S31508007D003C4083F84C4083F85C4083F86C4083F829
S31508007D107C4008238DF8073001F0DAFB2046E2E7BD
S31508007D20E8BE03081C470020038000F0281F002037
S31508007D300A4A08B512785AB107280BD8084A02EB3E
S31508007D4000131B7B43B1002101F0B4FB002008BDE2
S31508007D500448FCE70448FAE70448F8E71C4700200B
S31508007D60281F0020028000F0018000F0078000F044
S31508007D700A4A08B512785AB107280BD8084A02EBFE
S31508007D8000131B7B43B1012101F094FB002008BDC1
S31508007D900448FCE70448FAE70448F8E71C470020CB
S31508007DA0281F0020028000F0018000F0078000F004
S31508007DB00A4A08B5127852B107280AD8084A02EBC7
S31508007DC000131B7B3BB101F001FC002008BD0548F0
S31508007DD0FCE70548FAE70548F8E700BF1C47002016
S31508007DE0281F0020028000F0018000F0078000F0C4
S31508007DF00D4B1B7893B1072812D889B10B4B03EBAF
S31508007E0000131B7B73B10A4B1A6D0123834013427F
S31508007E1014BF0123002300200B70704705487047E4
S31508007E2005487047054870471C470020281F002052
S31508007E3000000450028000F0018000F0078000F086
S31508007E400B4A10B512780C4662B107280CD859B1FE
S31508007E50084A02EB00131B7B43B101F0C9FB2070F3
S31508007E60002010BD0448FCE70448FAE70448F8E790
S31508007E701C470020281F0020028000F0018000F027
S31508007E80078000F0184B2DE9F0411F6D5B6D1F4010
S31508007E9000D5FEE701260025144CDFF85880374246
S31508007EA018D02368C8F85060A3B1A16828460131E4
S31508007EB06268A1609847637B012B0BD150B90C4BC4
S31508007EC003EB45131A7B60F341021A731A7F60F3BA
S31508007ED041021A770135082D4FEA460604F11004C7
S31508007EE0DDD1BDE8F08100BF00000450281F002046
S31508007EF0281E002000200450024B1968024B1868FF
S31508007F0010F0C6BB001100202011002070B59400A7
S31508007F10224605460E4630F0D3F8431C0AD058B917
S31508007F2022463146284630F042F80028034808BF62
S31508007F30002070BD0248FCE70248FAE710E000F0AE
S31508007F4021E000F024E000F010B5044630F0B4F863
S31508007F50431C10D088B901F0D9FB234620F0030052
S31508007F602044984201D1002010BD53F8042B013259
S31508007F70F7D00348F8E70348F6E70348F4E700BFF5
S31508007F800EE000F021E000F024E000F008B527F04C
S31508007F90DAFA014B186008BD98260020014B1868CC
S31508007FA027F0D5BA98260020044BD3F88420D206A9
S31508007FB0FBD4D3F88400C0F381107047004000500A
S31508007FC038B5104B0546D3F880300C4603F003034A
S31508007FD0022B0BD0032B0DD0012B0FD1FFF742F943
S31508007FE00E2305B1286004B1236038BDFFF784F974
S31508007FF00723F6E7FFF730F90623F2E700231846CA
S31508008000EFE700BF0080005038B5184B0546D3F897
S3150800801020010C4600F00700062823D8DFE800F008
S31508008020040A0E16121A1E00012305B1286004B1AF
S31508008030236038BDFFF710F90523F6E7FFF742F985
S315080080400323F2E7FFF758F90723EEE7FFF750F99E
S315080080500223EAE7FFF700F90623E6E7FFF732F916
S315080080600423E2E700231846DFE700BF008000503C
S3150800807038B5174B0546D3F828310C4603F00703E5
S31508008080013B052B20D8DFE803F003131B0F0B1762
S31508008090FFF7E2F8052305B1286004B1236038BD6F
S315080080A0FFF7DAF80623F6E7FFF726F90723F2E7DC
S315080080B0FFF708F90323EEE7FFF704F90423EAE7D5
S315080080C0FFF716F90223E6E700231846E3E700BFA1
S315080080D00080005073B50D460021114B0191D3F86D
S315080080E08041064604F00304022C13D0032C0CD05E
S315080080F0012C13D101A8FFF787FF10240EB1019BAD
S31508008100336005B12C6002B070BDFFF7F5F807249F
S315080081100190F3E7FFF7ECF80190EFE70C46EDE77F
S3150800812000800050002337B50193164B0546D3F857
S3150800813020320C4603F00703042B21D8DFE803F0AE
S31508008140030B11161B0001230DB1019A2A6004B115
S31508008150236003B030BD002101A8FFF789FF122371
S31508008160F2E7FFF7C9F807230190EDE727F09EF835
S315080081700A230190E8E7FFF701F909230190E3E7ED
S315080081800023E1E70080005038B5104B0546D3F8C8
S3150800819040310C4603F00303022B0BD0032B0DD002
S315080081A0012B0FD127F082F80A2305B1286004B104
S315080081B0236038BDFFF7E2F80923F6E727F079F8D8
S315080081C00C23F2E701230020EFE700BF00800050F0
S315080081D0002337B50193164B0546D3F860320C4693
S315080081E003F00703013B032B1FD8DFE803F0020E59
S315080081F01914002101A8FFF707FF10230DB1019AF2
S315080082002A6004B1236003B030BD002101A8FFF73E
S31508008210BBFF1123F2E7FFF76FF807230190EDE79D
S31508008220FFF766F802230190E8E70023E6E700BFB8
S3150800823000800050002337B50193164B0546D3F846
S3150800824094320C4603F00703013B032B1FD8DFE8E3
S3150800825003F0020E1914002101A8FFF7D5FE10231A
S315080082600DB1019A2A6004B1236003B030BD002124
S3150800827001A8FFF789FF1123F2E7FFF73DF8072367
S315080082800190EDE7FFF734F802230190E8E70023B1
S31508008290E6E700BF0080005038B5144B0546D3F812
S315080082A000020C4600F0070004281BD8DFE800F09F
S315080082B003090D111500012305B1286004B12360D7
S315080082C038BD26F0F3FF0A23F6E7FFF757F8092328
S315080082D0F2E726F0EEFF0C23EEE7FEF7DDFF0F23AD
S315080082E0800AE9E700231846E6E700BF0080005049
S315080082F038B5144B0546D3F808020C4600F00700BB
S3150800830004281BD8DFE800F003090D111500012326
S3150800831005B1286004B1236038BD26F0C7FF0A23DB
S31508008320F6E7FFF72BF80923F2E726F0C2FF0C233E
S31508008330EEE7FEF7B1FF0F23800AE9E700231846A8
S31508008340E6E700BF0080005038B5104B0546D3F865
S3150800835040320C4603F00303022B0BD0032B0DD03F
S31508008360012B0FD126F0A2FF0A2305B1286004B11C
S31508008370236038BDFFF702F80923F6E726F099FFD0
S315080083800C23F2E701230020EFE700BF008000502E
S3150800839038B5104B0546D3F860310C4603F0030395
S315080083A0022B0BD0032B0DD0012B0FD126F07EFF0D
S315080083B00A2305B1286004B1236038BDFEF7DEFF45
S315080083C00923F6E726F075FF0C23F2E701230020C0
S315080083D0EFE700BF00800050B0F5207F1FD009D816
S315080083E0B0F5007F15D003D868B1B0F5C07F0AD0C4
S315080083F000200CE0B0F5607FFAD10B4BD3F8800073
S31508008400C0F3011003E0084B186FC0F303300130C6
S315080084107047054BD3F89000C0F30460F7E7024BAA
S31508008420186FC0F38020F2E70080005002464FF430
S315080084308030104B10B598660020FFF7CDFF5043EB
S3150800844041F671320C4BDC69DA635A6804F48034FD
S3150800845022F4401259B90949884294BF00200120E4
S31508008460000502435A600CB10022DA6310BD0449C4
S31508008470F2E700BF0090005000000350005A620265
S31508008480002D3101430905D0012B0CD0022B084BD6
S3150800849018BF002300F01F0039B103F580530122ED
S315080084A082401A607047034BF4E703F50053F6E77A
S315080084B068800050648000501FB50021802804465B
S315080084C0CDE9001100F0A58035D85E2846D85E288B
S315080084D044D8DFE800F0A2434343434343434343BE
S315080084E0434343434343434343434343434343434E
S315080084F0434343434343A2AAA2AABABABABABAAAF8
S31508008500C44DDA714DAAAAAA43434343434343439E
S31508008510AAAAAA79E4AA43434343434343434343AA
S31508008520434343BAA2A2A2DF4D4DE9885EBF434347
S3150800853043434399A200B0F5B06F00F090802DD860
S31508008540B0F5207F71D00CD8B0F5C07F65D0B0F5F6
S31508008550007F65D0B0F5807F00F08680009804B073
S3150800856010BDB0F5607F6BD00DD8B0F5407FF5D162
S31508008570FEF792FE02464FF42070FFF72DFFB2FB7E
S31508008580F0F252085AE0B0F5806F5ED0B0F5A06FF1
S31508008590E4D100216846FFF7C5FDDFE7B0F5106FA7
S315080085A078D016D8B0F5E06F79D00AD8B0F5C06F94
S315080085B06BD0B0F5D06FD1D100216846FFF76CFEBD
S315080085C0CCE7B0F5F06FC9D100216846FFF7E0FEA9
S315080085D0C4E7B0F5406F3DD013D8B0F5206F63D02F
S315080085E0B0F5286FBAD10021324B0391D3F8703217
S315080085F003F00303012B02D103A8FFF7C5FD039B74
S315080086003CE0B0F5486FA9D100216846FFF712FE95
S31508008610A4E7FEF727FE0090A0E7FEF73DFEFAE77F
S31508008620FEF720FE0246204604E0FEF735FE024627
S315080086304FF42070FFF7D0FEB2FBF0F200928DE700
S3150800864001A8FFF7BDFC019AEDE700216846FFF790
S31508008650DBFC83E700216846FFF70AFD7EE7002179
S315080086606846FFF737FD79E74FF0E02302911B696B
S315080086705B0705D5FEF710FE0290029B00936DE797
S3150800868003A902A8FFF780FDF7E700216846FFF770
S315080086907BFD63E700216846FFF72AFE5EE70021B7
S315080086A06846FFF751FE59E700216846FFF790FD37
S315080086B054E700BF0080005008B58020FFF7FCFE95
S315080086C0034B98429EBF4FF48032024B1A6708BD8F
S315080086D0005A620200A000501FB503460020B3F5F9
S315080086E0807F019000F0C18064D85D2B55D84C2B53
S315080086F007D82D2B48D8232B2CD8019805B05DF820
S3150800870004FB4D3B102BF8D801A252F823F000BF0A
S3150800871061880008FB860008FB860008FB860008BF
S3150800872017880008FB860008FB860008E58800080D
S3150800873035880008DB870008DB880008FB86000808
S31508008740FB860008FB860008FB860008FB860008F7
S31508008750EF880008243B092BCFD801A252F823F052
S315080087606188000861880008618800086188000837
S3150800877061880008FB86000857880008FB86000801
S31508008780F7870008978800083D2B7FD03E2BB4D189
S31508008790002001A9FFF7D8FDAFE7802BADD1594BD3
S315080087A01B6F03F00703013B032BA6D8DFE803F092
S315080087B0514E858DB3F5F06F68D021D8B3F5B06FFB
S315080087C049D00FD8B3F5607F00F0838095D3B3F511
S315080087D0806F45D0B3F5A06F8FD1002001A9FFF7B0
S315080087E0A1FC8AE7B3F5D06F55D0B3F5E06FCFD0CB
S315080087F0B3F5C06F81D1002001A9FFF7C5FC7CE75E
S31508008800B3F5206F6ED00BD8B3F5086F48D0B3F523
S31508008810106F7FF472AF002001A9FFF769FD6CE7BE
S31508008820B3F5406F59D0B3F5486F60D0B3F5286FEC
S315080088307FF463AF334BD3F8703203F00303012B95
S315080088405AD0022B0CBF1523002300E00523019301
S3150800885053E70223FBE7002001A9FFF73BFC4CE79F
S31508008860002001A9FFF7D0FB47E74FF0E02302906D
S315080088701B695B0705D5FEF70FFD0D230393039BC5
S31508008880E5E703A902A8FFF77FFCF8E7002001A99E
S31508008890FFF77EFD31E7002001A9FFF7FDFC2CE775
S315080088A0184BD3F8003103F00303022B07D0032B30
S315080088B009D0012B0BD1FEF705FD0323C7E7FEF709
S315080088C05DFD0923C3E726F0EFFC0823BFE7012374
S315080088D0BDE701A9FFF774FB0FE7002001A9FFF721
S315080088E0C7FB0AE7002001A9FFF772FC05E700208D
S315080088F001A9FFF79FFC00E7002103A8FFF744FC46
S315080089001123A4E7008000504FF48012034B5A66E7
S315080089104FF48032024B9A62704700BF00900050B5
S315080089200050005A38B504468020FFF7D5FE0328C4
S3150800893000F083804FF48012524B4FF0A0615A66C4
S3150800894045F60E02504BC3F88020504A91624FF408
S31508008950803102F5805291629A6DD203FCD4996DEA
S3150800896011F08041FBD1D4E90002120542EA006207
S31508008970E07B0243207B42EA0042607B42EA003207
S31508008980A07B42EA80121A619869D4E90452120659
S3150800899042EA856200F000400243A07EE57E02437B
S315080089A0207E42EA0042607E42EA00229A611A6A02
S315080089B0E06922F00F0242EA8502354D00283DD1D2
S315080089C01A6294F82420996A94F82000D200294063
S315080089D042EA40120A4394F8211042EA011242F48C
S315080089E080329A622B49284A936D31EA0303FBD1F8
S315080089F04FF08071254881621369A56823F47003D6
S31508008A0043EA055313614FF00043836194F822301B
S31508008A100BB9214B996294F823303BB94FF4803255
S31508008A201D4B9A62184A936D5B00FCD494F8253066
S31508008A301BB1154B194AC3F8802038BD024342F0D2
S31508008A40080202281A6208D119614FF4085299617E
S31508008A5013484FF47F4126F03FFD0B4994F8223026
S31508008A608A6A94F820001B062A4043EA40131343F7
S31508008A7094F8242043EAC20394F8232043EA0243E5
S31508008A808B62D3E7009000500040005A0050005A0D
S31508008A90C7FFFEFE030001000060005AF1A7FFFFB2
S31508008AA03440005A014B93F90000704733150020F3
S31508008AB0F0B5D0E901434FF400061A4A4178057823
S31508008AC056664FF4D156022702F5B8325662164E4C
S31508008AD04F2977604FF0010728BF4F2106F58056CA
S31508008AE077601669F603FCD441EA052151611B013A
S31508008AF0417B43EA04230B43017B43EA410393602A
S31508008B00C37B817B1B0143EA4113417C0B43017CF8
S31508008B1043EA41035360837C13B16FF4D153536224
S31508008B20F0BD00BF0090005000100250014B1880A5
S31508008B30704700BFF6140020014B1880704700BF2D
S31508008B40F4140020B0F5207F10B50C465DD008D887
S31508008B50B0F5007F4ED003D8C0B1B0F5C07F15D0B0
S31508008B6010BDB0F5607FFBD12C4B4C1ED3F8FC2012
S31508008B702B4912F0807F4FEA041427D1D1F88030B0
S31508008B8023F030032343C1F88030E9E726F0B3FC2D
S31508008B9026F0BFFC4FF48031224B214A1967136F28
S31508008BA0013C23F4704343EA04331367FEF774FB6E
S31508008BB00446FFF7F9F9C0F10201204626F0A3FCA6
S31508008BC000F042F8BDE81040FFF776BDD3F8FC2068
S31508008BD022F08072C3F8FC20D1F8802022F03002FF
S31508008BE02243C1F88020D3F8FC2042F08072C3F8F3
S31508008BF0FC20B5E70A4A4C1ED2F8903023F0F85309
S31508008C0043EA0463C2F89030AAE7054A4C1E136F7C
S31508008C1023F4806343EA84231367A1E700ED00E0A9
S31508008C20008000500090005008B50121022000F095
S31508008C3077F826F060FC26F06CFC4FF48032014B86
S31508008C401A6708BD0090005008B54FF4C070FFF7CA
S31508008C5033FCBDE808400449884294BF012102213B
S31508008C604FF42070FFF76EBF80F0FA02024A536B8A
S31508008C700342FCD1704700BF00400950044A4178BE
S31508008C80536F23F4407343EA01235367704700BFC9
S31508008C90004000500C4A10B51369044643F004031B
S31508008CA0136104F099FD26F066FC084B084AC3F8E0
S31508008CB0202430BF26F060FC04F0C8FD1CB9BDE8CE
S31508008CC01040FEF7E9BA10BD00ED00E000E00350E1
S31508008CD00000FF0F0A4A10B51369044643F004035F
S31508008CE01361084B084AC3F8202404F075FD30BF09
S31508008CF004F0ACFD1CB9BDE81040FEF7CDBA10BDB6
S31508008D0000ED00E000E003500000FF0F034A017980
S31508008D10D36E23F030030B43D366704700400050F0
S31508008D20F8B504461C4BD3F88420D106FBD4D3F8F7
S31508008D308430C3F381139C422CD0FEF793FA012C9E
S31508008D40064602D1214626F0DEFB26F0FCFB4FF054
S31508008D500072124B07465A66204626F010FC4FF45E
S31508008D6080630D4D621E93402B676B6E9A0103D488
S31508008D70D5F884309B060AD5384626F0E8FB022C3F
S31508008D8008D13046BDE8F840002126F0BCBBD5F82E
S31508008D908430EAE7F8BD00BF00400050006000508C
S31508008DA010B50C4608B9FEF75DFA074B21461B7845
S31508008DB03BB1064B984204D80120BDE81040FFF7A6
S31508008DC0AFBF0220F9E700BF1D470020005A620224
S31508008DD00278034B012100201A70FFF7E1BF00BF9C
S31508008DE01D4700204FF0004238B5244B244C5A66E4
S31508008DF04AF6CD33656C014605F00105236428BBA8
S31508008E000120FFF733FF6368DB0715D51D4B586054
S31508008E1008461D4B226BD2070CD4984208D107246A
S31508008E2015B1174B194A1A642CF062F9204638BD59
S31508008E300130EFE79842F2D00024F1E70132236BC4
S31508008E4013F0080305D08A42F8D1E8E700220E4954
S31508008E50F5E78A42E3D020210A4A91620121A2F568
S31508008E60805251600649084A886A800603D49342AC
S31508008E70D5D00133F8E79342DDE700BF00900050F4
S31508008E80004009500060095040420F003254FFFF6D
S31508008E904FF0004238B5164B01465A664AF6CD33AE
S31508008EA0144C154A656C236443780B205B0043F029
S31508008EB00103D363FFF7DAFE63688A7823F4F8734D
S31508008EC043EA02136360CA784B7943EA0223A36034
S31508008ED00A798B7943EA022323610878FFF782FF30
S31508008EE0EB0744BF054B23642CF002F9012038BD7B
S31508008EF00090005000400950004000503254FFFFD7
S31508008F004FF00042124B70B55D6E03F580535A66FA
S31508008F104AF6CD3304460F4980204E6C0B64FFF7A2
S31508008F20A5FE0B6A23F00F030F2C94BF234343F0CF
S31508008F300F030B62F30744BF074B0B64002DA2BF58
S31508008F404FF00042054B5A662CF0D2F870BD00BFB0
S31508008F5000800050004009503254FFFF00A0005026
S31508008F604FF00042104B70B55D6E03F580535A669C
S31508008F704AF6CD3304460D4980204E6C0B64FFF744
S31508008F8075FE0B6A23F4F85343EA04230B62F307CE
S31508008F9044BF074B0B64002DA2BF4FF00042054BA0
S31508008FA05A662CF0A5F870BD0080005000400950A4
S31508008FB03254FFFF00A0005010B526F0E5FA04234E
S31508008FC000F5805100F500520B6113610B611361C6
S31508008FD00B6113610B611361202341F202010361E6
S31508008FE00023C360836041614FF4A02183618365D8
S31508008FF041620549C36103628362C36243630365D1
S31508009000D164036310BD00BFFF3F0D0370B505466D
S315080090101446084641B9354B9D4218D0344B9D42FB
S3150800902008BF5720FFF748FAAB6813F0010F6B68C3
S3150800903030D0B0FBF4F4D80704F1FF344FEA0464E7
S3150800904007D42B6923F07F4323432B6170BD562039
S31508009050E8E72821284626F093FAAB6C990715D13C
S31508009060AB6CDA0714D4AB6C13F0020F14BF0626E8
S315080090700026284626F088FA2B69314623F07F43D6
S3150800908023432B61BDE8704026F0B5BA0526F0E704
S315080090900926EEE7AB6DDB07AB6848BF640003F053
S315080090A0E003402B1BD004D8DBB1202BCED10823FC
S315080090B004E0602B17D0802BC8D1012363434101FC
S315080090C0B1FBF3F20B4B203A284603EAC202012110
S315080090D026F056FA2A63BDE8704026F051BA0623F0
S315080090E0ECE71023EAE70423E8E700BF0000015B8A
S315080090F000000A50F8FF7F002DE9F84398464368B8
S3150800910004460E4617461BB140F6FF7126F038FA9C
S315080091102046FFF751FFF189737B62690B43318A59
S3150800912022F44C520B4322F00F0213436361A268E8
S31508009130317E337B22F0804222F0E2020B43134356
S315080091407269D6F808901343A360B9F1000F03D1EA
S31508009150A36843F00043A360F069002874D0857AB9
S31508009160037A6D04A26845EA83556D4B13401D4387
S31508009170838803F4C0431D43437845EA8305437B4C
S3150800918045EAC305837B45EA0315837845EA8325C3
S31508009190A560D0E90432E5681343624A2A401343BE
S315080091A0827943EA8223C27943EA4223E360037859
S315080091B05D4A012B14D1E36843F00403E36094424B
S315080091C000F09280594B9C420CBF01234FF0FF33AD
S315080091D05B0103F1A04342F2944203F5703314E0B5
S315080091E0032B7BD1E36843F00403E360944279D010
S315080091F04E4B9C420CBF01234FF0FF3341F2944281
S315080092005B0103F1A04303F5703302259D50437AB1
S3150800921004F5805293621BB1E36843F40063E3608C
S31508009220C37A5BB1E36843F40043E3603E4B9C4278
S315080092305CD1037B3E4A03F00F035367636AC27B24
S3150800924023F00303134363623FB197F8203004F514
S315080092508050002B54D001230362B8F1000F27D0A9
S3150800926004F5805011B14FF4004383652E4BB8F8CE
S3150800927022109C4298F821304FD02C4A94420DD1A6
S315080092800122112B34BF012702272A4DB1F5006FA1
S31508009290AF5494BF01270227274DAF54A26D0B4345
S315080092A022F4F95222F01E021343A36501238365B3
S315080092B00521204626F082F9B9F1000F03D04A4667
S315080092C07168FFF7A3FE2046317826F094F9A36C5F
S315080092D0DB4313F4405FFAD1BDE8F883023B012B68
S315080092E084D96CE7002389E7002371E70F4B9C427A
S315080092F001BF037B0E4A03F00F03C2F880309DE7D7
S31508009300E26997F8223097F8215022F009022B4398
S31508009310134343F00103C3619FE70022B1E700BF8F
S31508009320E39BBDFFFFF9F0870000015B00000A50D0
S3150800933000900350204700201E4700202DE9F041E9
S3150800934005460F461E4690464AB101233022194C5F
S315080093508B4002FB004436B304F5825423600F2188
S31508009360072F05EB450388BFA7F108044FEA031347
S31508009370114895BFBC00A40004330C3308FA04F264
S31508009380A140184426F047F9B8F1000F09D1012386
S315080093903021084ABB4001FB05223EB102F5825244
S315080093A01360BDE8F08104F50154D7E702F50152D0
S315080093B0F6E700BF00C0035030C00350F8B50546B5
S315080093C00E4614465AB303F00307836823F4407322
S315080093D0836026F0B8F8AA6882EA072303F4407384
S315080093E05340AB6026F0B3F836B9B5F1B64F17D18E
S315080093F02E20FFF761F80646AB680C4BDA5D624330
S315080094000DD0A2EBC403013B3344B3FBF2F3AA68C5
S31508009410013B920702D5002B08BF0123AB61F8BDBB
S31508009420034B9D42E8D12F20E3E700BF0DBF030899
S315080094300080065038B500230E4A036400F5005331
S31508009440DA634A7804460D4600F108037AB903F54B
S31508009450805302221A602046D5E901122B7BFFF7BA
S31508009460ADFF20462978BDE8384026F0E4B803F574
S315080094700053EEE7FFFF1F004FF400120B4B10B529
S31508009480C3F88020BFF34F8FBFF36F8F0024FF22EE
S31508009490074B21465C6520209A625C60FEF7F2FF66
S315080094A02146BDE810402120FEF7ECBF00E100E0B0
S315080094B000000450044A054B002908BF1346012240
S315080094C082401A60704700BF401004504020045084
S315080094D010B5012104462020FEF7D4FF01212120E2
S315080094E0FEF7D0FF0122114B5A60227812069A60C5
S315080094F06178A27842EA01429A61FF229A620022C2
S315080095009A631A644FF000425A654FF0FF324FF4DF
S31508009510001103F500531A65054AC2F88011E3786D
S315080095201B01DBB282F81533116010BD0000045030
S3150800953000E100E0F8B50125C3B2D1F800E091F8E2
S315080095400AC00F7B0C469D40CB7A1D491D4E0D6502
S31508009550810001F1A04101F58821C1F804E04FF02E
S31508009560300E0EFB00601B05617B43EA0C4343EAA1
S31508009570475322F003020166C365026725F0F2FF2E
S31508009580736D2B437365237A13B1336C2B433364A2
S31508009590637A13B1B36B2B43B3632279A37943EA96
S315080095A00243074A93616179E37943EA014306492D
S315080095B08B61044B55639D64BDE8F84025F0D8BF20
S315080095C000200450000004500010045010B5012477
S315080095D0C0B2844025F0C6FF044B5A6D22EA040245
S315080095E05A659C62BDE8104025F0C2BF00000450D1
S315080095F010B50124C0B2844025F0B4FF074BDA6ADF
S31508009600224208D15B6B9C430CBF0124002425F041
S31508009610AFFF204610BD0024F9E700BF0000045044
S315080096204FF48032054B9A6641F6713203F51C33C6
S31508009630DA63012203F50053DA60704700900050A0
S3150800964041F671320121064BDA6303F50052D16007
S315080096500022DA634FF48032A3F518339A6670470E
S3150800966000000350013831289ABF024B185C0020CD
S31508009670704700BF11BF030838B5C2F30625044674
S3150800968002F0070241B942EA052242F440220634B2
S31508009690074B43F8242038BD1146284625F0D5FF48
S315080096A002462846FFF7DEFF163442EA0022EFE7B5
S315080096B000800350014BD3F89400704700400050D7
S315080096C04FF48032064B5A6603F5E6239B69C3F3CB
S315080096D08512827003F03F021B0B427003707047BD
S315080096E00090005040F6B732064B5B689BB2934237
S315080096F09FBF4FF47A72B3FBF2F3034AD05C88BF7C
S31508009700002070470080E00F43BF03080120034B89
S315080097109B680A3303F01F03984070470080E00FE8
S31508009720012100F5805310B5596040F6AA6341F24D
S31508009730050243610023094C8360C365C26000F5D6
S3150800974000520361C361C3649464054C8365A042F7
S3150800975004BF03654365516010BD00BFFFFF0100EC
S3150800976000C0055038B50D46FFF7DAFF012200F5AF
S3150800977080535A602B8AA97B826843F0010343EA27
S3150800978081231343836083682A7D044643EA427330
S315080097908360AB7C5BB1194B984202BFEA7CA3F5A8
S315080097A01033C3F8C821C36D43F08003C3652B7B10
S315080097B02046D5E9011243F48053E36025F0A2FF61
S315080097C06B7B0BB1102363616B7D1BB1A36843F4FC
S315080097D08033A360AB7D1BB1A36843F40043A36049
S315080097E0EB7D2A7E1B07120503F0E04302F4E00234
S315080097F01343A3652B78636138BD00BF00C00550CD
S31508009800034B5A68D20702D5DA69002AF9D170479C
S3150800981000800A50054B9A689107FCD45A6892074B
S31508009820F9D4DA69002AF6D1704700BF00800A50D9
S3150800983008B5FFF7E5FF0222014B1A6108BD00BF14
S3150800984000800A5008B5FFF7E5FF0122024B03F531
S3150800985080514A601A6108BD00800A5008B5044B59
S315080098605968012903D1FFF7E3FF024B596008BD88
S3150800987000800A5000A00A5010B5064CFFF7CAFF30
S315080098806368012B03D1FFF7E9FFFFF7C3FF0378EE
S31508009890E36010BD00800A50B8B94A680B7812B167
S315080098A0127843EAC2034A7843EA42038A6812B145
S315080098B0127843EA82138A7843EA8203CA6812B1A5
S315080098C0127843EA4223014A9364704700800A509B
S315080098D008B9014B5964704700900A5008B9014B02
S315080098E05964704700A00A5008B9014B19647047BB
S315080098F000A00A5010B9024B186C70470020704738
S3150800990000800A5048B911B1012903D07047044BA9
S31508009910D86C7047024B186D70470020704700BF1F
S3150800992000800A5040B911B1012903D07047034B92
S31508009930DA647047014B1A65704700BF00800A5009
S3150800994010B9024B586D70470020704700800A50C6
S3150800995038B50446054D2BF0F0FB0FCC0FC594E83F
S31508009960030085E80300002038BD00BF9C260020C0
S3150800997047F6FF739A42F0B56FD002296FD8394B74
S315080099805B5C012B6BD8384DDF0005EBC30415F87B
S315080099903330A178012B13D10025E078401AA8426C
S315080099A002D80844C0B2F0BD431B6668A0EB530357
S315080099B036F913609642D4BF1D4603F1FF30EEE731
S315080099C060680028EFD0B0F90040944204DBB0F993
S315080099D002409442B8BF144683883D44FF2B19BF02
S315080099E0C8224FF0280CB0F90620B0F908C0A2EB3F
S315080099F004030CBF0126002693FBFCF333446E7860
S31508009A001BB29E4201DD002B01DA731E1BB24FF416
S31508009A107A7C01339BB2071D5D1E2DB24FEAC50E37
S31508009A2000EBC505EA88AD689E4214FB025222EA9D
S31508009A30E27202F15C02B2FBFCF204DD37F8335045
S31508009A4001339542E8D200EB0E039888904228BF6E
S31508009A501046884238BF0846A4E7FF20A3E700203F
S31508009A60A1E700BF46BF03089C2600200229F0B5DF
S31508009A7055D82C4B585C012851D82B4C04EBC00107
S31508009A8014F830004B6801280FD1C8788C789042BA
S31508009A9094BFC4EB0001C4EB0201001BCAB28242A8
S31508009AA0C8BF002233F91200F0BD002B37D08878E2
S31508009AB0904202D3B3F90200F6E7CC78B3F9000076
S31508009AC09442F1D94C789988013CA1F1FF0671427C
S31508009AD003F10405E4B2714103F10C07CEB2B442B6
S31508009AE016D805EBC1014FF47A756A43B1F90240FD
S31508009AF04968521A04EBD47102EB610292FBF4F244
S31508009B009042D1DBB3F902009042CDDC10B2CBE72C
S31508009B1037F831C04E1C9445E3D33146DEE7034897
S31508009B20C2E700BF46BF03089C2600200080FFFF4F
S31508009B300148FFF70DBF00BF4CBF03087FB50222DF
S31508009B40084B0949CDE901234FF04073CDE90313CA
S31508009B50052301A94FF0FF3005932BF04DFB07B005
S31508009B605DF804FB006A18000003040008B5B0B1EC
S31508009B704FF480620B4B9A6625F0A7FD4FF0984389
S31508009B805A6CD202FCD54FF48062586D064B10F41D
S31508009B9070209A6604D0BDE8084025F047BE21200B
S31508009BA008BD00BF0090005000A000502DE9F0410C
S31508009BB08CB08846DDE912761D460446002847D053
S31508009BC0002945D0002F43D0002E41D013F00F03B3
S31508009BD03ED120482049A360002A08BF0146E36118
S31508009BE0C4E90013404609A925F01CFF68BB2046B6
S31508009BF0099925F061FD2946204625F05DFD69464F
S31508009C00404600F0F7FA00BB6946204625F040FDBD
S31508009C10404603A926F005F8B8B9204603A925F059
S31508009C2037FD06970127204645F0005506A90797F0
S31508009C30089525F02DFD204609A909960A970B9542
S31508009C4025F030FD2046FFF791FF0CB0BDE8F08106
S31508009C502120FAE700010004000101042DE9F04F74
S31508009C6097B0894690461F460546DDF880A000282D
S31508009C7000F0BB80002900F0B8803AB1229B002B87
S31508009C8000F0B380239B002B00F0AF80BAF1000FE1
S31508009C9000F0AB80219B002B00F0A78067B13C68E1
S31508009CA00026229B43440293464507D307B13C60EE
S31508009CB0002017B0BDE8F08F3C46F1E75CB1229B67
S31508009CC0219A9B5D125D01345340239A04F00F04D8
S31508009CD093550136E8E7A8EB060BBBF10F0F58D9E9
S31508009CE0434B4846C5E90034AC60EC6113A925F03E
S31508009CF099FE0028DDD1284613992BF00F0B25F085
S31508009D00DBFC5946284625F0D7FC484604A900F04E
S31508009D1071FA0028CDD1284604A925F0B9FC484691
S31508009D2007A925F07EFF0028C3D1284607A925F0F4
S31508009D30AFFC012322992F4ACDF828A00B930C9249
S31508009D408A190D9228464BF000520AA90E930392DF
S31508009D500F9225F09DFC28460DA925F099FC239B1A
S31508009D60039A99190123109111931292214A2846B0
S31508009D7010A9CDF84CA01493159225F093FC28460B
S31508009D8013A925F08FFC2846FFF7F0FE5E4400284D
S31508009D908FD1229B03EB060B239B1E44029B5B453C
S31508009DA001D1464680E7ACB9219B2246CDE900A3FE
S31508009DB0494610232846FFF7F9FE00287FF479AFB5
S31508009DC00AF1100212F8013D0133DBB213700BB928
S31508009DD05245F7D1219A1BF8013B125D01345340D5
S31508009DE006F8013B04F00F04D8E7212061E700BF1D
S31508009DF003030004100000202DE9F04F97B08946B0
S31508009E0015469A460446209FDDF88880DDF890B00E
S31508009E10269E002800F09D80002900F09A80002EDA
S31508009E2040F08A80002B00F09480B8F1000F0AD029
S31508009E30219B002B00F08D80002A40F09F80F107BF
S31508009E4000F1878002E0002A40F08580FB1F062B80
S31508009E507FD8524B0BEB05029A427AD80023504A18
S31508009E604846C4E90023A360E36113A925F0DAFD97
S31508009E7000285ED12046139925F01EFC204646EAA6
S31508009E80074125F019FC4146204625F015FC2946D0
S31508009E90204625F011FC484601A900F0ABF9002838
S31508009EA047D1204601A925F0F3FB484604A925F029
S31508009EB0B8FE00283DD14FF00109204604A925F037
S31508009EC0E7FB239B45F000550793219BCDF820908F
S31508009ED0204609950DA90A9347F0005748F0005304
S31508009EE0CDF82C900C93CDF834A0CDF838900F9778
S31508009EF025F0CEFB20460AA925F0CAFB204607A96D
S31508009F0025F0C6FB259B204610A946F00056CDF83D
S31508009F1040B0CDF8449012951393CDF8509015960D
S31508009F2025F0C0FB204613A925F0BCFB2046FFF709
S31508009F301DFE17B0BDE8F08F259B53B1BAF1000F8F
S31508009F4007D0B8F1000F01D0219B13B1B5B9022E85
S31508009F5020D12120EDE7239B002BFAD0BBF1000F7F
S31508009F60F7D0C7F10F03DBB2032B3FF668AF012228
S31508009F70DB0002FA03F3AB42EBD9E8E7239B002B9D
S31508009F80E7D0BBF1000FE4D0C7F10F03DBB2032B18
S31508009F90DDD8ECE7102E7FF652AFDAE7FFFF032095
S31508009FA0000005042DE9F04F99B0884615469B46F2
S31508009FB00446229FDDF89890289E60B159B1279BE8
S31508009FC04BB1BBF1000F06D0249B0BB1239B13B1F9
S31508009FD01DB9022E13D121239AE0259B002BFAD016
S31508009FE0B9F1000FF7D0C7F10F03DBB2032BF0D896
S31508009FF00122DB0002FA03F3AB42ECD9E9E7731E50
S3150800A0000F2BE8D816F0010AE5D1FB1F062BE2D87C
S3150800A010414B09EB05029A42DDD8404B4046C4E95C
S3150800A020003AC4F808A0C4F81CA015A925F0FAFC43
S3150800A030034600286CD12046159925F03DFB20469D
S3150800A04046EA074125F038FB2046249925F034FBDB
S3150800A0502946204625F030FB404603A900F0CAF8F9
S3150800A0600346002854D1204603A925F011FB404693
S3150800A07006A925F0D6FD0346002849D14FF0010868
S3150800A080204606A925F004FB259B2046099345F0A2
S3150800A0900053CDF8288001930B93239B0FA90C93AB
S3150800A0A0249B47F0005743F00052CDF834800E92B7
S3150800A0B0CDF83CB0CDF84080119725F0E9FA204656
S3150800A0C00CA925F0E5FA204609A925F0E1FA019B35
S3150800A0D0204612A9CDF84890CDF84C80149325F067
S3150800A0E0E1FA279B204615A946F000561593CDF8A8
S3150800A0F05880179625F0CCFA2046FFF737FD034619
S3150800A10030B101902A46514648462DF07AFF019B08
S3150800A110184619B0BDE8F08FFFFF032000000604BB
S3150800A1202DE9FF474FF000080E4617460446CDF8BE
S3150800A1300080002859D022B90025284604B0BDE879
S3150800A140F087002951D032F0030902F0030A1FD024
S3150800A1504FF0E063C0E9003801230191C0F8088098
S3150800A1600293C0F81C8049F0005301A9039325F017
S3150800A17099FA4946204625F09FFA2046FFF7F6FC4D
S3150800A180054628B14A46414630462DF03AFFD4E7FF
S3150800A190BAF1000FD0D04FF000084FF0E063C4E9E1
S3150800A1A000380123CDF804D00293114B204601A9AB
S3150800A1B0C4F80880C4F81C80039325F073FA0421B8
S3150800A1C0204625F079FA2046FFF7D0FC054608B167
S3150800A1D03A46D8E7009A4E44EB00013522FA03F3D3
S3150800A1E0AA4506F8013BF7D1A6E72125A5E700BF52
S3150800A1F00400002090B189B101234B60C368013B7C
S3150800A200012B08D88269064B1AB10A6000208B60B8
S3150800A2107047044AF9E74FF00053F7E721207047E3
S3150800A22008000020BCC50308012300F01F02A0F5A2
S3150800A23006200949A0F550604009934051F82020AE
S3150800A2401A4341F82020054951F8202022EA030242
S3150800A25041F82020704700BFD4260020B4260020ED
S3150800A2600122A0F506230D49A3F550635B0900F00A
S3150800A2701F00824051F82300024341F8232000239F
S3150800A2801946074A52F8040B0133082B0144F9D141
S3150800A29019B9202201482DF0B4BE7047B426002013
S3150800A2A0D42600202DE9F04FA9B003921E46044695
S3150800A2B00822339FCDE90401414021FA02F34B40BD
S3150800A2C0980702F1080218BF9B00202A1C44F4D103
S3150800A2D0744BE4B21B7804F5062404F55064002B8D
S3150800A2E03ED1FDF709FE054620B16FF0910029B071
S3150800A2F0BDE8F08F0146402208A82DF082FE4022D4
S3150800A300294618A82DF07DFEDFF8B481DFF8B49150
S3150800A310C3460BF10F0ACDF800A05B461022D9F808
S3150800A320000008A92AF0D1FC0023024608F110080B
S3150800A33008AD9A423DD1CDF800A05B461022D9F867
S3150800A340000018A92AF0CAFC4FF0000A834618AD87
S3150800A350D34538D1544B9845DAD10122514B1A705E
S3150800A3604FF480780025DFF860B1A4F50623A3F53D
S3150800A370506252095BF8221004F01F00C140C90759
S3150800A38034D44A4951F82220C240D20722D5A3F62E
S3150800A390FF43DBB2002D08BF254603F50624B8F1B6
S3150800A3A0010804F55064E0D1039BABB1A5B12C4676
S3150800A3B018E055F8040BCDE90623FFF735FF079B90
S3150800A3C0069A0133B5E755F8040BFFF749FF0AF17A
S3150800A3D0010ABDE7039B13B96FF08B0087E7002DD1
S3150800A3E018BF2C46349B00201C6080E7329B13B1B3
S3150800A3F00023329A13600FB100233B604FF0100A16
S3150800A400DFF8C090CDF800A0002332462146D9F8DF
S3150800A41000000EF0AFFA58BB32993268244BC1B926
S3150800A4209A4206D02146D9F800000EF00BFC002807
S3150800A430D2D1D6E90223DDE90410834208BF8A4255
S3150800A44026D0A4F50624A4F6FF44E4B204F50624AF
S3150800A450A5E732999A42C1F800A0E3D1002FE8D0C7
S3150800A4603B462146D9F8000018AA0EF0A7FB48B1CA
S3150800A470104B9842D6D0104B9842D3D00F4B9842E7
S3150800A480D7D032E7329A3B6812689B1A3B60D0E70E
S3150800A490039B002BA6D07368012BA3D16FF0840011
S3150800A4A025E700BF2247002000710800B4260020D7
S3150800A4B0105D175EFFDF00F011E000F0FEDF00F030
S3150800A4C0006D080020110020D42600202DE9F04F49
S3150800A4D087B08246894698461646DDF840B02AB1C6
S3150800A4E0002B4FD040F26C739A424ED8BBF1010F45
S3150800A4F04ED8002406F1100739460120059429F0A4
S3150800A50027F80546002846D021463A462DF079FD1B
S3150800A51005ABCDE9014300942B4601225046494636
S3150800A520FFF7C0FE044680B110F18C0F08BF6FF02C
S3150800A5308D043A46002128462DF063FD284629F069
S3150800A54017F8204607B0BDE8F08F144BC5E902A9F5
S3150800A5502B60C5F804B02EB13246414605F110000D
S3150800A5602DF075FD059E0E483B462A463146006885
S3150800A5700EF068F918B93046FFF756FED9E76FF0BE
S3150800A5809104D6E76FF08604DBE76FF09104D8E70D
S3150800A5906FF08504D5E76FF08C04D2E7105D175E7F
S3150800A5A0201100202DE9F0438DB08146DDE91478AD
S3150800A5B00E4615461C469BB1B8F1000F05D16FF043
S3150800A5C0860630460DB0BDE8F083002FF7D0B7F108
S3150800A5D0005FF4D3C3F1005303F580239F42EED8FE
S3150800A5E01022002108A82DF00CFD002207AB0293CB
S3150800A5F005AB019306AB31460093484608ABCDE957
S3150800A6000522FFF74FFE06460028DAD1059BA4B1BE
S3150800A610AB4215D853EA0504D1D1069B0B48C8F8B6
S3150800A620004000943A46079900682B440EF0A2F9B8
S3150800A630002818BF6FF09106C3E7AB42EDD2BEE71C
S3150800A6405B1B9C4228BF1C46E7E700BF2011002081
S3150800A65030B58DB00C4605461022002108A82DF00D
S3150800A660D0FC002207AB029305AB019306AB21464B
S3150800A6700093284608ABCDE90522FFF713FE0446EA
S3150800A680D8B9099B012B1BD0079D104B2946186882
S3150800A6900EF0D8FAB8B90122A5F506230C49A3F598
S3150800A6A050635B0905F01F00824051F823004240C1
S3150800A6B0284641F82320FFF7D3FD20460DB030BDCC
S3150800A6C06FF08404F9E76FF09104F6E72011002093
S3150800A6D0D426002030B5048804F4E043B3F5005FBF
S3150800A6E02ED1C4F30223042B2AD181F0AA6383F462
S3150800A6F0807333F47E132AD081F0AA6383F400733F
S3150800A70033F47E1323D00023144D21F47E11A9427D
S3150800A7101AD1B4F5105F17D1418821F0400080287E
S3150800A72002D0B1F5807F15D1191F0C2912D8DB0785
S3150800A73010D4073A072A34BF00206FF0860030BDD0
S3150800A74042F204039C42DED16FF08500F7E7C1F3BD
S3150800A7500543D9E76FF08600F1E700BF0001400521
S3150800A7602DE9F04F9BB08146DDE928761D468B46DC
S3150800A770DDF8A880DDF8BCA0099241B138B1249B68
S3150800A7802BB1269B0BB9279B0BB91FB94EB16FF09E
S3150800A79086047FE02EB1B8F1000FF8D02B9B002B72
S3150800A7A0F5D02C9B002BF2D0BAF1000FEFD02E9BE0
S3150800A7B0002BECD02D9B002BE9D0B9F8003003F420
S3150800A7C0E042B2F5005F69D1C3F30222042A65D1DB
S3150800A7D085F0AA6383F4807333F47E1306D085F07C
S3150800A7E0AA6383F4007333F47E1360D1C5F305437B
S3150800A7F029464846259ACAF80030FFF76BFF0446F3
S3150800A800002847D1014620220AA82DF0FAFB20226B
S3150800A810214612A82DF0F5FB0AA825F035F80028E0
S3150800A82055D159464846099A12AB00F0C3FA044670
S3150800A83000282FD12B9B9E424CD8DAF800302E9A4E
S3150800A840934247D8474508D2BB19984505D2394699
S3150800A850324640462DF0BBFB4746204B25F47E1575
S3150800A8609D4226D1DAF80030324606932D9B03978F
S3150800A870CDE90483279B12A90293269B0AA8019374
S3150800A880259B0093249BFFF7B7FA212819D0D8B93E
S3150800A8902C9B1E6020461BB0BDE8F08F42F20402D6
S3150800A8A0934204D185F0052383F480139BE70023A4
S3150800A8B09EE76FF0880400232C9A1360CAF80030CC
S3150800A8C0E8E76FF08604F6E76FF09204F3E76FF0B7
S3150800A8D09204DFE76FF08904DCE700BF000140055A
S3150800A8E02DE9F04F99B08A46DDE9266593469846E4
S3150800A8F081462A9F28B96FF08604204619B0BDE81C
S3150800A900F08F0029F7D0229B002BF4D0249B13B993
S3150800A910259B002BEFD10EB9002DECD117B92B9B37
S3150800A920002BE8D12C9B002BE5D0289B002BE2D0EE
S3150800A93041464846239AFFF7CDFE04460028DCD157
S3150800A940202201460DEB02002DF05BFB202221465A
S3150800A95010A82DF056FB08A824F096FF10B16FF04A
S3150800A9609204CAE75A465146484610AB00F022FA06
S3150800A97004460028C1D12B9B9D422AD8BE4208D244
S3150800A98073199F4205D231462A4638462DF01FFBD9
S3150800A9903E46144B28F47E1898451DD1299B2A4615
S3150800A9A00693289B0396CDE90473259B10A9029369
S3150800A9B0249B08A80193239B0093229BFFF7F2FA96
S3150800A9C0212898D02C280AD00028C8D12C9B1D6095
S3150800A9D093E76FF0890490E76FF088048DE76FF0CE
S3150800A9E094048AE700014005084B984202D0084BB8
S3150800A9F0984207D10B88B3F5105F0CBF00206FF0A3
S3150800AA00850070476FF08500704700BF004440041A
S3150800AA100013C0042DE9F04F99460023A3B09346CE
S3150800AA20DDE92E74DDE93068CDE90633CDE9083372
S3150800AA30CDE90A33CDE90C33DDF8C8A004900591B9
S3150800AA4029B96FF08605284623B0BDE8F08F002A9D
S3150800AA50F7D00FB9002CF4D12C9B13B92D9B002BE2
S3150800AA60EFD116B9B8F1000FEBD1BAF1000FE8D063
S3150800AA7048460499FFF7B8FF05460028E3D1014682
S3150800AA80202212A82DF0BDFA202229461AA82DF058
S3150800AA90B8FA12A824F0F8FE002878D1DDE90401F6
S3150800AAA05A461AAB00F086F905460028CBD11A9803
S3150800AAB025F093FA05460028C5D114B9CAF800004E
S3150800AAC0C1E7B7420AD23B199E4207D24445B8D8D5
S3150800AAD03946224630462DF07AFA37464E4B994586
S3150800AAE058D003F54073994515D04C4B994540F01D
S3150800AAF08C804445A5D814F00F02A2D12346CDE98F
S3150800AB0000761AA912A8FFF751F80746002834D18B
S3150800AB10CAF8004097E700234445CDE90E33CDE94E
S3150800AB2010338ED82D9B0D2B8BD101238DF8383001
S3150800AB302C9B0DF1390203F10C0153F8040B8B42DF
S3150800AB4042F8040BF9D11B78137001238DF84730AE
S3150800AB5014F00F0933D10F2CDAD906AB01930EABDB
S3150800AB60CDE90276009324F00F0200231AA912A851
S3150800AB70FFF774F80746002843D0424600213046BE
S3150800AB802DF03FFA0023012FCAF8003040D06FF0AD
S3150800AB90920558E744453FF654AF2D9B102B7FF49A
S3150800ABA050AF2C9B0DF1380C03F1100E6246186855
S3150800ABB05968083303C273459446F7D1C8E724F0A9
S3150800ABC00F033B440DF1280C03F1100E624618687A
S3150800ABD05968083303C273459446F7D10F2CBCD87D
S3150800ABE024F00F03334403930AAB029306AB019395
S3150800ABF00EAB00934A4600231AA912A8FFF72EF8AF
S3150800AC0083E7B9F1000F83D0EAE76FF085051AE705
S3150800AC106FF08B0517E700BF0010C004004440041E
S3150800AC202DE9F04F994600239FB09346DDE9286544
S3150800AC30DDE92A788A46CDE90633CDE90833CDE938
S3150800AC400A33CDE90C33059029B96FF086042046FE
S3150800AC501FB0BDE8F08F002AF7D00EB9002DF4D149
S3150800AC6017B9B8F1000FF0D12C9B002BEDD0484650
S3150800AC700599FFF7B9FE04460028E8D101462022C7
S3150800AC800EA82DF0BEF92022214616A82DF0B9F9F6
S3150800AC900EA824F0F9FD002844D15A4651460598D5
S3150800ACA016AB00F087F804460028D0D1169825F090
S3150800ACB094F904460028CAD115B92C9B1860C6E732
S3150800ACC0BE420AD273199F4207D24545BDD83146BE
S3150800ACD02A4638462DF07BF93E46344B994549D0ED
S3150800ACE003F54073994520D0314B994554D14545D4
S3150800ACF055D82B07A9D12B460122CDE9006716A9FD
S3150800AD000EA8FEF753FF2C9B06461D6000289ED012
S3150800AD104246002138462DF074F900232C9A012E5C
S3150800AD2013603FD06FF0920491E70D3D454536D844
S3150800AD3001238DF8283033460DF1290206F10C015E
S3150800AD4053F8040B8B4242F8040BF9D11B780D36E5
S3150800AD5013704FF48073ADF8363006AB01930AAB27
S3150800AD6000932A460023CDE9026716A90EA8FEF726
S3150800AD7075FFC8E7103D454511D833460DF1280C37
S3150800AD8006F1100E624618685968083303C27345FF
S3150800AD909446F7D11036E0E76FF0850457E76FF071
S3150800ADA0890454E76FF08B0451E700BF0010C00414
S3150800ADB000444004F0B5164600221C4643688DB090
S3150800ADC01B0A07460D46009204D0012B38D06FF0B7
S3150800ADD08B0071E022463146009625F025F90028B9
S3150800ADE06AD1F31CC4E9030523F003036361002E4B
S3150800ADF000F0A3802022002101A82DF002F9314697
S3150800AE00384601AA25F010F9002840F096802368F4
S3150800AE10019A9A4240F091806368029A9A4240F0F9
S3150800AE208C80A368039A9A4240F08780A369079AA0
S3150800AE309A4240F08280E369089A9A423CD07CE0C4
S3150800AE40032E7FD90B78012B40F08780497800299B
S3150800AE504BD0F7390829BAD801A353F821F000BF17
S3150800AE60C7AE000885AE0008CFAD0008BDAE000825
S3150800AE70CFAD0008E1AE0008CFAD0008D1AE00089E
S3150800AE80D9AE00084FF41056F825354F1C2200217C
S3150800AE9002A82DF0B6F803230197CDE904350396E9
S3150800AEA001AA09AD134603CBAB42206061601A467E
S3150800AEB004F10804F6D100200DB0F0BD10274FF0BC
S3150800AEC08076FA25E2E720274FF00076F725DDE7BA
S3150800AED0FE25234F234ED9E7FF25214F224ED5E7DE
S3150800AEE04FF41056FC251E4FD0E72B2E2AD92022C8
S3150800AEF020462DF086F805F110032361AB070DD027
S3150800AF0001AB05F1280C1A4628686968083503C29A
S3150800AF1065451346F7D1286801AD10606B68103E89
S3150800AF202360AB6869466360EB682046A36001232B
S3150800AF306661E36024F0B7FC38B120220021204680
S3150800AF402DF05FF86FF08600B6E7009E626906F19D
S3150800AF501C039A42BFF44BAFEFE76FF09100ABE7E3
S3150800AF6020000080004400020044000310B54FF49E
S3150800AF702F72002104462DF044F88023C4F88C3043
S3150800AF80054B04F19C00C4F88430012384F888300A
S3150800AF90BDE8104024F0DCB9C4C5030810B5D0F8E4
S3150800AFA0A0400A4684B925F0A2FB044610B900243D
S3150800AFB0204610BD2D2896BF064B074953F820108A
S3150800AFC0064825F0DAFCF3E7D0F8A4101046A047A7
S3150800AFD0EDE700BF6CC60308CAC50308B6ED03084B
S3150800AFE0F8B590F88060044616B100263046F8BDDC
S3150800AFF025F0B0F90028F8D1012384F8803094F8B8
S3150800B000883033B1D4F88410194884F8886025F05C
S3150800B010B4FC4FF0FF37D4F8B402421C1CD0C4F875
S3150800B020B47210F0FF0520D0204625F090F9294685
S3150800B030204600F0AFFB0028EDD0204625F095F914
S3150800B04094F888306BB1D4F88410094825F095FC3B
S3150800B050002384F8883004E025F074FC431CE0D112
S3150800B0600126002384F88030C0E70126D3E700BF15
S3150800B07070EA0308F8B50B780446302B0D461646D9
S3150800B08004D14B7803F0DF03582B11D0284F6A1EE2
S3150800B09012F8011F002934D128460A2223F082FE1D
S3150800B0A0202C03460D4631D1B1FA81F040091AE049
S3150800B0B04A1C1F4912F8013F8BB928462CF0D4FFC9
S3150800B0C01C4B02382340032B12D10134A4108442AE
S3150800B0D00AD1A87837288CBF0020012003E0CB5C72
S3150800B0E013F04400E6D1F8BDCCBF01200020FAE7F2
S3150800B0F0002CB8BF0334B0EBA40FD4BF0120002046
S3150800B100F1E77B5C13F00400C2D1ECE726B10843F3
S3150800B11002D0013B61F100050122A240013A1A4022
S3150800B120002D08BF9A420CBF01200020DBE700BFB4
S3150800B130174F040803000080F0B5037801467B2BFF
S3150800B14017D10646022400220B4F16F8015F7D2D03
S3150800B15005D10B5D6BB9D24302F0010008E07B5DB7
S3150800B16013F0440002D001320134EEE7202DFBD063
S3150800B170F0BD0020FCE700BF174F040870B506466F
S3150800B1800D462CF071FF0446304625F0F6FB044EBA
S3150800B190AC4200D370BD304625F0EFFB0134F7E72B
S3150800B1A0A8E103082DE9F84F044602216048FFF795
S3150800B1B0E5FF1E212068FFF7E1FF6368586825F060
S3150800B1C0DCFB5C4825F0D9FB67683B7BFD2B12D876
S3150800B1D0D7F808804FF0FF3440462CF045FF064666
S3150800B1E0DFF84C91DFF8A8A1DFF864B10C3717F83F
S3150800B1F0013BFF2B01D1BDE8F88F212B14D8212B59
S3150800B20014D8DFE803F0178C8884807C78741313CD
S3150800B210131313131313706C6864605C5854131378
S3150800B220131313131313504CFE2B34D006B10134E9
S3150800B230414D02E006B10134404D02214846FFF770
S3150800B2409DFF1E214846FFF799FF504625F095FBBE
S3150800B250594628462CF0F1FE3949002818BF2946D8
S3150800B260384825F08AFB3B78202B02D12B2025F085
S3150800B27078FB354825F081FB4EB118F804301F2BB2
S3150800B28005D018F804001F2801D0B4424BDB294822
S3150800B29025F073FBABE706B101342C4DCDE706B1BB
S3150800B2A001342B4DC9E7002EA1D001349FE706B122
S3150800B2B00134284DC1E706B10134274DBDE706B173
S3150800B2C00134264DB9E706B10134254DB5E706B177
S3150800B2D00134244DB1E706B10134234DADE706B17B
S3150800B2E00134224DA9E706B10134214DA5E706B17F
S3150800B2F00134204DA1E706B101341F4D9DE706B183
S3150800B30001341E4D99E706B101341D4D95E706B186
S3150800B31001341C4D91E706B101341B4D8DE706B18A
S3150800B32001341A4D89E725F01CFB0134A9E700BF53
S3150800B3309BC70308BCCB030831C703082BC7030800
S3150800B34082C7030870EA030837DC0308AF830308DB
S3150800B35039C7030842C7030849C7030854C703087F
S3150800B3605EC7030868C7030853C703085DC7030811
S3150800B37067C7030870C7030874C703087CC70308B0
S3150800B38025C703082CC703087BC7030824C7030877
S3150800B390D6F003082DE9F04F9BB005468B460024EE
S3150800B3A0009204932CF060FE249F049B05901C6079
S3150800B3B028463C600AAA09A925F000FB064658B9A2
S3150800B3C00A982CF051FE3446B146049B1860D5F80D
S3150800B3D09C300393039B1BB920461BB0BDE8F08F36
S3150800B3E0039B9B680193002B69D02E4416F8013BFA
S3150800B3F0202B12D000260C237343019A02EB030A72
S3150800B400D3580293002B55D0DDF82480C84551DB6C
S3150800B4109AF808302BB1721C35E03B6801333B6063
S3150800B420E4E73B68D5F894200299D21A049B1A607F
S3150800B4301AAB03EB890353F8403C184606932CF0E5
S3150800B440E8FD07900028E6D102982CF00DFEDAF800
S3150800B45004100346087BD7F800A0FE28079A16D1E1
S3150800B46008F1FF38C8452ED00B680698029201935A
S3150800B4702CF0FAFD0AF10103029A0344E95C21B1B2
S3150800B4803B6009F101091646B5E70133F6E7D5F839
S3150800B4909420A2EB0A029A42BDDC584606932CF089
S3150800B4A0E3FD069B03447B2B1DD958461E4A00998B
S3150800B4B023F07FFF2B46059A2A449A422AD1039BFA
S3150800B4C01B68039386E7D5F89420A2EB0A029A42F2
S3150800B4D0E3DDD1F8008058F80C2B82B9059B3B6058
S3150800B4E0049B1A60E6E75846029A009923F061FF22
S3150800B4F058460E4A0099013423F05BFF8BE75846FD
