:020000040800F2
:1060000000100020E578000819D800081DD8000805
:10601000FF30040821D8000829D80008FF30040800
:10602000FF300408FF300408FF300408FF30040884
:106030002DD80008DC620508FF300408FF30040892
:10604000E17D0008FF300408FF300408FF30040839
:10605000618A0008FF300408FF300408FF3004089C
:10606000FF3004083D6D0008716D000801750008DF
:10607000931F0408FF300408FF300408FF300408B1
:10608000FF300408FF300408FF300408FF30040824
:10609000FF30040825860008FF300408FF3004089C
:1060A000FF3004082588000801880008FF30040834
:1060B000FF300408ED98020879A302084BB30408E6
:1060C00047B30408219B020857B304084FB30408E0
:1060D00051A3020853B30408B9A3020825A4020877
:1060E000FF300408FF30040839D90008FF300408E5
:1060F000414A0408FF300408FF300408FF30040858
:10610000FF300408FF300408FF300408FF300408A3
:10611000FF300408FF300408FF300408FF30040893
:10612000FF300408FF300408FF300408FF30040883
:10613000FF300408FF300408FF300408FF30040873
:10614000FF300408FF300408FF300408554F0408EE
:1061500031890208FF3004084BB0040851B004082C
:10616000FF300408FF300408FF300408FF30040843
:106170002DE9F04F4FF002098BB01F4608AE0DF12C
:106180001F030393CDF808900196038904460093FA
:1061900083798A4690464188828840789DF858B035
:1061A00018F09AFA054650B10090A3880020628842
:1061B000434918F009FE28460BB0BDE8F08F9DF862
:1061C0001F0041F026FA38B12846A38862883D496D
:1061D00018F0FAFD8D25EEE74A4631469DF81F007E
:1061E00041F0E6F90346002864D0149A72B3BDF872
:1061F000542090425ED89DF81F900995A9F1410264
:10620000012AC1B22AD9BBF1000F40D118222E4871
:106210009FED297B02FB0A0420460A4608303146DE
:10622000059384ED027B48F0E9FB059BB8F1000F74
:1062300001D088F8009007B13B80149A002ABAD0A8
:106240001A46149808A948F0D9FBB4E79DF81F90A6
:106250000995A9F14102012AC1B215D801395FFAA5
:1062600081FEB4460021194A714506DB04210992DA
:10627000BBF1000F0BD109AEC8E71CF8010F0131CB
:106280005040134A4243EFE7BBF1000F07D02346CB
:106290004A463046CDF800A013F04AFE8BE70829A5
:1062A000B4D9B8F1000F01D088F80090002F82D047
:1062B0003B8080E701257EE7000000000000000031
:1062C000BFBA0508F0BA0508E0180020C59D1C817A
:1062D00093010001000000002DE9F04F93B0CDE9DB
:1062E0000A32DDE91C530E9353EC102BCDE9080163
:1062F000104619468DED060B1E9E3BF0B3F880B19B
:10630000DDE906014FF0FF32C54B3BF0D3F840B951
:10631000DDE906014FF0FF326FF480133BF0ACF87B
:1063200070B1DDE908019DED060B0E9B1E96CDE9CF
:106330001C53DDE90A3213B0BDE8F04F00F088B914
:106340000022DDE9060100233BF096F8002800F06A
:106350003381DDE906A303F1004BCBF30A5016F4B9
:106360008063A0F2FF3008BF06250F933AF0A8FD26
:106370009BA3D3E900233AF00DFE9BA3D3E90023AE
:106380003AF052FCCBF31304894644F07F51804627
:106390000022A44B504641F440113AF043FC94A330
:1063A000D3E900233AF0F6FD02460B464046494643
:1063B0003AF03AFC3BF088F804463AF081FD8EA3AF
:1063C000D3E90023804689463AF0E4FD0022964B4B
:1063D0003AF02AFC3BF078F889A3D3E9002307467A
:1063E000494640463AF0D6FD8046384689463AF05E
:1063F00067FD85A3D3E900233AF0CCFD02460B46A6
:10640000404649463AF00EFC02460B46CDE90C23C5
:106410003AF0C0FDDDE90C23804689461046194656
:106420003AF002FC0022CDE91001804B404649467B
:106430003AF0DAFE00227E4B3AF0F6FB02460B46BB
:10644000404649463AF0D0FE00227A4B3AF0ECFB47
:1064500002460B46404649463AF0C6FEDDE90C23AB
:106460008046894600204FF080413AF0DBFB02462F
:106470000B46404649463AF0D7FB02460B46DDE95B
:1064800010013AF0B1FE07F2FF3700226A4B3AF0F2
:10649000CBFB00223B053AF07DFD52465B46804631
:1064A00089463BF007F8002840F08980CDE90C8947
:1064B00004F16303C72B34BF0427052731051BD51F
:1064C00053A3D3E90023504659463AF0E9FF002888
:1064D0007FD051A3D3E90023504659463AF0CCFF70
:1064E000002876D00027A542C6BF2C1B04F1FF353B
:1064F00000253C4646F480660E9B9F422CBF4FF021
:106500000008A3EB070816F0020903D0002F18BFFC
:106510004FF000083CB1DDE90C23504659463AF0F3
:1065200063FE82468B46DDE90601002200233AF035
:10653000A3FF10B10BF100439B46DDE9080126F4EF
:106540000063CDE90183DDE90A324BEC10AB009525
:1065500000F07EF802465FB3DDE9091316F0200F64
:1065600000F10105089E0CBF65204520B047DDE91C
:1065700008010523002205930A23002CCDE90232ED
:1065800007F1FF374FEAD473B8BF64422A4601933C
:1065900004970A9B009443F01DFD0246B9F1000FD9
:1065A00006D00B9BC41A0B9B1A190E9BA34245D80D
:1065B000104613B0BDE8F08FDDE906ABCDE6002252
:1065C000404649461A4B3AF00FFE013CCDE90C011A
:1065D0006EE7002D90D00F9B002B8DD0013D8BE7F7
:1065E000FB799F501344D33FB3C8608B288AC63FC2
:1065F00061436F63A787D23F71A379094F930A4024
:106600001655B5BBB16B0240EF39FAFE422EE63F9C
:106610002D431CEBE2361A3F0000000080842E411F
:10662000FFFFEF7F0000F83F0000E03F00002C403C
:1066300000002440000018400000F03F2020DDE969
:106640000913089DA8470134ADE700BF0000000012
:106650002DE9F04F5BEC10AB97B0CDE90501DDE91A
:106660002057CDE90723504652465B465946229EA5
:106670003AF0F8FE70B90323CDE902760193B04BEE
:106680000093DDE90501DDE9072343F0C3FB17B003
:10669000BDE8F08F4FF0FF326FF48013504659463B
:1066A0003AF0EAFE28B10423CDE902760193A54B26
:1066B000E6E74FF0FF3250465946A34B3AF0FAFE58
:1066C00068B1A24A06F00403002B08BF0322A04BC6
:1066D0001CBF13460422CDE902760192D0E7504652
:1066E00093A3D3E9002359463AF0E4FE38B992A3C4
:1066F000D3E90023504659463AF0BEFE68B1DDE9C1
:106700000723DDE905014BEC10ABCDE9217620959F
:1067100017B0BDE8F04FFFF7DFBD00220023504661
:1067200059463AF0A9FE002800F09A805B4652468E
:10673000002000213AF076FA012382468B46099325
:1067400016F4806400F08E80092D40F28E800024C3
:1067500030210EABA5F109020134202C03F8011BF6
:10676000A5EB040901D09442F6D1594650463AF0BF
:10677000ABFE784B054603EBC90393ED007B8DED33
:106780000A7B3AF09DFB02460B46504659463AF0CA
:1067900049FADDE90A233AF0FDFB02460B46CDE952
:1067A0000C233AF0B9FE80463AF07AFB02460B46DB
:1067B000DDE90C013AF036FA02460B46CDE90C232E
:1067C0000022654B3AF076FE002851D008F101080E
:1067D00040463AF065FB02460B46DDE90A013AF015
:1067E00055FE10B14FF000080135B9F1000F50D13E
:1067F00028463AF065FB02460B46504659463AF0A9
:1068000011FA0022544B804689463AF035FE30B1E9
:10681000002240464946504B3AF04CFE10B1E80782
:1068200000D501350A210EAB1A19202C0AD095FB90
:10683000F1F001FB1055303502F8015B01340546DB
:106840000028F2D106F00302012A57D1002F55D0BB
:10685000099A12B916F00C0F00D0013F302245E022
:1068600009906DE74FF006097FE7A94600247CE711
:106870000022DDE90C01384B3AF0FEFD0028B4D1CE
:10688000B8F1000F02D018F0010FAED008F10108E6
:10689000ABE70A210EAB2344202C0ED0B8FBF1F05D
:1068A00001FB1082B8F1090F02F1300209F1FF3942
:1068B00004F1010403F8012B11D83021A1440EAAE0
:1068C000202CAFD0A14504F101030AD11C4609F1E7
:1068D00058030DEB03092E2309F8203CA2E780465C
:1068E000DAE7A1541C46EBE71A550134A74205D953
:1068F000202CF9D1CDE902760194C1E6202CF9D003
:10690000099A3AB12D2104F158026A4402F8201C78
:106910000134EFE7710704D504F158022B216A44D2
:10692000F4E73207E6D504F1580220216A44EDE786
:106930000000000065CDCD410000000065CDCDC157
:1069400007E205080BE20508FFFFEF7FFEE10508FF
:1069500003E2050810E205080000E03F0000000027
:1069600070B58EB02C22002103A848F021F86423D2
:106970004FF002320893CDE905230B2301218DF856
:106980003430514B8DF810101B88D80700F19580DA
:10699000084625F00BFB0A224C4B4D491A704FF468
:1069A00028734C48ADF8123023F0FAFD4A4C2060B1
:1069B00020B94FF41171494806F02CFE05212068DA
:1069C00044F092F820B14FF41571444806F022FECD
:1069D000206800F0A1FD424B2068196844F0FAF8E5
:1069E0000C2526F0FBF96843099026F0F7F9684377
:1069F0000DEB0501079020681DF0CAFE20B140F2A2
:106A00006921364806F006FE00223649206844F027
:106A10006AF920B140F26B21304806F0FBFD40F2EC
:106A20000353314D314E2B80052396F90000AB7096
:106A30007F2801D125F084FC3378EB7026F0CEF965
:106A400000EB80008000A88026F0C8F90023C00079
:106A50004FF0FF31E880AB604FF0FF3018A3D3E96F
:106A6000002325F0CBFC2249206844F014FD206867
:106A700002A944F012F920B14FF42971174806F029
:106A8000C9FD042220680DEB020144F091F80428AE
:106A900004D040F2A721114806F0BCFD01A9012055
:106AA00044F0B9FF06F0FCFE012026F037FC3CF074
:106AB0007AFE26F05DFC25F0FDFA0EB070BD00BF39
:106AC0000A0020FF420300000C530020AD5B0020B1
:106AD000D5BF0208FC120020DC4900203221060844
:106AE00024110020BB5B0020D0490020A01600200C
:106AF00075C102080348044B834202D0034B03B123
:106B000018477047841800208418002000000000F7
:106B1000064B0749C91A891048BF0131491003D0F3
:106B2000044B0BB101481847704700BF8418002080
:106B3000841800200000000010B5064C237843B9EB
:106B4000FFF7D8FF044B13B10448AFF300800123D3
:106B5000237010BD8E530020000000004025060861
:106B600008B5054B1BB105490548AFF30080BDE8EA
:106B70000840FFF7CDBF00BF00000000781C0020D8
:106B800040250608A3F5803A704700BF174B002B3D
:106B900008BF134B9D46FFF7F5FF00218B460F46BC
:106BA0001348144A121A47F003FF0E4B002B00D073
:106BB00098470D4B002B00D098470020002104007F
:106BC0000D000D48002802D00C48AFF300803BF0C8
:106BD000DBF8200029003BF046F93AF055FE00BFF3
:106BE000000008000000000000000000001000206D
:106BF00084180020305C002000000000000000002D
:106C000010B5002486B0094B684602938DF80C40FD
:106C100016F0B6FC024620B9054918F0D5F806B0C2
:106C200010BD2046034918F0CFF8F8E722220B14D4
:106C3000A0EA0408CFEA040808B5FFF7E1FF03481B
:106C40001BF01EFDBDE808403BF033B9B5F2040867
:106C500008B506F0B1FEFF2104480AF0D9FCBDE8F2
:106C600008404FF47A7128F0D1B900BF901C002081
:106C700010B5044670B9FF2307491A4607480AF0C1
:106C80008DFCFF2105480AF0C3FC2146BDE81040F9
:106C900028F0BCB910BD00BF516C0008901C00204A
:106CA0001FB54FF400703AF001FE0446094BD96954
:106CB0005A690391D968C2F5263202919968103257
:106CC0000191196A00911B6903491BF0EDFC2046F4
:106CD00004B010BDB81C0020F6EA040830B5134D0E
:106CE00089B001AC0FCD0FC495E8070084E8070018
:106CF0004FF002120E4B0F48C3F8382702F58032CE
:106D0000C3F83027142201A9C3F8202703F048FB59
:106D10004FF40072084BC3F880211A604FF4806270
:106D2000C3F880211A6009B030BD00BF80ED0408AF
:106D300000C0035000C0055000E100E0084B0949C5
:106D40005A6A0948D2B20B680A2AC25404D04F2B9F
:106D500002D801330B6070470022044B1A70704751
:106D600000C00550B41C00208F53002036160020B0
:106D70000A490B4B0A681B689A420A4B05D2501C01
:106D8000086009498A5CDA6370470121074A11707B
:106D9000DA6C22F00202DA64704700BFB01C0020F7
:106DA000B41C002000C005508F5300203616002070
:106DB00070B5054600240B4E284647F02CFEA04235
:106DC00009D80D2107483CF081FCBDE870400A213C
:106DD00004483CF07BBC295D30463CF077FC013434
:106DE000EAE700BF00C0055010B5314B04469B696F
:106DF000C0B0012B3BD12F48FFF7DAFF41F28830BA
:106E000001F0ECFD2C48FFF7D3FF47F2305001F0C2
:106E1000E5FD2A48FFF7CCFF47F2305001F0DEFDD8
:106E2000204647F0F8FD4FF480710346244A684637
:106E30001BF04EFC6846FFF7BBFF47F2305001F0F5
:106E4000CDFD2046FFF7B4FF47F2305001F0C6FDFC
:106E50001C48FFF7ADFF1C4801F0C0FD1B48FFF7C1
:106E6000A7FF4FF47A7001F0B9FD40B010BD022BBE
:106E700008D11048FFF79CFF41F2883001F0AEFDC9
:106E80001348C0E7032B08D10A48FFF791FF41F2EE
:106E9000883001F0A3FD0F48B5E7042BE5D1054884
:106EA000FFF786FF41F2883001F098FD0A48AAE713
:106EB000B81C002037EB040843EB0408B5EB0408CA
:106EC000DEEB0408F3EB0408A086010003EC0408E1
:106ED0000FEC040881EC0408F3EC040808B50D4835
:106EE000FFF766FF4FF47A7001F078FD0A48FFF76C
:106EF0005FFF4FF47A7001F071FD0848FFF758FF0B
:106F00004FF47A7001F06AFDFFF7CAFEBDE8084051
:106F1000FFF76ABF65ED040868ED040872ED040828
:106F200010B540F0D8FA022810D1FF2108480AF025
:106F30006FFB28F0FFF801200BF01EFFBDE81040AA
:106F4000034601210420034A0BF0AEBE10BD00BF72
:106F5000DC1C00209CED04081FB540F0BCFA0228A0
:106F600015D100900DF10E0300220321012040F005
:106F7000D5FDBDF80E30094863B13CF0B3F9FF21EF
:106F800007480AF045FB4FF47A6128F03FF805B056
:106F90005DF804FB3CF0A0F9F9E700BFF0500508EC
:106FA000FC1C00201FB501230022009306210DF1D7
:106FB0000F0340F0B3FD28B99DF80F30044823B10A
:106FC0003CF08AF905B05DF804FB3CF088F9F9E77C
:106FD000F0500508912808B504D1BDE808400948DB
:106FE0003CF07DB990280BD106483CF075F9FF21A3
:106FF00005480AF00DFBBDE80840002128F006B85E
:1070000008BD00BFF0500508DC1C0020FF2310B5B0
:107010000D4C1A4620460D490AF0C0FAFF230C49D0
:107020001A460C480AF0BAFAFF2120460AF0F0FA94
:10703000002127F0EBFF19F0EDF94FF611730380F3
:107040000123837010BD00BFFC1C0020596F000895
:10705000216F0008DC1C0020002301210420014ACC
:107060000BF022BEBFED04082DE9F04304460F46A5
:107070001546C3B00A8800206B4917F0A5FE002C06
:1070800040F0A580694E2846D6E90032013342F12E
:107090000002C6E9003227F073FD2246C3B207465C
:1070A0002946009402A827F02DFFDFF8D8910DF1B2
:1070B0000808A3B29F4256D8284627F061FD014632
:1070C00004465B481BF0DCFA0022E3B2294600923A
:1070D00022A827F017FF9DF88830002B4BD1554888
:1070E000621E0DF1890147F089FC53481BF0C8FA74
:1070F0009DF80830072B28D1504C4F481BF0C0FAA0
:10710000A1684F481BF0BCFA21694E481BF0B8FA41
:1071100021464D481BF0B4FA61694C481BF0B0FAA7
:10712000E1684B481BF0ACFAA1694A481BF0A8FA89
:10713000E16949481BF0A4FA216A48481BF0A0FA0B
:10714000D6E9002346481BF09BFAD6E90032083BFB
:10715000134305D1FFF7C2FE00220023C6E9002336
:1071600043B0BDE8F0834946002018F8012B17F022
:1071700045FE01349DE7013B062BB6D8DFE803F05E
:1071800004090E13181D22003648621E0DF18901F4
:10719000A9E73548621E0DF18901A4E73348621E54
:1071A0000DF189019FE73248621E0DF189019AE7CE
:1071B0003048621E0DF1890195E72F48621E0DF1DE
:1071C000890190E71D48621E0DF189018BE7022CB1
:1071D000C6D1284627F0D4FC7D28064606D90020D3
:1071E000264943B0BDE8F04317F0EEBD0024C3B21A
:1071F00022462946009422A827F084FE4FF61173F8
:107200003A899A42ACD120461D4917F0DDFD1D4F49
:1072100022ADA3B29E42A3D93946002015F8012B16
:1072200017F0ECFD0134F4E7DDED040888180020C8
:1072300009EE0408D01C002001EE0408B81C002050
:1072400010EE04081DEE04082AEE040837EE0408C8
:1072500046EE040853EE04085EEE04086EEE0408E1
:107260007CEE0408C01C0020C81C0020C41C0020A8
:10727000CC1C0020D81C0020D41C002087EE040861
:107280009FEE040803EE0408012108B516F054FA35
:10729000024620B9BDE80840044917F095BD00201A
:1072A000BDE80840024917F08FBD00BFB2EE0408E8
:1072B000F1EE04080D4B10B55B680446834206D11D
:1072C0003BF0C7FF012802D13C20FFF7DDFF20463D
:1072D0003BF0BFFF044640B9FF2105480AF098F98A
:1072E0002146BDE8104027F091BE10BDB810002027
:1072F000DC1C002030B50A4C0A4B22680A4D1A608B
:107300000A4B85B02B600A4B019305F007FB2B68F5
:10731000029001A9206803933DF009F805B030BD43
:10732000A8100020782B0020742B00209C10002037
:10733000C94F0508014B18683DF00DB8A810002092
:1073400038B505F0EBFA0446064D2B68D3F8B002C9
:1073500005F0D8FA28683DF011F82046BDE838401D
:1073600005F0D0BAA810002010B5274C02F03AF86A
:1073700002F0C8F9236F23F0070343F003032367E8
:107380003CF031F8214B00209B6ADB015EBF4FF4DB
:1073900080321F4B9A62D4F8203123F0070343F068
:1073A0000203C4F82031D4F8283123F0070343F056
:1073B0000203C4F82831D4F8403123F0030343F02A
:1073C0000203C4F84031D4F8603123F0030343F0E2
:1073D0000203C4F86031D4F8403223F0030343F0D1
:1073E0000203C4F84032D4F8003223F0070343F01C
:1073F0000203C4F80032D4F8083223F0070343F044
:107400000203C4F8083210BD008000500040005A4A
:107410000060005A30B5274D9DB008AC0FCD0FC4A9
:1074200095E80F0084E80F00262200210DF14600A8
:1074300047F0BEFA204B01241093562312930523E4
:107440001593062317930923199308231B930323EA
:107450000E2200210DF112008DF845408DF84430C8
:1074600047F0A6FA4FF4702C144B02A9CDE902C3E1
:107470000B238DF810300C238DF81130104B08AA17
:107480000593202306930F4B0F48009310AB8DF804
:107490001D4005F0BFFA04469DF81E304FF4E13060
:1074A000002B0CBF032100213BF01AFE20461DB02B
:1074B00030BD00BFB85005080000015B3C00015B17
:1074C000DF530020D81F002048200020022905D8C3
:1074D000034B1B68186808B1436A1847704700BF20
:1074E000AC10002008B50449044806F049FDBDE889
:1074F0000840FFF78FBF00BFB01000206C200020B5
:1075000001483DF013BB00BF48200020014B1A6A20
:10751000186810474820002008B51DF067F90022C0
:10752000014B1A7008BD00BFFF53002001483BF01B
:107530008BBE00BFD850050801483BF0CABE00BF53
:10754000F05005081FB5084903460868097902AAE2
:1075500002908DF80C10009205210022012009F004
:10756000B9F905B05DF804FB085105081FB50849D5
:1075700003460868097902AA02908DF80C1000925F
:1075800005214222012009F0A5F905B05DF804FBB0
:107590000E5105081FB5084903460868097902AA73
:1075A00002908DF80C10009205214022012009F074
:1075B00091F905B05DF804FB085105081FB5064AAE
:1075C0000346039203AA009201220821104609F003
:1075D00081F905B05DF804FB010121211FB5064AC0
:1075E0000346039203AA009208210022012009F019
:1075F00071F905B05DF804FB010221211FB50949AD
:1076000003460888897803AAADF80C008DF80E109F
:10761000009206214222012009F05CF905B05DF8D4
:1076200004FB00BF145105081FB503AA00920522F0
:107630000749034608888978ADF80C008DF80E10CC
:107640000120114609F046F905B05DF804FB00BFC2
:10765000185105081FB5084903460868097902AAA8
:1076600002908DF80C10009208210222012009F0EE
:1076700031F905B05DF804FB1C5105081FB5094937
:1076800003460888897803AAADF80C008DF80E101F
:10769000009208210622012009F01CF905B05DF8CE
:1076A00004FB00BF225105080A4601493AF038BEE2
:1076B000D46205080A4601493AF032BECB62050899
:1076C0000A4601493AF02CBEC06205080A46014943
:1076D0003AF026BEBB6205080A4601493AF020BED0
:1076E000B66205080A4601493AF01ABEB1620508B9
:1076F0000A4601493AF014BEA46205080A46014947
:107700003AF00EBE956205080A4601493AF008BEF5
:10771000906205080A4601493AF002BE87620508F0
:107720000A4601493AF0FCBD7E6205080A46014955
:107730003AF0F6BD756205080A4601493AF0F0BD17
:107740006E6205080A4601493AF0EABD636205081F
:107750000A4601493AF0E4BD586205080A46014963
:107760003AF0DEBD4D6205080A4601493AF0D8BD3F
:10777000446205080A4601493AF0D2BD396205085B
:107780000A4601493AF0CCBD366205080A4601496D
:107790003AF0C6BD336205080A4601493AF0C0BD59
:1077A000306205080A4601493AF0BABD2D62050863
:1077B0000A4601493AF0B4BD2A6205080A46014961
:1077C0003AF0AEBD256205080A4601493AF0A8BD67
:1077D000206205080A4601493AF0A2BD1762050871
:1077E0000A4601493AF09CBD0C6205080A46014967
:1077F0003AF096BD076205080A4601493AF090BD85
:10780000026205080A4601493AF08ABDFD61050891
:107810000A4601493AF084BDF86105080A46014963
:107820003AF07EBDED6105080A4601493AF078BD9F
:10783000E26105080A4601493AF072BDDB610508BC
:107840000A4601493AF06CBDD86105080A4601496B
:107850003AF066BDD56105080A4601493AF060BDB7
:10786000CA6105080A4601493AF05ABDC5610508D2
:107870000A4601493AF054BDBC6105080A4601496F
:107880003AF04EBDB36105080A4601493AF048BDD9
:10789000AE6105080A4601493AF042BDA3610508F8
:1078A00007B508203BF0FEFC02238DF80030054BA5
:1078B000684601933BF0D8FB082003B05DF804EB69
:1078C0003BF0FBBC006A18100348044A0449121A32
:1078D00092103BF015BC00BF3C2D06083C2D06085D
:1078E000305C002008B500F02FF8FFF7EDFF124BD9
:1078F00012498B4212D30020114B12498B4218D3EC
:10790000FFF744F9186850F82240586840F82240C0
:10791000013298688242F5D30C33EAE70022F8E797
:107920001C6844F8220001325C68A242F8D3083394
:10793000E4E70022F8E700BF4825060854250608BA
:1079400054250608542506084FF480414FF0FF30B7
:10795000114B124A10B59A60D3F8882042F4700295
:10796000C3F888200E4A91660E4901F50052106650
:107970000D4850660220C3F8D000BFF34F8FBFF30D
:107980006F8F01244FF440330848C0F88041D36022
:1079900004600B6110BD00BF00ED00E00060000856
:1079A0000090005000800044F7FF370000E100E045
:1079B000014B1868704700BFDC100020084B1B6F9C
:1079C00003F00703022B04D0032B05D0012B05D0B5
:1079D000FEE7044B18687047034BFBE7034870470A
:1079E00000800050DC100020E4100020002D310148
:1079F00008B5FFF7E3FF054B1B6FC3F303330133F8
:107A0000B0FBF3F0024B186008BD00BF00800050CF
:107A1000D81000200048704700B4C404014B186817
:107A2000704700BFE4100020054B1860054B1B6F2A
:107A300003F00703032B01D1FFF7DABF704700BF44
:107A4000E41000200080005000487047002D3101F4
:107A50004FF0B4439868C0F304400C280AD8DFE81C
:107A600000F00B0909090909072119091B1D1F004D
:107A70000F487047002070479B6803F04073B3F1D4
:107A8000807F11D0B3F1007F10D00A4A002B08BFCD
:107A900010467047084870470848704708487047C4
:107AA00008487047084870470848704708487047BA
:107AB000405DC60000093D00C0EA210180BA8C018A
:107AC0000048E801005A62020024F40080841E008D
:107AD00040420F00014B1868704700BFE0100020C3
:107AE000BFF34F8F0549064BCA6802F4E0621343A7
:107AF000CB60BFF34F8F00BFFDE700BF00ED00E09C
:107B00000400FA054FF000639B6A03F17842B2F576
:107B1000C04F03D21968064A914203D00023037074
:107B200083607047012202709A689B694260F7E7A0
:107B300007B0CD5E73B54F4B04461A781AB10222D6
:107B40001A7002B070BDCDE900220028F9D00126DC
:107B50001E703BF06CFC484D484B18601FF0B6FDA2
:107B60002B785BB900F070FE40B945480823454AC0
:107B7000454900681CF018F800B92E70434B5A6E46
:107B800062619B6E424AA3614FF480439366414B0E
:107B90005968E16140499960196E2160596E6160D0
:107BA000D3F87011A160196CE160596C21613B49F7
:107BB000086C1864496C5964012151661B6E9C0461
:107BC00041D5374AD368D807FCD4364B1A68531CC2
:107BD0003ED04FF480139340334A13664FF4007342
:107BE0000426314C266623663BF0B9FA01300DD0ED
:107BF0003BF0B5FA40F20113984207D04FF400531E
:107C000023664FF480432366C4F870610823264C32
:107C1000684623664FF4805323664FF00063236663
:107C20004FF4002301A963663BF07DFA009B2366B5
:107C3000019B63662B78002B83D0124B1A68226657
:107C40005B6863667DE7194AD368D907FCD4BCE753
:107C5000174B1B78002BC1D14FF400720C4B5A66A6
:107C600003F5A6235B68002BB8D14FF480120E4BAE
:107C70001A66B3E70154002002540020942000202B
:107C80001011002098200020007108000080005092
:107C9000009000500080004455CEAC0000C000545D
:107CA00000000440E8100020009000440000045050
:107CB0000054002070B5224D04462E78012E02D0CB
:107CC00001232B7070BD0028FCD03BF048FA013036
:107CD0000BD03BF044FA40F20113984205D0194B07
:107CE000194A5E66D368DE07FCD42268174B1A6611
:107CF00062685A66A268C3F87021E2681A64226951
:107D00005A64E269D00744BF00229A60104B1A6897
:107D1000013207D10F4A127822B90F494968C907C1
:107D200048BF1A6062690D4B5A66A2699A661FF0D5
:107D3000D5FC0B4B18683BF080FB0023C1E700BF6C
:107D400001540020009000400000044000800044E6
:107D5000E81000200054002000C0055000800050B2
:107D60009420002070B54FF00064A36A03F17842BC
:107D7000B2F5C04F24D21A68134B9A4220D1134E49
:107D8000337813F0FD0F02D00024204670BD104858
:107D9000FFF7D0FE01254FF480330E4A0E49C2F89A
:107DA0008051CB6015600D4A1361A36ADB69984767
:107DB00004460748FFF77EFF002CE6D13570E3E765
:107DC0004FF48174E1E700BF07B0CD5E005400209E
:107DD0007420002000E100E000A000440090004476
:107DE00013B5204B1B7803B9FEE700231E4CCDE9E9
:107DF00000336A4608231D4920681BF0D5FEF0B900
:107E00001B4AD2F84031D2F840211F2B4FF001031A
:107E100010D9203A9340019A1A43019208236A46E6
:107E2000124920681BF076FE4FF00053114A1A6089
:107E3000FFF756FE9340009A1A430092EEE70E4B6E
:107E40009842F1D10A4AD2F84031D2F840211F2B92
:107E50004FF0010385BF203A93409340019398BFB0
:107E60000093DBE70154002010110020007108008E
:107E7000008000440B020FF00BE000F070B5D0B1B1
:107E8000C9B10E4E431E013913F8014F2046325D31
:107E900002F00302012A11F8012F08BF04F12000AB
:107EA000B55C05F00305012D08BF2032801A01D111
:107EB000002CE9D170BD0120FCE700BF3D2406087D
:107EC0000346054A0549106803448B428CBF4FF0B6
:107ED000FF301360704700BFEC100020000004204A
:107EE00010B40A6808461378022B10D014213023EE
:107EF000147913FB041307495B585179CB40DB43DA
:107F000003F0010313705DF8044BFFF7D3B95DF87C
:107F1000044B704730C00350F7B504680121054693
:107F20003A2001F01DF8002301226179207901F047
:107F3000DBFF14223023217913FB01231D4A9958BA
:107F40006379D940C943A37901F00101022B217063
:107F500017D100F0BDFB184A2B466179207900F05B
:107F6000E1FBFF28024660790ED12A46124900F053
:107F700015FC0123024661792079CDE9003301F037
:107F800059FF002003B0F0BD0126277900230146E8
:107F90000096384602F010F82A460749607900F04A
:107FA000FDFB002361790246207900930196334658
:107FB000E5E700BF30C00350E17E00080268137897
:107FC000022B24D014213023107913FB0013104905
:107FD0005B585179CB40917903F00103012912D10B
:107FE000508843EA40034FF6E07063F03F039BB2D2
:107FF000834202D11170538070474FF6DF718B427C
:10800000F9D10021F6E711B983F00103137070472D
:1080100030C0035008B501213A2000F0A1FF012330
:1080200004220321002001F05FFF00203BF067FAEB
:108030000122354B3549C3F844244FF40022A3F5FF
:1080400050335A66324BD3F8FC20D20146D4D1F8D3
:10805000803023F0030343F00203C1F880304FF473
:10806000607000F097FF2A4B00F5D520D3F8F02080
:1080700000F2FC4042F00102C3F8F020D3F8FC20EB
:1080800042F08072C3F8FC20224AA3F55D431A60D7
:10809000214B0222B0FBF3F0204B01381861C3F8EA
:1080A000F0204FF48072C3F804234FF060431C4A61
:1080B0000020C3F8B02F1B4AC3F8802ED3F8002E3F
:1080C00042F48072C3F8002EFF2283F82020D3F8F8
:1080D000002E22F48072C3F8002E08BDD3F8FC20D5
:1080E00022F08072C3F8FC20D1F8802022F0030235
:1080F00042F00202C1F88020D3F8FC2042F08072E6
:10810000C3F8FC20ABE700BF00D003500080005054
:1081100000ED00E0FF030040F8590D00000004E00E
:1081200055CEACC5090001004FF06043D3F8802E56
:1081300030B5D20715D501240B4D8440D5F8FC206D
:1081400042F08072C5F8FC20D3F8002E2243C3F819
:10815000002E53F82020002AF0D003F82010002031
:1081600030BD1120FCE700BF00ED00E010B501229A
:1081700043780178847830209A40054B00FB013326
:108180001CB903F501531A6010BD03F58253FAE7D9
:1081900000C0035010B50122437801788478302064
:1081A0009A40054B00FB01331CB903F582531A605A
:1081B00010BD03F50153FAE700C0035001224378D4
:1081C00001789A4030235943014B5A50704700BF01
:1081D00040F00350102130230246007813FB0013B7
:1081E00005495B585178CB4003F0010093780BB9F7
:1081F00080F00100704700BF30C003502DE9F04F00
:108200009A46564B85B01B7806460F461546DDF854
:108210003C909DF844B0DDF85080002B00F0978032
:10822000072A00F296800E9B002B00F09280B9F195
:10823000000F00F08E80129BB3F5006F00F3898071
:10824000012803D1109B002B00F08380444B03EBEB
:1082500005131B7B002B7ED0424C10220021684668
:1082600046F0A6FB04EB45141022A7BB3946204676
:1082700046F09EFB43F210036380BBF1000F03D175
:10828000E37843F00303E370364A0E9B02EB451C90
:10829000CCE90193129B6901581E9DF84C30C0F344
:1082A0000A0003F003039B0643EA001E53582E48BE
:1082B000012E00EA03004EEA0003CDF800A053505F
:1082C00017D0B8F1000F2ED19CF8023068F30413D8
:1082D0008CF8023027E00021204646F069FB4FF47D
:1082E00044736380BBF1000FCED1E37843F03003D9
:1082F000C9E713230CF1100ECCF80C309CE80F00EA
:108300008EE80F006FF00301DCF81C20109B61F376
:108310009F02012FCCF81C20CCF8143003D1CCF8EC
:108320001890CCF8043000270D4A290102EB051300
:1083300042F80180159A28465A60694622469F6095
:108340005E7301F0B5FE384605B0BDE8F08F074812
:10835000FAE70748F8E70748F6E700BF03540020AC
:10836000A0210020A02000200F80FFF3028000F059
:10837000018000F0078000F038B5124B05461B78ED
:10838000DBB1E0B13BF053F80F4A00231146147BF8
:1083900054B92B6001251A0101EB03131D738C5096
:1083A0003BF04BF8204638BD0133082B02F1100298
:1083B000EDD13BF042F80548F5E70548F3E70548FD
:1083C000F1E700BF03540020A0210020048000F04A
:1083D000028000F0018000F038B53BF028F800235F
:1083E00005460B4A147B6CB90133082B02F11002CD
:1083F000F8D101F0FFFD074B28461C703BF01DF83B
:10840000204603E028463BF018F8034838BD00BF7B
:10841000A021002003540020058000F00D4B10B572
:108420001B78044693B1072812D83BF000F80A4B9A
:1084300003EB04131A7B2AB100241C733AF0FDFFEE
:10844000204610BD3AF0F9FF0448FAE70448F8E77F
:108450000448F6E703540020A0210020068000F025
:10846000028000F0018000F0154B13B5186800235E
:1084700001908DF804303AF0DAFF124B1C7824B1E9
:108480003AF0DBFF104802B010BD01221A703AF03A
:10849000D4FF0E4B01A81C731C7783F82C4083F883
:1084A0003C4083F84C4083F85C4083F86C4083F890
:1084B0007C4008238DF8073001F0C8FD2046E2E734
:1084C0002C63050803540020038000F0A021002045
:1084D0000A4A08B512785AB107280BD8084A02EBA5
:1084E00000131B7B43B1002101F0A2FD002008BD59
:1084F0000448FCE70448FAE70448F8E7035400207E
:10850000A0210020028000F0018000F0078000F030
:108510000A4A08B512785AB107280BD8084A02EB64
:1085200000131B7B43B1012101F082FD002008BD37
:108530000448FCE70448FAE70448F8E7035400203D
:10854000A0210020028000F0018000F0078000F0F0
:108550000A4A08B5127852B107280AD8084A02EB2D
:1085600000131B7B3BB101F0EFFD002008BD054867
:10857000FCE70548FAE70548F8E700BF0354002088
:10858000A0210020028000F0018000F0078000F0B0
:108590000D4B1B7893B1072812D889B10B4B03EB15
:1085A00000131B7B73B10A4B1A6D012383401342E6
:1085B00014BF0123002300200B707047054870474B
:1085C000054870470548704703540020A02100204B
:1085D00000000450028000F0018000F0078000F0ED
:1085E0000B4A10B512780C4662B107280CD859B165
:1085F000084A02EB00131B7B43B101F0B7FD20706A
:10860000002010BD0448FCE70448FAE70448F8E7F6
:1086100003540020A0210020028000F0018000F01F
:10862000078000F0184B2DE9F0411F6D5B6D1F4076
:1086300000D5FEE701260025144CDFF858803742AC
:1086400018D02368C8F85060A3B1A168284601314A
:108650006268A1609847637B012B0BD150B90C4B2A
:1086600003EB45131A7B60F341021A731A7F60F320
:1086700041021A770135082D4FEA460604F110042D
:10868000DDD1BDE8F08100BF00000450A021002032
:10869000A02000200020045070B5044601250B4E98
:1086A00004B970BD94FAA4F0B0FA80F005FA00F3B2
:1086B00006EB001224EA03045368002BF0D0117B70
:1086C00011B191689847EBE79847E9E7202200202D
:1086D00008B5192001F038F828B14FF00072074BA7
:1086E000C3F880211A601A2001F02EF828B14FF04B
:1086F0008062024BC3F880211A6008BD00E100E0EF
:1087000038B505460C463AF092FE0022044B03EBC6
:1087100005135C601A73BDE838403AF08EBE00BFA6
:1087200020220020F8B504460D4617461E463AF0B2
:108730007EFE1CB9052D1AD0FF2421E0012C05D1A5
:10874000012D21D0032DF7D1042410E0022C07D1F4
:10875000052D1BD0072D1BD0002DEDD1062406E0E2
:10876000032CE9D1022D15D0052DE5D10A240A49A3
:1087700004F1100301EB03110123C1E901760B732E
:108780003AF05BFE2046F8BD0324F0E70724EEE74D
:108790000824ECE70924EAE720220020F8B5054682
:1087A0000E4617463AF043FE134B2C46D3F82424CA
:1087B00005F0FC0122FA05F3DB0712D50023013393
:1087C000DBB2042B04D1FF243AF037FE2046F8BD7B
:1087D000EC1804F003040C4422FA04FC1CF0010F12
:1087E000EDD1FF2CF0D00122044B03EB0413C3E9BD
:1087F00001671A73E8E700BF00C003502022002081
:10880000074BD3F82404D3F8202403F50053104079
:1088100000F0553020F05020C3F82004FFF73CBF93
:1088200000C00350074BD3F82404D3F8202403F5E9
:108830000053104000F0AA3020F0A020C3F820041C
:10884000FFF72ABF00C00350024B1968024B18689B
:108850001BF086B8F01000201011002070B59400B5
:10886000224605460E4646F0F7F8431C0AD058B992
:1088700022463146284646F071F80028034808BFD2
:10888000002070BD0248FCE70248FAE710E000F063
:1088900021E000F024E000F010B5044646F0E0F8D6
:1088A000431C10D088B901F0EFFC234620F00300F0
:1088B0002044984201D1002010BD53F8042B01320E
:1088C000F7D00348F8E70348F6E70348F4E700BFAA
:1088D0000EE000F021E000F024E000F008B53AF0EE
:1088E00097FD014B186008BD102B0020014B186844
:1088F0003AF092BD102B002030B5012489B00F2230
:1089000000210DF1110046F053F80D2200216846B8
:108910008DF8104046F04CF802232146264C2420C6
:108920008DF8063000F01CFB6A46002120463AF024
:108930008CFE236B4FF6FF73E36100231F4DADF8F0
:108940001230204604A93AF03FFE4FF4806000F058
:1089500021FBBDF812300133B0FBF3F09BB2B3F54D
:10896000806F2860ADF8123002D2154B9842E8D8DB
:10897000002000F00FFB134C1349B4FBF0F42868FF
:1089800000258C462946E0FB04C1002360460F4ABF
:1089900038F0E2FD0E4B084A18600E4B1D709369CB
:1089A00023F01003936110220B4BC3F880211A604F
:1089B000284609B030BD00BF00800450182B0020AD
:1089C00080841E0000B0710B20A1070040420F0000
:1089D000142B00200454002000E100E0F7B5002132
:1089E0001A4B1B4C1D681B4AE5FB00410023204627
:1089F00038F0B2FD4FF6E9564FF6E757164C174DD3
:108A0000B04271F1000311D280B260B112494A6ADA
:108A100092B24B6A9BB2ADF80630BDF806309B1A95
:108A20009BB29842F5D8002003B0F0BD626A92B2C2
:108A3000636A9BB2ADF80430BDF804309B1A9BB258
:108A4000BB42F5D9401961F10001D9E7182B00208C
:108A500020A1070040420F00008004501802FFFFD1
:108A6000054B5B69DB0605D51022044B5A610122D8
:108A7000034B1A70704700BF0080045000A00450E0
:108A800004540020044BD3F88420D206FBD4D3F83E
:108A90008400C0F3811070470040005038B5104B7F
:108AA0000546D3F880300C4603F00303022B0BD0AD
:108AB000032B0DD0012B0FD1FEF780FF0E2305B144
:108AC000286004B1236038BDFEF7C2FF0723F6E734
:108AD000FEF76EFF0623F2E700231846EFE700BF1C
:108AE0000080005038B5184B0546D3F820010C46DD
:108AF00000F00700062823D8DFE800F0040A0E166D
:108B0000121A1E00012305B1286004B1236038BD8C
:108B1000FEF74EFF0523F6E7FEF780FF0323F2E79B
:108B2000FEF796FF0723EEE7FEF78EFF0223EAE744
:108B3000FEF73EFF0623E6E7FEF770FF0423E2E7B9
:108B400000231846DFE700BF0080005038B5174B00
:108B50000546D3F828310C4603F00703013B052BEB
:108B600020D8DFE803F003131B0F0B17FEF720FFDD
:108B7000052305B1286004B1236038BDFEF718FF56
:108B80000623F6E7FEF764FF0723F2E7FEF746FF4A
:108B90000323EEE7FEF742FF0423EAE7FEF754FF64
:108BA0000223E6E700231846E3E700BF00800050F9
:108BB00073B50D460021114B0191D3F88041064653
:108BC00004F00304022C13D0032C0CD0012C13D17D
:108BD00001A8FFF787FF10240EB1019B336005B198
:108BE0002C6002B070BDFEF733FF07240190F3E75D
:108BF000FEF72AFF0190EFE70C46EDE700800050FA
:108C0000002337B50193164B0546D3F820320C46A6
:108C100003F00703042B21D8DFE803F0030B111640
:108C20001B0001230DB1019A2A6004B1236003B037
:108C300030BD002101A8FFF789FF1223F2E7FEF7FC
:108C400007FF07230190EDE73AF067FA0A23019046
:108C5000E8E7FEF73FFF09230190E3E70023E1E7A0
:108C60000080005038B5104B0546D3F840310C4613
:108C700003F00303022B0BD0032B0DD0012B0FD1DC
:108C80003AF04BFA0A2305B1286004B1236038BDDD
:108C9000FEF720FF0923F6E73AF042FA0C23F2E749
:108CA00001230020EFE700BF00800050002337B50C
:108CB0000193164B0546D3F860320C4603F00703C8
:108CC000013B032B1FD8DFE803F0020E191400212B
:108CD00001A8FFF707FF10230DB1019A2A6004B124
:108CE000236003B030BD002101A8FFF7BBFF1123B3
:108CF000F2E7FEF7ADFE07230190EDE7FEF7A4FED5
:108D000002230190E8E70023E6E700BF008000505F
:108D1000002337B50193164B0546D3F894320C4621
:108D200003F00703013B032B1FD8DFE803F0020E1B
:108D30001914002101A8FFF7D5FE10230DB1019AE7
:108D40002A6004B1236003B030BD002101A8FFF701
:108D500089FF1123F2E7FEF77BFE07230190EDE781
:108D6000FEF772FE02230190E8E70023E6E700BF6A
:108D70000080005038B5144B0546D3F800020C466D
:108D800000F0070004281BD8DFE800F003090D11EC
:108D90001500012305B1286004B1236038BD3AF005
:108DA000BCF90A23F6E7FEF795FE0923F2E73AF04D
:108DB000B7F90C23EEE7FEF71BFE0F23800AE9E765
:108DC00000231846E6E700BF0080005038B5144B7A
:108DD0000546D3F808020C4600F0070004281BD80B
:108DE000DFE800F003090D111500012305B128602B
:108DF00004B1236038BD3AF090F90A23F6E7FEF794
:108E000069FE0923F2E73AF08BF90C23EEE7FEF74F
:108E1000EFFD0F23800AE9E700231846E6E700BFCD
:108E20000080005038B5104B0546D3F840320C4650
:108E300003F00303022B0BD0032B0DD0012B0FD11A
:108E40003AF06BF90A2305B1286004B1236038BDFC
:108E5000FEF740FE0923F6E73AF062F90C23F2E749
:108E600001230020EFE700BF0080005038B5104B11
:108E70000546D3F860310C4603F00303022B0BD0F8
:108E8000032B0DD0012B0FD13AF047F90A2305B17E
:108E9000286004B1236038BDFEF71CFE0923F6E705
:108EA0003AF03EF90C23F2E701230020EFE700BF80
:108EB00000800050B0F5207F1FD009D8B0F5007FAA
:108EC00015D003D868B1B0F5C07F0AD000200CE0FF
:108ED000B0F5607FFAD10B4BD3F88000C0F30110DE
:108EE00003E0084B186FC0F3033001307047054BA7
:108EF000D3F89000C0F30460F7E7024B186FC0F39B
:108F00008020F2E70080005002464FF48030104B82
:108F100010B598660020FFF7CDFF504341F671323F
:108F20000C4BDC69DA635A6804F4803422F4401292
:108F300059B90949884294BF002001200005024325
:108F40005A600CB10022DA6310BD0449F2E700BF99
:108F50000090005000000350005A6202002D3101C1
:108F6000430905D0012B0CD0022B084B18BF00235E
:108F700000F01F0039B103F58053012282401A60CE
:108F80007047034BF4E703F50053F6E768800050A1
:108F9000648000501FB5002180280446CDE90011EF
:108FA00000F0A58035D85E2846D85E2844D8DFE892
:108FB00000F0A243434343434343434343434343B8
:108FC0004343434343434343434343434343434371
:108FD0004343A2AAA2AABABABABABAAAC44DDA71CB
:108FE0004DAAAAAA4343434343434343AAAAAA79A7
:108FF000E4AA43434343434343434343434343BAC2
:10900000A2A2A2DF4D4DE9885EBF4343434343998B
:10901000A200B0F5B06F00F090802DD8B0F5207FA1
:1090200071D00CD8B0F5C07F65D0B0F5007F65D0A9
:10903000B0F5807F00F08680009804B010BDB0F5D8
:10904000607F6BD00DD8B0F5407FF5D1FEF7D0FC36
:1090500002464FF42070FFF72DFFB2FBF0F25208EA
:109060005AE0B0F5806F5ED0B0F5A06FE4D100217A
:109070006846FFF7C5FDDFE7B0F5106F78D016D86A
:10908000B0F5E06F79D00AD8B0F5C06F6BD0B0F50D
:10909000D06FD1D100216846FFF76CFECCE7B0F568
:1090A000F06FC9D100216846FFF7E0FEC4E7B0F5D4
:1090B000406F3DD013D8B0F5206F63D0B0F5286F66
:1090C000BAD10021324B0391D3F8703203F003037D
:1090D000012B02D103A8FFF7C5FD039B3CE0B0F5CF
:1090E000486FA9D100216846FFF712FEA4E7FEF7FA
:1090F00065FC0090A0E7FEF77BFCFAE7FEF75EFC5C
:109100000246204604E0FEF773FC02464FF420704E
:10911000FFF7D0FEB2FBF0F200928DE701A8FFF757
:10912000BDFC019AEDE700216846FFF7DBFC83E711
:1091300000216846FFF70AFD7EE700216846FFF739
:1091400037FD79E74FF0E02302911B695B0705D5F6
:10915000FEF74EFC0290029B00936DE703A902A864
:10916000FFF780FDF7E700216846FFF77BFD63E727
:1091700000216846FFF72AFE5EE700216846FFF7F8
:1091800051FE59E700216846FFF790FD54E700BF04
:109190000080005008B58020FFF7FCFE034B98428A
:1091A0009EBF4FF48032024B1A6708BD005A62021C
:1091B00000A000501FB503460020B3F5807F01904A
:1091C00000F0C18064D85D2B55D84C2B07D82D2BCF
:1091D00048D8232B2CD8019805B05DF804FB4D3BF3
:1091E000102BF8D801A252F823F000BF3D930008DD
:1091F000D7910008D7910008D7910008F392000892
:10920000D7910008D7910008C19300081193000876
:10921000B7920008B7930008D7910008D7910008CB
:10922000D7910008D7910008D7910008CB93000888
:10923000243B092BCFD801A252F823F03D9300081C
:109240003D9300083D9300083D9300083D930008BE
:10925000D791000833930008D7910008D3920008F3
:10926000739300083D2B7FD03E2BB4D1002001A981
:10927000FFF7D8FDAFE7802BADD1594B1B6F03F043
:109280000703013B032BA6D8DFE803F0514E858D81
:10929000B3F5F06F68D021D8B3F5B06F49D00FD8CF
:1092A000B3F5607F00F0838095D3B3F5806F45D030
:1092B000B3F5A06F8FD1002001A9FFF7A1FC8AE7C9
:1092C000B3F5D06F55D0B3F5E06FCFD0B3F5C06F25
:1092D00081D1002001A9FFF7C5FC7CE7B3F5206F21
:1092E0006ED00BD8B3F5086F48D0B3F5106F7FF48C
:1092F00072AF002001A9FFF769FD6CE7B3F5406F7D
:1093000059D0B3F5486F60D0B3F5286F7FF463AFE1
:10931000334BD3F8703203F00303012B5AD0022BE6
:109320000CBF1523002300E00523019353E702231C
:10933000FBE7002001A9FFF73BFC4CE7002001A957
:10934000FFF7D0FB47E74FF0E02302901B695B0774
:1093500005D5FEF74DFB0D230393039BE5E703A91A
:1093600002A8FFF77FFCF8E7002001A9FFF77EFDC8
:1093700031E7002001A9FFF7FDFC2CE7184BD3F8DB
:10938000003103F00303022B07D0032B09D0012B7C
:109390000BD1FEF743FB0323C7E7FEF79BFB092333
:1093A000C3E739F0B8FE0823BFE70123BDE701A9F1
:1093B000FFF774FB0FE7002001A9FFF7C7FB0AE7DF
:1093C000002001A9FFF772FC05E7002001A9FFF7C3
:1093D0009FFC00E7002103A8FFF744FC1123A4E74A
:1093E000008000504FF48012034B5A664FF48032D5
:1093F000024B9A62704700BF009000500050005A24
:1094000038B504468020FFF7D5FE032800F083809E
:109410004FF48012524B4FF0A0615A6645F60E028F
:10942000504BC3F88020504A91624FF4803102F5CE
:10943000805291629A6DD203FCD4996D11F08041F3
:10944000FBD1D4E90002120542EA0062E07B02434C
:10945000207B42EA0042607B42EA0032A07B42EA83
:1094600080121A619869D4E90452120642EA8562B0
:1094700000F000400243A07EE57E0243207E42EAE7
:109480000042607E42EA00229A611A6AE06922F094
:109490000F0242EA8502354D00283DD11A6294F848
:1094A0002420996A94F82000D200294042EA401210
:1094B0000A4394F8211042EA011242F480329A627F
:1094C0002B49284A936D31EA0303FBD14FF0807199
:1094D000254881621369A56823F4700343EA0553A4
:1094E00013614FF00043836194F822300BB9214B94
:1094F000996294F823303BB94FF480321D4B9A6245
:10950000184A936D5B00FCD494F825301BB1154BC1
:10951000194AC3F8802038BD024342F008020228ED
:109520001A6208D119614FF40852996113484FF437
:109530007F4139F036FF0B4994F822308A6A94F85B
:1095400020001B062A4043EA4013134394F82420CA
:1095500043EAC20394F8232043EA02438B62D3E731
:10956000009000500040005A0050005AC7FFFEFE15
:10957000030001000060005AF1A7FFFF3440005AC9
:10958000014B93F9000070473A160020F0B5D0E97E
:1095900001434FF400061A4A4178057856664FF4A5
:1095A000D156022702F5B8325662164E4F2977601F
:1095B0004FF0010728BF4F2106F5805677601669E6
:1095C000F603FCD441EA052151611B01417B43EACA
:1095D00004230B43017B43EA41039360C37B817BFC
:1095E0001B0143EA4113417C0B43017C43EA4103E5
:1095F0005360837C13B16FF4D1535362F0BD00BF4D
:109600000090005000100250014B1880704700BFBE
:10961000F2150020014B1880704700BFF0150020A4
:10962000B0F5207F10B50C465DD008D8B0F5007FAE
:109630004ED003D8C0B1B0F5C07F15D010BDB0F585
:10964000607FFBD12C4B4C1ED3F8FC202B4912F031
:10965000807F4FEA041427D1D1F8803023F0300303
:109660002343C1F88030E9E739F0AAFE39F0B6FEAD
:109670004FF48031224B214A1967136F013C23F4C8
:10968000704343EA04331367FEF7B2F90446FFF769
:10969000F9F9C0F10201204639F09AFE00F042F8D3
:1096A000BDE81040FFF776BDD3F8FC2022F08072B1
:1096B000C3F8FC20D1F8802022F030022243C1F808
:1096C0008020D3F8FC2042F08072C3F8FC20B5E77C
:1096D0000A4A4C1ED2F8903023F0F85343EA046350
:1096E000C2F89030AAE7054A4C1E136F23F480633A
:1096F00043EA84231367A1E700ED00E000800050F7
:109700000090005008B50121022000F085F839F0E2
:1097100057FE39F063FE4FF48032014B1A6708BDE3
:109720000090005008B54FF4C070FFF733FCBDE85F
:1097300008400449884294BF012102214FF420705F
:10974000FFF76EBF80F0FA02054B420953F8223052
:1097500000F01F0023FA00F0C04300F00100704742
:1097600000E100E0024A536B0342FCD1704700BFA6
:1097700000400950044A4178536F23F4407343EA90
:1097800001235367704700BF004000500C4A10B5DA
:109790001369044643F00403136104F04DFE39F0ED
:1097A0004FFE084B084AC3F8202430BF39F049FE69
:1097B00004F07CFE1CB9BDE81040FEF719B910BDDD
:1097C00000ED00E000E003500000FF0F0A4A10B572
:1097D0001369044643F004031361084B084AC3F8B5
:1097E000202404F029FE30BF04F060FE1CB9BDE85F
:1097F0001040FEF7FDB810BD00ED00E000E00350A2
:109800000000FF0F034A0179D36E23F030030B43AE
:10981000D366704700400050F8B504461C4BD3F89F
:109820008420D106FBD4D3F88430C3F381139C4247
:109830002CD0FEF7C3F8012C064602D1214639F0A0
:10984000C7FD39F0E5FD4FF00072124B07465A662E
:10985000204639F0F9FD4FF480630D4D621E9340B0
:109860002B676B6E9A0103D4D5F884309B060AD51A
:10987000384639F0D1FD022C08D13046BDE8F84019
:10988000002139F0A5BDD5F88430EAE7F8BD00BF66
:10989000004000500060005010B50C4608B9FEF7BB
:1098A0008DF8074B21461B783BB1064B984204D8F4
:1098B0000120BDE81040FFF7AFBF0220F9E700BF6D
:1098C00005540020005A62020278034B0121002057
:1098D0001A70FFF7E1BF00BF055400204FF00042AF
:1098E00038B5244B244C5A664AF6CD33656C014694
:1098F00005F00105236428BB0120FFF733FF6368EF
:10990000DB0715D51D4B586008461D4B226BD2074F
:109910000CD4984208D1072415B1174B194A1A6480
:1099200041F044F9204638BD0130EFE79842F2D0CB
:109930000024F1E70132236B13F0080305D08A42BB
:10994000F8D1E8E700220E49F5E78A42E3D020216A
:109950000A4A91620121A2F5805251600649084AE3
:10996000886A800603D49342D5D00133F8E7934246
:10997000DDE700BF00900050004009500060095032
:1099800040420F003254FFFF4FF0004238B5164BF3
:1099900001465A664AF6CD33144C154A656C236469
:1099A00043780B205B0043F00103D363FFF7DAFE3B
:1099B00063688A7823F4F87343EA02136360CA7811
:1099C0004B7943EA0223A3600A798B7943EA0223A5
:1099D00023610878FFF782FFEB0744BF054B236440
:1099E00041F0E4F8012038BD0090005000400950DB
:1099F000004000503254FFFF4FF00042124B70B550
:109A00005D6E03F580535A664AF6CD3304460F491E
:109A100080204E6C0B64FFF7A5FE0B6A23F00F034A
:109A20000F2C94BF234343F00F030B62F30744BF93
:109A3000074B0B64002DA2BF4FF00042054B5A6646
:109A400041F0B4F870BD00BF0080005000400950E4
:109A50003254FFFF00A000504FF00042104B70B591
:109A60005D6E03F580535A664AF6CD3304460D49C0
:109A700080204E6C0B64FFF775FE0B6A23F4F853DD
:109A800043EA04230B62F30744BF074B0B64002D2A
:109A9000A2BF4FF00042054B5A6641F087F870BDF7
:109AA00000800050004009503254FFFF00A00050D9
:109AB00010B539F0CEFC042300F5805100F50052BA
:109AC0000B6113610B6113610B6113610B61136116
:109AD000202341F2020103610023C36083604161DE
:109AE0004FF4A0218361836541620549C36103622C
:109AF0008362C36243630365D164036310BD00BF27
:109B0000FF3F0D0370B505461446084641B9354B75
:109B10009D4218D0344B9D4208BF5720FFF73AFAB8
:109B2000AB6813F0010F6B6830D0B0FBF4F4D807CA
:109B300004F1FF344FEA046407D42B6923F07F4318
:109B400023432B6170BD5620E8E72821284639F0D1
:109B50007CFCAB6C990715D1AB6CDA0714D4AB6CF9
:109B600013F0020F14BF06260026284639F071FCB8
:109B70002B69314623F07F4323432B61BDE87040BE
:109B800039F09EBC0526F0E70926EEE7AB6DDB0752
:109B9000AB6848BF640003F0E003402B1BD004D83F
:109BA000DBB1202BCED1082304E0602B17D0802B13
:109BB000C8D1012363434101B1FBF3F20B4B203ABF
:109BC000284603EAC202012139F03FFC2A63BDE8BE
:109BD000704039F03ABC0623ECE71023EAE704238F
:109BE000E8E700BF0000015B00000A50F8FF7F00BB
:109BF0002DE9F8439846436804460E4617461BB1C4
:109C000040F6FF7139F021FC2046FFF751FFF18942
:109C1000737B62690B43318A22F44C520B4322F06E
:109C20000F0213436361A268317E337B22F08042CE
:109C300022F0E2020B4313437269D6F808901343F3
:109C4000A360B9F1000F03D1A36843F00043A36000
:109C5000F069002874D0857A037A6D04A26845EA19
:109C600083556D4B13401D43838803F4C0431D434C
:109C7000437845EA8305437B45EAC305837B45EA90
:109C80000315837845EA8325A560D0E90432E568A9
:109C90001343624A2A401343827943EA8223C279FA
:109CA00043EA4223E36003785D4A012B14D1E36861
:109CB00043F00403E360944200F09280594B9C42CD
:109CC0000CBF01234FF0FF335B0103F1A04342F2CD
:109CD000944203F5703314E0032B7BD1E36843F027
:109CE0000403E360944279D04E4B9C420CBF0123A5
:109CF0004FF0FF3341F294425B0103F1A04303F5BF
:109D0000703302259D50437A04F5805293621BB153
:109D1000E36843F40063E360C37A5BB1E36843F450
:109D20000043E3603E4B9C425CD1037B3E4A03F020
:109D30000F035367636AC27B23F003031343636219
:109D40003FB197F8203004F58050002B54D0012308
:109D50000362B8F1000F27D004F5805011B14FF421
:109D6000004383652E4BB8F822109C4298F82130AE
:109D70004FD02C4A94420DD10122112B34BF012720
:109D800002272A4DB1F5006FAF5494BF0127022777
:109D9000274DAF54A26D0B4322F4F95222F01E025C
:109DA0001343A365012383650521204639F06BFB2E
:109DB000B9F1000F03D04A467168FFF7A3FE2046B1
:109DC000317839F07DFBA36CDB4313F4405FFAD1AB
:109DD000BDE8F883023B012B84D96CE7002389E7B7
:109DE000002371E70F4B9C4201BF037B0E4A03F037
:109DF0000F03C2F880309DE7E26997F8223097F8A8
:109E0000215022F009022B43134343F00103C361A5
:109E10009FE70022B1E700BFE39BBDFFFFF9F0879A
:109E20000000015B00000A5000900350085400201D
:109E300006540020072A2DE9F041154698464FF0B8
:109E4000030401F003072DD89600B44000FA06F28F
:109E500021461C4839F044FB21461B4807FA06F20C
:109E600039F03EFB194B1A499DF81800B8F1000F64
:109E700018BF1946012303FA05F50D60154B164965
:109E8000002818BF0B461D60144B9DF81C00C3F83A
:109E90002054103103F22443002818BF0B461D60E4
:109EA000BDE8F081A2F10806B600B44000FA06F25F
:109EB00021460B4839F014FB21460A4807FA06F2FE
:109EC000CEE700BF00C4035008C4035010D40350B1
:109ED00010E4035014E4035014D4035000E0035082
:109EE00004C403500CC403502DE9F04105460F464D
:109EF0001E4690464AB101233022194C8B4002FB8A
:109F0000004436B304F5825423600F21072F05EB7C
:109F1000450388BFA7F108044FEA0313114895BF12
:109F2000BC00A40004330C3308FA04F2A140184426
:109F300039F0D6FAB8F1000F09D101233021084ACF
:109F4000BB4001FB05223EB102F582521360BDE821
:109F5000F08104F50154D7E702F50152F6E700BF9E
:109F600000C0035030C00350104B0140D3F83024E0
:109F700022EA0002C3F83024D3F830241143C3F896
:109F80003014D3F82C240243C3F82C24084AD36E8F
:109F900003F03003202B1FBFD36E23F0300343F0B8
:109FA0001003D366034BC3F82004704700C003506E
:109FB0000040005000E0035038B514461D4603220F
:109FC00083F00103FFF790FF012004F110018840A6
:109FD00005FA01F1FFF7C8FF9DF81010034B044A82
:109FE000002918BF1346186038BD00BF24E4035091
:109FF00024D403504FF400120B4B10B5C3F880204B
:10A00000BFF34F8FBFF36F8F0024FF22074B214612
:10A010005C6520209A625C60FEF7A2FF2146BDE8E5
:10A0200010402120FEF79CBF00E100E0000004503A
:10A03000044A054B002908BF1346012282401A60DA
:10A04000704700BF401004504020045010B501215B
:10A0500004462020FEF784FF01212120FEF780FF27
:10A060000122114B5A60227812069A606178A27818
:10A0700042EA01429A61FF229A6200229A631A64BC
:10A080004FF000425A654FF0FF324FF4001103F5D4
:10A0900000531A65054AC2F88011E3781B01DBB250
:10A0A00082F81533116010BD0000045000E100E09B
:10A0B000F8B50125C3B2D1F800E091F80AC00F7BD2
:10A0C0000C469D40CB7A1D491D4E0D65810001F166
:10A0D000A04101F58821C1F804E04FF0300E0EFBDD
:10A0E00000601B05617B43EA0C4343EA475322F0BF
:10A0F00003020166C365026739F099F9736D2B435A
:10A100007365237A13B1336C2B433364637A13B1D1
:10A11000B36B2B43B3632279A37943EA0243074A23
:10A1200093616179E37943EA014306498B61044B0A
:10A1300055639D64BDE8F84039F07FB900200450B4
:10A14000000004500010045010B50124C0B2844037
:10A1500039F06DF9044B5A6D22EA04025A659C628B
:10A16000BDE8104039F069B90000045010B5012471
:10A17000C0B2844039F05BF9074BDA6A224208D159
:10A180005B6B9C430CBF0124002439F056F9204638
:10A1900010BD0024F9E700BF000004504FF48032E6
:10A1A000054B9A6641F6713203F51C33DA630122DE
:10A1B00003F50053DA6070470090005041F67132A9
:10A1C0000121064BDA6303F50052D1600022DA6305
:10A1D0004FF48032A3F518339A667047000003509D
:10A1E000013831289ABF024B185C0020704700BF2D
:10A1F0005163050838B5C2F30625044602F007028C
:10A2000041B942EA052242F440220634074B43F8A2
:10A21000242038BD1146284639F072F902462846F6
:10A22000FFF7DEFF163442EA0022EFE7008003501A
:10A23000014BD3F894007047004000504FF4803237
:10A24000064B5A6603F5E6239B69C3F385128270B9
:10A2500003F03F021B0B42700370704700900050E8
:10A2600040F6B732064B5B689BB293429FBF4FF4F8
:10A270007A72B3FBF2F3034AD05C88BF00207047C8
:10A280000080E00F836305080120034B9B680A33BD
:10A2900003F01F03984070470080E00F30B5154C65
:10A2A000A04219D004F58044A04217D004F58044A0
:10A2B000A04215D004F58044A04213D004F5804498
:10A2C000A04208D1042006250B4C6BB105FB001001
:10A2D00004EB8004A26430BD0020F4E70120F2E723
:10A2E0000220F0E70320EEE705FB0011120204EB69
:10A2F0008104EFE7008004500081035070B50546EB
:10A3000016461C4621B94FF42070FEF743FE014665
:10A31000402C1BD003D8DCB1202C1BD070BD602C8E
:10A32000FCD1042303FB06F2530803EB4113B3FBF8
:10A33000F2F3094A203B02EAC303AA6822F0600252
:10A34000AA60AA681443AC60EB61E7E70623E9E77B
:10A350001023E7E70823E5E7F8FF7F00012100F578
:10A36000805310B5596040F6AA6341F2050243617B
:10A370000023094C8360C365C26000F5005203618D
:10A38000C361C3649464054C8365A04204BF036544
:10A390004365516010BD00BFFFFF010000C00550C4
:10A3A00070B50D46FFF7DAFF012300F580567360A4
:10A3B000AB7C04461BB1836843F080438360EB7C35
:10A3C0005BB1244B9C4202BF2A7DA3F51033C3F836
:10A3D000C821E36D43F08003E3652A8A6B7B204646
:10A3E0001343EA891343E3602B7BD5E90112FFF79E
:10A3F00085FF6B7D1BB1A36843F48033A360AB7D05
:10A400001BB1A36843F40043A360EB7D2A7E1B07C6
:10A41000120502F4E00203F0E0431343A3656B7EF0
:10A420009A1E012A4FF0020209D80B49032BC1F8EA
:10A43000202709D10423F3652B78636170BD074998
:10A44000012BC1F82027F4E7042204F50053DA6554
:10A45000F2E700BF00C0055000D0035000E00350F9
:10A46000034B5A68D20702D5DA69002AF9D170473E
:10A4700000800A50054B9A689107FCD45A689207ED
:10A48000F9D4DA69002AF6D1704700BF00800A507B
:10A4900008B5FFF7E5FF0222014B1A6108BD00BFB6
:10A4A00000800A5008B5FFF7E5FF0122024B03F5D3
:10A4B00080514A601A6108BD00800A5008B5044BFB
:10A4C0005968012903D1FFF7E3FF024B596008BD2A
:10A4D00000800A5000A00A5010B5064CFFF7CAFFD2
:10A4E0006368012B03D1FFF7E9FFFFF7C3FF037890
:10A4F000E36010BD00800A50B8B94A680B7812B109
:10A50000127843EAC2034A7843EA42038A6812B1E6
:10A51000127843EA82138A7843EA8203CA6812B146
:10A52000127843EA4223014A9364704700800A503C
:10A5300008B9014B5964704700900A5008B9014BA3
:10A540005964704700A00A5008B9014B196470475C
:10A5500000A00A5010B9024B186C704700207047D9
:10A5600000800A5048B911B1012903D07047044B4B
:10A57000D86C7047024B186D70470020704700BFC1
:10A5800000800A5040B911B1012903D07047034B34
:10A59000DA647047014B1A65704700BF00800A50AB
:10A5A00010B9024B586D70470020704700800A5068
:10A5B00038B50446054D40F01EFB0FCC0FC594E89E
:10A5C000030085E80300002038BD00BF1C2B0020DD
:10A5D00047F6FF739A42F0B56FD002296FD8394B16
:10A5E0005B5C012B6BD8384DDF0005EBC30415F81D
:10A5F0003330A178012B13D10025E078401AA8420E
:10A6000002D80844C0B2F0BD431B6668A0EB5303F8
:10A6100036F913609642D4BF1D4603F1FF30EEE7D2
:10A6200060680028EFD0B0F90040944204DBB0F934
:10A6300002409442B8BF144683883D44FF2B19BFA3
:10A64000C8224FF0280CB0F90620B0F908C0A2EBE0
:10A6500004030CBF0126002693FBFCF333446E7801
:10A660001BB29E4201DD002B01DA731E1BB24FF4B8
:10A670007A7C01339BB2071D5D1E2DB24FEAC50ED9
:10A6800000EBC505EA88AD689E4214FB025222EA3F
:10A69000E27202F15C02B2FBFCF204DD37F83350E7
:10A6A00001339542E8D200EB0E039888904228BF10
:10A6B0001046884238BF0846A4E7FF20A3E70020E1
:10A6C000A1E700BF866305081C2B00200229F0B516
:10A6D00055D82C4B585C012851D82B4C04EBC001A9
:10A6E00014F830004B6801280FD1C8788C7890425C
:10A6F00094BFC4EB0001C4EB0201001BCAB282424A
:10A70000C8BF002233F91200F0BD002B37D0887883
:10A71000904202D3B3F90200F6E7CC78B3F9000017
:10A720009442F1D94C789988013CA1F1FF0671421D
:10A7300003F10405E4B2714103F10C07CEB2B44257
:10A7400016D805EBC1014FF47A756A43B1F902409E
:10A750004968521A04EBD47102EB610292FBF4F2E5
:10A760009042D1DBB3F902009042CDDC10B2CBE7CE
:10A7700037F831C04E1C9445E3D33146DEE7034839
:10A78000C2E700BF866305081C2B00200080FFFF86
:10A790000148FFF70DBF00BF8C6305087FB502229B
:10A7A000084B0949CDE901234FF00073CDE90313AC
:10A7B000072301A94FF0FF30059340F07BFA07B063
:10A7C0005DF804FB006A18000002060008B5B0B18D
:10A7D0004FF480620B4B9A6638F0D2FE4FF09843EC
:10A7E0005A6CD202FCD54FF48062586D064B10F4BF
:10A7F00070209A6604D0BDE8084038F0E6BF2120FA
:10A8000008BD00BF0090005000A000502DE9F041AD
:10A810008CB08846DDE912761D460446002847D0F4
:10A82000002945D0002F43D0002E41D013F00F0354
:10A830003ED120482049A360002A08BF0146E361B9
:10A84000C4E90013404609A939F0BBF868BB2046AB
:10A85000099938F08CFE2946204638F088FE694672
:10A86000404600F0F7FA00BB6946204638F06BFE20
:10A87000404603A939F0A4F9B8B9204603A938F035
:10A8800062FE06970127204645F0005506A9079766
:10A89000089538F058FE204609A909960A970B95A5
:10A8A00038F05BFE2046FFF791FF0CB0BDE8F08169
:10A8B0002120FAE700010004000101042DE9F04F16
:10A8C00097B0894690461F460546DDF880A00028CF
:10A8D00000F0BB80002900F0B8803AB1229B002B29
:10A8E00000F0B380239B002B00F0AF80BAF1000F83
:10A8F00000F0AB80219B002B00F0A78067B13C6883
:10A900000026229B43440293464507D307B13C608F
:10A91000002017B0BDE8F08F3C46F1E75CB1229B08
:10A92000219A9B5D125D01345340239A04F00F0479
:10A9300093550136E8E7A8EB060BBBF10F0F58D98A
:10A94000434B4846C5E90034AC60EC6113A939F0CB
:10A9500038F80028DDD1284613992BF00F0B38F07A
:10A9600006FE5946284638F002FE484604A900F083
:10A9700071FA0028CDD1284604A938F0E4FD4846F4
:10A9800007A939F01DF90028C3D1284607A938F0D6
:10A99000DAFD012322992F4ACDF828A00B930C92BF
:10A9A0008A190D9228464BF000520AA90E93039281
:10A9B0000F9238F0C8FD28460DA938F0C4FD239B3E
:10A9C000039A99190123109111931292214A284652
:10A9D00010A9CDF84CA01493159238F0BEFD28466E
:10A9E00013A938F0BAFD2846FFF7F0FE5E440028B0
:10A9F0008FD1229B03EB060B239B1E44029B5B45DE
:10AA000001D1464680E7ACB9219B2246CDE900A39F
:10AA1000494610232846FFF7F9FE00287FF479AF56
:10AA20000AF1100212F8013D0133DBB213700BB9C9
:10AA30005245F7D1219A1BF8013B125D0134534076
:10AA400006F8013B04F00F04D8E7212061E700BFBE
:10AA500003030004100000202DE9F04F97B0894651
:10AA600015469A460446209FDDF88880DDF890B0B0
:10AA7000269E002800F09D80002900F09A80002E7C
:10AA800040F08A80002B00F09480B8F1000F0AD0CB
:10AA9000219B002B00F08D80002A40F09F80F10761
:10AAA00000F1878002E0002A40F08580FB1F062B22
:10AAB0007FD8524B0BEB05029A427AD80023504ABA
:10AAC0004846C4E90023A360E36113A938F079FF85
:10AAD00000285ED12046139938F049FD204646EA09
:10AAE000074138F044FD4146204638F040FD2946F4
:10AAF000204638F03CFD484601A900F0ABF900289B
:10AB000047D1204601A938F01EFD484604A939F076
:10AB100057F800283DD14FF00109204604A938F02C
:10AB200012FD239B45F000550793219BCDF8209003
:10AB3000204609950DA90A9347F0005748F00053A5
:10AB4000CDF82C900C93CDF834A0CDF838900F9719
:10AB500038F0F9FC20460AA938F0F5FC204607A990
:10AB600038F0F1FC259B204610A946F00056CDF8A0
:10AB700040B0CDF8449012951393CDF850901596AF
:10AB800038F0EBFC204613A938F0E7FC2046FFF72D
:10AB90001DFE17B0BDE8F08F259B53B1BAF1000F31
:10ABA00007D0B8F1000F01D0219B13B1B5B9022E27
:10ABB00020D12120EDE7239B002BFAD0BBF1000F21
:10ABC000F7D0C7F10F03DBB2032B3FF668AF0122CA
:10ABD000DB0002FA03F3AB42EBD9E8E7239B002B3F
:10ABE000E7D0BBF1000FE4D0C7F10F03DBB2032BBA
:10ABF000DDD8ECE7102E7FF652AFDAE7FFFF032037
:10AC0000000005042DE9F04F99B0884615469B4693
:10AC10000446229FDDF89890289E60B159B1279B89
:10AC20004BB1BBF1000F06D0249B0BB1239B13B19A
:10AC30001DB9022E13D121239AE0259B002BFAD0B7
:10AC4000B9F1000FF7D0C7F10F03DBB2032BF0D837
:10AC50000122DB0002FA03F3AB42ECD9E9E7731EF1
:10AC60000F2BE8D816F0010AE5D1FB1F062BE2D81E
:10AC7000414B09EB05029A42DDD8404B4046C4E9FE
:10AC8000003AC4F808A0C4F81CA015A938F099FE31
:10AC9000034600286CD12046159938F068FC204600
:10ACA00046EA074138F063FC2046249938F05FFCFF
:10ACB0002946204638F05BFC404603A900F0CAF85C
:10ACC0000346002854D1204603A938F03CFC4046F6
:10ACD00006A938F075FF0346002849D14FF0010856
:10ACE000204606A938F02FFC259B2046099345F005
:10ACF0000053CDF8288001930B93239B0FA90C934D
:10AD0000249B47F0005743F00052CDF834800E9258
:10AD1000CDF83CB0CDF84080119738F014FC2046B7
:10AD20000CA938F010FC204609A938F00CFC019B56
:10AD3000204612A9CDF84890CDF84C80149338F0F5
:10AD40000CFC279B204615A946F000561593CDF81C
:10AD50005880179638F0F7FB2046FFF737FD03467B
:10AD600030B101902A465146484643F021FE019BEE
:10AD7000184619B0BDE8F08FFFFF0320000006045D
:10AD80002DE9FF474FF000080E4617460446CDF860
:10AD90000080002859D022B90025284604B0BDE81B
:10ADA000F087002951D032F0030902F0030A1FD0C6
:10ADB0004FF0E063C0E9003801230191C0F808803A
:10ADC0000293C0F81C8049F0005301A9039338F0A6
:10ADD000C4FB4946204638F0CAFB2046FFF7F6FC84
:10ADE000054628B14A464146304643F0E1FDD4E7E6
:10ADF000BAF1000FD0D04FF000084FF0E063C4E983
:10AE000000380123CDF804D00293114B204601A94C
:10AE1000C4F80880C4F81C80039338F09EFB04211A
:10AE2000204638F0A4FB2046FFF7D0FC054608B1C9
:10AE30003A46D8E7009A4E44EB00013522FA03F374
:10AE4000AA4506F8013BF7D1A6E72125A5E700BFF3
:10AE50000400002090B189B101234B60C368013B1D
:10AE6000012B08D88269064B1AB10A6000208B605A
:10AE70007047044AF9E74FF00053F7E72120704785
:10AE800008000020E4690508012300F01F02A0F576
:10AE900006200949A0F550604009934051F8202050
:10AEA0001A4341F82020054951F8202022EA0302E4
:10AEB00041F82020704700BF542B0020342B002085
:10AEC0000122A0F506230D49A3F550635B0900F0AC
:10AED0001F00824051F82300024341F82320002341
:10AEE0001946074A52F8040B0133082B0144F9D1E3
:10AEF00019B92022014843F05BBD7047342B002074
:10AF0000542B00202DE9F04FA9B003921E460446B1
:10AF10000822339FCDE90401414021FA02F34B405E
:10AF2000980702F1080218BF9B00202A1C44F4D1A4
:10AF3000744BE4B21B7804F5062404F55064002B2E
:10AF40003ED1FDF781FC054620B16FF0910029B09C
:10AF5000BDE8F08F0146402208A843F029FD4022B9
:10AF6000294618A843F024FDDFF8B481DFF8B49136
:10AF7000C3460BF10F0ACDF800A05B461022D9F8AA
:10AF8000000008A93FF0FFFB0023024608F110086B
:10AF900008AD9A423DD1CDF800A05B461022D9F809
:10AFA000000018A93FF0F8FB4FF0000A834618ADE7
:10AFB000D34538D1544B9845DAD10122514B1A7000
:10AFC0004FF480780025DFF860B1A4F50623A3F5DF
:10AFD000506252095BF8221004F01F00C140C907FB
:10AFE00034D44A4951F82220C240D20722D5A3F6D0
:10AFF000FF43DBB2002D08BF254603F50624B8F158
:10B00000010804F55064E0D1039BABB1A5B12C4617
:10B0100018E055F8040BCDE90623FFF735FF079B31
:10B02000069A0133B5E755F8040BFFF749FF0AF11B
:10B03000010ABDE7039B13B96FF08B0087E7002D72
:10B0400018BF2C46349B00201C6080E7329B13B154
:10B050000023329A13600FB100233B604FF0100AB7
:10B06000DFF8C090CDF800A0002332462146D9F881
:10B07000000018F0E7FD58BB32993268244BC1B983
:10B080009A4206D02146D9F8000018F043FF002864
:10B09000D2D1D6E90223DDE90410834208BF8A42F7
:10B0A00026D0A4F50624A4F6FF44E4B204F5062451
:10B0B000A5E732999A42C1F800A0E3D1002FE8D069
:10B0C0003B462146D9F8000018AA18F0DFFE48B127
:10B0D000104B9842D6D0104B9842D3D00F4B984289
:10B0E000D7D032E7329A3B6812689B1A3B60D0E7B0
:10B0F000039B002BA6D07368012BA3D16FF08400B3
:10B1000025E700BF0A54002000710800342B0020FE
:10B11000105D175EFFDF00F011E000F0FEDF00F0D1
:10B12000006D080010110020542B00202DE9F04F75
:10B1300087B08246894698461646DDF840B02AB167
:10B14000002B4FD040F26C739A424ED8BBF1010FE6
:10B150004ED8002406F110073946012005943DF031
:10B1600051FF0546002846D021463A4643F020FCD0
:10B1700005ABCDE9014300942B46012250464946D8
:10B18000FFF7C0FE044680B110F18C0F08BF6FF0CE
:10B190008D043A460021284643F00AFC28463DF03B
:10B1A00041FF204607B0BDE8F08F144BC5E902A966
:10B1B0002B60C5F804B02EB13246414605F11000AF
:10B1C00043F01CFC059E0E483B462A46314600686B
:10B1D00018F0A0FC18B93046FFF756FED9E76FF01B
:10B1E0009104D6E76FF08604DBE76FF09104D8E7AF
:10B1F0006FF08504D5E76FF08C04D2E7105D175E21
:10B20000101100202DE9F0438DB08146DDE914785E
:10B210000E4615461C469BB1B8F1000F05D16FF0E4
:10B22000860630460DB0BDE8F083002FF7D0B7F1A9
:10B23000005FF4D3C3F1005303F580239F42EED89F
:10B240001022002108A843F0B3FB002207AB0293B1
:10B2500005AB019306AB31460093484608ABCDE9F8
:10B260000522FFF74FFE06460028DAD1059BA4B160
:10B27000AB4215D853EA0504D1D1069B0B48C8F858
:10B28000004000943A46079900682B4418F0DAFC15
:10B29000002818BF6FF09106C3E7AB42EDD2BEE7BE
:10B2A0005B1B9C4228BF1C46E7E700BF1011002033
:10B2B00030B58DB00C4605461022002108A843F099
:10B2C00077FB002207AB029305AB019306AB214647
:10B2D0000093284608ABCDE90522FFF713FE04468C
:10B2E000D8B9099B012B1BD0079D104B2946186824
:10B2F00018F010FEB8B90122A5F506230C49A3F5F4
:10B3000050635B0905F01F00824051F82300424062
:10B31000284641F82320FFF7D3FD20460DB030BD6D
:10B320006FF08404F9E76FF09104F6E71011002044
:10B33000542B002030B5048804F4E043B3F5005FDB
:10B340002ED1C4F30223042B2AD181F0AA6383F403
:10B35000807333F47E132AD081F0AA6383F40073E0
:10B3600033F47E1323D00023144D21F47E11A9421F
:10B370001AD1B4F5105F17D1418821F04000802820
:10B3800002D0B1F5807F15D1191F0C2912D8DB0727
:10B3900010D4073A072A34BF00206FF0860030BD72
:10B3A00042F204039C42DED16FF08500F7E7C1F35F
:10B3B0000543D9E76FF08600F1E700BF00014005C3
:10B3C0002DE9F04F9BB08146DDE928761D468B467E
:10B3D000DDF8A880DDF8BCA0099241B138B1249B0A
:10B3E0002BB1269B0BB9279B0BB91FB94EB16FF040
:10B3F00086047FE02EB1B8F1000FF8D02B9B002B14
:10B40000F5D02C9B002BF2D0BAF1000FEFD02E9B81
:10B41000002BECD02D9B002BE9D0B9F8003003F4C1
:10B42000E042B2F5005F69D1C3F30222042A65D17C
:10B4300085F0AA6383F4807333F47E1306D085F01D
:10B44000AA6383F4007333F47E1360D1C5F305431C
:10B4500029464846259ACAF80030FFF76BFF044694
:10B46000002847D1014620220AA843F0A1FA202251
:10B47000214612A843F09CFA0AA838F0D4F9002813
:10B4800055D159464846099A12AB00F0C3FA044612
:10B4900000282FD12B9B9E424CD8DAF800302E9AF0
:10B4A000934247D8474508D2BB19984505D239463B
:10B4B0003246404643F062FA4746204B25F47E155B
:10B4C0009D4226D1DAF80030324606932D9B039731
:10B4D000CDE90483279B12A90293269B0AA8019316
:10B4E000259B0093249BFFF7B7FA212819D0D8B9E0
:10B4F0002C9B1E6020461BB0BDE8F08F42F2040278
:10B50000934204D185F0052383F480139BE7002345
:10B510009EE76FF0880400232C9A1360CAF800306D
:10B52000E8E76FF08604F6E76FF09204F3E76FF058
:10B530009204DFE76FF08904DCE700BF00014005FB
:10B540002DE9F04F99B08A46DDE926659346984685
:10B5500081462A9F28B96FF08604204619B0BDE8BD
:10B56000F08F0029F7D0229B002BF4D0249B13B935
:10B57000259B002BEFD10EB9002DECD117B92B9BD9
:10B58000002BE8D12C9B002BE5D0289B002BE2D090
:10B5900041464846239AFFF7CDFE04460028DCD1F9
:10B5A000202201460DEB020043F002FA2022214640
:10B5B00010A843F0FDF908A838F035F910B16FF084
:10B5C0009204CAE75A465146484610AB00F022FAA8
:10B5D00004460028C1D12B9B9D422AD8BE4208D2E6
:10B5E00073199F4205D231462A46384643F0C6F9C0
:10B5F0003E46144B28F47E1898451DD1299B2A46B7
:10B600000693289B0396CDE90473259B10A902930A
:10B61000249B08A80193239B0093229BFFF7F2FA37
:10B62000212898D02C280AD00028C8D12C9B1D6036
:10B6300093E76FF0890490E76FF088048DE76FF06F
:10B6400094048AE700014005084B984202D0084B59
:10B65000984207D10B88B3F5105F0CBF00206FF044
:10B66000850070476FF08500704700BF00444004BC
:10B670000013C0042DE9F04F99460023A3B0934670
:10B68000DDE92E74DDE93068CDE90633CDE9083314
:10B69000CDE90A33CDE90C33DDF8C8A0049005915B
:10B6A00029B96FF08605284623B0BDE8F08F002A3F
:10B6B000F7D00FB9002CF4D12C9B13B92D9B002B84
:10B6C000EFD116B9B8F1000FEBD1BAF1000FE8D005
:10B6D00048460499FFF7B8FF05460028E3D1014624
:10B6E000202212A843F064F9202229461AA843F028
:10B6F0005FF912A838F097F8002878D1DDE9040145
:10B700005A461AAB00F086F905460028CBD11A98A4
:10B7100038F032FC05460028C5D114B9CAF800003B
:10B72000C1E7B7420AD23B199E4207D24445B8D876
:10B7300039462246304643F021F937464E4B99456B
:10B7400058D003F54073994515D04C4B994540F0BE
:10B750008C804445A5D814F00F02A2D12346CDE930
:10B7600000761AA912A8FFF751F80746002834D12D
:10B77000CAF8004097E700234445CDE90E33CDE9F0
:10B7800010338ED82D9B0D2B8BD101238DF83830A3
:10B790002C9B0DF1390203F10C0153F8040B8B4281
:10B7A00042F8040BF9D11B78137001238DF8473050
:10B7B00014F00F0933D10F2CDAD906AB01930EAB7D
:10B7C000CDE90276009324F00F0200231AA912A8F3
:10B7D000FFF774F80746002843D042460021304660
:10B7E00043F0E6F80023012FCAF8003040D06FF094
:10B7F000920558E744453FF654AF2D9B102B7FF43C
:10B8000050AF2C9B0DF1380C03F1100E62461868F6
:10B810005968083303C273459446F7D1C8E724F04A
:10B820000F033B440DF1280C03F1100E624618681B
:10B830005968083303C273459446F7D10F2CBCD81E
:10B8400024F00F03334403930AAB029306AB019336
:10B850000EAB00934A4600231AA912A8FFF72EF850
:10B8600083E7B9F1000F83D0EAE76FF085051AE7A7
:10B870006FF08B0517E700BF0010C00400444004C0
:10B880002DE9F04F994600239FB09346DDE92865E6
:10B89000DDE92A788A46CDE90633CDE90833CDE9DA
:10B8A0000A33CDE90C33059029B96FF086042046A0
:10B8B0001FB0BDE8F08F002AF7D00EB9002DF4D1EB
:10B8C00017B9B8F1000FF0D12C9B002BEDD04846F2
:10B8D0000599FFF7B9FE04460028E8D10146202269
:10B8E0000EA843F065F82022214616A843F060F820
:10B8F0000EA837F098FF002844D15A4651460598C3
:10B9000016AB00F087F804460028D0D1169838F01E
:10B9100033FB04460028CAD115B92C9B1860C6E732
:10B92000BE420AD273199F4207D24545BDD831465F
:10B930002A46384643F022F83E46344B994549D0D2
:10B9400003F54073994520D0314B994554D1454575
:10B9500055D82B07A9D12B460122CDE9006716A99E
:10B960000EA8FEF753FF2C9B06461D6000289ED0B4
:10B9700042460021384643F01BF800232C9A012E42
:10B9800013603FD06FF0920491E70D3D454536D8E6
:10B9900001238DF8283033460DF1290206F10C0100
:10B9A00053F8040B8B4242F8040BF9D11B780D3687
:10B9B00013704FF48073ADF8363006AB01930AABC9
:10B9C00000932A460023CDE9026716A90EA8FEF7C8
:10B9D00075FFC8E7103D454511D833460DF1280CD9
:10B9E00006F1100E624618685968083303C27345A1
:10B9F0009446F7D11036E0E76FF0850457E76FF013
:10BA0000890454E76FF08B0451E700BF0010C004B5
:10BA100000444004F0B5164600221C4643688DB031
:10BA20001B0A07460D46009204D0012B38D06FF058
:10BA30008B0071E022463146009638F0C4FA0028A7
:10BA40006AD1F31CC4E9030523F003036361002EEC
:10BA500000F0A3802022002101A842F0A9FF314676
:10BA6000384601AA38F0AFFA002840F096802368E3
:10BA7000019A9A4240F091806368029A9A4240F09B
:10BA80008C80A368039A9A4240F08780A369079A42
:10BA90009A4240F08280E369089A9A423CD07CE066
:10BAA000032E7FD90B78012B40F08780497800293D
:10BAB0004BD0F7390829BAD801A353F821F000BFB9
:10BAC00027BB0008E5BA00082FBA00081DBB000814
:10BAD0002FBA000841BB00082FBA000831BB00088C
