:020000040800F2
:10600000001000201973000835D0000839D00008AE
:10601000673503083DD0000845D000086735030800
:1060200067350308673503086735030867350308D4
:1060300049D00008D41F04086735030867350308F2
:1060400015780008673503086735030867350308C6
:1060500067350308673503086735030867350308A4
:10606000673503086735030867350308457100087D
:1060700033320308673503086735030867350308BB
:106080006735030867350308673503086735030874
:10609000673503085980000867350308673503082A
:1060A0006735030859820008358200086735030800
:1060B00067350308610B0208ED15020835A00308D7
:1060C00031A00308950D020841A0030839A0030878
:1060D000C51502083DA003082D16020899160208EE
:1060E000673503086735030855D10008673503088D
:1060F000D14D030867350308673503086735030882
:1061000067350308673503086735030867350308F3
:1061100067350308673503086735030867350308E3
:1061200067350308673503086735030867350308D3
:1061300067350308673503086735030867350308C3
:10614000673503086735030867350308A35203085A
:10615000A5FB0108673503087F9D0308859D03089B
:106160006735030867350308673503086735030893
:10617000013800D0FCE770472DE9F04F93B0CDE92E
:106180000A32DDE91C530E9353EC102BCDE90801C4
:10619000104619468DED060B1E9E2CF0ADFA80B10F
:1061A000DDE906014FF0FF32C54B2CF0CDFA40B9C6
:1061B000DDE906014FF0FF326FF480132CF0A6FAF0
:1061C00070B1DDE908019DED060B0E9B1E96CDE931
:1061D0001C53DDE90A3213B0BDE8F04F00F088B976
:1061E0000022DDE9060100232CF090FA002800F0DF
:1061F0003381DDE906A303F1004BCBF30A5016F41B
:106200008063A0F2FF3008BF06250F932BF0A2FF9A
:106210009BA3D3E900232CF007F89BA3D3E9002329
:106220002BF04CFECBF31304894644F07F5180469B
:106230000022A44B504641F440112BF03DFE94A3A4
:10624000D3E900232BF0F0FF02460B4640464946B7
:106250002BF034FE2CF082FA04462BF07BFF8EA349
:10626000D3E90023804689462BF0DEFF0022964BBF
:106270002BF024FE2CF072FA89A3D3E90023074601
:10628000494640462BF0D0FF8046384689462BF0E1
:1062900061FF85A3D3E900232BF0C6FF02460B461E
:1062A000404649462BF008FE02460B46CDE90C233A
:1062B0002BF0BAFFDDE90C238046894610461946CB
:1062C0002BF0FCFD0022CDE91001804B40464946F1
:1062D0002CF0D4F800227E4B2BF0F0FD02460B464A
:1062E000404649462CF0CAF800227A4B2BF0E6FDD6
:1062F00002460B46404649462CF0C0F8DDE90C2327
:106300008046894600204FF080412BF0D5FD0246A3
:106310000B46404649462BF0D1FD02460B46DDE9CF
:1063200010012CF0ABF807F2FF3700226A4B2BF07C
:10633000C5FD00223B052BF077FF52465B468046A9
:1063400089462CF001FA002840F08980CDE90C89BB
:1063500004F16303C72B34BF0427052731051BD580
:1063600053A3D3E90023504659462CF0E3F9002803
:106370007FD051A3D3E90023504659462CF0C6F9EB
:10638000002876D00027A542C6BF2C1B04F1FF359C
:1063900000253C4646F480660E9B9F422CBF4FF082
:1063A0000008A3EB070816F0020903D0002F18BF5E
:1063B0004FF000083CB1DDE90C23504659462CF063
:1063C0005DF882468B46DDE90601002200232CF0B1
:1063D0009DF910B10BF100439B46DDE9080126F45D
:1063E0000063CDE90183DDE90A324BEC10AB009587
:1063F00000F07EF802465FB3DDE9091316F0200FC6
:1064000000F10105089E0CBF65204520B047DDE97D
:1064100008010523002205930A23002CCDE902324E
:1064200007F1FF374FEAD473B8BF64422A4601939D
:1064300004970A9B009432F06DFC0246B9F1000FFC
:1064400006D00B9BC41A0B9B1A190E9BA34245D86E
:10645000104613B0BDE8F08FDDE906ABCDE60022B3
:10646000404649461A4B2CF009F8013CCDE90C0195
:106470006EE7002D90D00F9B002B8DD0013D8BE758
:10648000FB799F501344D33FB3C8608B288AC63F23
:1064900061436F63A787D23F71A379094F930A4085
:1064A0001655B5BBB16B0240EF39FAFE422EE63FFE
:1064B0002D431CEBE2361A3F0000000080842E4181
:1064C000FFFFEF7F0000F83F0000E03F00002C409E
:1064D00000002440000018400000F03F2020DDE9CB
:1064E0000913089DA8470134ADE700BF0000000074
:1064F0002DE9F04F5BEC10AB97B0CDE90501DDE97C
:106500002057CDE90723504652465B465946229E06
:106510002CF0F2F870B90323CDE902760193B04B69
:106520000093DDE90501DDE9072332F013FB17B025
:10653000BDE8F08F4FF0FF326FF48013504659469C
:106540002CF0E4F828B10423CDE902760193A54BA1
:10655000E6E74FF0FF3250465946A34B2CF0F4F8D3
:1065600068B1A24A06F00403002B08BF0322A04B27
:106570001CBF13460422CDE902760192D0E75046B3
:1065800093A3D3E9002359462CF0DEF838B992A33F
:10659000D3E90023504659462CF0B8F868B1DDE93C
:1065A0000723DDE905014BEC10ABCDE92176209501
:1065B00017B0BDE8F04FFFF7DFBD002200235046C3
:1065C00059462CF0A3F8002800F09A805B4652460A
:1065D000002000212BF070FC012382468B4609939A
:1065E00016F4806400F08E80092D40F28E80002425
:1065F00030210EABA5F109020134202C03F8011B58
:10660000A5EB040901D09442F6D1594650462CF02E
:10661000A5F8784B054603EBC90393ED007B8DEDA0
:106620000A7B2BF097FD02460B46504659462BF04D
:1066300043FCDDE90A232BF0F7FD02460B46CDE9CA
:106640000C232CF0B3F880462BF074FD02460B4669
:10665000DDE90C012BF030FC02460B46CDE90C23A2
:106660000022654B2CF070F8002851D008F1010889
:1066700040462BF05FFD02460B46DDE90A012CF097
:106680004FF810B14FF000080135B9F1000F50D1AB
:1066900028462BF05FFD02460B46504659462BF02C
:1066A0000BFC0022544B804689462CF02FF830B169
:1066B000002240464946504B2CF046F810B1E807FE
:1066C00000D501350A210EAB1A19202C0AD095FBF2
:1066D000F1F001FB1055303502F8015B013405463D
:1066E0000028F2D106F00302012A57D1002F55D01D
:1066F000099A12B916F00C0F00D0013F302245E084
:1067000009906DE74FF006097FE7A94600247CE772
:106710000022DDE90C01384B2BF0F8FF0028B4D142
:10672000B8F1000F02D018F0010FAED008F1010847
:10673000ABE70A210EAB2344202C0ED0B8FBF1F0BE
:1067400001FB1082B8F1090F02F1300209F1FF39A3
:1067500004F1010403F8012B11D83021A1440EAA41
:10676000202CAFD0A14504F101030AD11C4609F148
:1067700058030DEB03092E2309F8203CA2E78046BD
:10678000DAE7A1541C46EBE71A550134A74205D9B4
:10679000202CF9D1CDE902760194C1E6202CF9D064
:1067A000099A3AB12D2104F158026A4402F8201CDA
:1067B0000134EFE7710704D504F158022B216A4434
:1067C000F4E73207E6D504F1580220216A44EDE7E8
:1067D0000000000065CDCD410000000065CDCDC1B9
:1067E000577A04085B7A0408FFFFEF7F4E7A0408AB
:1067F000537A0408607A04080000E03F00000000BB
:1068000070B58EB02C22002103A836F096FA6423CE
:106810004FF002320893CDE905230B2301218DF8B7
:106820003430514B8DF810101B88D80700F195803B
:1068300008461BF069F80A224C4B4D491A704FF478
:1068400028734C48ADF812301AF0E4FF4A4C20602F
:1068500020B94FF41171494806F0EAFA0521206881
:1068600032F0E2FF20B14FF41571444806F0E0FA2F
:10687000206800F073FC424B2068196833F044F83C
:106880000C251BF065FF684309901BF061FF68430E
:106890000DEB05010790206815F04AF920B140F290
:1068A0006921364806F0C4FA00223649206833F0E0
:1068B000B4F820B140F26B21304806F0B9FA40F24A
:1068C0000353314D314E2B80052396F90000AB70F8
:1068D0007F2801D11BF0E2F93378EB701BF038FF11
:1068E00000EB80008000A8801BF032FF0023C00076
:1068F0004FF0FF31E880AB604FF0FF3018A3D3E9D1
:1069000000231BF029FA2249206833F027FC206875
:1069100002A933F05CF820B14FF42971174806F052
:1069200087FA042220680DEB020132F0DBFF042815
:1069300004D040F2A721114806F07AFA01A90120FB
:1069400033F0CCFC06F0BAFB01201CF0A1F92DF0CD
:10695000F2F81CF0C7F91BF05BF80EB070BD00BF79
:106960000A0020FF420300006C4A002079520020F8
:10697000311902088C120020584300207CB9040809
:106980002C110020875200204C430020D9150020F4
:10699000D11A02080348044B834202D0034B03B1CF
:1069A00018477047B8170020B817002000000000F3
:1069B000064B0749C91A891048BF0131491003D055
:1069C000044B0BB101481847704700BFB8170020AF
:1069D000B81700200000000010B5064C237843B91A
:1069E000FFF7D8FF044B13B10448AFF30080012335
:1069F000237010BDEE4A0020000000007CBD04089A
:106A000008B5054B1BB105490548AFF30080BDE84B
:106A10000840FFF7CDBF00BF00000000401A002073
:106A20007CBD0408A3F5803A704700BF174B002BCC
:106A300008BF134B9D46FFF7F5FF00218B460F461D
:106A40001348144A121A36F078F90E4B002B00D076
:106A500098470D4B002B00D09847002000210400E0
:106A60000D000D48002802D00C48AFF300802CF038
:106A7000D5FA200029002CF076FB2CF04FF800BF4F
:106A800000000800000000000000000000100020CE
:106A9000B8170020F05200200000000000000000A5
:106AA00007B501200BF020FA01210090034B0420D0
:106AB000034A0AF097FD03B05DF804FBA8D203086F
:106AC00020CE03081FB52FF0D5FC02281F4C1FD184
:106AD0000FF046FB0123247803719C420DD106F090
:106AE00001FB14230022C0B201930090082120462C
:106AF000CDE90222164B0FF0B5FA30F05EF8012115
:106B00000090144B0420144A0AF06CFD04B010BD30
:106B10002378012B15D12FF01CF9104B104A0121BD
:106B20000190009204200F4A0AF05CFDFF210E48FC
:106B30000AF040FA00211DF043FF01220B4B1A70AE
:106B4000E4E70CF049F90A4BE8E700BFEF4A002000
:106B500052CE030857CE030873CE030843CE030872
:106B6000A8D2030868CE0308DC1A0020F04A0020EF
:106B70004DCE030808B50021094812F079FFFF2126
:106B800008480AF017FA00211DF01AFF2CF057FBF5
:106B900020B1BDE80840044812F06ABF08BD00BF3C
:106BA0007ECE03089C1A002086CE030808B50F4B42
:106BB0001B78ABB12FF05EFC02280CD00C482CF0F7
:106BC000CDFDFF210B480AF0F5F9BDE808404FF470
:106BD0007A611DF0F5BE0648BDE808402CF0B8BD4E
:106BE0002FF048FC0228F6D008BD00BFF04A002074
:106BF000701C0408DC1A002070B51C2094B02BF027
:106C00009FFF054605202BF09BFF286006202BF0F8
:106C100097FF686005202BF093FFA86005202BF0FC
:106C20008FFFE86005202BF08BFF286105202BF0FB
:106C300087FF686105202BF083FF1E4C05AEA8611D
:106C40000FCC0FC694E807000C3486E807000FCC81
:106C50000CAE0FC694E80F0086E80F0028460CA97A
:106C60002CF04AFA0323ADF80A3000238DF80D30DA
:106C7000ADF80E308DF812300F4B05AD1B78041FA8
:106C80008DF80C3000F11806002154F8042F55F847
:106C9000043B084600929BB202AA2FF0E1F9B442ED
:106CA000F2D1064B064819680131196012F0E0FE76
:106CB00014B070BD9CCE0308682D0020581A002027
:106CC00092CE0308FF2307B51A46114911480AF06E
:106CD00037F9FF2310491A4610480AF031F9FF230B
:106CE0000F491A460F480AF02BF9FF230E491A469E
:106CF0000E480AF025F90023CDE900330C490D4A6E
:106D000009680D4807F0F4FA03B05DF804FB00BF12
:106D1000C56A0008FC1A0020AD6B0008DC1A0020D0
:106D2000A16A0008BC1A0020F96B00089C1A002018
:106D30009C100020756B00085C1A0020912808B593
:106D400004D1BDE8084009482CF005BD90280BD1BE
:106D500006482CF0FDFCFF2105480AF02BF9BDE8A0
:106D6000084000211DF02CBE08BD00BF701C0408A7
:106D70009C1A002013B504460C4B0190009301218E
:106D800004200B4B0B4A0AF02DFC24B100220A4BC5
:106D90001A7002B010BDFF2108480AF00BF940F646
:106DA000B83102B0BDE810401DF00ABE837404087B
:106DB0004DCE030868CE0308F04A0020BC1A00201C
:106DC000002307B50193094B094A00930121094BA0
:106DD00004200AF007FCFF2107480AF0EBF840F610
:106DE000B83103B05DF804EB1DF0EABD837404080C
:106DF00068CE030843CE0308BC1A002007B5012162
:106E0000064B04200093064A064B01910AF0EAFB68
:106E10000022054B1A7003B05DF804FB837404086C
:106E200068CE030843CE0308F04A002007B5064B9E
:106E3000009001210420054A0AF0D4FB0022044BF3
:106E40001A7003B05DF804FB8374040820CE0308B5
:106E5000F04A0020214A10B5116881421DD12CF062
:106E600034FC0446002837D11D4BFF2118701D4803
:106E70000AF0A0F821461DF0A3FDFF211A480AF0F0
:106E800099F821461DF09CFDFF2118480AF092F860
:106E90002146BDE810401DF093BD526882421BD1CF
:106EA0002CF013FC0446B8B901220D4BFF210D480C
:106EB0001A700AF07FF821461DF082FDFF210A4872
:106EC0000AF078F81DF010FEFF2108480AF072F869
:106ED000BDE810401DF008BE10BD00BFBC10002072
:106EE000EF4A0020FC1A00207C1A00209C1A002087
:106EF00008B506F06FF9FF2104480AF05BF8BDE819
:106F000008404FF47A711DF05BBD00BF1C1B0020D0
:106F100010B5044670B9FF2307491A4607480AF01E
:106F20000FF8FF2105480AF045F82146BDE810405A
:106F30001DF046BD10BD00BFF16E00081C1B0020F7
:106F400030B50A4C0A4B22680A4D1A600A4B85B0CC
:106F50002B600A4B019305F0C3F82B68029001A93E
:106F6000206803932DF0ABFB05B030BDAC100020C2
:106F7000902900208C290020A0100020C11B0408AB
:106F8000014B18682DF0AFBBAC10002038B505F0F0
:106F9000A7F80446064D2B68D3F8B00205F094F824
:106FA00028682DF0B3FB2046BDE8384005F08CB8CA
:106FB000AC10002010B5274C01F068FE01F0F6FF80
:106FC000236F23F0070343F0030323672CF047FCF0
:106FD000214B00209B6ADB015EBF4FF480321F4BC8
:106FE0009A62D4F8203123F0070343F00203C4F877
:106FF0002031D4F8283123F0070343F00203C4F80A
:107000002831D4F8403123F0030343F00203C4F8DD
:107010004031D4F8603123F0030343F00203C4F895
:107020006031D4F8403223F0030343F00203C4F884
:107030004032D4F8003223F0070343F00203C4F8CF
:107040000032D4F8083223F0070343F00203C4F8F7
:10705000083210BD008000500040005A0060005A05
:1070600030B5254D9DB008AC0FCD0FC495E80F008D
:1070700084E80F002A2200210DF1460035F05DFE64
:107080001E4B0124109356231293052315930623B8
:10709000179303230E2200210DF112008DF84540B5
:1070A0008DF8443035F049FE4FF47020144B02A99E
:1070B000CDE902030B238DF810300C238DF811302D
:1070C000104B08AA0593202306930F4B0F480093FB
:1070D00010AB8DF81D4005F07FF804469DF81E307A
:1070E0004FF4E130002B0CBF032100212CF02CFACF
:1070F00020461DB030BD00BF201C04080000015B0D
:107100003C00015BF14A0020F81D0020681E0020B1
:10711000022905D8034B1B68186808B1436A184751
:10712000704700BFB010002008B50449044806F0BD
:1071300041FBBDE80840FFF793BF00BFB41000203B
:107140008C1E002001482DF0B9BE00BF681E002033
:10715000014B1A6A18681047681E002008B514F021
:1071600015FD0022014B1A7008BD00BF114B002015
:1071700008B504482CF0A4FABDE8084002482CF0F9
:107180009FBA00BF581C0408401C040801482CF09A
:10719000DCBA00BF701C04080A4601492CF0DDB8B7
:1071A000B11F04080A4601492CF0D7B8AE1F0408E5
:1071B00007B508202CF0B2FA02238DF80030054BF9
:1071C000684601932CF084F9082003B05DF804EBC5
:1071D0002CF0AFBA006A18102DE9F041424D88B08A
:1071E00001AC0FCD0FC495E8070084E80700012427
:1071F00001213A2001F008FB3C4E0121292001F039
:1072000003FB3B4B304601A903938DF8124002F07B
:10721000BBFC234604220321022002F0B9FA02211A
:1072200022460846002302F0B3FA234621460422F0
:10723000022002F0ADFA042200212346022002F0CF
:10724000A7FA2C4D2C4B05F50058C5F834374FF0F4
:107250000213C5F8303703F58033C5F838371C23DF
:107260004FF44870C5F8203707F05EFD05F58057EC
:107270001420C8F8A04007F057FD2320C7F8A0400D
:1072800007F052FDB9213046C8F8A0402CF0E1FBD0
:10729000002303211A460220C7F8A04002F078FA22
:1072A000002302211A46084602F072FA23462146BC
:1072B0000022022002F06CFA00222346114602202E
:1072C00002F066FA304602F03DFC00212920C5F8A4
:1072D0003417C5F83017C5F83817C5F8201701F06E
:1072E00093FA08B0BDE8F081B81F040800C005504B
:1072F00000127A0000C00350020001000348044A53
:107300000449121A92102CF02FB900BFACC4040823
:10731000ACC40408F052002008B500F02FF8FFF7C5
:10732000EDFF124B12498B4212D30020114B124930
:107330008B4218D3FFF77AFB186850F82240586840
:1073400040F82240013298688242F5D30C33EAE7D4
:107350000022F8E71C6844F8220001325C68A2426F
:10736000F8D30833E4E70022F8E700BF84BD04083F
:1073700090BD040890BD040890BD04084FF48041FE
:107380004FF0FF30114B124A10B59A60D3F88820A5
:1073900042F47002C3F888200E4A91660E4901F546
:1073A000005210660D4850660220C3F8D000BFF3AB
:1073B0004F8FBFF36F8F01244FF440330848C0F85C
:1073C0008041D36004600B6110BD00BF00ED00E0A0
:1073D000006000080090005000800044F7FF370074
:1073E00000E100E0014B1868704700BFE410002086
:1073F000084B1B6F03F00703022B04D0032B05D0AF
:10740000012B05D0FEE7044B18687047034BFBE7E0
:107410000348704700800050E4100020EC1000206A
:10742000002D310108B5FFF7E3FF054B1B6FC3F3D8
:1074300003330133B0FBF3F0024B186008BD00BF0B
:1074400000800050E01000200048704700B4C404E1
:10745000014B1868704700BFEC100020054B186006
:10746000054B1B6F03F00703032B01D1FFF7DABFB6
:10747000704700BFEC1000200080005000487047AB
:10748000002D31014FF0B4439868C0F304400C283C
:107490000AD8DFE800F00B090909090907211909D1
:1074A0001B1D1F000F487047002070479B6803F0AA
:1074B0004073B3F1807F11D0B3F1007F10D00A4A3E
:1074C000002B08BF104670470848704708487047AF
:1074D0000848704708487047084870470848704790
:1074E00008487047405DC60000093D00C0EA210120
:1074F00080BA8C010048E801005A62020024F400BE
:1075000080841E0040420F00014B1868704700BF86
:10751000E8100020BFF34F8F0549064BCA6802F4FC
:10752000E0621343CB60BFF34F8F00BFFDE700BFA6
:1075300000ED00E00400FA054FF000639B6A03F1E0
:107540007842B2F5C04F03D21968064A914203D07F
:107550000023037083607047012202709A689B6960
:107560004260F7E707B0CD5E73B54F4B04461A781B
:107570001AB102221A7002B070BDCDE900220028B3
:10758000F9D001261E702CF08EF9484D484B18603A
:1075900017F0FEF92B785BB900F070FE40B9454852
:1075A0000823454A4549006813F0CEFC00B92E7007
:1075B000434B5A6E62619B6E424AA3614FF4804313
:1075C0009366414B5968E16140499960196E2160A9
:1075D000596E6160D3F87011A160196CE160596C4B
:1075E00021613B49086C1864496C5964012151665A
:1075F0001B6E9C0441D5374AD368D807FCD4364B60
:107600001A68531C3ED04FF480139340334A1366DC
:107610004FF400730426314C266623662BF0D3FF0B
:1076200001300DD02BF0CFFF40F20113984207D06C
:107630004FF4005323664FF480432366C4F870610F
:107640000823264C684623664FF4805323664FF088
:10765000006323664FF4002301A963662BF097FFB4
:10766000009B2366019B63662B78002B83D0124B13
:107670001A6822665B6863667DE7194AD368D90792
:10768000FCD4BCE7174B1B78002BC1D14FF4007220
:107690000C4B5A6603F5A6235B68002BB8D14FF458
:1076A00080120E4B1A66B3E7134B0020144B0020D8
:1076B000B41E002018110020B81E00200071080020
:1076C00000800050009000500080004455CEAC0077
:1076D00000C0005400000440F0100020009000445E
:1076E00000000450124B002070B5224D04462E7845
:1076F000012E02D001232B7070BD0028FCD02BF08E
:1077000062FF01300BD02BF05EFF40F20113984274
:1077100005D0194B194A5E66D368DE07FCD422688F
:10772000174B1A6662685A66A268C3F87021E2684D
:107730001A6422695A64E269D00744BF00229A6041
:10774000104B1A68013207D10F4A127822B90F493B
:107750004968C90748BF1A6062690D4B5A66A26939
:107760009A6617F01DF90B4B18682CF0A2F800234D
:10777000C1E700BF134B0020009000400000044010
:1077800000800044F0100020124B002000C0055083
:1077900000800050B41E002070B54FF00064A36A52
:1077A00003F17842B2F5C04F24D21A68134B9A42C3
:1077B00020D1134E337813F0FD0F02D00024204661
:1077C00070BD1048FFF7D0FE01254FF480330E4AFC
:1077D0000E49C2F88051CB6015600D4A1361A36A4F
:1077E000DB69984704460748FFF77EFF002CE6D187
:1077F0003570E3E74FF48174E1E700BF07B0CD5E79
:10780000124B0020941E002000E100E000A0004484
:107810000090004413B5204B1B7803B9FEE700230A
:107820001E4CCDE900336A4608231D49206813F039
:107830008BFBF0B91B4AD2F84031D2F840211F2B04
:107840004FF0010310D9203A9340019A1A43019254
:1078500008236A461249206813F02CFB4FF00053AE
:10786000114A1A60FFF756FE9340009A1A4300929D
:10787000EEE70E4B9842F1D10A4AD2F84031D2F8E5
:1078800040211F2B4FF0010385BF203A93409340C6
:10789000019398BF0093DBE7134B002018110020E1
:1078A00000710800008000440B020FF00BE000F0B4
:1078B00070B5D0B1C9B10E4E431E013913F8014F56
:1078C0002046325D02F00302012A11F8012F08BFA1
:1078D00004F12000B55C05F00305012D08BF20323E
:1078E000801A01D1002CE9D170BD0120FCE700BF56
:1078F0007BBC04080346054A0549106803448B42D3
:107900008CBF4FF0FF301360704700BFF4100020B1
:107910000000042010B40A6808461378022B10D027
:1079200014213023147913FB041307495B58517950
:10793000CB40DB4303F0010313705DF8044BFFF70A
:1079400089BA5DF8044B704730C00350F7B504683E
:10795000012105463A2000F057FF002301226179FA
:10796000207901F015FF14223023217913FB012324
:107970001D4A99586379D940C943A37901F001019F
:10798000022B217017D100F0BDFB184A2B466179FC
:10799000207900F0E1FBFF28024660790ED12A46EB
:1079A000124900F015FC0123024661792079CDE9E6
:1079B000003301F093FE002003B0F0BD01262779CB
:1079C000002301460096384601F04AFF2A4607493F
:1079D000607900F0FDFB0023617902462079009375
:1079E00001963346E5E700BF30C003501579000823
:1079F00002681378022B24D014213023107913FB52
:107A0000001310495B585179CB40917903F0010381
:107A1000012912D1508843EA40034FF6E07063F029
:107A20003F039BB2834202D11170538070474FF6DF
:107A3000DF718B42F9D10021F6E711B983F0010320
:107A40001370704730C0035008B501213A2000F090
:107A5000DBFE012304220321002001F099FE002017
:107A60002BF089FF0122354B3549C3F844244FF4EC
:107A70000022A3F550335A66324BD3F8FC20D201D2
:107A800046D4D1F8803023F0030343F00203C1F859
:107A900080304FF4607000F0D1FE2A4B00F5D52005
:107AA000D3F8F02000F2FC4042F00102C3F8F020CD
:107AB000D3F8FC2042F08072C3F8FC20224AA3F5E0
:107AC0005D431A60214B0222B0FBF3F0204B0138DA
:107AD0001861C3F8F0204FF48072C3F804234FF00C
:107AE00060431C4A0020C3F8B02F1B4AC3F8802E05
:107AF000D3F8002E42F48072C3F8002EFF2283F8E0
:107B00002020D3F8002E22F48072C3F8002E08BD86
:107B1000D3F8FC2022F08072C3F8FC20D1F880203A
:107B200022F0030242F00202C1F88020D3F8FC20C8
:107B300042F08072C3F8FC20ABE700BF00D00350D6
:107B40000080005000ED00E0FF030040F8590D00F8
:107B5000000004E055CEACC5090001004FF06043C1
:107B6000D3F8802E30B5D20715D501240B4D8440B3
:107B7000D5F8FC2042F08072C5F8FC20D3F8002E26
:107B80002243C3F8002E53F82020002AF0D003F837
:107B90002010002030BD1120FCE700BF00ED00E008
:107BA00010B5012243780178847830209A40054B43
:107BB00000FB01331CB903F501531A6010BD03F536
:107BC0008253FAE700C0035010B5012243780178D0
:107BD000847830209A40054B00FB01331CB903F533
:107BE00082531A6010BD03F50153FAE700C0035039
:107BF0000122437801789A4030235943014B5A506F
:107C0000704700BF40F00350102130230246007837
:107C100013FB001305495B585178CB4003F001007A
:107C200093780BB980F00100704700BF30C003505B
:107C30002DE9F04F9A46564B85B01B7806460F4605
:107C40001546DDF83C909DF844B0DDF85080002BDF
:107C500000F09780072A00F296800E9B002B00F020
:107C60009280B9F1000F00F08E80129BB3F5006F87
:107C700000F38980012803D1109B002B00F0838042
:107C8000444B03EB05131B7B002B7ED0424C102290
:107C90000021684635F051F804EB45141022A7BBCB
:107CA0003946204635F049F843F210036380BBF1B2
:107CB000000F03D1E37843F00303E370364A0E9BD1
:107CC00002EB451CCCE90193129B6901581E9DF8FB
:107CD0004C30C0F30A0003F003039B0643EA001E86
:107CE00053582E48012E00EA03004EEA0003CDF857
:107CF00000A0535017D0B8F1000F2ED19CF80230DD
:107D000068F304138CF8023027E00021204635F098
:107D100014F84FF444736380BBF1000FCED1E378C5
:107D200043F03003C9E713230CF1100ECCF80C30EC
:107D30009CE80F008EE80F006FF00301DCF81C20B8
:107D4000109B61F39F02012FCCF81C20CCF814305B
:107D500003D1CCF81890CCF8043000270D4A290143
:107D600002EB051342F80180159A28465A606946CD
:107D700022469F605E7301F0EFFD384605B0BDE816
:107D8000F08F0748FAE70748F8E70748F6E700BF2B
:107D9000154B0020C01F0020C01E00200F80FFF3E5
:107DA000028000F0018000F0078000F038B5124B2F
:107DB00005461B78DBB1E0B12BF075FD0F4A0023BF
:107DC0001146147B54B92B6001251A0101EB0313F2
:107DD0001D738C502BF06DFD204638BD0133082BF0
:107DE00002F11002EDD12BF064FD0548F5E70548DE
:107DF000F3E70548F1E700BF154B0020C01F002046
:107E0000048000F0028000F0018000F038B52BF013
:107E10004AFD002305460B4A147B6CB90133082B3D
:107E200002F11002F8D101F039FD074B28461C7011
:107E30002BF03FFD204603E028462BF03AFD034897
:107E400038BD00BFC01F0020154B0020058000F08A
:107E50000D4B10B51B78044693B1072812D82BF0B0
:107E600022FD0A4B03EB04131A7B2AB100241C7376
:107E70002BF01FFD204610BD2BF01BFD0448FAE738
:107E80000448F8E70448F6E7154B0020C01F00201F
:107E9000068000F0028000F0018000F0154B13B561
:107EA0001868002301908DF804302BF0FCFC124B75
:107EB0001C7824B12BF0FDFC104802B010BD01224B
:107EC0001A702BF0F6FC0E4B01A81C731C7783F87C
:107ED0002C4083F83C4083F84C4083F85C4083F8A6
:107EE0006C4083F87C4008238DF8073001F002FDD8
:107EF0002046E2E724200408154B0020038000F010
:107F0000C01F00200A4A08B512785AB107280BD8BA
:107F1000084A02EB00131B7B43B1002101F0DCFC9B
:107F2000002008BD0448FCE70448FAE70448F8E7E5
:107F3000154B0020C01F0020028000F0018000F0DF
:107F4000078000F00A4A08B512785AB107280BD802
:107F5000084A02EB00131B7B43B1012101F0BCFC7A
:107F6000002008BD0448FCE70448FAE70448F8E7A5
:107F7000154B0020C01F0020028000F0018000F09F
:107F8000078000F00A4A08B5127852B107280AD8CB
:107F9000084A02EB00131B7B3BB101F029FD0020D6
:107FA00008BD0548FCE70548FAE70548F8E700BFC3
:107FB000154B0020C01F0020028000F0018000F05F
:107FC000078000F00D4B1B7893B1072812D889B1B8
:107FD0000B4B03EB00131B7B73B10A4B1A6D012390
:107FE0008340134214BF0123002300200B7070470D
:107FF000054870470548704705487047154B0020F5
:10800000C01F002000000450028000F0018000F03A
:10801000078000F00B4A10B512780C4662B10728B1
:108020000CD859B1084A02EB00131B7B43B101F095
:10803000F1FC2070002010BD0448FCE70448FAE77A
:108040000448F8E7154B0020C01F0020028000F014
:10805000018000F0078000F0184B2DE9F0411F6D02
:108060005B6D1F4000D5FEE701260025144CDFF8AC
:108070005880374218D02368C8F85060A3B1A1686F
:10808000284601316268A1609847637B012B0BD1C0
:1080900050B90C4B03EB45131A7B60F341021A7382
:1080A0001A7F60F341021A770135082D4FEA460620
:1080B00004F11004DDD1BDE8F08100BF00000450E0
:1080C000C01F0020C01E00200020045070B50446D0
:1080D00001250B4E04B970BD94FAA4F0B0FA80F0FB
:1080E00005FA00F306EB001224EA03045368002BA0
:1080F000F0D0117B11B191689847EBE79847E9E719
:108100004020002008B5192000F072FF28B14FF080
:108110000072074BC3F880211A601A2000F068FF34
:1081200028B14FF08062024BC3F880211A6008BD6D
:1081300000E100E038B505460C462BF0B4FB002208
:10814000044B03EB05135C601A73BDE838402BF059
:10815000B0BB00BF40200020F8B504460D461746CE
:108160001E462BF0A0FB1CB9052D1AD0FF2421E0E0
:10817000012C05D1012D21D0032DF7D1042410E0CD
:10818000022C07D1052D1BD0072D1BD0002DEDD1C2
:10819000062406E0032CE9D1022D15D0052DE5D1EA
:1081A0000A240A4904F1100301EB03110123C1E978
:1081B00001760B732BF07DFB2046F8BD0324F0E71E
:1081C0000724EEE70824ECE70924EAE74020002032
:1081D000F8B505460E4617462BF065FB134B2C46AB
:1081E000D3F8242405F0FC0122FA05F3DB0712D5AD
:1081F00000230133DBB2042B04D1FF242BF059FB05
:108200002046F8BDEC1804F003040C4422FA04FCE8
:108210001CF0010FEDD1FF2CF0D00122044B03EB39
:108220000413C3E901671A73E8E700BF00C00350F5
:1082300040200020074BD3F82404D3F8202403F572
:108240000053104000F0553020F05020C3F82004B7
:10825000FFF73CBF00C00350074BD3F82404D3F80A
:10826000202403F50053104000F0AA3020F0A02095
:10827000C3F82004FFF72ABF00C00350024B19685F
:10828000024B186812F03CBDF810002018110020B5
:1082900070B59400224605460E4634F0A1FD431CFD
:1082A0000AD058B922463146284634F01CFD002831
:1082B000034808BF002070BD0248FCE70248FAE707
:1082C00010E000F021E000F024E000F010B50446DA
:1082D00034F082FD431C10D088B901F029FC2346FC
:1082E00020F003002044984201D1002010BD53F833
:1082F000042B0132F7D00348F8E70348F6E70348B8
:10830000F4E700BF0EE000F021E000F024E000F010
:1083100008B52BF0B9FA014B186008BD30290020D0
:10832000014B18682BF0B4BA30290020044BD3F865
:108330008420D206FBD4D3F88400C0F381107047A8
:108340000040005038B5104B0546D3F880300C463D
:1083500003F00303022B0BD0032B0DD0012B0FD105
:10836000FFF746F80E2305B1286004B1236038BD3D
:10837000FFF788F80723F6E7FFF734F80623F2E75C
:1083800000231846EFE700BF0080005038B5184BB7
:108390000546D3F820010C4600F00700062823D834
:1083A000DFE800F0040A0E16121A1E00012305B1C0
:1083B000286004B1236038BDFFF714F80523F6E701
:1083C000FFF746F80323F2E7FFF75CF80723EEE731
:1083D000FFF754F80223EAE7FFF704F80623E6E77D
:1083E000FFF736F80423E2E700231846DFE700BF73
:1083F0000080005038B5174B0546D3F828310C469D
:1084000003F00703013B052B20D8DFE803F003133B
:108410001B0F0B17FEF7E6FF052305B1286004B11B
:10842000236038BDFEF7DEFF0623F6E7FFF72AF8E4
:108430000723F2E7FFF70CF80323EEE7FFF708F84E
:108440000423EAE7FFF71AF80223E6E700231846B9
:10845000E3E700BF0080005073B50D460021114BCB
:108460000191D3F88041064604F00304022C13D096
:10847000032C0CD0012C13D101A8FFF787FF102487
:108480000EB1019B336005B12C6002B070BDFEF7E8
:10849000F9FF07240190F3E7FEF7F0FF0190EFE703
:1084A0000C46EDE700800050002337B50193164BD2
:1084B0000546D3F820320C4603F00703042B21D8DD
:1084C000DFE803F0030B11161B0001230DB1019A25
:1084D0002A6004B1236003B030BD002101A8FFF77A
:1084E00089FF1223F2E7FEF7CDFF07230190EDE7A6
:1084F0002BF047F80A230190E8E7FFF705F8092376
:108500000190E3E70023E1E70080005038B5104B0D
:108510000546D3F840310C4603F00303022B0BD081
:10852000032B0DD0012B0FD12BF02BF80A2305B113
:10853000286004B1236038BDFEF7E6FF0923F6E7A3
:108540002BF022F80C23F2E701230020EFE700BF15
:1085500000800050002337B50193164B0546D3F831
:1085600060320C4603F00703013B032B1FD8DFE802
:1085700003F0020E1914002101A8FFF707FF1023D2
:108580000DB1019A2A6004B1236003B030BD00210F
:1085900001A8FFF7BBFF1123F2E7FEF773FF0723E4
:1085A0000190EDE7FEF76AFF02230190E8E7002360
:1085B000E6E700BF00800050002337B50193164B5B
:1085C0000546D3F894320C4603F00703013B032B16
:1085D0001FD8DFE803F0020E1914002101A8FFF7ED
:1085E000D5FE10230DB1019A2A6004B1236003B0B7
:1085F00030BD002101A8FFF789FF1123F2E7FEF744
:1086000041FF07230190EDE7FEF738FF02230190B9
:10861000E8E70023E6E700BF0080005038B5144BC0
:108620000546D3F800020C4600F0070004281BD8CA
:10863000DFE800F003090D111500012305B12860E2
:1086400004B1236038BD2AF09CFF0A23F6E7FEF749
:108650005BFF0923F2E72AF097FF0C23EEE7FEF712
:10866000E1FE0F23800AE9E700231846E6E700BF92
:108670000080005038B5144B0546D3F808020C466C
:1086800000F0070004281BD8DFE800F003090D11F3
:108690001500012305B1286004B1236038BD2AF01C
:1086A00070FF0A23F6E7FEF72FFF0923F2E72AF00F
:1086B0006BFF0C23EEE7FEF7B5FE0F23800AE9E718
:1086C00000231846E6E700BF0080005038B5104B85
:1086D0000546D3F840320C4603F00303022B0BD0BF
:1086E000032B0DD0012B0FD12AF04BFF0A2305B12C
:1086F000286004B1236038BDFEF706FF0923F6E7C2
:108700002AF042FF0C23F2E701230020EFE700BF2D
:108710000080005038B5104B0546D3F860310C4648
:1087200003F00303022B0BD0032B0DD0012B0FD131
:108730002AF027FF0A2305B1286004B1236038BD61
:10874000FEF7E2FE0923F6E72AF01EFF0C23F2E70C
:1087500001230020EFE700BF00800050B0F5207F2C
:108760001FD009D8B0F5007F15D003D868B1B0F597
:10877000C07F0AD000200CE0B0F5607FFAD10B4B2F
:10878000D3F88000C0F3011003E0084B186FC0F36A
:10879000033001307047054BD3F89000C0F30460FC
:1087A000F7E7024B186FC0F38020F2E7008000501B
:1087B00002464FF48030104B10B598660020FFF74A
:1087C000CDFF504341F671320C4BDC69DA635A68D5
:1087D00004F4803422F4401259B90949884294BF04
:1087E00000200120000502435A600CB10022DA6328
:1087F00010BD0449F2E700BF009000500000035094
:10880000005A6202002D3101430905D0012B0CD022
:10881000022B084B18BF002300F01F0039B103F5ED
:108820008053012282401A607047034BF4E703F53E
:108830000053F6E768800050648000501FB50021A7
:1088400080280446CDE9001100F0A58035D85E28C7
:1088500046D85E2844D8DFE800F0A24343434343B0
:1088600043434343434343434343434343434343D8
:1088700043434343434343434343A2AAA2AABABA4E
:10888000BABABAAAC44DDA714DAAAAAA434343435D
:1088900043434343AAAAAA79E4AA43434343434335
:1088A00043434343434343BAA2A2A2DF4D4DE98869
:1088B0005EBF434343434399A200B0F5B06F00F05D
:1088C00090802DD8B0F5207F71D00CD8B0F5C07F46
:1088D00065D0B0F5007F65D0B0F5807F00F0868070
:1088E000009804B010BDB0F5607F6BD00DD8B0F526
:1088F000407FF5D1FEF796FD02464FF42070FFF75A
:108900002DFFB2FBF0F252085AE0B0F5806F5ED056
:10891000B0F5A06FE4D100216846FFF7C5FDDFE7A1
:10892000B0F5106F78D016D8B0F5E06F79D00AD8CE
:10893000B0F5C06F6BD0B0F5D06FD1D100216846D3
:10894000FFF76CFECCE7B0F5F06FC9D100216846A7
:10895000FFF7E0FEC4E7B0F5406F3DD013D8B0F5A7
:10896000206F63D0B0F5286FBAD10021324B03914C
:10897000D3F8703203F00303012B02D103A8FFF7F1
:10898000C5FD039B3CE0B0F5486FA9D100216846C6
:10899000FFF712FEA4E7FEF72BFD0090A0E7FEF71D
:1089A00041FDFAE7FEF724FD0246204604E0FEF70B
:1089B00039FD02464FF42070FFF7D0FEB2FBF0F213
:1089C00000928DE701A8FFF7BDFC019AEDE70021B9
:1089D0006846FFF7DBFC83E700216846FFF70AFDE6
:1089E0007EE700216846FFF737FD79E74FF0E02387
:1089F00002911B695B0705D5FEF714FD0290029BEF
:108A000000936DE703A902A8FFF780FDF7E70021B7
:108A10006846FFF77BFD63E700216846FFF72AFE03
:108A20005EE700216846FFF751FE59E700216846DE
:108A3000FFF790FD54E700BF0080005008B580208C
:108A4000FFF7FCFE034B98429EBF4FF48032024B6F
:108A50001A6708BD005A620200A000501FB5034605
:108A60000020B3F5807F019000F0C18064D85D2BB9
:108A700055D84C2B07D82D2B48D8232B2CD8019810
:108A800005B05DF804FB4D3B102BF8D801A252F85D
:108A900023F000BFE58B00087F8A00087F8A00086A
:108AA0007F8A00089B8B00087F8A00087F8A000865
:108AB000698C0008B98B00085F8B00085F8C000888
:108AC0007F8A00087F8A00087F8A00087F8A000862
:108AD0007F8A0008738C0008243B092BCFD801A2A1
:108AE00052F823F0E58B0008E58B0008E58B0008C1
:108AF000E58B0008E58B00087F8A0008DB8B000807
:108B00007F8A00087B8B00081B8C00083D2B7FD0E0
:108B10003E2BB4D1002001A9FFF7D8FDAFE7802B91
:108B2000ADD1594B1B6F03F00703013B032BA6D8B4
:108B3000DFE803F0514E858DB3F5F06F68D021D892
:108B4000B3F5B06F49D00FD8B3F5607F00F08380E4
:108B500095D3B3F5806F45D0B3F5A06F8FD10020CA
:108B600001A9FFF7A1FC8AE7B3F5D06F55D0B3F5A3
:108B7000E06FCFD0B3F5C06F81D1002001A9FFF71E
:108B8000C5FC7CE7B3F5206F6ED00BD8B3F5086F4A
:108B900048D0B3F5106F7FF472AF002001A9FFF742
:108BA00069FD6CE7B3F5406F59D0B3F5486F60D0FD
:108BB000B3F5286F7FF463AF334BD3F8703203F013
:108BC0000303012B5AD0022B0CBF1523002300E016
:108BD0000523019353E70223FBE7002001A9FFF7D8
:108BE0003BFC4CE7002001A9FFF7D0FB47E74FF023
:108BF000E02302901B695B0705D5FEF713FC0D23EC
:108C00000393039BE5E703A902A8FFF77FFCF8E7BE
:108C1000002001A9FFF77EFD31E7002001A9FFF741
:108C2000FDFC2CE7184BD3F8003103F00303022BB3
:108C300007D0032B09D0012B0BD1FEF709FC03232E
:108C4000C7E7FEF761FC0923C3E72AF098FC082375
:108C5000BFE70123BDE701A9FFF774FB0FE7002081
:108C600001A9FFF7C7FB0AE7002001A9FFF772FC83
:108C700005E7002001A9FFF79FFC00E7002103A8FA
:108C8000FFF744FC1123A4E7008000504FF480124A
:108C9000034B5A664FF48032024B9A62704700BF12
:108CA000009000500050005A38B504468020FFF76D
:108CB000D5FE032800F083804FF48012524B4FF012
:108CC000A0615A6645F60E02504BC3F88020504A08
:108CD00091624FF4803102F5805291629A6DD20315
:108CE000FCD4996D11F08041FBD1D4E9000212054A
:108CF00042EA0062E07B0243207B42EA0042607B62
:108D000042EA0032A07B42EA80121A619869D4E9F3
:108D10000452120642EA856200F000400243A07E3F
:108D2000E57E0243207E42EA0042607E42EA002263
:108D30009A611A6AE06922F00F0242EA8502354D13
:108D400000283DD11A6294F82420996A94F82000F2
:108D5000D200294042EA40120A4394F8211042EA24
:108D6000011242F480329A622B49284A936D31EA0B
:108D70000303FBD14FF08071254881621369A56818
:108D800023F4700343EA055313614FF000438361FA
:108D900094F822300BB9214B996294F823303BB9F7
:108DA0004FF480321D4B9A62184A936D5B00FCD4DD
:108DB00094F825301BB1154B194AC3F8802038BDF3
:108DC000024342F0080202281A6208D119614FF4E6
:108DD0000852996113484FF47F412AF01EFD0B4958
:108DE00094F822308A6A94F820001B062A4043EA4D
:108DF0004013134394F8242043EAC20394F8232039
:108E000043EA02438B62D3E7009000500040005ACF
:108E10000050005AC7FFFEFE030001000060005A28
:108E2000F1A7FFFF3440005A014B93F9000070474F
:108E30008D150020F0B5D0E901434FF400061A4A21
:108E40004178057856664FF4D156022702F5B832BC
:108E50005662164E4F2977604FF0010728BF4F2109
:108E600006F5805677601669F603FCD441EA0521C1
:108E700051611B01417B43EA04230B43017B43EA1D
:108E800041039360C37B817B1B0143EA4113417C17
:108E90000B43017C43EA41035360837C13B16FF4BD
:108EA000D1535362F0BD00BF00900050001002503B
:108EB000014B1880704700BF4A150020014B1880F5
:108EC000704700BF48150020B0F5207F10B50C4654
:108ED0005DD008D8B0F5007F4ED003D8C0B1B0F552
:108EE000C07F15D010BDB0F5607FFBD12C4B4C1E60
:108EF000D3F8FC202B4912F0807F4FEA041427D1CD
:108F0000D1F8803023F030032343C1F88030E9E703
:108F10002AF092FC2AF09EFC4FF48031224B214A29
:108F20001967136F013C23F4704343EA043313675A
:108F3000FEF778FA0446FFF7F9F9C0F1020120467E
:108F40002AF082FC00F042F8BDE81040FFF776BD41
:108F5000D3F8FC2022F08072C3F8FC20D1F88020E6
:108F600022F030022243C1F88020D3F8FC2042F0E6
:108F70008072C3F8FC20B5E70A4A4C1ED2F8903044
:108F800023F0F85343EA0463C2F89030AAE7054A95
:108F90004C1E136F23F4806343EA84231367A1E715
:108FA00000ED00E0008000500090005008B5012165
:108FB000022000F085F82AF03FFC2AF04BFC4FF429
:108FC0008032014B1A6708BD0090005008B54FF47D
:108FD000C070FFF733FCBDE808400449884294BFE5
:108FE000012102214FF42070FFF76EBF80F0FA02DA
:108FF000054B420953F8223000F01F0023FA00F01D
:10900000C04300F00100704700E100E0024A536BEA
:109010000342FCD1704700BF00400950044A417828
:10902000536F23F4407343EA01235367704700BF33
:10903000004000500C4A10B51369044643F0040385
:10904000136104F055FE2AF037FC084B084AC3F8B8
:10905000202430BF2AF031FC04F084FE1CB9BDE8A6
:109060001040FEF7DFB910BD00ED00E000E0035056
:109070000000FF0F0A4A10B51369044643F00403C9
:109080001361084B084AC3F8202404F031FE30BFB6
:1090900004F068FE1CB9BDE81040FEF7C3B910BD6E
:1090A00000ED00E000E003500000FF0F034A0179EB
:1090B000D36E23F030030B43D3667047004000505B
:1090C000F8B504461C4BD3F88420D106FBD4D3F862
:1090D0008430C3F381139C422CD0FEF789F9012C14
:1090E000064602D121462AF0AFFB2AF0CDFB4FF015
:1090F0000072124B07465A6620462AF0E1FB4FF4F5
:1091000080630D4D621E93402B676B6E9A0103D4F2
:10911000D5F884309B060AD538462AF0B9FB022CD4
:1091200008D13046BDE8F84000212AF08DBBD5F8C3
:109130008430EAE7F8BD00BF0040005000600050F6
:1091400010B50C4608B9FEF753F9074B21461B78BA
:109150003BB1064B984204D80120BDE81040FFF710
:10916000AFBF0220F9E700BF164B0020005A620291
:109170000278034B012100201A70FFF7E1BF00BF06
:10918000164B00204FF0004238B5244B244C5A6651
:109190004AF6CD33656C014605F00105236428BB12
:1091A0000120FFF733FF6368DB0715D51D4B5860BF
:1091B00008461D4B226BD2070CD4984208D10724D5
:1091C00015B1174B194A1A6430F08AFB204638BD96
:1091D0000130EFE79842F2D00024F1E70132236B2F
:1091E00013F0080305D08A42F8D1E8E700220E49BF
:1091F000F5E78A42E3D020210A4A91620121A2F5D3
:10920000805251600649084A886A800603D4934216
:10921000D5D00133F8E79342DDE700BF009000505E
:10922000004009500060095040420F003254FFFFD7
:109230004FF0004238B5164B01465A664AF6CD3318
:10924000144C154A656C236443780B205B0043F093
:109250000103D363FFF7DAFE63688A7823F4F873B7
:1092600043EA02136360CA784B7943EA0223A3609E
:109270000A798B7943EA022323610878FFF782FF9A
:10928000EB0744BF054B236430F02AFB012038BDB7
:109290000090005000400950004000503254FFFF41
:1092A0004FF00042124B70B55D6E03F580535A6665
:1092B0004AF6CD3304460F4980204E6C0B64FFF70D
:1092C000A5FE0B6A23F00F030F2C94BF234343F03A
:1092D0000F030B62F30744BF074B0B64002DA2BFC3
:1092E0004FF00042054B5A6630F0FAFA70BD00BFED
:1092F00000800050004009503254FFFF00A0005091
:109300004FF00042104B70B55D6E03F580535A6606
:109310004AF6CD3304460D4980204E6C0B64FFF7AE
:1093200075FE0B6A23F4F85343EA04230B62F30738
:1093300044BF074B0B64002DA2BF4FF00042054B0A
:109340005A6630F0CDFA70BD0080005000400950E0
:109350003254FFFF00A0005010B52AF0B6FA0423E3
:1093600000F5805100F500520B6113610B61136130
:109370000B6113610B611361202341F20201036150
:109380000023C360836041614FF4A0218361836542
:1093900041620549C36103628362C362436303653B
:1093A000D164036310BD00BFFF3F0D0370B50546D8
:1093B0001446084641B9354B9D4218D0344B9D4266
:1093C00008BF5720FFF73AFAAB6813F0010F6B683C
:1093D00030D0B0FBF4F4D80704F1FF344FEA046452
:1093E00007D42B6923F07F4323432B6170BD5620A4
:1093F000E8E7282128462AF064FAAB6C990715D1D2
:10940000AB6CDA0714D4AB6C13F0020F14BF062652
:10941000002628462AF059FA2B69314623F07F436B
:1094200023432B61BDE870402AF086BA0526F0E799
:109430000926EEE7AB6DDB07AB6848BF640003F0BD
:10944000E003402B1BD004D8DBB1202BCED1082366
:1094500004E0602B17D0802BC8D101236343410166
:10946000B1FBF3F20B4B203A284603EAC20201217A
:109470002AF027FA2A63BDE870402AF022BA0623B0
:10948000ECE71023EAE70423E8E700BF0000015BF4
:1094900000000A50F8FF7F002DE9F8439846436822
:1094A00004460E4617461BB140F6FF712AF009FA32
:1094B0002046FFF751FFF189737B62690B43318AC4
:1094C00022F44C520B4322F00F0213436361A26853
:1094D000317E337B22F0804222F0E2020B431343C1
:1094E0007269D6F808901343A360B9F1000F03D155
:1094F000A36843F00043A360F069002874D0857A24
:10950000037A6D04A26845EA83556D4B13401D43F1
:10951000838803F4C0431D43437845EA8305437BB6
:1095200045EAC305837B45EA0315837845EA83252D
:10953000A560D0E90432E5681343624A2A40134328
:10954000827943EA8223C27943EA4223E3600378C3
:109550005D4A012B14D1E36843F00403E3609442B5
:1095600000F09280594B9C420CBF01234FF0FF3317
:109570005B0103F1A04342F2944203F5703314E01F
:10958000032B7BD1E36843F00403E360944279D07A
:109590004E4B9C420CBF01234FF0FF3341F29442EB
:1095A0005B0103F1A04303F5703302259D50437A1C
:1095B00004F5805293621BB1E36843F40063E360F7
:1095C000C37A5BB1E36843F40043E3603E4B9C42E3
:1095D0005CD1037B3E4A03F00F035367636AC27B8F
:1095E00023F00303134363623FB197F8203004F57F
:1095F0008050002B54D001230362B8F1000F27D014
:1096000004F5805011B14FF4004383652E4BB8F838
:1096100022109C4298F821304FD02C4A94420DD110
:109620000122112B34BF012702272A4DB1F5006F0B
:10963000AF5494BF01270227274DAF54A26D0B43AF
:1096400022F4F95222F01E021343A365012383651D
:10965000052120462AF053F9B9F1000F03D04A46FC
:109660007168FFF7A3FE204631782AF065F9A36CF4
:10967000DB4313F4405FFAD1BDE8F883023B012BD2
:1096800084D96CE7002389E7002371E70F4B9C42E4
:1096900001BF037B0E4A03F00F03C2F880309DE741
:1096A000E26997F8223097F8215022F009022B4303
:1096B000134343F00103C3619FE70022B1E700BFFA
:1096C000E39BBDFFFFF9F0870000015B00000A503B
:1096D00000900350194B0020174B0020072A2DE95A
:1096E000F041154698464FF0030401F003072DD8CA
:1096F0009600B44000FA06F221461C482AF02CF9E4
:1097000021461B4807FA06F22AF026F9194B1A4996
:109710009DF81800B8F1000F18BF1946012303FA8D
:1097200005F50D60154B1649002818BF0B461D6046
:10973000144B9DF81C00C3F82054103103F224434D
:10974000002818BF0B461D60BDE8F081A2F1080695
:10975000B600B44000FA06F221460B482AF0FCF8A5
:1097600021460A4807FA06F2CEE700BF00C40350BC
:1097700008C4035010D4035010E4035014E4035001
:1097800014D4035000E0035004C403500CC403502D
:109790002DE9F04105460F461E4690464AB1012389
:1097A0003022194C8B4002FB004436B304F582543E
:1097B00023600F21072F05EB450388BFA7F108049D
:1097C0004FEA0313114895BFBC00A40004330C33C7
:1097D00008FA04F2A14018442AF0BEF8B8F1000FCC
:1097E00009D101233021084ABB4001FB05223EB1CB
:1097F00002F582521360BDE8F08104F50154D7E709
:1098000002F50152F6E700BF00C0035030C003501C
:10981000104B0140D3F8302422EA0002C3F8302470
:10982000D3F830241143C3F83014D3F82C24024366
:10983000C3F82C24084AD36E03F03003202B1FBF3B
:10984000D36E23F0300343F01003D366034BC3F809
:109850002004704700C003500040005000E0035057
:1098600038B514461D46032283F00103FFF790FF2D
:10987000012004F11001884005FA01F1FFF7C8FF4B
:109880009DF81010034B044A002918BF13461860B6
:1098900038BD00BF24E4035024D403504FF4001219
:1098A0000B4B10B5C3F88020BFF34F8FBFF36F8F02
:1098B0000024FF22074B21465C6520209A625C60F1
:1098C000FEF7A2FF2146BDE810402120FEF79CBF15
:1098D00000E100E000000450044A054B002908BFE5
:1098E0001346012282401A60704700BF40100450A6
:1098F0004020045010B5012104462020FEF784FFCB
:1099000001212120FEF780FF0122114B5A602278AD
:1099100012069A606178A27842EA01429A61FF22B7
:109920009A6200229A631A644FF000425A654FF01F
:10993000FF324FF4001103F500531A65054AC2F8CF
:109940008011E3781B01DBB282F81533116010BD82
:109950000000045000E100E0F8B50125C3B2D1F8E1
:1099600000E091F80AC00F7B0C469D40CB7A1D4960
:109970001D4E0D65810001F1A04101F58821C1F85E
:1099800004E04FF0300E0EFB00601B05617B43EAE4
:109990000C4343EA475322F003020166C3650267A2
:1099A00029F081FF736D2B437365237A13B1336CF8
:1099B0002B433364637A13B1B36B2B43B3632279C4
:1099C000A37943EA0243074A93616179E37943EA61
:1099D000014306498B61044B55639D64BDE8F84023
:1099E00029F067BF0020045000000450001004500C
:1099F00010B50124C0B2844029F055FF044B5A6DC4
:109A000022EA04025A659C62BDE8104029F051BF69
:109A10000000045010B50124C0B2844029F043FF77
:109A2000074BDA6A224208D15B6B9C430CBF0124CE
:109A3000002429F03EFF204610BD0024F9E700BFB6
:109A4000000004504FF48032054B9A6641F67132A3
:109A500003F51C33DA63012203F50053DA60704723
:109A60000090005041F671320121064BDA6303F594
:109A70000052D1600022DA634FF48032A3F518332C
:109A80009A66704700000350013831289ABF024B94
:109A9000185C0020704700BF4920040838B5C2F3A5
:109AA0000625044602F0070241B942EA052242F4C3
:109AB00040220634074B43F8242038BD114628467F
:109AC00029F05AFF02462846FFF7DEFF163442EA25
:109AD0000022EFE700800350014BD3F89400704759
:109AE000004000504FF48032064B5A6603F5E623DF
:109AF0009B69C3F38512827003F03F021B0B427017
:109B0000037070470090005040F6B732064B5B6818
:109B10009BB293429FBF4FF47A72B3FBF2F3034AB6
:109B2000D05C88BF002070470080E00F7B200408D5
:109B30000120034B9B680A3303F01F0398407047D2
:109B40000080E00F012100F5805310B5596040F608
:109B5000AA6341F2050243610023094C8360C36597
:109B6000C26000F500520361C361C3649464054C94
:109B70008365A04204BF03654365516010BD00BF0B
:109B8000FFFF010000C0055038B50D46FFF7DAFFB2
:109B9000012200F580535A602B8AA97B826843F02A
:109BA000010343EA81231343836083682A7D0446CB
:109BB00043EA42738360AB7C5BB1194B984202BFAE
:109BC000EA7CA3F51033C3F8C821C36D43F08003CA
:109BD000C3652B7B2046D5E9011243F48053E36033
:109BE00029F027FF6B7B0BB1102363616B7D1BB1E9
:109BF000A36843F48033A360AB7D1BB1A36843F437
:109C00000043A360EB7D2A7E1B07120503F0E043AF
:109C100002F4E0021343A3652B78636138BD00BFF3
:109C200000C00550034B5A68D20702D5DA69002AF2
:109C3000F9D1704700800A50054B9A689107FCD40F
:109C40005A689207F9D4DA69002AF6D1704700BF42
:109C500000800A5008B5FFF7E5FF0222014B1A61A8
:109C600008BD00BF00800A5008B5FFF7E5FF0122DC
:109C7000024B03F580514A601A6108BD00800A500A
:109C800008B5044B5968012903D1FFF7E3FF024BE4
:109C9000596008BD00800A5000A00A5010B5064C5B
:109CA000FFF7CAFF6368012B03D1FFF7E9FFFFF756
:109CB000C3FF0378E36010BD00800A50B8B94A685A
:109CC0000B7812B1127843EAC2034A7843EA42039E
:109CD0008A6812B1127843EA82138A7843EA8203CF
:109CE000CA6812B1127843EA4223014A936470476A
:109CF00000800A5008B9014B5964704700900A501F
:109D000008B9014B5964704700A00A5008B9014BCB
:109D10001964704700A00A5010B9024B186C7047C4
:109D20000020704700800A5048B911B1012903D0C2
:109D30007047044BD86C7047024B186D7047002079
:109D4000704700BF00800A5040B911B1012903D00B
:109D50007047034BDA647047014B1A65704700BFC8
:109D600000800A5010B9024B586D704700207047B0
:109D700000800A5038B50446054D2FF0D6FD0FCCB3
:109D80000FC594E8030085E80300002038BD00BF3C
:109D90003429002047F6FF739A42F0B56FD00229AC
:109DA0006FD8394B5B5C012B6BD8384DDF0005EB6E
:109DB000C30415F83330A178012B13D10025E078C6
:109DC000401AA84202D80844C0B2F0BD431B6668DE
:109DD000A0EB530336F913609642D4BF1D4603F13E
:109DE000FF30EEE760680028EFD0B0F90040944201
:109DF00004DBB0F902409442B8BF144683883D4466
:109E0000FF2B19BFC8224FF0280CB0F90620B0F97B
:109E100008C0A2EB04030CBF0126002693FBFCF351
:109E200033446E781BB29E4201DD002B01DA731EB3
:109E30001BB24FF47A7C01339BB2071D5D1E2DB21D
:109E40004FEAC50E00EBC505EA88AD689E4214FBDB
:109E5000025222EAE27202F15C02B2FBFCF204DD81
:109E600037F8335001339542E8D200EB0E0398885F
:109E7000904228BF1046884238BF0846A4E7FF201A
:109E8000A3E70020A1E700BF7E20040834290020BA
:109E90000229F0B555D82C4B585C012851D82B4CD1
:109EA00004EBC00114F830004B6801280FD1C878CA
:109EB0008C78904294BFC4EB0001C4EB0201001BFC
:109EC000CAB28242C8BF002233F91200F0BD002B93
:109ED00037D08878904202D3B3F90200F6E7CC7805
:109EE000B3F900009442F1D94C789988013CA1F172
:109EF000FF06714203F10405E4B2714103F10C075E
:109F0000CEB2B44216D805EBC1014FF47A756A435C
:109F1000B1F902404968521A04EBD47102EB6102B4
:109F200092FBF4F29042D1DBB3F902009042CDDC17
:109F300010B2CBE737F831C04E1C9445E3D331461D
:109F4000DEE70348C2E700BF7E2004083429002072
:109F50000080FFFF0148FFF70DBF00BF8420040809
:109F60007FB50222084B0949CDE901234FF0007368
:109F7000CDE90313072301A94FF0FF3005932FF01C
:109F800033FD07B05DF804FB006A1800000206000C
:109F900008B5B0B14FF480620B4B9A6629F02CFDE6
:109FA0004FF098435A6CD202FCD54FF48062586D42
:109FB000064B10F470209A6604D0BDE8084029F0E2
:109FC000CCBD212008BD00BF0090005000A0005073
:109FD0002DE9F0418CB08846DDE912761D46044635
:109FE000002847D0002945D0002F43D0002E41D073
:109FF00013F00F033ED120482049A360002A08BF78
:10A000000146E361C4E90013404609A929F0A1FE15
:10A0100068BB2046099929F0E6FC2946204629F02C
:10A02000E2FC6946404600F0F7FA00BB694620466C
:10A0300029F0C5FC404603A929F08AFFB8B920469B
:10A0400003A929F0BCFC06970127204645F00055DE
:10A0500006A90797089529F0B2FC204609A9099698
:10A060000A970B9529F0B5FC2046FFF791FF0CB03D
:10A07000BDE8F0812120FAE700010004000101049D
:10A080002DE9F04F97B0894690461F460546DDF80A
:10A0900080A0002800F0BB80002900F0B8803AB111
:10A0A000229B002B00F0B380239B002B00F0AF809D
:10A0B000BAF1000F00F0AB80219B002B00F0A780CD
:10A0C00067B13C680026229B43440293464507D370
:10A0D00007B13C60002017B0BDE8F08F3C46F1E7C7
:10A0E0005CB1229B219A9B5D125D01345340239AFF
:10A0F00004F00F0493550136E8E7A8EB060BBBF11B
:10A100000F0F58D9434B4846C5E90034AC60EC61A9
:10A1100013A929F01EFE0028DDD1284613992BF043
:10A120000F0B29F060FC5946284629F05CFC484694
:10A1300004A900F071FA0028CDD1284604A929F01D
:10A140003EFC484607A929F003FF0028C3D1284652
:10A1500007A929F034FC012322992F4ACDF828A021
:10A160000B930C928A190D9228464BF000520AA9C3
:10A170000E9303920F9229F022FC28460DA929F094
:10A180001EFC239B039A991901231091119312929B
:10A19000214A284610A9CDF84CA01493159229F015
:10A1A00018FC284613A929F014FC2846FFF7F0FEF6
:10A1B0005E4400288FD1229B03EB060B239B1E4499
:10A1C000029B5B4501D1464680E7ACB9219B224604
:10A1D000CDE900A3494610232846FFF7F9FE0028E1
:10A1E0007FF479AF0AF1100212F8013D0133DBB2BE
:10A1F00013700BB95245F7D1219A1BF8013B125D40
:10A200000134534006F8013B04F00F04D8E7212045
:10A2100061E700BF03030004100000202DE9F04FA8
:10A2200097B0894615469A460446209FDDF88880F7
:10A23000DDF890B0269E002800F09D80002900F0F7
:10A240009A80002E40F08A80002B00F09480B8F1B4
:10A25000000F0AD0219B002B00F08D80002A40F0D7
:10A260009F80F10700F1878002E0002A40F085809E
:10A27000FB1F062B7FD8524B0BEB05029A427AD874
:10A280000023504A4846C4E90023A360E36113A9B0
:10A2900029F05FFD00285ED12046139929F0A3FB29
:10A2A000204646EA074129F09EFB4146204629F018
:10A2B0009AFB2946204629F096FB484601A900F062
:10A2C000ABF9002847D1204601A929F078FB484680
:10A2D00004A929F03DFE00283DD14FF00109204698
:10A2E00004A929F06CFB239B45F000550793219BA3
:10A2F000CDF82090204609950DA90A9347F0005704
:10A3000048F00053CDF82C900C93CDF834A0CDF844
:10A3100038900F9729F053FB20460AA929F04FFBEC
:10A32000204607A929F04BFB259B204610A946F0A3
:10A330000056CDF840B0CDF8449012951393CDF867
:10A340005090159629F045FB204613A929F041FBB2
:10A350002046FFF71DFE17B0BDE8F08F259B53B1D7
:10A36000BAF1000F07D0B8F1000F01D0219B13B153
:10A37000B5B9022E20D12120EDE7239B002BFAD086
:10A38000BBF1000FF7D0C7F10F03DBB2032B3FF691
:10A3900068AF0122DB0002FA03F3AB42EBD9E8E736
:10A3A000239B002BE7D0BBF1000FE4D0C7F10F03D4
:10A3B000DBB2032BDDD8ECE7102E7FF652AFDAE7E5
:10A3C000FFFF0320000005042DE9F04F99B08846F7
:10A3D00015469B460446229FDDF89890289E60B162
:10A3E00059B1279B4BB1BBF1000F06D0249B0BB199
:10A3F000239B13B11DB9022E13D121239AE0259B73
:10A40000002BFAD0B9F1000FF7D0C7F10F03DBB280
:10A41000032BF0D80122DB0002FA03F3AB42ECD9A4
:10A42000E9E7731E0F2BE8D816F0010AE5D1FB1FF0
:10A43000062BE2D8414B09EB05029A42DDD8404B8E
:10A440004046C4E9003AC4F808A0C4F81CA015A905
:10A4500029F07FFC034600286CD12046159929F08D
:10A46000C2FA204646EA074129F0BDFA204624995F
:10A4700029F0B9FA2946204629F0B5FA404603A941
:10A4800000F0CAF80346002854D1204603A929F059
:10A4900096FA404606A929F05BFD0346002849D1FB
:10A4A0004FF00108204606A929F089FA259B20468D
:10A4B000099345F00053CDF8288001930B93239B1B
:10A4C0000FA90C93249B47F0005743F00052CDF89E
:10A4D00034800E92CDF83CB0CDF84080119729F031
:10A4E0006EFA20460CA929F06AFA204609A929F03B
:10A4F00066FA019B204612A9CDF84890CDF84C8011
:10A50000149329F066FA279B204615A946F00056B9
:10A510001593CDF85880179629F051FA2046FFF789
:10A5200037FD034630B101902A465146484632F085
:10A5300004FC019B184619B0BDE8F08FFFFF032013
:10A54000000006042DE9FF474FF000080E461746AD
:10A550000446CDF80080002859D022B900252846AD
:10A5600004B0BDE8F087002951D032F0030902F0B1
:10A57000030A1FD04FF0E063C0E9003801230191C6
:10A58000C0F808800293C0F81C8049F0005301A96C
:10A59000039329F01EFA4946204629F024FA204662
:10A5A000FFF7F6FC054628B14A464146304632F0F0
:10A5B000C4FBD4E7BAF1000FD0D04FF000084FF041
:10A5C000E063C4E900380123CDF804D00293114BB5
:10A5D000204601A9C4F80880C4F81C80039329F020
:10A5E000F8F90421204629F0FEF92046FFF7D0FCB7
:10A5F000054608B13A46D8E7009A4E44EB000135CB
:10A6000022FA03F3AA4506F8013BF7D1A6E7212574
:10A61000A5E700BF0400002090B189B101234B6081
:10A62000C368013B012B08D88269064B1AB10A6046
:10A6300000208B607047044AF9E74FF00053F7E7BA
:10A640002120704708000020F4260408012300F0B0
:10A650001F02A0F506200949A0F55060400993406B
:10A6600051F820201A4341F82020054951F82020B4
:10A6700022EA030241F82020704700BF6C29002025
:10A680004C2900200122A0F506230D49A3F55063B3
:10A690005B0900F01F00824051F82300024341F89B
:10A6A000232000231946074A52F8040B0133082BD4
:10A6B0000144F9D119B92022014832F03EBB70475C
:10A6C0004C2900206C2900202DE9F04FA9B00392FD
:10A6D0001E4604460822339FCDE90401414021FA79
:10A6E00002F34B40980702F1080218BF9B00202A92
:10A6F0001C44F4D1744BE4B21B7804F5062404F531
:10A700005064002B3ED1FDF7B9FD054620B16FF036
:10A71000910029B0BDE8F08F0146402208A832F030
:10A720000CFB4022294618A832F007FBDFF8B48161
:10A73000DFF8B491C3460BF10F0ACDF800A05B46D9
:10A740001022D9F8000008A92EF0BDFE0023024611
:10A7500008F1100808AD9A423DD1CDF800A05B4643
:10A760001022D9F8000018A92EF0B6FE4FF0000A0A
:10A77000834618ADD34538D1544B9845DAD10122E0
:10A78000514B1A704FF480780025DFF860B1A4F5C2
:10A790000623A3F5506252095BF8221004F01F0053
:10A7A000C140C90734D44A4951F82220C240D207D7
:10A7B00022D5A3F6FF43DBB2002D08BF254603F5E3
:10A7C0000624B8F1010804F55064E0D1039BABB155
:10A7D000A5B12C4618E055F8040BCDE90623FFF788
:10A7E00035FF079B069A0133B5E755F8040BFFF7D1
:10A7F00049FF0AF1010ABDE7039B13B96FF08B0013
:10A8000087E7002D18BF2C46349B00201C6080E792
:10A81000329B13B10023329A13600FB100233B60C7
:10A820004FF0100ADFF8C090CDF800A000233246A8
:10A830002146D9F8000010F0D5FB58BB3299326898
:10A84000244BC1B99A4206D02146D9F8000010F035
:10A8500031FD0028D2D1D6E90223DDE9041083427C
:10A8600008BF8A4226D0A4F50624A4F6FF44E4B229
:10A8700004F50624A5E732999A42C1F800A0E3D175
:10A88000002FE8D03B462146D9F8000018AA10F066
:10A89000CDFC48B1104B9842D6D0104B9842D3D043
:10A8A0000F4B9842D7D032E7329A3B6812689B1A16
:10A8B0003B60D0E7039B002BA6D07368012BA3D18C
:10A8C0006FF0840025E700BF1B4B002000710800DB
:10A8D0004C290020105D175EFFDF00F011E000F052
:10A8E000FEDF00F0006D0800181100206C29002028
:10A8F0002DE9F04F87B08246894698461646DDF826
:10A9000040B02AB1002B4FD040F26C739A424ED81F
:10A91000BBF1010F4ED8002406F110073946012083
:10A9200005942DF013FA0546002846D021463A46F4
:10A9300032F003FA05ABCDE9014300942B46012226
:10A9400050464946FFF7C0FE044680B110F18C0F17
:10A9500008BF6FF08D043A460021284632F0EDF929
:10A9600028462DF003FA204607B0BDE8F08F144BBF
:10A97000C5E902A92B60C5F804B02EB132464146A4
:10A9800005F1100032F0FFF9059E0E483B462A46BD
:10A990003146006810F08EFA18B93046FFF756FEBF
:10A9A000D9E76FF09104D6E76FF08604DBE76FF02C
:10A9B0009104D8E76FF08504D5E76FF08C04D2E7F7
:10A9C000105D175E181100202DE9F0438DB081460F
:10A9D000DDE914780E4615461C469BB1B8F1000F10
:10A9E00005D16FF0860630460DB0BDE8F083002F2C
:10A9F000F7D0B7F1005FF4D3C3F1005303F5802320
:10AA00009F42EED81022002108A832F096F90022C9
:10AA100007AB029305AB019306AB31460093484662
:10AA200008ABCDE90522FFF74FFE06460028DAD134
:10AA3000059BA4B1AB4215D853EA0504D1D1069BBE
:10AA40000B48C8F8004000943A46079900682B4428
:10AA500010F0C8FA002818BF6FF09106C3E7AB42A8
:10AA6000EDD2BEE75B1B9C4228BF1C46E7E700BF58
:10AA70001811002030B58DB00C460546102200217B
:10AA800008A832F05AF9002207AB029305AB0193F4
:10AA900006AB21460093284608ABCDE90522FFF717
:10AAA00013FE0446D8B9099B012B1BD0079D104B00
:10AAB0002946186810F0FEFBB8B90122A5F5062357
:10AAC0000C49A3F550635B0905F01F00824051F863
:10AAD00023004240284641F82320FFF7D3FD2046BB
:10AAE0000DB030BD6FF08404F9E76FF09104F6E724
:10AAF000181100206C29002030B5048804F4E043CC
:10AB0000B3F5005F2ED1C4F30223042B2AD181F0C8
:10AB1000AA6383F4807333F47E132AD081F0AA638E
:10AB200083F4007333F47E1323D00023144D21F4F7
:10AB30007E11A9421AD1B4F5105F17D1418821F0D6
:10AB40004000802802D0B1F5807F15D1191F0C2953
:10AB500012D8DB0710D4073A072A34BF00206FF061
:10AB6000860030BD42F204039C42DED16FF08500C6
:10AB7000F7E7C1F30543D9E76FF08600F1E700BFBF
:10AB8000000140052DE9F04F9BB08146DDE92876B4
:10AB90001D468B46DDF8A880DDF8BCA0099241B1C6
:10ABA00038B1249B2BB1269B0BB9279B0BB91FB93E
:10ABB0004EB16FF086047FE02EB1B8F1000FF8D0EF
:10ABC0002B9B002BF5D02C9B002BF2D0BAF1000F61
:10ABD000EFD02E9B002BECD02D9B002BE9D0B9F8A9
:10ABE000003003F4E042B2F5005F69D1C3F3022202
:10ABF000042A65D185F0AA6383F4807333F47E134D
:10AC000006D085F0AA6383F4007333F47E1360D119
:10AC1000C5F3054329464846259ACAF80030FFF790
:10AC20006BFF0446002847D1014620220AA832F0D3
:10AC300084F82022214612A832F07FF80AA828F0D2
:10AC4000BAFF002855D159464846099A12AB00F080
:10AC5000C3FA044600282FD12B9B9E424CD8DAF829
:10AC600000302E9A934247D8474508D2BB199845E1
:10AC700005D239463246404632F045F84746204B29
:10AC800025F47E159D4226D1DAF80030324606932F
:10AC90002D9B0397CDE90483279B12A90293269B42
:10ACA0000AA80193259B0093249BFFF7B7FA21285C
:10ACB00019D0D8B92C9B1E6020461BB0BDE8F08F80
:10ACC00042F20402934204D185F0052383F48013F9
:10ACD0009BE700239EE76FF0880400232C9A136003
:10ACE000CAF80030E8E76FF08604F6E76FF09204E8
:10ACF000F3E76FF09204DFE76FF08904DCE700BF51
:10AD0000000140052DE9F04F99B08A46DDE926653E
:10AD10009346984681462A9F28B96FF086042046BC
:10AD200019B0BDE8F08F0029F7D0229B002BF4D09A
:10AD3000249B13B9259B002BEFD10EB9002DECD12C
:10AD400017B92B9B002BE8D12C9B002BE5D0289B1F
:10AD5000002BE2D041464846239AFFF7CDFE044639
:10AD60000028DCD1202201460DEB020031F0E5FF86
:10AD70002022214610A831F0E0FF08A828F01BFF90
:10AD800010B16FF09204CAE75A465146484610ABDC
:10AD900000F022FA04460028C1D12B9B9D422AD8FC
:10ADA000BE4208D273199F4205D231462A46384620
:10ADB00031F0A9FF3E46144B28F47E1898451DD16A
:10ADC000299B2A460693289B0396CDE90473259B6D
:10ADD00010A90293249B08A80193239B0093229B14
:10ADE000FFF7F2FA212898D02C280AD00028C8D1E1
:10ADF0002C9B1D6093E76FF0890490E76FF0880447
:10AE00008DE76FF094048AE700014005084B9842F3
:10AE100002D0084B984207D10B88B3F5105F0CBFE6
:10AE200000206FF0850070476FF08500704700BF0D
:10AE3000004440040013C0042DE9F04F994600235C
:10AE4000A3B09346DDE92E74DDE93068CDE9063321
:10AE5000CDE90833CDE90A33CDE90C33DDF8C8A0DC
:10AE60000490059129B96FF08605284623B0BDE806
:10AE7000F08F002AF7D00FB9002CF4D12C9B13B916
:10AE80002D9B002BEFD116B9B8F1000FEBD1BAF121
:10AE9000000FE8D048460499FFF7B8FF05460028A0
:10AEA000E3D10146202212A831F047FF2022294693
:10AEB0001AA831F042FF12A828F07DFE002878D1B0
:10AEC000DDE904015A461AAB00F086F90546002870
:10AED000CBD11A9829F018FA05460028C5D114B923
:10AEE000CAF80000C1E7B7420AD23B199E4207D216
:10AEF0004445B8D839462246304631F004FF37463B
:10AF00004E4B994558D003F54073994515D04C4B9D
:10AF1000994540F08C804445A5D814F00F02A2D189
:10AF20002346CDE900761AA912A8FFF751F8074683
:10AF3000002834D1CAF8004097E700234445CDE902
:10AF40000E33CDE910338ED82D9B0D2B8BD10123E1
:10AF50008DF838302C9B0DF1390203F10C0153F8B8
:10AF6000040B8B4242F8040BF9D11B7813700123B8
:10AF70008DF8473014F00F0933D10F2CDAD906AB16
:10AF800001930EABCDE90276009324F00F0200236B
:10AF90001AA912A8FFF774F80746002843D04246C2
:10AFA0000021304631F0C9FE0023012FCAF80030DD
:10AFB00040D06FF0920558E744453FF654AF2D9BC3
:10AFC000102B7FF450AF2C9B0DF1380C03F1100EB9
:10AFD000624618685968083303C273459446F7D12E
:10AFE000C8E724F00F033B440DF1280C03F1100EC9
:10AFF000624618685968083303C273459446F7D10E
:10B000000F2CBCD824F00F03334403930AAB0293F4
:10B0100006AB01930EAB00934A4600231AA912A86F
:10B02000FFF72EF883E7B9F1000F83D0EAE76FF05E
:10B0300085051AE76FF08B0517E700BF0010C00405
:10B04000004440042DE9F04F994600239FB09346F9
:10B05000DDE92865DDE92A788A46CDE90633CDE9C0
:10B060000833CDE90A33CDE90C33059029B96FF0E7
:10B07000860420461FB0BDE8F08F002AF7D00EB935
:10B08000002DF4D117B9B8F1000FF0D12C9B002B93
:10B09000EDD048460599FFF7B9FE04460028E8D1EF
:10B0A000014620220EA831F048FE2022214616A893
:10B0B00031F043FE0EA828F07EFD002844D15A4608
:10B0C0005146059816AB00F087F804460028D0D109
:10B0D000169829F019F904460028CAD115B92C9BF5
:10B0E0001860C6E7BE420AD273199F4207D245458F
:10B0F000BDD831462A46384631F005FE3E46344B2F
:10B10000994549D003F54073994520D0314B994575
:10B1100054D1454555D82B07A9D12B460122CDE95D
:10B12000006716A90EA8FEF753FF2C9B06461D606C
:10B1300000289ED042460021384631F0FEFD002313
:10B140002C9A012E13603FD06FF0920491E70D3DD1
:10B15000454536D801238DF8283033460DF12902B4
:10B1600006F10C0153F8040B8B4242F8040BF9D1A1
:10B170001B780D3613704FF48073ADF8363006AB84
:10B1800001930AAB00932A460023CDE9026716A972
:10B190000EA8FEF775FFC8E7103D454511D83346A8
:10B1A0000DF1280C06F1100E624618685968083334
:10B1B00003C273459446F7D11036E0E76FF085047B
:10B1C00057E76FF0890454E76FF08B0451E700BF35
:10B1D0000010C00400444004F0B5164600221C468E
:10B1E00043688DB01B0A07460D46009204D0012B20
:10B1F00038D06FF08B0071E022463146009629F07E
:10B20000AAF800286AD1F31CC4E9030523F003035C
:10B210006361002E00F0A3802022002101A831F0FC
:10B220008CFD3146384601AA29F095F8002840F0F7
:10B2300096802368019A9A4240F091806368029A4E
:10B240009A4240F08C80A368039A9A4240F087802B
:10B25000A369079A9A4240F08280E369089A9A4269
:10B260003CD07CE0032E7FD90B78012B40F0878007
:10B27000497800294BD0F7390829BAD801A353F8E7
:10B2800021F000BFEBB20008A9B20008F3B100083A
:10B29000E1B20008F3B1000805B30008F3B10008FB
:10B2A000F5B20008FDB200084FF41056F825354FEE
:10B2B0001C22002102A831F040FD03230197CDE9B3
:10B2C0000435039601AA09AD134603CBAB422060B7
:10B2D00061601A4604F10804F6D100200DB0F0BDFB
:10B2E00010274FF08076FA25E2E720274FF000760E
:10B2F000F725DDE7FE25234F234ED9E7FF25214F14
:10B30000224ED5E74FF41056FC251E4FD0E72B2ECA
:10B310002AD92022204631F010FD05F110032361C7
:10B32000AB070DD001AB05F1280C1A4628686968F7
:10B33000083503C265451346F7D1286801AD106092
:10B340006B68103E2360AB6869466360EB6820461B
:10B35000A36001236661E36028F03CFC38B1202241
:10B360000021204631F0E9FC6FF08600B6E7009E30
:10B37000626906F11C039A42BFF44BAFEFE76FF02E
:10B380009100ABE72000008000440002004400036D
:10B3900010B54FF42F720021044631F0CEFC80230B
:10B3A000C4F88C30054B04F19C00C4F884300123B0
:10B3B00084F88830BDE8104028F035B9FC26040830
:10B3C00010B5D0F8A0400A4684B929F027FB0446FE
:10B3D00010B90024204610BD2D2896BF064B074902
:10B3E00053F82010064829F05FFCF3E7D0F8A410CA
:10B3F0001046A047EDE700BFA82704080627040869
:10B40000544F0408F8B590F88060044616B1002641
:10B410003046F8BD29F035F90028F8D1012384F829
:10B42000803094F8883033B1D4F88410194884F807
:10B43000886029F039FC4FF0FF37D4F8B402421C81
:10B440001CD0C4F8B47210F0FF0520D0204629F0BB
:10B4500015F92946204600F0AFFB0028EDD0204624
:10B4600029F01AF994F888306BB1D4F8841009489F
:10B4700029F01AFC002384F8883004E029F0F9FB55
:10B48000431CE0D10126002384F88030C0E7012668
:10B49000D3E700BFEB4B0408F8B50B780446302B1C
:10B4A0000D46164604D14B7803F0DF03582B11D01C
:10B4B000284F6A1E12F8011F002934D128460A229B
:10B4C00027F08CFD202C03460D4631D1B1FA81F0D6
:10B4D00040091AE04A1C1F4912F8013F8BB928465F
:10B4E00031F05EFC1C4B02382340032B12D1013497
:10B4F000A41084420AD1A87837288CBF00200120EC
:10B5000003E0CB5C13F04400E6D1F8BDCCBF0120D2
:10B510000020FAE7002CB8BF0334B0EBA40FD4BF6F
:10B5200001200020F1E77B5C13F00400C2D1ECE7BE
:10B5300026B1084302D0013B61F100050122A2407F
:10B54000013A1A40002D08BF9A420CBF012000208A
:10B55000DBE700BF7BBC040803000080F0B5037884
:10B5600001467B2B17D10646022400220B4F16F80A
:10B57000015F7D2D05D10B5D6BB9D24302F0010057
:10B5800008E07B5D13F0440002D001320134EEE7A5
:10B59000202DFBD0F0BD0020FCE700BF7BBC0408E1
:10B5A00070B506460D4631F0FBFB0446304629F0E7
:10B5B0007BFB044EAC4200D370BD304629F074FBD7
:10B5C0000134F7E7084304082DE9F84F0446022147
:10B5D0006048FFF7E5FF1E212068FFF7E1FF636881
:10B5E000586829F061FB5C4829F05EFB67683B7B8B
:10B5F000FD2B12D8D7F808804FF0FF34404631F0C9
:10B60000CFFB0646DFF84C91DFF8A8A1DFF864B164
:10B610000C3717F8013BFF2B01D1BDE8F88F212B28
:10B6200014D8212B14D8DFE803F0178C8884807C91
:10B6300078741313131313131313706C6864605C22
:10B6400058541313131313131313504CFE2B34D0ED
:10B6500006B10134414D02E006B10134404D0221F2
:10B660004846FFF79DFF1E214846FFF799FF5046C9
:10B6700029F01AFB5946284631F07BFB394900284E
:10B6800018BF2946384829F00FFB3B78202B02D100
:10B690002B2029F0FDFA354829F006FB4EB118F8A9
:10B6A00004301F2B05D018F804001F2801D0B44225
:10B6B0004BDB294829F0F8FAABE706B101342C4DF1
:10B6C000CDE706B101342B4DC9E7002EA1D00134DE
:10B6D0009FE706B10134284DC1E706B10134274D7B
:10B6E000BDE706B10134264DB9E706B10134254D59
:10B6F000B5E706B10134244DB1E706B10134234D5D
:10B70000ADE706B10134224DA9E706B10134214D60
:10B71000A5E706B10134204DA1E706B101341F4D64
:10B720009DE706B101341E4D99E706B101341D4D68
:10B7300095E706B101341C4D91E706B101341B4D6C
:10B740008DE706B101341A4D89E729F0A1FA0134D9
:10B75000A9E700BFD7280408062D04086D280408AF
:10B7600067280408BE280408EB4B0408963D04082B
:10B77000DCD00308752804087E28040885280408FE
:10B78000902804089A280408A42804088F2804088C
:10B7900099280408A3280408AC280408B028040841
:10B7A000B82804086128040868280408B728040891
:10B7B00060280408655304082DE9F04F9BB0054646
:10B7C0008B4600240092049331F0EAFA249F049BF4
:10B7D00005901C6028463C600AAA09A929F085FA50
:10B7E000064658B90A9831F0DBFA3446B146049B54
:10B7F0001860D5F89C300393039B1BB920461BB0FF
:10B80000BDE8F08F039B9B680193002B69D02E4409
:10B8100016F8013B202B12D000260C237343019A0B
:10B8200002EB030AD3580293002B55D0DDF8248095
:10B83000C84551DB9AF808302BB1721C35E03B68E3
:10B8400001333B60E4E73B68D5F894200299D21AB3
:10B85000049B1A601AAB03EB890353F8403C18466B
:10B86000069331F072FA07900028E6D1029831F081
:10B8700097FADAF804100346087BD7F800A0FE28F0
:10B88000079A16D108F1FF38C8452ED00B680698E4
:10B890000292019331F084FA0AF10103029A0344FF
:10B8A000E95C21B13B6009F101091646B5E70133B6
:10B8B000F6E7D5F89420A2EB0A029A42BDDC58467E
:10B8C000069331F06DFA069B03447B2B1DD9584635
:10B8D0001E4A009927F0E0FE2B46059A2A449A4218
:10B8E0002AD1039B1B68039386E7D5F89420A2EB2B
:10B8F0000A029A42E3DDD1F8008058F80C2B82B995
:10B90000059B3B60049B1A60E6E75846029A009943
:10B9100027F0C2FE58460E4A0099013427F0BCFEBB
:10B920008BE75846009927F0B7FE5846084A009919
:10B9300027F0B2FE0134E0E713F8011B0029CED155
:10B940004FF0200103F8011CC9E700BFC02804081C
:10B95000084304082DE9F047002486B01C60DDE9A7
:10B960000EA8064689468AF800401168154888F8EE
:10B97000004017461D468DF81740FBF799FF18B990
:10B9800001242B6801332B600020D6F89C6036B967
:10B9900014B1012388F8003006B0BDE8F087B06824
:10B9A00068B14B460021CDE902A8CDE900750DF143
:10B9B000170228F0D2FF9DF81730002BE8D1366827
:10B9C000E5E700BFC52804082DE9F043002604463A
:10B9D000ADF5457D7C22314605A802AF049631F0D5
:10B9E000ACF980222046009703AB04A9FFF7E4FEE0
:10B9F00001283ED104A831F0D3F903993B68A0EBAC
:10BA000001080B44234428EAE878054604A80144C9
:10BA10004246184631F0B7F900F80860D4F8906053
:10BA2000039B3968D4F890201944B14212DCD4F851
:10BA30009410E81A0244C4F89020014404AAC4F8FF
:10BA40009410D41825182B1B002B0DDC0DF5457D0B
:10BA5000BDE8F083A05C29F01BF9D4F890300136E2
:10BA60000133C4F89030DBE714F8010B29F010F92A
:10BA7000E9E7EBDD24AD80223146284631F05DF95F
:10BA800044AB4FF400723146184631F056F90DF1CF
:10BA9000100903464A464FF00108314612F8016B7F
:10BAA000002E49D104A843F8281031F079F929462D
:10BAB000334619F8016B0DF5887C5CF8042B824243
:10BAC00043D10133984501F8016BF2DAD4F8906064
:10BAD000039BB34242DC2346354A04A9354829F08A
